:100000000C9449010C9471010C9471010C947101D0
:100010000C9471010C9471010C9471010C94710198
:100020000C9471010C9471010C9471010C94710188
:100030000C9471010C9471010C9471010C94710178
:100040000C94930F0C9471010C94F1120C942313E3
:100050000C9471010C9471010C9471010C94710158
:100060000C94D7020C947101E7060207260741079A
:1000700077075C0792078009800980098009800959
:100080008009800980098009D407EC07C507140896
:10009000A6085D083509E9088009800980098009FA
:1000A000AC0773746174655F6F665F616C6C5F63EE
:1000B00068616E6E656C73282900687474703A2FDD
:1000C0002F6D6963726F666C7569646963732E75F1
:1000D000746F726F6E746F2E63612F64726F7062D3
:1000E0006F7400302E342E3000322E3100485620EE
:1000F000537769746368696E6720426F6172640048
:10010000576865656C6572204D6963726F666C75C2
:100110006964696373204C616200302E3100457858
:1001200074656E73696F6E206D6F64756C65207099
:10013000726F746F636F6C006932635F61646472C5
:100140006573733D0073657269616C5F6E756D6296
:1001500065723D004572726F7220007365745F7046
:10016000726F6772616D6D696E675F6D6F64652830
:10017000007365745F73657269616C5F6E756D6243
:10018000657228007365745F6932635F61646472CD
:100190006573732800636F6E66696728290072654E
:1001A0007365745F636F6E66696728290070726F8C
:1001B0006772616D6D696E675F6D6F64653D007339
:1001C0007570706F7274735F4953503D66616C73E4
:1001D0006500737570706F7274735F4953503D742E
:1001E0007275650073657269616C5F6E756D6265CD
:1001F000723D0070726F6772616D6D696E675F6DE1
:100200006F64653D006932635F6164647265737336
:100210003D00626173655F636F6E6669675F7665F7
:100220007273696F6E3D004669726D776172652009
:10023000760000000008000201000003040700002F
:1002400000000000000001020408102040800102AC
:10025000040810200102040810200404040404040B
:100260000404020202020202030303030303000068
:1002700000002300260029000000000025002800BF
:100280002B0000000000240027002A007E02F50554
:10029000531311241FBECFEFD8E0DEBFCDBF11E056
:1002A000A0E0B1E0EAEBF2E302C005900D92A23BC0
:1002B000B107D9F724E0A2EBB1E001C01D92AC3147
:1002C000B207E1F712E0C2E9D2E004C02297FE01D2
:1002D0000E942B16CC38D107C9F70E9482010C94DA
:1002E0005B190C9400000895E0917502F09176027C
:1002F0000280F381E02D85E792E0099485E792E0A2
:100300000C94F4040E9434100E9473010E947E0138
:10031000C9EDD1E10E9474012097E1F30E94D91147
:10032000F9CF8091E50190E02091E601821B9109CF
:1003300008952091E6018091E501281750F4E22FFD
:10034000F0E0E951FE4F808190E02F5F2093E601BD
:1003500008958FEF9FEF0895E091E6018091E50108
:10036000E81730F4F0E0E951FE4F808190E0089505
:100370008FEF9FEF08950895E091BE01F091BF01C6
:100380003097E1F03091E6012091E5013217B0F0AD
:1003900040E0242F30E02617370754F4DC01A20F89
:1003A000B31F5C91D901A951BE4F5C934F5FF1CF50
:1003B0001092E6016093E501CB0109940895E09164
:1003C000C001F091C101309729F01092C401109240
:1003D000C30109940895CF92DF92EF92FF920F9399
:1003E0001F93CF93DF937C01CB018A012091C2013F
:1003F000222389F0EB016B01C40ED51ECC15DD055F
:1004000069F06991D701ED91FC910190F081E02DA7
:10041000C7010995F3CF642F0E94A402C801DF91A0
:10042000CF911F910F91FF90EF90DF90CF900895A3
:10043000CF93DF931F92CDB7DEB769832091C201BE
:100440002223D1F02091C301203240F021E030E09E
:10045000FC013383228380E090E015C08091C401C9
:10046000E82FF0E0EB53FE4F998190838F5F8093EC
:10047000C4018093C30105C061E0CE0101960E94D2
:10048000A40281E090E00F90DF91CF910895FC01EC
:100490001382128248EE53E060E070E0448355839B
:1004A000668377838BE091E0918380830895109237
:1004B000E6011092E5011092C4011092C3010C9460
:1004C0008202CF93DF93EC01862F0E94A0028FED72
:1004D00091E00E94C2028CEB91E00E94BD02CE012D
:1004E000DF91CF910C9457027093BF016093BE01CE
:1004F00008957093C1016093C001089582EB91E06B
:100500000C9447021092740281E080937202109260
:10051000710261E082E10E944D1161E083E10E947D
:100520004D11E9EBF0E080818E7F808380818D7FAB
:10053000808388E48093B80085E48093BC000895AC
:10054000880F8093BA000895613298F42091740264
:10055000243089F460932902FC018BE292E0DC01F3
:100560002A2F281B261718F421912D93F9CF80E00C
:10057000089581E0089582E0089590936E0280933B
:100580006D0208959093700280936F02089585ED37
:100590008093BC008091BC0084FDFCCF109274025B
:1005A000089585EC8093BC001092740208951F9208
:1005B0000F920FB60F9211242F933F934F935F9397
:1005C0006F937F938F939F93AF93BF93EF93FF931B
:1005D0008091B900887F803609F49EC078F5883212
:1005E00009F45DC090F4803109F456C038F48823D2
:1005F00009F4F5C0883009F44FC0F5C0883109F41A
:100600004EC0803209F45FC0EEC0803409F46AC085
:1006100058F4803309F457C0883309F0E4C080935C
:1006200007020E94D102DFC0803509F44FC088352F
:1006300009F45DC0883409F0D6C0D3C0883909F404
:10064000C4C0A8F4883709F467C038F4883609F4C0
:1006500063C0803709F460C0C6C0883809F4B5C0EB
:10066000803909F45FC0803809F0BDC05BC0803BB1
:1006700009F483C038F4803A09F466C0883A09F472
:100680007CC0B1C0803C09F4A4C0883C09F4A1C07E
:10069000883B09F487C0A7C08091730210C0909175
:1006A0004C0280914B02981770F5E0914C0281E06A
:1006B0008E0F80934C02F0E0E35BFD4F80818093CE
:1006C000BB0085EC83C0809307028BC0E0914C0295
:1006D00081E08E0F80934C028091BB00F0E0E35BE1
:1006E000FD4F808390914C0280914B026BC0E09152
:1006F0004C0281E08E0F80934C028091BB00F0E0B1
:10070000E35BFD4F80838091720281116AC081E0BA
:100710008093710284EA5EC083E080937402109239
:100720000802CFCF80910802803208F04EC0E091DD
:10073000080281E08E0F809308028091BB00F0E0F8
:10074000E75FFD4F8083BDCF0E94D10280910802F8
:10075000803230F4E0910802F0E0E75FFD4F108254
:100760006091080270E0E0916D02F0916E0289E004
:1007700092E009951092080236C084E080937402DA
:1007800010922A0210922902E0916F02F0917002F9
:10079000099580912902811105C081E08093290289
:1007A00010922B02E0912A0281E08E0F80932A02A0
:1007B000F0E0E55DFD4F80818093BB0090912A02BF
:1007C00080912902981708F47CCF85E88093BC00BB
:1007D0000AC085EC8093BC001092740204C0109291
:1007E00007020E94C702FF91EF91BF91AF919F91C5
:1007F0008F917F916F915F914F913F912F910F90CA
:100800000FBE0F901F90189581E00895EF92FF9210
:100810000F931F93CF93DF93CDB7DEB762970FB6D9
:10082000F894DEBF0FBECDBF7C010E94300E88233E
:1008300011F081E04CC062EA70E081EA92E00E942F
:100840003E1861EA72E0C7010E94900A8823F1F124
:1008500000E010E0F701E00FF11F4AE062A1CE01D5
:100860000D960E9427154AE0602FCE0107960E9440
:10087000271567E171E0CE0101960E94D914BE01EF
:10088000695F7F4FCE0101960E94D9156BE271E03E
:100890000E94EC15BE01635F7F4F0E94D915BC0119
:1008A0008BE793E00E94E613CE0101960E946B1441
:1008B000CE0107960E946B14CE010D960E946B1418
:1008C0000F5F1F4F0530110529F6B3CF80E0629608
:1008D0000FB6F894DEBF0FBECDBFDF91CF911F9151
:1008E0000F91FF90EF90089520916E0330916F0368
:1008F000F901EB5FFC4F80812F5F3F4F30936F0317
:1009000020936E030895CF93DF9390E0FC01E65AA5
:10091000FD4FA491B0E0AA0FBB1FA858BD4FFD0129
:10092000C591D49170E0FB01E65AFD4FA491B0E06F
:10093000AA0FBB1FA858BD4FFD01A591B491FC01A2
:10094000EA5BFD4F8491FB01EA5BFD4F6491562FFA
:100950005095782F709598E041111CC0388120FF88
:1009600002C0382B01C0372338833C91362B3C938F
:100970003C9135233C932695915081F710C0372345
:1009800038833C91362B3C933C9135233C93220F8A
:10099000915029F0388127FFF2CF382BF1CFDF912A
:1009A000CF9108950F931F93CF93DF938C0160E055
:1009B00083E00E944D11C0E0D0E0F801EC0FFD1F74
:1009C00026A1209541E064E085E00E948304219700
:1009D000CB3F8FEFD80789F761E083E0DF91CF91BC
:1009E0001F910F910C944D11CF93DF93EC010E9456
:1009F000FE0561E083E00E94141161E084E00E9442
:100A0000141161E085E00E94141161E088E00E9409
:100A1000141161E089E00E94141161E089E00E94F4
:100A20004D1160E088E00E944D1145E050E06FEF0D
:100A300070E0CE0182960E944E18CE01DF91CF91D8
:100A40000C94D204CF92DF92EF92FF920F931F93F8
:100A5000CF93DF931F92CDB7DEB76C0182E0F60132
:100A600080A330917003632F6F73331F3327331FBD
:100A700028EE260F253008F05AC010A210927103FC
:100A800080916A0390916B03009719F4622F70E0D4
:100A90000CC081309105D9F4022F10E00E9474043B
:100AA000F601E00FF11F87A3B801695D7F4F6C0D60
:100AB0007D1D41E050E0C6010F90DF91CF911F9165
:100AC0000F91FF90EF90DF90CF900C94640633234A
:100AD00009F1E22EF12C8E0D9F1D0697D8F480911E
:100AE0006A0390916B038E0D9F1D022F10E0081773
:100AF000190750F429830E947404F601E00FF11FD6
:100B000087A329812F5FEBCFBC016A5D7F4FCFCFD9
:100B100031112EC081E0F60180A30F90DF91CF91BB
:100B20001F910F91FF90EF90DF90CF900895685044
:100B3000653008F04EC0F60110A21092710380914A
:100B40006A0390916B03009721F470E06E5D7F4F14
:100B5000AECF81309105E1F6062F10E00E947404BB
:100B6000F601E00FF11F82A3B8016E5D7F4F1EC03A
:100B7000E62EF12C8E0D9F1D069760F680916A037C
:100B800090916B038E0D9F1D062F10E0081719071B
:100B900050F469830E947404F601E00FF11F82A3F0
:100BA00069816F5FEBCFBC016F5D7F4F6C0D7D1D69
:100BB00041E050E0C6010E946406C6010F90DF913B
:100BC000CF911F910F91FF90EF90DF90CF900C94F9
:100BD000D204C6010F90DF91CF911F910F91FF902A
:100BE000EF90DF90CF900C94C9061092960282E3AA
:100BF00091E090937602809375020895CF93DF93EE
:100C0000EC01E881F9810484F585E02D09958823BC
:100C100041F061E087E00E944D1161E087E00E94B1
:100C2000141126E040E052EC61E070E08BE793E0C5
:100C30000E948F12E881F9810088F189E02D60E03F
:100C4000CE010995E881F9810684F785E02DCE0172
:100C500009956AE07FE082EB91E00E9479026FEDF6
:100C60007EE082EB91E0DF91CF910C9474024EE133
:100C700050E060E070E002960C94FC18CB010C94FC
:100C8000F418CB01642F0C94061920916E03309157
:100C90006F03F901EB5FFC4F80812F5F3F4F309373
:100CA0006F0320936E03089520916E0330916F03BC
:100CB000F901EB5FFC4F808191812E5F3F4F3093B4
:100CC0006F0320936E030895CF9320916C033091AE
:100CD0006D03FB0180E090E0B9016B5F7C4F8417EE
:100CE000950739F0C191DB01A80FB91FCC9301968C
:100CF000F6CF820F931F90936D0380936C03CF9177
:100D000008950F931F93CF93DF93CDB7DEB72C9742
:100D10000FB6F894DEBF0FBECDBF8C01DC01199673
:100D20006C934AE0CE0107960E9427156DEA71E0A8
:100D300081EA92E00E943E1861EA72E0CE010196DB
:100D40000E94D914BE01695F7F4FCE0101960E94B7
:100D5000D915BC018BE793E00E94E613CE01019602
:100D60000E946B14CE0107960E946B14D801ED917E
:100D7000FC910288F389E02DC80109952C960FB6E5
:100D8000F894DEBF0FBECDBFDF91CF911F910F91C1
:100D90000895DF92EF92FF920F931F93CF93DF930B
:100DA000CDB7DEB766970FB6F894DEBF0FBECDBFE6
:100DB0008C014091700350E0FA01E058F109ED31E7
:100DC000F10508F09DC2EC5CFF4F0C942916809150
:100DD0006A0390916B03892B09F0DDC06EE171E02D
:100DE00085E093E00E943E18E5E0F3E0DF010D901E
:100DF0000020E9F7AD0141505109455053406EE1E3
:100E000071E01AC080916A0390916B03892B09F0FD
:100E1000C2C06AE171E085E093E00E943E18E5E01F
:100E2000F3E0DF010D900020E9F7AD0141505109D9
:100E3000455053406AE171E0CF014D8B5E8B0E94BB
:100E40003E184D895E8965E073E055C280916A0362
:100E500090916B03892B09F09EC06DEE70E085E0E8
:100E600093E00E943E18E5E0F3E0DF010D900020E2
:100E7000E9F7AD0141505109455053406DEE70E026
:100E8000DBCF80916A0390916B03892B09F083C0BB
:100E900060E071E085E093E00E943E18E5E0F3E059
:100EA000DF010D900020E9F7AD0141505109455097
:100EB000534060E071E0C0CF80916A0390916B0372
:100EC000892B09F068C063EE70E085E093E00E9432
:100ED0003E18E5E0F3E0DF010D900020E9F7AD01F9
:100EE000415051094550534063EE70E0A5CF8091C9
:100EF0006A0390916B03892B09F04DC069EE70E095
:100F000085E093E00E943E18E5E0F3E0DF010D90FC
:100F10000020E9F7AD01415051094550534069EEB9
:100F200070E08ACF80916A0390916B03892B99F5C9
:100F30006AEB70E085E093E00E943E18E5E0F3E0A4
:100F4000DF010D900020E9F7AD01415051094550F6
:100F500053406AEB70E070CFDC01ED91FC910484AA
:100F6000F585E02D09958823D9F080916A03909149
:100F70006B03019781F40E94450661E0811101C075
:100F800060E0C8010E948106B9C180916A03909116
:100F90006B030197B9F186E0D80190968C93B0C1AC
:100FA00081E0F80180A3ACC180916A0390916B034A
:100FB000029789F70E945406D801ED91FC910480B4
:100FC000F581E02DBC01C8010995898341E050E01D
:100FD000BE016F5F7F4F8FC180916A0390916B0359
:100FE0000397C9F60E9454067C010E944506D80169
:100FF000ED91FC910680F781E02D482FB701C801E3
:1010000009957CC1D80190961C920E944506D80192
:10101000ED91FC9161E0811101C060E00088F189EF
:10102000E02DC80109956CC180916A0390916B0312
:10103000029709F0B0CF0E944506F82E0E9445069F
:10104000E82E4AE0682FCE0101960E9427154AE05B
:101050006F2DCE010D960E94271566E471E0CE013A
:1010600007960E94D914BE01635F7F4FCE01079699
:101070000E94D9156FE471E00E94EC15BE016F5F0C
:101080007F4F0E94D9156CE871E00E94EC15BC01FD
:101090008BE793E00E94E613CE0107960E946B1443
:1010A000CE010D960E946B14CE0101960E946B1426
:1010B0006E2D8F2D0E94141121C180916A03909191
:1010C0006B03029709F067CF0E944506F82E0E9435
:1010D0004506E82E4AE0682FCE0101960E942715AA
:1010E0004AE06F2DCE010D960E94271562E571E052
:1010F000CE0107960E94D914BE01635F7F4FCE01D7
:1011000007960E94D9156FE471E00E94EC15BE01AC
:101110006F5F7F4F0E94D9156CE871E00E94EC155B
:10112000BC018BE793E00E94E613CE0107960E9474
:101130006B14CE010D960E946B14CE0101960E9495
:101140006B146E2D8F2D0E944D118BC080916A0300
:1011500090916B03019709F01ECF0E944506F82E6F
:101160000E9483118B8B4AE0682FCE0101960E946A
:1011700027154AE06F2DCE010D960E94271560E6D7
:1011800071E0CE0107960E94D914BE01635F7F4FC4
:10119000CE0107960E94D9156DE671E00E94EC150C
:1011A000BE016F5F7F4F0E94D915BC018BE793E0B2
:1011B0000E94E613CE0107960E946B14CE010D9695
:1011C0000E946B14CE0101960E946B1441E050E026
:1011D0008FC080916A0390916B03029709F0DBCE78
:1011E0000E944506D82E0E9454067C014AE0BC01AC
:1011F000CE0101960E9454154AE06D2DCE010D9648
:101200000E94271562E771E0CE0107960E94D9146B
:10121000BE01635F7F4FCE0107960E94D9156FE430
:1012200071E00E94EC15BE016F5F7F4F0E94D915DF
:101230006CE871E00E94EC15BC018BE793E00E9422
:10124000E613CE0107960E946B14CE010D960E9404
:101250006B14CE0101960E946B14B7018D2D0E9474
:101260008C10D80190961C924BC080916A0390918B
:101270006B03019709F08FCE0E944506F82E0E945D
:101280006F109C8B8B8B4AE0BC01CE0101960E94B3
:1012900054154AE06F2DCE010D960E9427156FE779
:1012A00071E0CE0107960E94D914BE01635F7F4FA3
:1012B000CE0107960E94D9156DE671E00E94EC15EB
:1012C000BE016F5F7F4F0E94D915BC018BE793E091
:1012D0000E94E613CE0107960E946B14CE010D9674
:1012E0000E946B14CE0101960E946B1442E050E004
:1012F000BE016D5E7F4FC8010E946406F80110A216
:1013000066960FB6F894DEBF0FBECDBFDF91CF91CA
:101310001F910F91FF90EF90DF900895FC01818560
:1013200081110CC061E083E10E94141160E083E14F
:101330000E944D1160E083E10C94141160E087E09D
:101340000E944D1161E087E00C944D117F928F92C5
:101350009F92AF92BF92CF92DF92EF92FF920F9344
:101360001F93CF93DF93EC01162F4EE150E060E026
:1013700070E002960E94E4188A819B81892BD1F447
:101380008C819D81892BB1F48E819F81892B91F471
:101390004FEF5FEFBA014A875B876C877D8781E0FB
:1013A00090E09F838E83E881F9810288F389E02DA4
:1013B000CE0109958A819B81892B01F58C819D81C4
:1013C000892BE1F48E819F810197C1F489E0FE01B0
:1013D0003E96DF01982F1D929A95E9F73996DF0125
:1013E0001D928A95E9F782E090E09F838E83E881E1
:1013F000F9810288F389E02DCE0109958A819B81CC
:10140000892B51F48C819D81892B31F48E819F81B0
:10141000029711F4112331F11B821A821D821C8262
:1014200082E090E09F838E838AE0888719864FEF61
:101430005FEFBA014A875B876C877D8789E0FE0191
:101440003E96DF01982F1D929A95E9F73996DF01B4
:101450001D928A95E9F7E881F9810288F389E02DE8
:10146000CE010995C12CD12CE12CF12CF3E0EF1623
:10147000F104C1F18C2C00E010E05E01AE0CBF1C49
:10148000C8018C0D9D1D44970CF5F501678970E02E
:10149000002E02C0759567950A94E2F7F62FF17059
:1014A0007F2ED5011E968C9190E0002E02C095955E
:1014B00087950A94E2F7682F6170982C900E892D19
:1014C0000E941411672D892D0E944D110F5F1F4F2F
:1014D00008301105A9F6BFEFEB1AFB0AE8E0CE0EC3
:1014E000D11CC4CFE881F9810484F585E02DCE01BB
:1014F0000995882319F0CE010E948E09688582EB38
:1015000091E0DF91CF911F910F91FF90EF90DF90CD
:10151000CF90BF90AF909F908F907F900C9461027E
:10152000CF93DF93EB016BE871E085E093E00E94DD
:101530007018BE01892B41F085E093E00E9460188D
:1015400021E0892B41F126C085E093E00E947018CC
:10155000009701F123E085309207E1F4FC0101904E
:101560000020E9F7329780818932A1F41082FE01D0
:1015700001900020E9F73197EC1BFD0B80916E0381
:1015800090916F038E0F9F1F90936F0380936E0354
:1015900021E001C020E0822FDF91CF910895CF9309
:1015A000DF93CDB7DEB72C970FB6F894DEBF0FBE32
:1015B000CDBF4AE0CE0107960E94271564E571E091
:1015C00081EA92E00E943E1861EA72E0CE01019643
:1015D0000E94D914BE01695F7F4FCE0101960E941F
:1015E000D915BC018BE793E00E94E613CE0101966A
:1015F0000E946B14CE0107960E946B142C960FB6B6
:10160000F894DEBF0FBECDBFDF91CF910895CF928A
:10161000DF92EF92FF920F931F93CF93DF937C01A2
:10162000EB018A01C0906E03D0906F03C6018B5FFF
:101630009C4F998388836CE270E00E945518F801F2
:1016400091838083A881B981009771F4FD01019095
:101650000020E9F73197EA1BFB0B2E2FAE0FB11DCF
:10166000F801B183A08304C09C012A1B3B0B2F5FB0
:10167000222341F0C20ED11CD0926F03C0926E03A0
:1016800081E005C068E0C7010E94CF0A80E0DF91D9
:10169000CF911F910F91FF90EF90DF90CF90089521
:1016A000AF92BF92CF92DF92EF92FF920F931F9370
:1016B000CF93DF9300D000D0CDB7DEB76B01EDB68E
:1016C000FEB6AE014F5F5F4FBE016D5F7F4F0E9460
:1016D000070B882379F16B817C8109811A81061BB4
:1016E000170BC80101962DB73EB7281B390B0FB653
:1016F000F8943EBF0FBE2DBF8DB79EB701965C011B
:10170000A8010E944518F501E00FF11F1082C501E4
:101710000E942018AA2797FDA095BA2FF601808372
:101720009183A283B3830FB6F894FEBE0FBEEDBEC5
:1017300081E001C080E00FB6F894FEBE0FBEEDBEA2
:101740000F900F900F900F90DF91CF911F910F91FD
:10175000FF90EF90DF90CF90BF90AF900895EF9201
:10176000FF920F931F93CF93DF93CDB7DEB76E97A2
:101770000FB6F894DEBF0FBECDBF7C01098F1A8F64
:101780002B8F3C8F4D8F5E8F6D8D7E8D4AE0CE010D
:1017900001960E9454156B8D7C8D4AE0CE01079610
:1017A0000E945415698D7A8D4AE0CE0143960E94BD
:1017B0005415BE016D5E7F4FCE010D960E94061539
:1017C0006EE871E0CE010D960E94EC15BE01695FD6
:1017D0007F4F0E94D9156EE871E00E94EC15BE01A2
:1017E0006F5F7F4F0E94D915BC01C7010E9406158B
:1017F000CE010D960E946B14CE0143960E946B148D
:10180000CE0107960E946B14CE0101960E946B14C4
:10181000C7016E960FB6F894DEBF0FBECDBFDF9145
:10182000CF911F910F91FF90EF900895CF93DF9389
:10183000CDB7DEB72C970FB6F894DEBF0FBECDBF85
:1018400046E050E060E070E0CE0107960E94E418A8
:1018500086E0FE013796DE01119601900D928A9581
:10186000E1F729813A814B815C816D817E8180E045
:1018700090E02C960FB6F894DEBF0FBECDBFDF917F
:10188000CF910895EF92FF920F931F93CF93DF9321
:10189000CDB7DEB762970FB6F894DEBF0FBECDBFEF
:1018A0007C0169EE70E085E093E00E943E1865E0FF
:1018B00073E0CE0101960E94D9146DEE70E085E0D0
:1018C00093E00E943E1865E073E0CE010D960E9401
:1018D000D914BE01635F7F4FCE0107960E940615A3
:1018E00060E971E0CE0107960E94EC15BE016F5FC2
:1018F0007F4F0E94D915BC018BE793E00E94E6134D
:10190000CE0107960E946B14CE010D960E946B14B7
:10191000CE0101960E946B1463EE70E085E093E0C7
:101920000E943E1865E073E0CE0107960E94D9142C
:1019300067E272E081EA92E00E943E1861EA72E09A
:10194000CE0101960E94D914BE01695F7F4FCE017E
:1019500001960E94D915BC018BE793E00E94E61323
:10196000CE0101960E946B14CE0107960E946B1463
:101970006AEB70E085E093E00E943E1865E073E05A
:101980008BE793E00E94F813C7010E94160C29838D
:101990003A834B835C836D837E8389019A01AB011B
:1019A000B701CE010D960E94AF0B62E172E081EAB1
:1019B00092E00E943E1861EA72E0CE0107960E9412
:1019C000D914BE01635F7F4FCE0107960E94D915DF
:1019D000BC018BE793E00E94E613CE0107960E94BC
:1019E0006B14CE010D960E946B144AE0D701189635
:1019F0006C91CE010D960E94271565E072E081EA98
:101A000092E00E943E1861EA72E0CE0107960E94C1
:101A1000D914BE01635F7F4FCE0107960E94D9158E
:101A2000BC018BE793E00E94E613CE0107960E946B
:101A30006B14CE010D960E946B144AE0F70161858C
:101A4000CE010D960E94271563EF71E081EA92E0C6
:101A50000E943E1861EA72E0CE0107960E94D914F6
:101A6000BE01635F7F4FCE0107960E94D915BC016E
:101A70008BE793E00E94E613CE0107960E946B1459
:101A8000CE010D960E946B14D7011A964D915D916F
:101A90006D917C911D972AE0CE010D960E948015D4
:101AA00064EE71E081EA92E00E943E1861EA72E021
:101AB000CE0107960E94D914BE01635F7F4FCE010D
:101AC00007960E94D915BC018BE793E00E94E613AC
:101AD000CE0107960E946B14CE010D960E946B14E6
:101AE000D701ED91FC910484F585E02DC70109959E
:101AF000882319F062ED71E002C06FEB71E081EABA
:101B000092E00E943E1861EA72E08BE793E00E9447
:101B1000F81362960FB6F894DEBF0FBECDBFDF910B
:101B2000CF911F910F91FF90EF9008950F931F9306
:101B3000CF93DF93CDB7DEB72C970FB6F894DEBF07
:101B40000FBECDBF8C01DC011A964D935D936D9352
:101B50007C931D972AE0CE0107960E94801565E4CC
:101B600071E081EA92E00E943E1861EA72E0CE01E3
:101B700001960E94D914BE01695F7F4FCE01019684
:101B80000E94D915BC018BE793E00E94E613CE01B9
:101B900001960E946B14CE0107960E946B14D80127
:101BA000ED91FC910288F389E02DC80109952C96EE
:101BB0000FB6F894DEBF0FBECDBFDF91CF911F915E
:101BC0000F9108950F931F93CF93DF93CDB7DEB797
:101BD0002C970FB6F894DEBF0FBECDBF8C01DC0191
:101BE00018966C9382EB91E00E9461024AE0F80142
:101BF0006085CE0107960E94271568E371E081EAAF
:101C000092E00E943E1861EA72E0CE0101960E94C5
:101C1000D914BE01695F7F4FCE0101960E94D9158C
:101C2000BC018BE793E00E94E613CE0101960E946F
:101C30006B14CE0107960E946B14D801ED91FC91B4
:101C40000288F389E02DC80109952C960FB6F89407
:101C5000DEBF0FBECDBFDF91CF911F910F910895D1
:101C60000F931F93CF93DF9300D000D01F92CDB777
:101C7000DEB78C016EE971E081EA92E00E943E18C5
:101C800061EA72E0C8010E94900A882351F0D801ED
:101C9000ED91FC910088F189E02D61E0C801099582
:101CA0000DC065E971E081EA92E00E943E1861EAA8
:101CB00072E0C8010E94900A882349F0D801ED9192
:101CC000FC910684F785E02DC801099536C064E8CB
:101CD00071E081EA92E00E943E1861EA72E0C80178
:101CE0000E94900A882369F0BE016F5F7F4FC80190
:101CF0000E94500B882309F16981C8010E94E20DFE
:101D00001CC061E771E081EA92E00E943E1861EA3E
:101D100072E0C8010E94900A882389F0BE016F5FBB
:101D20007F4FC8010E94500B882339F049815A81A6
:101D30006B817C81C8010E94960D21E035C0D801DD
:101D4000ED91FC910484F585E02DC8010995882367
:101D500071F06BE571E081EA92E00E943E1861EA61
:101D600072E0C8010E94900A282F811102C020E071
:101D70001BC0BE016F5F7F4FC8012D830E94500BB7
:101D80002D81882389F081E049815A816B817C8192
:101D900014161506160617060CF080E0682FC80109
:101DA0002D830E9481062D81822F0F900F900F901E
:101DB0000F900F90DF91CF911F910F9108950F9386
:101DC0001F93CF93DF93EC0182EB91E00E94990186
:101DD000809370032197D0936B03C0936A03C53639
:101DE000D10540F081E080936903DF91CF911F918D
:101DF0000F91089505E013E0C801855093408C17BA
:101E00009D0784F782EB91E00E949901F80181938C
:101E10008F01F2CF80917103882359F042E050E0A6
:101E20006CE673E082EB91E00E94EB01109271038B
:101E3000089540916C0350916D0365E073E082EB6F
:101E400091E00C94EB018BE793E00E94AC11892B9D
:101E5000A1F024E630E045E053E06AE08BE793E050
:101E60000E94381499278B5F9C4FFC0110821092BE
:101E70006F0310926E0381E0089580E00895CF9380
:101E8000DF93EC010E94230F882369F0E881F98138
:101E90000284F385E02DCE010995811104C062E032
:101EA000CE010E94CF0A809169038823C9F1109264
:101EB0006D0310926C0310926F0310926E0381E019
:101EC0008093710388A3E881F9810084F185E02D76
:101ED000CE01099580917103882341F041E050E0E3
:101EE000BE01605E7F4FCE010E94640610926903BE
:101EF000E881F9810484F585E02DCE0109958823D8
:101F000079F0809170038C3959F468EE73E080E0C9
:101F100090E00E940C10CE01DF91CF910C948E09BD
:101F2000DF91CF9108951F920F920FB60F92112457
:101F30002F933F938F939F93AF93BF93809173039E
:101F400090917403A0917503B09176033091720360
:101F500023E0230F2D3720F40196A11DB11D05C0EC
:101F600026E8230F0296A11DB11D209372038093D2
:101F7000730390937403A0937503B09376038091D9
:101F8000770390917803A0917903B0917A03019639
:101F9000A11DB11D8093770390937803A0937903DB
:101FA000B0937A03BF91AF919F918F913F912F9101
:101FB0000F900FBE0F901F9018952FB7F894609157
:101FC00073037091740380917503909176032FBF12
:101FD00008953FB7F8948091770390917803A0918A
:101FE0007903B0917A0326B5A89B05C02F3F19F05D
:101FF0000196A11DB11D3FBF6627782F892F9A2F0B
:10200000620F711D811D911D42E0660F771F881FB1
:10201000991F4A95D1F70895CF92DF92EF92FF92E0
:10202000CF93DF936B017C010E94E90FEB01C11498
:10203000D104E104F10489F00E9406160E94E90F20
:102040006C1B7D0B683E734090F381E0C81AD10889
:10205000E108F108C851DC4FEACFDF91CF91FF9042
:10206000EF90DF90CF900895789484B5826084BD1E
:1020700084B5816084BD85B5826085BD85B581608C
:1020800085BDEEE6F0E0808181608083E1E8F0E0EC
:102090001082808182608083808181608083E0E81B
:1020A000F0E0808181608083E1EBF0E080818460FA
:1020B0008083E0EBF0E0808181608083EAE7F0E0FC
:1020C0008081846080838081826080838081816060
:1020D00080838081806880831092C10008958E3053
:1020E00008F08E5087702091060190E4299F90019E
:1020F0001124822B80937C0080917A0080648093ED
:102100007A0080917A0086FDFCCF80917800209142
:10211000790090E0922B08951F93CF93DF93182FAF
:10212000EB0161E00E941411209711F460E004C0FB
:10213000CF3FD10539F461E0812FDF91CF911F911D
:102140000C944D11E12FF0E0EE5CFD4FE491E33093
:10215000F9F048F4E130B9F0E230A1F584B58062DD
:1021600084BDC8BD34C0E730E9F0E83019F1E4308F
:1021700049F580918000806280938000D0938B002D
:10218000C0938A0024C084B5806884BDC7BD1FC0C9
:1021900080918000806880938000D0938900C093F4
:1021A000880015C08091B00080688093B000C09313
:1021B000B3000DC08091B00080628093B000C093E6
:1021C000B40005C0C038D1050CF0B5CFAFCFDF915A
:1021D000CF911F910895833081F028F4813099F0D8
:1021E0008230A1F008958730A9F08830B9F08430AA
:1021F000D1F4809180008F7D03C0809180008F7723
:1022000080938000089584B58F7702C084B58F7D58
:1022100084BD08958091B0008F7703C08091B00095
:102220008F7D8093B0000895CF93DF9390E0FC0101
:10223000EA5BFD4F2491FC01E65AFD4F849188230F
:1022400049F190E0880F991FFC01EE57FD4FA591D1
:10225000B49188589D4FFC01C591D4919FB76111ED
:1022600008C0F8948C91209582238C9388818223D6
:102270000AC0623051F4F8948C91322F3095832348
:102280008C938881822B888304C0F8948C91822B54
:102290008C939FBFDF91CF9108950F931F93CF939E
:1022A000DF931F92CDB7DEB7282F30E0F901EE5C47
:1022B000FD4F8491F901EA5BFD4F1491F901E65A53
:1022C000FD4F04910023C9F0882321F069830E9407
:1022D000EB106981E02FF0E0EE0FFF1FE858FD4F93
:1022E000A591B4919FB7F8948C91611103C010959A
:1022F000812301C0812B8C939FBF0F90DF91CF91E1
:102300001F910F910895CF93DF93282F30E0F901AB
:10231000EE5CFD4F8491F901EA5BFD4FD491F90128
:10232000E65AFD4FC491CC2391F081110E94EB102D
:10233000EC2FF0E0EE0FFF1FE259FD4FA591B49195
:102340002C912D2381E090E021F480E002C080E018
:1023500090E0DF91CF910895FC01818D228D90E076
:10236000805C9F4F821B91098F7399270895FC0110
:10237000918D828D981731F0828DE80FF11D858D3A
:1023800090E008958FEF9FEF0895FC01918D828D6D
:10239000981761F0828DDF01A80FB11D5D968C91B9
:1023A000928D9F5F9F73928F90E008958FEF9FEFC4
:1023B000089589E493E1892B49F080E090E0892B2E
:1023C00029F00E94491381110C9400000895FC012A
:1023D000848DDF01A80FB11DA35ABF4F2C91848DAE
:1023E00090E001968F739927848FA689B7892C93E3
:1023F000A089B1898C9180648C93938D848D98137E
:1024000006C00288F389E02D80818F7D8083089546
:10241000CF93DF93EC01888D8823C9F0EA89FB898B
:10242000808185FD05C0A889B9898C9186FD0FC082
:102430000FB607FCF5CF808185FFF2CFA889B98957
:102440008C9185FFEDCFCE010E94E711E7CFDF91A0
:10245000CF910895CF92DF92FF920F931F93CF9366
:10246000DF931F92CDB7DEB76C0181E0D60158969D
:102470008C9358975B969C915B975C968C915C973C
:10248000981307C05096ED91FC915197808185FD7E
:102490002EC0F601038D10E00F5F1F4F0F73112741
:1024A000F02EF601848DF81211C00FB607FCF9CF9B
:1024B000D6015096ED91FC915197808185FFF1CF27
:1024C000C60169830E94E7116981EBCF838DE80F14
:1024D000F11DE35AFF4F6083D6015B960C935B9727
:1024E0005296ED91FC915397808180620CC0D60189
:1024F0005696ED91FC91579760835096ED91FC9123
:10250000519780818064808381E090E00F90DF911B
:10251000CF911F910F91FF90DF90CF900895BF92C0
:10252000CF92DF92EF92FF92CF93DF93EC016A019B
:102530007B01B22EE889F98982E08083411581EE22
:10254000580761057105A1F060E079E08DE390E046
:10255000A70196010E94071621503109410951092E
:102560005695479537952795211580E1380798F0BE
:10257000E889F989108260E874E88EE190E0A701AB
:1025800096010E94071621503109410951095695BB
:10259000479537952795EC85FD853083EE85FF853A
:1025A0002083188EEC89FD89B082EA89FB898081BD
:1025B00080618083EA89FB89808188608083EA89E1
:1025C000FB89808180688083EA89FB8980818F7D97
:1025D0008083DF91CF91FF90EF90DF90CF90BF90FD
:1025E00008951F920F920FB60F9211242F938F937D
:1025F0009F93EF93FF93E0918B03F0918C03808185
:10260000E0919103F091920382FD12C0908180913C
:1026100094038F5F8F7320919503821751F0E0919F
:102620009403F0E0E558FC4F958F8093940301C02C
:102630008081FF91EF919F918F912F910F900FBE0D
:102640000F901F9018951F920F920FB60F921124A2
:102650002F933F934F935F936F937F938F939F93AA
:10266000AF93BF93EF93FF938BE793E00E94E71143
:10267000FF91EF91BF91AF919F918F917F916F915A
:102680005F914F913F912F910F900FBE0F901F9030
:1026900018958BE793E00E94AC1121E0892B09F497
:1026A00020E0822F089510927E0310927D0388EE21
:1026B00093E0A0E0B0E080937F0390938003A09329
:1026C0008103B093820387E991E090937C03809328
:1026D0007B0385EC90E0909388038093870384ECE0
:1026E00090E090938A038093890380EC90E090932C
:1026F0008C0380938B0381EC90E090938E03809306
:102700008D0382EC90E09093900380938F0386EC8E
:1027100090E090939203809391031092940310920F
:10272000950310929603109297030895CF92DF922B
:10273000EF92FF920F931F93CF93DF937C016A0177
:10274000EB0100E010E00C151D0571F06991D70157
:10275000ED91FC910190F081E02DC7010995892B45
:1027600019F00F5F1F4FEFCFC801DF91CF911F917D
:102770000F91FF90EF90DF90CF9008956115710554
:1027800081F0DB010D900020E9F7AD0141505109C6
:10279000461B570BDC01ED91FC910280F381E02D8B
:1027A000099480E090E00895DC01ED91FC91DB015B
:1027B00014964D915C9115976D917C910280F381F7
:1027C000E02D099463EA71E00C94BE130F931F93FC
:1027D000CF93DF93EC010E94D4138C01CE010E94B1
:1027E000E213800F911FDF91CF911F910F910895F8
:1027F0000F931F93CF93DF93EC010E94BE138C01C4
:10280000CE010E94E213800F911FDF91CF911F91A3
:102810000F9108950F931F93CF93DF93EC010E94C4
:10282000DD0F688779878A879B87E881F981068031
:10283000F781E02DCE01099597FF15C00E94DD0FAD
:10284000088519852A853B85601B710B820B930BCC
:102850000C811D812E813F816017710782079307CC
:1028600020F38FEF9FEFDF91CF911F910F9108958C
:10287000AF92BF92CF92DF92EF92FF920F931F938E
:10288000CF93DF936C01790121153105A9F08A01FD
:10289000C0E0D0E0A62EB12CC6010E940A1497FD1C
:1028A0000EC08A159B0559F0F80181938F0121967E
:1028B000CE15DF0589F703C080E090E001C0CE01AE
:1028C000DF91CF911F910F91FF90EF90DF90CF900C
:1028D000BF90AF900895FC01808191810C94C71640
:1028E000CF93DF93EC0188819981009711F00E94CA
:1028F000C716198218821D821C821B821A82DF91E0
:10290000CF9108950F931F93CF93DF93EC018B0129
:102910006F5F7F4F888199810E945617009731F031
:10292000998388831B830A8381E001C080E0DF9163
:10293000CF911F910F910895CF93DF93EC01888180
:102940009981892B29F08A819B818617970760F4EA
:10295000CE010E948214882341F08C819D81892BB5
:1029600019F4E881F981108281E0DF91CF91089517
:10297000EF92FF920F931F93CF93DF93EC017B01B4
:102980008A01BA010E949C14811104C0CE010E94E8
:10299000701407C01D830C83B701888199810E9440
:1029A0006918CE01DF91CF911F910F91FF90EF90A9
:1029B0000895FC0111821082138212821582148202
:1029C0006115710559F0FB0101900020E9F7AF0195
:1029D00041505109461B570B0C94B8140895CF93DE
:1029E000DF93EC01FB018617970761F0608171812D
:1029F0006115710529F0448155810E94B81402C007
:102A00000E947014CE01DF91CF910895FC011182D4
:102A1000108213821282158214820C94EF14CF93C9
:102A2000DF93EC016115710561F0FB01019000205D
:102A3000E9F7AF0141505109461B570B0E94B814EA
:102A400002C00E947014CE01DF91CF9108950F93C0
:102A50001F93CF93DF93CDB7DEB729970FB6F894C6
:102A6000DEBF0FBECDBF8C01862FF8011182108210
:102A7000138212821582148250E0BE016F5F7F4F75
:102A800090E00E94BF18BE016F5F7F4FC8010E9497
:102A90000F1529960FB6F894DEBF0FBECDBFDF919C
:102AA000CF911F910F9108950F931F93CF93DF93B1
:102AB000CDB7DEB761970FB6F894DEBF0FBECDBFBE
:102AC0008C01CB01F80111821082138212821582CF
:102AD000148250E0BE016F5F7F4F0E94BF18BE019D
:102AE0006F5F7F4FC8010E940F1561960FB6F89473
:102AF000DEBF0FBECDBFDF91CF911F910F91089523
:102B00000F931F93CF93DF93CDB7DEB7A1970FB687
:102B1000F894DEBF0FBECDBF8C01CB01BA01F80126
:102B200011821082138212821582148230E0AE016B
:102B30004F5F5F4F0E949218BE016F5F7F4FC801C9
:102B40000E940F15A1960FB6F894DEBF0FBECDBF41
:102B5000DF91CF911F910F910895EF92FF920F9304
:102B60001F93CF93DF93EC017B010C811D816115D5
:102B7000710511F480E016C04115510591F0040F64
:102B8000151FB8010E949C148823A1F32881398164
:102B90008C819D81B701820F931F0E9469181D834C
:102BA0000C8381E0DF91CF911F910F91FF90EF9007
:102BB0000895CF93DF93EC01FB014481558160813F
:102BC00071810E94AD15811103C0CE010E94701465
:102BD000CE01DF91CF910895CF93DF93EC01611582
:102BE000710569F0FB0101900020E9F7AF01415048
:102BF0005109461B570B0E94AD15811103C0CE0130
:102C00000E947014CE01DF91CF9108950895A1E242
:102C10001A2EAA1BBB1BFD010DC0AA1FBB1FEE1F56
:102C2000FF1FA217B307E407F50720F0A21BB30BA1
:102C3000E40BF50B661F771F881F991F1A9469F71D
:102C400060957095809590959B01AC01BD01CF0179
:102C50000895EE0FFF1F0590F491E02D0994CF9396
:102C6000DF938230910510F482E090E0E0911A0445
:102C7000F0911B0420E030E0A0E0B0E0309739F1A3
:102C80004081518148175907B8F04817590771F426
:102C900082819381109729F013969C938E931297BB
:102CA0002CC090931B0480931A0427C02115310572
:102CB00031F04217530718F0A901DB0101C0EF0101
:102CC0009A01BD01DF010280F381E02DD7CF2115EC
:102CD0003105F9F0281B390B2430310580F48A8145
:102CE0009B816115710521F0FB019383828304C0F0
:102CF00090931B0480931A04FE01329644C0FE0197
:102D0000E20FF31F81939193225031093983288375
:102D10003AC02091180430911904232B41F42091DA
:102D2000020130910301309319042093180420917B
:102D30000001309101012115310541F42DB73EB755
:102D40004091040150910501241B350BE0911804BA
:102D5000F0911904E217F307A0F42E1B3F0B28177C
:102D6000390778F0AC014E5F5F4F2417350748F004
:102D70004E0F5F1F50931904409318048193919351
:102D800002C0E0E0F0E0CF01DF91CF910895CF9352
:102D9000DF93009709F487C0FC01329713821282F7
:102DA000C0911A04D0911B04209781F420813181B5
:102DB000280F391F809118049091190482179307E6
:102DC00079F5F0931904E09318046DC0DE0120E05A
:102DD00030E0AE17BF0750F412964D915C911397F7
:102DE0009D014115510509F1DA01F3CFB383A283A7
:102DF00040815181840F951F8A179B0771F48D9133
:102E00009C911197840F951F02969183808312964F
:102E10008D919C911397938382832115310529F419
:102E2000F0931B04E0931A043EC0D9011396FC935F
:102E3000EE9312974D915D91A40FB51FEA17FB0712
:102E400079F480819181840F951F0296D9011196A2
:102E50009C938E938281938113969C938E93129769
:102E6000E0E0F0E08A819B81009719F0FE01EC011F
:102E7000F9CFCE01029628813981820F931F2091CC
:102E80001804309119042817390769F4309729F488
:102E900010921B0410921A0402C013821282D09363
:102EA0001904C0931804DF91CF910895A0E0B0E019
:102EB000ECE5F7E10C942819EC01CB01209719F40B
:102EC0000E942F16B8C0FE01E60FF71F9E01225088
:102ED0003109E217F30708F4ACC0D9010D911C9138
:102EE000119706171707B8F00530110508F49FC0B1
:102EF000A801445051094617570708F498C00250DA
:102F00001109061B170B019311936D937C93CF014D
:102F10000E94C7168CC05B01A01AB10A4E01800E38
:102F2000911EA0911A04B0911B04612C712C60E0D9
:102F300070E0109709F449C0A815B905C9F5ED90DE
:102F4000FC901197670142E0C40ED11CCA14DB0447
:102F500078F147018A189B08640142E0C40ED11C35
:102F60001296BC9012971396AC91B5E0CB16D10493
:102F700040F0B282A38391828082D9018D939C9389
:102F800009C00E5F1F4F0E0D1F1DF9011183008335
:102F9000EB2DFA2F6115710531F0DB011396FC93CF
:102FA000EE93129744C0F0931B04E0931A043FC0C1
:102FB0006D917C9111976616770608F43B01BD016F
:102FC00012960D90BC91A02DB4CF60911804709111
:102FD000190468157905E9F468167906D0F440916A
:102FE0000001509101014115510541F44DB75EB703
:102FF0006091040170910501461B570BE417F5071A
:10300000C0F4F0931904E0931804F90191838083CC
:103010000EC00E942F167C01009759F0A801BE0136
:103020000E944518CE010E94C716C70104C0CE01F8
:1030300002C080E090E0CDB7DEB7EEE00C9444191A
:10304000FC0188279927E89421912032E9F329305F
:1030500010F02E30C8F32B3241F02D3239F4689441
:1030600004C00E948A18820F911D219120532A309A
:10307000C0F31EF4909581959F4F0895FB01DC01EC
:1030800005900D920020E1F70895FB01DC0102C0DC
:1030900001900D9241505040D8F70895DC0101C0D5
:1030A0006D9341505040E0F70895FC0181918617DF
:1030B00021F08823D9F7992708953197CF010895F2
:1030C000FB01DC018D91019080190110D9F3990B5E
:1030D0000895FB01DC0101900D920020E1F70895B5
:1030E000FB0151915523A9F0BF01DC014D9145171A
:1030F0004111E1F759F4CD010190002049F04D91C3
:1031000040154111C9F3FB014111EFCF81E090E07F
:10311000019708957AE0979F902D879F802D910DBC
:10312000112408952532310520F4223010F00C943A
:103130009D18FA011082CA010895BB27FA01A62F33
:103140006217710581059105330B30FB66F0AA27E4
:10315000660F771F881F991FAA1FA21710F0A21BC6
:1031600063953850A9F7A05DAA3308F0A95DA19333
:1031700036F7B111B1931082CA010C94141945327B
:10318000510520F4423010F00C94CA18FB01108253
:10319000CB010895BB27FB015527AA27880F991F4C
:1031A000AA1FA41710F0A41B83955051B9F7A05D76
:1031B000AA3308F0A95DA193009779F7B111B193F3
:1031C0001192CB010C941419DC01CB01FC01F9998B
:1031D000FECF06C0F2BDE1BDF89A319600B40D9263
:1031E00041505040B8F70895F999FECF92BD81BD86
:1031F000F89A992780B50895DC01CB0103C02D9181
:103200000E94071941505040D0F70895262FF99990
:10321000FECF1FBA92BD81BD20BD0FB6F894FA9AB9
:10322000F99A0FBE01960895DC01FC01672F719198
:103230007723E1F7329704C07C916D93708362919C
:10324000AE17BF07C8F308952F923F924F925F9237
:103250006F927F928F929F92AF92BF92CF92DF92A6
:10326000EF92FF920F931F93CF93DF93CDB7DEB70B
:10327000CA1BDB0B0FB6F894DEBF0FBECDBF09949F
:103280002A88398848885F846E847D848C849B84F6
:10329000AA84B984C884DF80EE80FD800C811B8104
:1032A000AA81B981CE0FD11D0FB6F894DEBF0FBE33
:0A32B000CDBFED010895F894FFCFA3
:1032BA0000001C04800001000000001802EB0191CC
:1032CA00019901AC01BB0173746174655F6F665F3C
:1032DA006368616E6E656C735F5B005D3D00000044
:1032EA000000F4043F0F3E064106220506040404CA
:1032FA00420CA609370670696E4D6F646528002C6A
:10330A0020006469676974616C5772697465280082
:10331A006469676974616C52656164280029203D9B
:10332A002000616E616C6F6757726974652800616D
:10333A006E616C6F675265616428002829002E004F
:10334A00207600000000002A129613AC11C511B7AE
:10335A001108120D0A006E616E00696E66006F76C2
:02336A006600FB
:00000001FF
