:100000000C94E2010C9413020C9413020C9413024E
:100010000C9413020C9413020C9413020C9413020C
:100020000C9413020C9413020C9413020C941302FC
:100030000C9413020C9413020C9413020C941302EC
:100040000C9413020C9413020C9413020C941302DC
:100050000C9491050C9413020C9413020C943F2BF6
:100060000C9413020C94672F0C949D2F0C94130284
:100070000C9413020C9466050C9413020C94130256
:100080000C9413020C9413020C9413020C949E050E
:100090000C9413020C9413020C9413020C94A706F4
:1000A0000C9413020C9413020C9413020C9413027C
:1000B0000C9413020C9413020C9413020C9413026C
:1000C0000C9413020C9413020C9413020C9413025C
:1000D0000C9413020C9413020C9413020C9413024C
:1000E0000C941302E112F21269137913EB13161434
:1000F00024143F144F146E147E14281828189C14CE
:10010000D814C014121560159615EC15FC153A1686
:1001100055168317C517D2178F17A717EF17021891
:1001200028182818281828182818281828182818CF
:1001300028182818281828182818281828182818BF
:1001400028182818281828182818281828182818AF
:10015000281828182818281828182818281828189F
:10016000281828182818281828182818281828188F
:10017000281828182818281828182818281828187F
:1001800028182818281828182818281882166317DD
:10019000581C801C9D1CBA1CFD1CDF1C1B1D441D13
:1001A0007A1D5F1DB61D921D921E6D1EB11E4F1F42
:1001B000EB1EDC1FA21F751C302052206D208E20EC
:1001C000391D9D20B220CE20DB2008211721672C6D
:1001D0006C2C712C7B2C852CFE2C8F2C972C9F2C1F
:1001E000A92CB32CBD2CCC2CD62CFE2CE02CEA2C2C
:1001F000F42C202D232D122D162D1C2D5A2D272D9C
:100200002B2D312D352D392D3F2D432D472D5A2D99
:100210004D2D512D552D08000000BE922449123E4F
:10022000ABAAAA2ABECDCCCC4C3E00000080BEAB0F
:10023000AAAAAA3E00000000BF000000803F000004
:10024000000000084178D3BB4387D1133D190E3C11
:10025000C3BD4282AD2B3E68EC8276BED98FE1A948
:100260003E4C80EFFFBE01C4FF7F3F000000000056
:1002700007634236B79BD8A71A39685618AEBAAB8F
:10028000558C1D3CB7CC5763BD6DEDFD753EF61723
:100290007231BF000000803F00000A0B02090C0D04
:1002A0000E08070304010000000000000000000029
:1002B000000000000000000000000000000000003E
:1002C00000000000121110000000000000000000FB
:1002D000000000000000000000000000000001021B
:1002E0001020200808102040102040800201020148
:1002F0000804020101020408102040808040201000
:100300000804020180040201804020100804020158
:1003100008040201010204081020408001020408C0
:100320001020408005050505070508080808020299
:1003300002020A0A0808040404040101010101017F
:1003400001010303030303030303040707070C0C62
:100350000C0C0C0C0C0C0202020206060606060629
:1003600006060B0B0B0B0B0B0B0B000020002300E6
:10037000260029002C002F0032000001000003019C
:100380000601090100002200250028002B002E0094
:100390003100340002010000050108010B010000DA
:1003A0002100240027002A002D0030003300010125
:1003B0000000040107010A0149029B05AE08572607
:1003C000D12F4D0211241FBECFEFD1E2DEBFCDBF32
:1003D00000E00CBF14E0A0E0B2E0E0E3F5E700E0ED
:1003E0000BBF02C007900D92A83AB107D9F72FE0D2
:1003F000A8EAB4E001C01D92A632B207E1F713E00B
:10040000C2ECD3E000E006C022970109FE010BBF59
:100410000E941738C83BD10780E00807A9F70E945F
:10042000E6020C94863A0C940000809106029091AA
:10043000070201969093070280930602089588EAC6
:1004400094E00E947821809106029091070269E170
:1004500070E00E94BD37892BD9F48091FA0C882373
:1004600089F08091FB0C81110BC0E091A804F09100
:10047000A9040688F789E02D88EA94E0199502C05E
:100480001092FB0C81E090E09093070280930602AB
:10049000089588EA94E00C94080B88EA94E00C94A0
:1004A000190B80E1809391001092900085E0809379
:1004B0007C0D86E998E990937E0D80937D0D909355
:1004C00097008093960085E18093910085E192E00A
:1004D00090937B0D80937A0D81E08093710088EA80
:1004E00094E00E94B00E68E072E085E89EE00E9411
:1004F00060306FEF71E2605072404AE050E085E892
:100500009EE00E942A316DE072E085E89EE00E9444
:10051000603068EA74E0605072404AE050E085E87C
:100520009EE00E942A3164E172E085E89EE00E942C
:10053000603066E27FE0685A74404AE050E085E847
:100540009EE00E942A316AE172E085E89EE00E9406
:1005500060306091220F7091230F6115710519F0C1
:1005600066527F4002C060E070E04AE050E085E8FB
:100570009EE00E942A3160E272E085E89EE00E94DF
:1005800060308DB79EB76FEF71E2681B790B4AE060
:1005900050E085E89EE00E942A3167E272E085E83B
:1005A0009EE00E9460308091220F9091230F6DB7E2
:1005B0007EB7009719F466527F4002C0681B790B22
:1005C0004AE050E085E89EE00C942A310E94DF2B3F
:1005D0000E945102C0E2DEE20E941F022097E1F376
:1005E0000E94202EF9CFECE7F0E090819F7390837A
:1005F000208130E4839FC0011124282B208308959B
:10060000EAE7F0E09081987F90839081982B908327
:10061000089580917A00877090E00895E1E8F0E015
:100620008081887F808308950E940E031092850048
:1006300010928400E1E8F0E0808190915B0D892BBD
:1006400080830895882321F080917C00806203C01C
:1006500080917C008F7D80937C000895EBE7F0E033
:100660009081987F90839081982B90830895CF926A
:10067000DF92EF92FF92CF936B017C0180E1809338
:10068000810010928000A701960160E074E284E787
:1006900099E40E94273420E030E040E051E40E94D9
:1006A000FB350E9494346115710521E082079105A4
:1006B00028F421E020935B0DCB014CC0611571053E
:1006C00028E08207910568F422E020935B0DDC01AD
:1006D000CB0153E0B695A795979587955A95D1F795
:1006E00039C06115710520E48207910568F423E0A3
:1006F00020935B0DDC01CB0146E0B695A79597955D
:1007000087954A95D1F726C061157105810521E0CD
:10071000920740F424E020935B0DBB27A92F982F6C
:10072000872F18C061157105810524E0920768F4D0
:1007300025E020935B0DDC01CB012AE0B695A7955F
:10074000979587952A95D1F705C085E080935B0D35
:100750008FEF9FEF9093870080938600C1E0C09356
:100760006F0086E00E942E03C093710D80917A0085
:10077000806280937A00C092640DD092650DE09201
:10078000660DF092670DCF91FF90EF90DF90CF90C4
:1007900008958093710D882321F080917A00806202
:1007A00003C080917A008F7D80937A000895EAE7F4
:1007B000F0E08081806480830895CF93DF93D091AF
:1007C0007800C09179004091740D5091750D209181
:1007D000720D3091730D42175307A8F58091710D7A
:1007E000811102C00E94D7038D2F90E09C2B209195
:1007F0007C0025FF13C0E091780DF091790D2091D8
:10080000740D3091750DA9014F5F5F4F5093750DB9
:100810004093740DE20FF31F908315C0E091760DA5
:10082000F091770D2091740D3091750DA9014F5FF6
:100830005F4F5093750D4093740D220F331FE20FDD
:10084000F31F91838083DF91CF9108951092750DEE
:100850001092740D8091710D0E94C9030E94892B22
:1008600060935C0D70935D0D80935E0D90935F0DB2
:1008700080917A00886C80937A0080917B008770E9
:10088000863011F40C94140308958F929F92AF92C6
:10089000BF92CF92DF92EF92FF920E94892B4B0181
:1008A0005C0180917A00877D80937A0080917B0043
:1008B0008770863011F40E940E036091720D709162
:1008C000730D80E090E00E94C03420E034E244E701
:1008D00059E40E94FB356B017C0180915C0D909185
:1008E0005D0DA0915E0DB0915F0DA5019401281BD7
:1008F000390B4A0B5B0BCA01B9010E94C0349B0142
:10090000AC01C701B6010E9427346093600D70935B
:10091000610D8093620D9093630DFF90EF90DF90D7
:10092000CF90BF90AF909F908F90089580936E0D61
:1009300090917C00907F90937C0020917C00982F78
:100940009770922B90937C00883020F080917B00F0
:10095000886003C080917B00877F80937B0008952F
:1009600091E090936D0D1092700D10926F0D10929A
:100970006C0D2DED33E030936B0D20936A0D0C94CC
:10098000960480916C0D8F5F80936C0D90916D0D2E
:10099000891302C010926C0D80916C0DE0916F0D67
:1009A000F091700DE80FF11D80810E9496040C9467
:1009B000DD031F93CF93DF93C0916C0D90916D0D6C
:1009C0009230A0F081E08C0F891719F080936C0DA4
:1009D00002C010926C0D80916C0DE0916F0DF09142
:1009E000700DE80FF11D80810E949604109178002F
:1009F000D09179004091740D5091750D2091720D38
:100A00003091730D42175307F0F48091710D8111ED
:100A100002C00E94D703612F70E07D2B80917C0083
:100A200085FF02C0672F7727E091680DF091690D6F
:100A30008C2F19958091740D9091750D019690935E
:100A4000750D8093740DDF91CF911F910895CF9311
:100A5000DF93D0917C00C0917B0080917C00807EF0
:100A600080937C0080917C008E6180937C008091DB
:100A70007B00877F80937B0063E070E080E090E004
:100A80000E94AC2B80917A00806480937A008091E0
:100A90007A0086FDFCCF6091780080917900D09338
:100AA0007C00C0937B0070E0782B882777FD8095D1
:100AB000982F0E94C2349B01AC0160E070E889E885
:100AC00094E40E942734DF91CF9108951F920F92F2
:100AD0000FB60F9211240BB60F922F933F934F93A3
:100AE0005F936F937F938F939F93AF93BF93EF9396
:100AF000FF93E0916A0DF0916B0D1995FF91EF91C5
:100B0000BF91AF919F918F917F916F915F914F9125
:100B10003F912F910F900BBE0F900FBE0F901F9023
:100B200018951F920F920FB60F9211240F900FBEBF
:100B30000F901F90189581E00C94F3021F920F9272
:100B40000FB60F9211240BB60F922F933F934F9332
:100B50005F936F937F938F939F93AF93BF93EF9325
:100B6000FF93E0917A0DF0917B0D1995FF91EF9134
:100B7000BF91AF919F918F917F916F915F914F91B5
:100B80003F912F910F900BBE0F900FBE0F901F90B3
:100B900018951092EC0D81E08093EA0D1092E90D0A
:100BA00061E084E10E94942D61E085E10E94942D32
:100BB000E9EBF0E080818E7F808380818D7F808370
:100BC00088E48093B80085E48093BC0008954132A6
:100BD00008F03FC09091EC0D9111FCCF91E0909303
:100BE000EC0D2093EA0D2FEF20937F0D1092C40D92
:100BF000240F2093C30D9093EB0D9091EB0D880F74
:100C0000892B8093EB0D8091E90D813041F4109296
:100C1000E90D8091EB0D8093BB0085EC01C085EE62
:100C20008093BC008091EC0D8130E1F38091C40D84
:100C3000841710F44091C40D25EC3DE0FB01D9016F
:100C40008A2F821B841718F48D918193F9CF842FFA
:100C5000089580E008950F93413208F046C09091C6
:100C6000EC0D9111FCCF92E09093EC0D0093EA0D06
:100C70009FEF90937F0D1092C40D4093C30DFB0125
:100C800065EC7DE0DB019A2F961B941718F4919187
:100C90009D93F9CF1092EB0D9091EB0D880F892B5E
:100CA0008093EB0D8091E90D813041F41092E90DB4
:100CB0008091EB0D8093BB0085EC01C085EE8093A5
:100CC000BC00222321F08091EC0D8230E1F3809171
:100CD0007F0D8F3F61F080917F0D803251F08091C8
:100CE0007F0D803341F483E007C081E005C080E0E0
:100CF00003C082E001C084E00F910895613298F44E
:100D00002091EC0D243089F46093A10DFC0183EA5D
:100D10009DE0DC012A2F281B261718F421912D9322
:100D2000F9CF80E0089581E0089582E0089585ED8F
:100D30008093BC008091BC0084FDFCCF1092EC0D30
:100D4000089585EC8093BC001092EC0D08951F92DD
:100D50000F920FB60F9211240BB60F922F933F9361
:100D60004F935F936F937F938F939F93AF93BF93B3
:100D7000EF93FF938091B900887F803609F49CC07F
:100D800068F5883209F45BC090F4803109F454C0EE
:100D900038F4882309F4F5C0883009F44DC0F5C053
:100DA000883109F44CC0803209F45DC0EEC0803453
:100DB00009F468C048F4803309F455C0883309F059
:100DC000E4C080937F0DA8C0803509F44FC08835FA
:100DD00009F45DC0883409F0D8C0D5C0883909F459
:100DE000C6C0A8F4883709F467C038F4883609F417
:100DF00063C0803709F460C0C8C0883809F4B7C040
:100E0000803909F45FC0803809F0BFC05BC0803B07
:100E100009F485C038F4803A09F466C0883A09F4C8
:100E20007EC0B3C0803C09F4A6C0883C09F4A3C0CE
:100E3000883B09F489C0A9C08091EB0D10C0909146
:100E4000C40D8091C30D981770F5E091C40D81E039
:100E50008E0F8093C40DF0E0EB53F24F80818093AE
:100E6000BB0085EC85C080937F0D8DC0E091C40DE3
:100E700081E08E0F8093C40D8091BB00F0E0EB53B6
:100E8000F24F80839091C40D8091C30D6DC0E091AD
:100E9000C40D81E08E0F8093C40D8091BB00F0E003
:100EA000EB53F24F80838091EA0D81116CC081E099
:100EB0008093E90D84EA60C083E08093EC0D10928A
:100EC000800DCFCF8091800D803208F050C0E0912E
:100ED000800D81E08E0F8093800D8091BB00F0E04B
:100EE000EF57F24F8083BDCF8091800D803230F478
:100EF000E091800DF0E0EF57F24F10820E949706CC
:100F00006091800D70E0E091E50DF091E60D81E8D3
:100F10009DE019951092800D0E94A10636C084E0D4
:100F20008093EC0D1092A20D1092A10DE091E70DAF
:100F3000F091E80D19958091A10D811105C081E016
:100F40008093A10D1092A30DE091A20D81E08E0F70
:100F50008093A20DF0E0ED55F24F80818093BB00AD
:100F60009091A20D8091A10D981708F47ACF85E891
:100F70008093BC000AC085EC8093BC001092EC0DFD
:100F800004C010927F0D0E949706FF91EF91BF91D0
:100F9000AF919F918F917F916F915F914F913F9111
:100FA0002F910F900BBE0F900FBE0F901F901895B2
:100FB00080911D0E90E020911E0E821B91090895D4
:100FC00020911E0E80911D0E281750F4E22FF0E0A4
:100FD000E15EF14F808190E02F5F20931E0E089517
:100FE0008FEF9FEF0895E0911E0E80911D0EE81780
:100FF00030F4F0E0E15EF14F808190E008958FEFF2
:101000009FEF08950895CF92DF92EF92FF920F9392
:101010001F93CF93DF937C01CB018A012091F90DBF
:10102000222389F0EB016B01C40ED51ECC15DD0522
:1010300069F06991D701ED91FC910190F081E02D6B
:10104000C7011995F3CF642F0E947E06C801DF9176
:10105000CF911F910F91FF90EF90DF90CF90089567
:10106000CF93DF931F92CDB7DEB769832091F90D3F
:101070002223D1F02091FA0D203240F021E030E01F
:10108000FC013383228380E090E015C08091FB0D4A
:10109000E82FF0E0E450F24F998190838F5F8093C6
:1010A000FB0D8093FA0D05C061E0CE0101960E9410
:1010B0007E0681E090E00F90DF91CF910895FC01D2
:1010C0001382128248EE53E060E070E0448355835F
:1010D0006683778388E392E09183808308951092FA
:1010E0001E0E10921D0E1092FB0D1092FA0D0C9414
:1010F000C905862F413208F040E26FE17EE00E9490
:10110000E70510921E0E80931D0E089521E00C94A9
:10111000790821E00C94790881E08093F90D6093BF
:101120001C0E1092FB0D1092FA0D08950C948C0871
:101130000F93062F21E04091FA0D6CEF7DE0809136
:101140001C0E0E942B061092FB0D1092FA0D1092AD
:10115000F90D0F91089561E00C9498088DEE9DE0D3
:101160000C945F08FF920F931F93CF93DF93FC01C2
:101170000081C181D281F8948981F02EF0948F2171
:10118000898378941DE7115029F182E090E00E9454
:10119000D42B88818023B9F3F8948A818F218A83A4
:1011A0008981802B8983789480EE91E00E94D42BF2
:1011B000F89489818F21898386E490E00E94D42B62
:1011C0008881802311E009F010E078948AE991E0A9
:1011D0000E94D42B812FDF91CF911F910F91FF900F
:1011E00008951F93CF93DF93FC011081C181D281B9
:1011F000912F909560FF12C0F8948A8189238A8389
:101200008981812B89838AE090E00E94D42B8A8196
:10121000812B8A83789487E390E011C0F8948A81C7
:1012200089238A838981812B898381E490E00E94CC
:10123000D42B8A81812B8A83789485E090E0DF919A
:10124000CF911F910C94D42B0F931F93CF93DF93C7
:10125000FC011081C181D281F8948981812B89831D
:101260008A81012F009580238A8383E090E00E9489
:10127000D42B8981802389838AE090E00E94D42B3B
:10128000C881789485E390E00E94D42B1C2381E0F0
:1012900009F480E0DF91CF911F910F910895CF92D3
:1012A000DF92EF92FF920F931F93CF93DF931F92E2
:1012B000CDB7DEB76C01E62E08E010E0FF24F39412
:1012C00061E09F2D9E2109F460E0C60149830E94E0
:1012D000F108FF0C0150110949810115110581F731
:1012E000411115C0F894D6011196ED91FC91129719
:1012F00091818C918095892381831196ED91FC9148
:10130000129792818C9180958923828378940F9093
:10131000DF91CF911F910F91FF90EF90DF90CF90D1
:101320000895EF92FF920F931F93CF93DF938C0159
:10133000C8E0D0E0F12CEE24E394C8010E94240917
:101340008111FE28EE0C2197C1F78F2DDF91CF91EF
:101350001F910F91FF90EF900895CF92DF92FF922F
:101360000F931F93CF93DF931F92CDB7DEB78C01FE
:10137000F62E40E065E579830E944F09CF2C7981F4
:10138000D72E88E0F82EF60161916F0140E0C80188
:101390000E944F09FA94B9F70F90DF91CF911F91F6
:1013A0000F91FF90DF90CF900895FC011386158672
:1013B000148627E030E0DF01A20FB31F13961C92C2
:1013C0002115310519F021503109F5CF08951F93EA
:1013D000CF93DF93EC01162F60E0812F0E945B2DED
:1013E000612F70E0FB01E252FD4FE491E883FB01C5
:1013F000EC5DFC4FE491F0E0EE0FFF1FE659FC4F6F
:10140000859194919A838983CE01DF91CF911F9129
:101410000C94D509AF92BF92CF92DF92EF92FF92D8
:101420000F931F93CF93DF931F92CDB7DEB75C016D
:10143000E62ED72EFC01858581115DC0C5010E9475
:10144000B208811105C0F5011386158614866EC099
:1014500040E060EFC5010E944F0901E0F12CC12C72
:1014600011E0C5010E942409682FC50169830E940B
:1014700024096981613019F48130B9F433C02F2D0A
:1014800030E068131BC0F5018385181730F4E20FB4
:10149000F31F8381802349F402C0181731F060E004
:1014A000193058F4F501148708C0F501EF0DF11D4E
:1014B0008381802B838361E009C0C12EF501E20F97
:1014C000F31F8381902F909589238383C5010E9408
:1014D000F1081F5F000F11F4F39401E0F7E0FF152E
:1014E00008F0BFCF113438F0F501C386C11018C021
:1014F00081E0858715C0F50113861586148680E086
:10150000EE2DFD2D20E030E0D501A20FB31F139684
:101510009C9191932F5F3F4F28303105A9F706C06A
:10152000F5018381882339F381E0EACF0F90DF91C1
:10153000CF911F910F91FF90EF90DF90CF90BF90D0
:10154000AF900895CF93CFB7F89480913F0E81115B
:1015500027C0E9E5F3E08491E3E1F3E09491E82F1B
:10156000F0E0EE0FFF1FE256FC4FA591B4918C9175
:10157000892321F461E085E30E94942D61E085E3F5
:101580000E945B2D8CB580618CBD8CB580648CBD58
:1015900061E084E30E945B2D61E083E30E945B2DA8
:1015A00080913F0E8F5F80933F0ECFBFCF91089504
:1015B0008FE194E008958BE194E0089584E094E055
:1015C00008958AEE93E0089584EE93E0089581EB08
:1015D00093E0089584E492E00895CF93DF93EC01C3
:1015E00061E088E00E94942DCC5AD74F1882DF9199
:1015F000CF910895DC01ED91FC910190F081E02DF7
:1016000019948EBD00000DB407FEFDCF8EB5089570
:10161000CF93DF93EC0161E00E94F81889E993E031
:1016200099838883CE5AD74F18821982DF91CF9140
:10163000089529E933E0FC01318320830C94681973
:101640001F93CF93DF931F921F92CDB7DEB7162F54
:1016500060E0812F2A8349830E94942D4981842F41
:101660000E94010B2A81822F0E94010B61E0812FD1
:101670000F900F90DF91CF911F910C94942D6430B7
:1016800040F4242F2095462F65E30E94200B80E034
:10169000089585E00895AF92BF92CF92DF92EF92C6
:1016A000FF920F931F93CF93DF931F921F92CDB79B
:1016B000DEB78C01D12C7C018BEBE81A87EFF80A9E
:1016C0005801E5E9AE1AE7EFBE0A2D2D30E0F8012A
:1016D000EB5AF74F8081918168E270E00E94BD373C
:1016E00026173707E0F588E0C82EC982F701208168
:1016F000318180E090E040E0B801620F731FE42F79
:10170000F0E0DB01A80FB91FA259BF4F41E050E044
:10171000AC91AA2311F040E050E0082E02C0440F23
:10172000551F0A94E2F74E0F5F1F0196883091050E
:1017300031F74A83285F3F4FF70131832083F5015A
:1017400060816D0D22E0AE014F5F5F4FC8010E94C6
:101750004A21C394FDE0CF12C8CFD394B6CF0F90E7
:101760000F90DF91CF911F910F91FF90EF90DF903D
:10177000CF90BF90AF900895EF92FF920F931F9379
:10178000CF93DF938C017C018BE9E81A87EFF80A8D
:10179000C4E6D0E0F70141917F01BE01C8010E947B
:1017A000F3182196C23BD105A9F760E0C801DF918B
:1017B000CF911F910F91FF90EF900C94DF0B7F92D0
:1017C0008F929F92AF92BF92CF92DF92EF92FF9251
:1017D0000F931F93CF93DF93EC01762E7C012BE9BF
:1017E000E21A27EFF20A04E610E04701E881F981E6
:1017F0000088F189E02DB801CE011995F701819398
:101800007F010F5F1F4F023B110581F7F4018081BB
:1018100091819E012959374F5901FE01E759F74F30
:101820006F01295C3F4F7901892BE1F4F50180813B
:101830009181892BB9F4F60180819181892B91F4F2
:10184000399780819181A281B381F901808391834D
:10185000A283B38381E090E0F60191838083CE017F
:101860000E94BC0BF40180819181892BB9F4F501B0
:1018700080819181892B91F4F6018081918101977A
:1018800069F480E2FE01E559F74F808382E090E041
:10189000F60191838083CE010E94BC0BF40180810C
:1018A0009181892BE9F4F50180819181892BC1F423
:1018B000F60180819181029799F480E090E0A0EA9E
:1018C000B0E4FE01EE55F74F80839183A283B3838A
:1018D00083E090E0F60191838083CE010E94BC0BEF
:1018E000F401808191818E010A55174F892BA1F453
:1018F000F50180819181892B79F4F60180819181B4
:10190000039751F4F801108284E090E0F60191838E
:101910008083CE010E94BC0BF40180819181892BD0
:1019200079F5F50180819181892B51F5F60180814E
:101930009181049729F580E090E0A8ECB2E4FE01E3
:10194000E955F74F80839183A283B38380E090E4CD
:10195000ACE9B6E4349680839183A283B38380E0BC
:1019600090E0A8E4B3E4349680839183A283B383A8
:1019700085E090E0F60191838083CE010E94BC0B4C
:10198000F40180819181892B69F4F5018081918135
:10199000892B41F4F60180819181059719F4772014
:1019A00009F4A5C0F40111821082F50111821082A0
:1019B00085E090E0F601918380838CE7FE01E35996
:1019C000F74F808380E73197808380E09CE7A2E92E
:1019D000B8E4329680839183A283B38380E092E25D
:1019E000A1EAB8E4349680839183A283B38380E034
:1019F00090E0AAE7B4E43C9680839183A283B3830A
:101A000080E090E4ACE1B6E4349680839183A283D5
:101A1000B38380E090E5A3ECB7E4349680839183B0
:101A2000A283B38380E094E2A4E7B9E43496808390
:101A30009183A283B38374971082118212821382DE
:101A4000349610821182128213824FEF56EE6BE5AC
:101A50007EE274964083518362837383349640831D
:101A6000518362837383349640835183628373838B
:101A700034964083518362837383FA978081918186
:101A8000A281B381F70180839183A283B38380E233
:101A9000FE01E559F74F808380E090E0A0EAB0E4D2
:101AA000F79680839183A283B383F801108280E04C
:101AB00090E0A8ECB2E4FE01E955F74F80839183F2
:101AC000A283B38380E090E4ACE9B6E434968083EB
:101AD0009183A283B38380E090E0A8E4B3E43496DA
:101AE00080839183A283B383CE010E94BC0BF70154
:101AF000C080D180E280F38020E030E0A901C701FE
:101B0000B6010E942334FE01EC59F74F18161CF061
:101B100081E0808309C0DE01A05AB74FCD92DD92EB
:101B2000ED92FC9213971082F8018081882311F0C6
:101B300042E001C041E060E0CE01DF91CF911F9112
:101B40000F91FF90EF90DF90CF90BF90AF909F905C
:101B50008F907F900C94E3218F929F92AF92BF92CF
:101B6000CF92DF92EF92FF92CF93DF93EC016A0165
:101B70007B01FC01E05AF74F80809180A280B38006
:101B800020E030E0A901C701B6010E94233487FD9F
:101B900045C0FE01E155F74F2081318142815381DB
:101BA000C701B6010E94B2351816C4F1A50194010F
:101BB000C701B6010E9427349B01AC010E94AC33DF
:101BC00023EF34E045EB5FE30E94FB3520E030E09B
:101BD00040E85EE30E94FB3520E030E04FE753E44D
:101BE0000E94FB354B015C0120E030E04FE753E4FD
:101BF0000E94B235181694F0FE01E85AF74FC082E1
:101C0000D182E282F382C501B4010E949434462F4E
:101C100063E0CE010E943F0B80E001C088E0DF91CD
:101C2000CF91FF90EF90DF90CF90BF90AF909F90BB
:101C30008F900895FC01E05AF74F408351836283EF
:101C400073833897408151816281738120E00C94C5
:101C5000AC0D5F926F927F928F929F92AF92BF92E4
:101C6000CF92DF92EF92FF920F931F93CF93DF9368
:101C70001F921F92CDB7DEB76C01CB01542E68E2E4
:101C800070E00E94BD377B014C015C0123E0B694FB
:101C9000A7942A95E1F73B01772486010559174F50
:101CA000F8018081B301680F711D8DEE9DE00E94E7
:101CB0009608B501685F7F4F8DEE9DE00E94FA0A9D
:101CC0008DEE9DE00E94AB08F8018081B301680FA2
:101CD000711D41E050E08DEE9DE00E9489088DEE7F
:101CE0009DE00E94D807892B41F1F82DF7708F2EC7
:101CF00088E08A0D89838DEE9DE00E94E00741E037
:101D000050E060E070E004C0440F551F661F771F6D
:101D10008A94D2F7511002C0482B02C04095482344
:101D20004A83F80160816E0D22E0AE014F5F5F4F84
:101D3000C6010E944A2180E001C081E00F900F900F
:101D4000DF91CF911F910F91FF90EF90DF90CF9097
:101D5000BF90AF909F908F907F906F905F9008950D
:101D6000AF92BF92CF92DF92EF92FF920F931F93A9
:101D7000CF93DF93CDB7DEB762970FB6F894DEBF8F
:101D80000FBECDBF8C010E94631861E088E00E9405
:101D9000942D61E088E00E945B2D61E085E30E9464
:101DA0005B2D61E089E00E945B2D60E089E00E948C
:101DB000942DF801E05AF74F80E090E0A6E9B3E4F3
:101DC00080839183A283B38360E0C8010E94DF0B0C
:101DD000680183E9C81A87EFD80AD6014C9161E0FF
:101DE000C8010E943F0B5801B4E9AB1AB7EFBB0A18
:101DF000F501408162E0C8010E943F0B40E063E0D2
:101E0000C8010E943F0BD801ED91FC910680F7813B
:101E1000E02DC8011995BC0185E89EE00E94603064
:101E20006AE472E085E89EE00E946030D801ED919E
:101E3000FC910484F585E02DC8011995BC0185E865
:101E40009EE00E946D306DE472E085E89EE00E94A5
:101E50006030D801ED91FC910284F385E02DC8013A
:101E60001995BC0185E89EE00E946D3060E672E045
:101E700085E89EE00E9460307801BBE9EB1AB7EF7D
:101E8000FB0AF701608171814AE050E085E89EE03D
:101E90000E946D3163E973E085E89EE00E94603046
:101EA000F801E959F74F608171814AE050E085E817
:101EB0009EE00E946D3163E973E085E89EE00E9438
:101EC0006030F801E759F74F608171814AE050E0D6
:101ED00085E89EE00E94733167E772E085E89EE046
:101EE0000E9460304AE050E0D5016C9185E89EE0A8
:101EF0000E94563167E872E085E89EE00E946030FB
:101F00004AE050E0F601608185E89EE00E9456318B
:101F1000B12CA12CA1E0BA1202C084E001C082E081
:101F2000A81608F0B9C04AE06A2DCE0101960E94B9
:101F300024334AE06B2DCE010D960E9424336DE8C8
:101F400072E0CE0107960E94F632BE01635F7F4FBA
:101F5000CE0107960E947D336FE872E00E949033B5
:101F6000BE016F5F7F4F0E947D3363EA72E00E9483
:101F70009033BC0185E89EE00E945230CE01079666
:101F80000E948832CE010D960E948832CE010196C1
:101F90000E948832CA2CD12CF1E0BF1661F0F60104
:101FA000EE0FFF1FEE0FFF1FEE0DFF1D4185528547
:101FB000638574850BC0F601EE0FFF1FEE0FFF1F48
:101FC000EE0DFF1D418D528D638D748D22E030E04A
:101FD00085E89EE00E9476324AE06A2DCE010196A5
:101FE0000E9424334AE06B2DCE010D960E942433CB
:101FF0006DE872E0CE0107960E94F632BE01635F83
:102000007F4FCE0107960E947D3366EA72E00E9400
:102010009033BE016F5F7F4F0E947D3363EA72E0B1
:102020000E949033BC0185E89EE00E945230CE01B0
:1020300007960E948832CE010D960E948832CE010A
:1020400001960E94883281E0F601EE0FFF1FEE0F2D
:10205000FF1FEE0DFF1DB81629F061897289838973
:10206000948904C061A572A583A594A525EA34EDE1
:1020700048E653E50E94FB35AB01BC0122E030E0AD
:1020800085E89EE00E9474326BEB72E085E89EE08A
:102090000E946D30A3943ECFB394B2E0BB1239CF0F
:1020A0006FEB72E085E89EE00E946030F801E55930
:1020B000F74F4AE050E0608185E89EE00E9456318B
:1020C00064E173E085E89EE00E946030F801E2562A
:1020D000F74F408151816281738122E030E085E8D1
:1020E0009EE00E9476326CED72E085E89EE00E94F0
:1020F0006030F801EE55F74F408151816281738164
:1021000022E030E085E89EE00E9476326FEE72E0D9
:1021100085E89EE00E946030F801EA55F74F608143
:1021200070E04AE050E085E89EE00E942A3168E0D5
:1021300073E085E89EE00E946030F801EC59F74FAB
:10214000608170E04AE050E085E89EE00E942A311C
:1021500064E273E085E89EE00E946030F801E95592
:10216000F74F408151816281738122E030E085E840
:102170009EE00E9476326CE373E085E89EE00E9468
:102180006030F801E555F74F4081518162817381DC
:1021900022E030E085E89EE00E94763264E573E05C
:1021A00085E89EE00E946030F801E155F74F4081DC
:1021B00051816281738122E030E085E89EE00E94D7
:1021C000763262960FB6F894DEBF0FBECDBFDF91B8
:1021D000CF911F910F91FF90EF90DF90CF90BF9024
:1021E000AF9008958F929F92AF92BF92CF92DF925D
:1021F000EF92FF921F93CF93DF93EC016A017B0173
:10220000FC01E955F74F24EA30E74DE75FE36081D1
:102210007181828193810E94FB359B01AC01C701D2
:10222000B6010E94B23587FDAFC02EEA37E441E81F
:102230005FE3FE01E555F74F6081718182819381F3
:102240000E94FB359B01AC01C701B6010E942334FB
:1022500018160CF499C020E030E048E452E4C701BD
:10226000B6010E94FB354B015C0120E030E04AE7FB
:1022700054E40E94233487FD87C020E233EB41E819
:102280005CE4C501B4010E94B23518160CF47CC0A0
:1022900020E030EE41E854E4C501B4010E94273447
:1022A0000E94BB3526EA3BE944E550E40E94FB3539
:1022B0002EE83DE543E150E40E9427340E94943427
:1022C000162F70E0665F7F4F882777FD8095982FE7
:1022D0000E94C2349B01AC0160E070E080E090E4B9
:1022E0000E945E3620E030EE41E055E40E94FB356E
:1022F000A50194010E9427349B01AC0160E070E0CD
:1023000080E095E40E94AB334B015C0120E030E0BB
:10231000A9010E94B23520E030E040E05FE387FD94
:1023200005C0C501B4010E94AC3304C0C501B401AD
:102330000E94AB330E948F345B01CB0166E096951F
:1023400087956A95E1F71295107F182B67E18DEE5E
:102350009DE00E948C08612F8DEE9DE00E94300868
:102360006A2D660F660F62608DEE9DE00E94300858
:102370008DEE9DE00E94AB08C45AD74FC882D98227
:10238000EA82FB8280E001C088E0DF91CF911F915B
:10239000FF90EF90DF90CF90BF90AF909F908F9085
:1023A00008954F925F926F927F928F929F92AF9219
:1023B000BF92CF92DF92EF92FF920F931F93CF9332
:1023C000DF931F921F92CDB7DEB78C01FC01EC5A50
:1023D000F74F81E0808360E088E00E94942D64EFF5
:1023E00071E080E090E00E94AC2B48018BEA881AF3
:1023F00087EF980AF40111821082E8E2AE2EB12C28
:10240000E12CF12CF8E16F2E77247A946801F5E93C
:10241000CF1AF7EFDF0A4E2C69827A82F6016081CB
:102420006E0D22E0AE014F5F5F4FC8010E944A214E
:10243000F60160816E0D21E0AE014F5F5F4FC80174
:102440000E94071C89818F3F09F04BC078E1572E0D
:1024500059821A82F6016081640D22E0AE014F5F5D
:102460005F4FC8010E944A21F6016081640D21E09E
:10247000AE014F5F5F4FC8010E94071C8981811127
:1024800030C080EF850D89837A82F6016081640D0A
:1024900022E0AE014F5F5F4FC8010E944A21539472
:1024A000FDE15F12D5CF6FE773E085E89EE00E9403
:1024B00060304AE050E0B70185E89EE00E9422319A
:1024C00069E873E085E89EE00E946D30F4012081A8
:1024D0003181C50188972817390719F4F401B182B1
:1024E000A082FFEFEF1AFF0A88E2A80EB11CE8E015
:1024F000EE16F10409F08FCFF401608171814AE09A
:1025000050E085E89EE00E946D316AE673E085E860
:102510009EE00E946D3040E050E46CE176E4C8013A
:102520000E94F2100F900F90DF91CF911F910F91A9
:10253000FF90EF90DF90CF90BF90AF909F908F90E3
:102540007F906F905F904F9008952F923F924F929F
:102550005F926F927F928F929F92AF92BF92CF9233
:10256000DF92EF92FF920F931F93CF93DF93CDB73C
:10257000DEB764970FB6F894DEBF0FBECDBF1C0167
:10258000B62E8C010D5A174F81E0D8018C93F101C2
:10259000EC5AF74F8081811103C0C1010E94D11113
:1025A0008B2D90E0FC01E05AF109910124593F4F35
:1025B0002901E635F10508F04BC5EE58FF4F0C94A4
:1025C000F337F101E05CF74F80819181892B09F0AD
:1025D0005EC542E050E0B1016B5A774FC1010E94E5
:1025E0006E19D0C4F101E05CF74F80819181892B95
:1025F00009F04DC5D9011C92A12C91012B5A374FDE
:102600003A872987610135E9C31A37EFD30A8A2C43
:10261000912CA985BA858D919C9168E270E00E9409
:10262000BD378616970608F013C508E010E0D601FE
:102630008C91B401680F711D8DEE9DE00E9496088B
:10264000B8018DEE9DE00E94FA0A8DEE9DE00E9499
:10265000AB08F6018081B401680F711D41E050E0C4
:102660008DEE9DE00E9489088DEE9DE00E94D807C6
:10267000892B51F18DEE9DE00E94E0077C01612CD9
:10268000712CFF24C701062C02C0959587950A94EA
:10269000E2F781709927F1E08F27898341E050E0CC
:1026A000BE016F5F7F4FC1010E946E192FEF621A4A
:1026B000720A38E06316710429F70F5F1F4F0D305F
:1026C000110509F0B4CF03C0E1E0D201EC93A3946B
:1026D0009ECFF101E05CF74F2081318175968081BA
:1026E00091812817390709F0D2C4C1010E944B0B10
:1026F000ADC4F101E05CF74F80819181029709F050
:10270000C6C4D101AB5BB74F2D913C911197F90134
:10271000E259FF4FE20DF31D808191812E5F3F4F03
:102720002D933C93F101EB5AF74F208131818217B1
:10273000930708F04FC268E270E00E94BD378C0139
:102740006B01DD247101B5E9EB1AB7EFFB0AF70164
:102750008081B601680F711D8DEE9DE00E94960884
:10276000B80113E0769567951A95E1F7685F7F4F9A
:102770008DEE9DE00E94FA0A8DEE9DE00E94AB086E
:10278000D7018C91B601680F711D41E050E08DEECC
:102790009DE00E9489088DEE9DE00E94D807892B5C
:1027A00009F48DC38DEE9DE00E94E0079927077024
:1027B00002C0959587950A95E2F781709927B1E057
:1027C0008B27898341E050E0BE016F5F7F4FC101DD
:1027D0000E946E193BC4F101E05CF74F808191814A
:1027E000039709F054C4D101AB5BB74F8D919C9115
:1027F0001197FC01E259FF4FE20DF31D60817181D9
:10280000F101E80FF91FE059FF4F408103968D93C6
:102810009C93F101EB5AF74F8081918168177907FA
:1028200008F0D8C1C1010E94290E32C4F101E05C58
:10283000F74F80819181892B09F029C4F901108219
:1028400089E00E94CA2D79C3F101E05CF74F8081D5
:102850009181019709F01BC4359680819181D10146
:10286000A80FB91FA259BF4F6C9101969183808325
:10287000623008F0FDC189E00E94942D83C3F1010C
:10288000E05CF74F80819181892B09F000C4D90168
:102890001C9244E050E0B101685A774F54C3F101F3
:1028A000E05CF74F80819181049709F0F0C3D1017A
:1028B000AB5BB74F8D919C911197FC01E259FF4F93
:1028C000E20DF31D408151816281738104968D93E5
:1028D0009C9321E0C1010E94AC0DDAC3F101E05CE0
:1028E000F74F80819181892B09F0D1C3D9011C92C6
:1028F00044E050E0B101645A774F25C3F101E05C38
:10290000F74F80819181049709F0C1C3D101AB5B7E
:10291000B74F8D919C911197FC01E259FF4FE20D49
:10292000F31D408151816281738104968D939C9344
:10293000C1010E94F210ACC3F101E05CF74F80814D
:102940009181019709F0A3C3D101AB5BB74F8D9182
:102950009C911197F101E80FF91FE259FF4FE081B7
:1029600001968D939C93E23008F52BE1E29FF001F4
:102970001124E05CF14F81818983D2011C92DEC277
:10298000F101E05CF74F80819181019709F07FC3ED
:10299000359680819181D101A80FB91FA259BF4FEF
:1029A0002C910196918380832230E8F085E070C3FA
:1029B000F101E05CF74F80819181029709F067C3D4
:1029C000359620813181A101420F531FDA01A259AE
:1029D000BF4F8C9111966C912E5F3F4F31832083B6
:1029E0000E949F216DC2F20110823BE1239FF00102
:1029F0001124E05CF14FE181C1018B59974FF0E068
:102A0000EE0FFF1FEE0FFF1FE80FF91F213029F017
:102A100081859285A385B4854BC2818D928DA38DCE
:102A2000B48D46C2F101E05CF74F8081918105973A
:102A300009F02DC3359620813181D101A20FB31F3A
:102A4000A259BF4F4C91C901019691838083D20155
:102A50001C924423E1F0413009F0BCC040915C0E6F
:102A6000D901A159BF4FA20DB31D8D919D910D901C
:102A7000BC91A02D2B5F3F4F31832083F10134E0C7
:102A8000439FE00DF11D1124E258F74F9BC0409188
:102A9000410ED901A159BF4FA20DB31D8D919D913A
:102AA0000D90BC91A02D2B5F3F4F31832083F1010E
:102AB00024E0429FE00DF11D1124E259F74F82C03E
:102AC000F101E05CF74F80819181019709F0DFC24D
:102AD000359680819181D101A80FB91FA259BF4FAE
:102AE0002C91019691838083223008F05FCFF20110
:102AF00010823BE1239FF0011124E05CF14FE18162
:102B0000C1018B59974FF0E0EE0FFF1FEE0FFF1F33
:102B1000E80FF91F213029F081899289A389B489AE
:102B2000C7C181A592A5A3A5B4A5C2C1F101E05C6E
:102B3000F74F80819181059709F0A9C235962081D0
:102B40003181D101A20FB31FA259BF4F4C91C901CE
:102B5000019691838083D2011C924423D9F04130A5
:102B6000C9F540915C0ED901A159BF4FA20DB31D0B
:102B70008D919D910D90BC91A02D2B5F3F4F318386
:102B80002083F10134E0439FE00DF11D1124E25751
:102B9000F74F18C04091410ED901A159BF4FA20D66
:102BA000B31D8D919D910D90BC91A02D2B5F3F4F3A
:102BB00031832083F10124E0429FE00DF11D1124B7
:102BC000EA58F74F80839183A283B383C1010E94A7
:102BD000BC0B3EC285E074C1F101E05CF74F80811F
:102BE0009181892B09F053C2F901108244E050E031
:102BF000B101605A774FA7C1F101E05CF74F8081C6
:102C00009181049709F043C2D101AB5BB74F8D911D
:102C10009C911197FC01E259FF4FE20DF31DC0801A
:102C2000D180E280F38004968D939C9320E030E085
:102C3000A901C701B6010E94B2351816CCF4F10102
:102C4000EC59F74F8081882331F03497C082D182CC
:102C5000E282F38297C1D101A256B74FCD92DD92A5
:102C6000ED92FC9213971082C1010E94BC0B8AC1A5
:102C700088E00EC2F101E05CF74F80819181892BE1
:102C800009F005C2D9011C9211E020E030E0A90151
:102C9000E25AFF4F60817181828193810E942334C7
:102CA00018160CF410E0198349C1F101E05CF74FEC
:102CB00080819181019709F0EAC1359680819181E7
:102CC000D101A80FB91FA259BF4F2C910196918332
:102CD0008083E75AFF4F222329F01082118212824B
:102CE00013820CC0D101A05AB74F8D919D910D90C8
:102CF000BC91A02D80839183A283B383C1010E94E4
:102D0000BC0BA4C1F101E05CF74F008111810A30D6
:102D1000110508F4BCC1359680819181DC01A2596E
:102D2000BF4FA20DB31D2D913D914D915C9129870F
:102D30003A874B875C879C012C5F3F4F3183208310
:102D4000DC01AE58BF4FA20DB31D6D907C90DC012D
:102D5000AC58BF4FA20DB31D2D913D914D915C918B
:102D6000298B3A8B4B8B5C8BD101A80FB91FA858CC
:102D7000BF4FFC900B96918380830B30110541F07F
:102D80007096808191810B960817190709F07FC111
:102D9000FBE46F16F1E07F0608F091C020E030E020
:102DA0004AE754E469857A858B859C850E9427349F
:102DB00020E030E44CE157E40E94FB3520E030E0B5
:102DC00040E855E40E94233487FF79C0D2011C9269
:102DD000F101EB5AF74F808191810B960817190783
:102DE00019F4C1010E944B0B0E94892B6D877E87CD
:102DF0008F87988B88248394F1FE812CAA24A39436
:102E0000F0FEA12CF101E45AF74FC080D180E2809E
:102E1000F38009891A892B893C89A30169857A8500
:102E20008B859C850E945C26F2018083811110C1F4
:102E30000E94892B2D853E854F855889621B730B17
:102E4000840B950B0E94C0346B017C01B30180E0C0
:102E500090E00E94C03420E030E04AE754E40E9451
:102E6000FB359B01AC01C701B6010E9427346D837D
:102E70007E838F83988744E050E0BE016B5F7F4F75
:102E8000C1010E946E1944E050E067E57EE0C10197
:102E90000E946E1944E050E062E77EE0C1010E94AA
:102EA0006E19F101E05AF74F80819181A281B381BF
:102EB00089839A83AB83BC8344E050E041C081E0C6
:102EC000D2018C93C5C0F101E05CF74F8081918104
:102ED000019709F0DCC0F9011082F101EB5BF74FBB
:102EE00080819181D101A80FB91FA259BF4F2C91A8
:102EF00001969183808361E0211101C060E0C101EE
:102F00000E94DF0BA5C0F101E05CF74F8081918149
:102F1000892B09F0BCC0D9011C9288E00EC0F101D8
:102F2000E05CF74F80819181892B09F0B0C0F901F5
:102F30001082F101EE5AF74F8081898341E050E021
:102F4000BE016F5F7F4FC1010E946E1981C0F10108
:102F5000E05CF74F80819181019709F098C0359628
:102F600080819181D101A80FB91FA259BF4F2C9127
:102F70000196918380833D96222319F081E080831E
:102F800001C01082D2011C9263C0F101E05CF74FD6
:102F900080819181892B09F07AC0F9011082D801D2
:102FA0008C91CBCFF101E05CF74F8081918101974B
:102FB00009F06DC0359680819181D101A80FB91FAC
:102FC000A259BF4F2C91019691838083222321F037
:102FD00081E0F80180833AC0D8011C9237C0F1012A
:102FE000E05CF74F80819181892B09F050C0D901B5
:102FF0001C9288E00E94CA2D21E0892B09F020E074
:1030000029839CCFF101E05CF74F8081918101978A
:10301000F1F5359680819181D101A80FB91FA25990
:10302000BF4F2C91019691838083222359F060E059
:1030300088E00E94942D64EF71E080E090E00E94AF
:10304000AC2B04C061E088E00E94942DF201108254
:103050006B2DC1010E942E1CD2018C9164960FB67B
:10306000F894DEBF0FBECDBFDF91CF911F910F91BE
:10307000FF90EF90DF90CF90BF90AF909F908F9098
:103080007F906F905F904F903F902F90089586E0D3
:10309000F2018083DDCF8627682F62956827062E90
:1030A000669566956025062E669560256770082EE4
:1030B000892F669507946795902D862706946795C6
:1030C000902586270895CF92DF92EF92FF920F937B
:1030D0001F93CF93DF9300D01F92CDB7DEB78C0143
:1030E000CE0101966C019FE0E92EF12CD801ED9103
:1030F000FC910088F189E02DB701C8011995F6010E
:1031000081936F01FFEFEF1AFF0A23E1E216F1044A
:1031100069F789819A81AB81BC818F3F9F4FAF4F07
:10312000BF4FE1F149815A816B817C8126E085E8BE
:103130009EE00E94052F8DEE9DE00E946F080E9488
:10314000A20A0E94270508591F4FD8016D937D934D
:103150008D939C93139764E374E085E89EE00E944E
:103160006030F801408151816281738122E030E05A
:1031700085E89EE00E94743266E474E085E89EE093
:103180000F900F900F900F90DF91CF911F910F91A3
:10319000FF90EF90DF90CF900C946D3080E092EC38
:1031A000A1E0B0E089839A83AB83BC83CE01019612
:1031B0006C018FE0E82EF12CD6014D916D01D80104
:1031C000ED91FC910288F389E02DB701C8011995B2
:1031D000BFEFEB1AFB0AE3E1EE16F10469F7A2CFA9
:1031E000CB010C94603ACB01642F0C94683A08959B
:1031F0008F929F92AF92BF92CF92DF92EF92FF9207
:103200000F931F93CF93DF9328E634E0FC013183C3
:103210002083E45BF74F60833997118210823696E2
:10322000108239971182108235961182108232965F
:10323000118210823A961082E12CF12C00E010E00D
:10324000C8010E94603AA82EC80107960E94603A01
:103250008E2CC0E0D0E0B12CA094B094C82ED12C1C
:10326000C094D094CE018E0D9F1DC697C4F4B501B5
:103270000C2E02C0759567950A94E2F761709C2E3A
:10328000980C892D0E945B2DB6010C2E02C07595FD
:1032900067950A94E2F76170892D0E94942D21961A
:1032A000C830D105F9F60F5F1F4FE8E0EE0EF11CB4
:1032B0000730110529F6DF91CF911F910F91FF90F3
:1032C000EF90DF90CF90BF90AF909F908F90089538
:1032D00028E634E0FC013183208308951F93CF93C7
:1032E000DF93FB0120E030E0DC01A95BB74F24173E
:1032F000350781F01191BC01620F731FCD91DC91F4
:1033000011976C0F7D1FEB01C259DF4F18832F5FA0
:103310003F4FEDCF8D919C911197820F931F8D930D
:103320009C93DF91CF911F910895CF93DF93FC0180
:10333000E359FF4F6081DC01A459BF4F67FF0EC006
:1033400020E8260F208322E02C93DC01ED91FC91F4
:103350000488F589E02DDF91CF911994FC01E05CA0
:10336000F74F2081318121503109820F931FEC01E9
:10337000C259DF4F88818C9331832083DF91CF91B5
:1033800008956F927F928F929F92AF92BF92CF9249
:10339000DF92EF92FF920F931F93CF93DF93EC0195
:1033A0009C01275B374F59016D3721F481E0F9010A
:1033B0008083AEC0F90180819E012D5B374F79017A
:1033C000882309F49EC080E26827F70180819181FB
:1033D0009E01245B374F4901FE01EE5BF74F6F0101
:1033E0008E01005C174F009759F4E55DF74060834C
:1033F000F90180818823A9F18FEF9FEF33961EC0DA
:103400008130910581F467FF08C083E08083862FB7
:103410008F77F8011082818324C082E08083862F19
:1034200090E0F8010BC08230910559F420812330DF
:1034300041F4F80180819181860F911D91838083F1
:1034400010C0F6012081821B9109F8012081318191
:103450008217930730F48C0F9D1FFC01E259FF4F38
:103460006083F4018081882369F03E01F1EB6F1ADB
:10347000F7EF7F0AF301808191810E944B18F301DD
:1034800091838083F701208131812F5F3F4F31830A
:103490002083F4014081F6015081F80180819181FF
:1034A000850F911D840F911D840F911D28173907D9
:1034B00011F5F70111821082FE01EB5BF74F1182CB
:1034C0001082329611821082442329F0389680812E
:1034D0009181892B19F4CE010E949519FE01E55BBB
:1034E000F74F8081882339F0C359DF4F8058988186
:1034F000981301C01082F5018081882349F0108261
:1035000007C06E3709F061CFF70111821082F3CF47
:10351000DF91CF911F910F91FF90EF90DF90CF90AF
:10352000BF90AF909F908F907F906F900895FF9283
:103530000F931F93CF93DF931F92CDB7DEB78C010C
:10354000F62E88E0898369816837E8F58DEE9DE085
:103550000E948C088DEE9DE00E94AB08811130C066
:10356000FF2041F041E050E0BE016F5F7F4FC80196
:103570000E946E1969E474E085E89EE00E94603064
:103580004AE050E0698185E89EE00E944F316DE598
:1035900074E085E89EE00E94603040E150E069817F
:1035A00085E89EE00E944F3162E674E085E89EE087
:1035B0000E946D3061E070E080E090E00E94AC2BF2
:1035C00089818F5FBFCF0F90DF91CF911F910F91B6
:1035D000FF900895CF93C62F83E8860F823090F432
:1035E0006DE785E89EE00E94A02EE091850EF091A7
:1035F000860E60E26C270190F081E02D85E89EE068
:10360000CF91199485E89EE0CF910C94A02E8F92D3
:103610009F92AF92BF92CF92DF92EF92FF920F9361
:103620001F93CF93DF93EC018C017C0120ECE21A15
:1036300027EFF20A845B974F6C015E0193EBA91AA6
:1036400097EFB90AF7018081918198012C1B3D0BFE
:10365000F60128173907C8F48081980122593F4F95
:103660004901882351F0F9016081F5018081918140
:103670000E944B18F50191838083F4016081CE0193
:103680000E94EA1A0F5F1F4FDDCF8081882369F007
:103690008E01035B174FF8016081CE010E94EA1A88
:1036A000F8016181CE010E94EA1AF70111821082AD
:1036B000C95BD74F19821882DF91CF911F910F916B
:1036C000FF90EF90DF90CF90BF90AF909F908F9042
:1036D0000895BF92CF92DF92EF92FF920F931F93C4
:1036E000CF93DF93EC01B62E8C01005C174FFC01E9
:1036F000E95BF74F80819181F801918380836EE7C8
:1037000085E89EE00E94A02E7E01F4EBEF1AF7EF11
:10371000FF0AF7018081882381F08FEF9FEF6E0110
:10372000F3EBCF1AF7EFDF0AF601918380836B2D5D
:103730000E944B18F601918380836B2DCE010E946D
:10374000EA1AF80160817181F701808160387105A2
:1037500080F4882371F17E01F3EBEF1AF7EFFF0A93
:10376000F701808191810E944B18F701918380833A
:1037700020C08823B1F07068672F7E01F3EBEF1A49
:10378000F7EFFF0AF701808191810E944B18F70142
:1037900091838083F80160810E944B18F701918327
:1037A0008083F801808191819068692FCE010E9409
:1037B000EA1AF8016081CE01DF91CF911F910F913C
:1037C000FF90EF90DF90CF90BF900C94EA1A0F9388
:1037D0001F93CF93DF931F92CDB7DEB78C01698320
:1037E00041E050E0BE016F5F7F4F0E946E19F8010B
:1037F000E359FF4F6081C8010E94691BC8010E9404
:10380000071B0F90DF91CF911F910F910895FF92A9
:103810000F931F93CF93DF938A01422F8DEE9DE08C
:103820000E948608C0E08DEE9DE00E94D807892B9B
:1038300071F0FF24F394FC0EC8018C0F911DEC0174
:103840008DEE9DE00E94E0078883CF2DECCF8C2F7A
:10385000DF91CF911F910F91FF9008956F927F920A
:103860008F929F92AF92BF92CF92DF92EF92FF9290
:103870000F931F93CF93DF93CDB7DEB769970FB642
:10388000F894DEBF0FBECDBF8C018DB69EB6862FDD
:1038900090E0FC01E058F109EF31F10508F0D5C4E2
:1038A000E853FF4F9801205C374F79010C94F337B0
:1038B000D9018D919C91892BF1F4D801ED91FC9166
:1038C0000280F381E02DC8011995FC0101900020D0
:1038D000E9F7AF0141505109481B590BD801ED914F
:1038E000FC910280F381E02D62C0D9018D919C9101
:1038F000019709F49FC386E0F801E459FF4F86C49D
:10390000F90180819181892BB1F7D801ED91FC916A
:103910000480F581E02DC8011995FC01019000207B
:10392000E9F7AF0141505109481B590BD801ED91FE
:10393000FC910480F581E02D3AC0F90180819181EC
:10394000892BC9F6D801ED91FC910680F781E02D15
:10395000C8011995FC0101900020E9F7AF01415021
:103960005109481B590BD801ED91FC910680F78154
:10397000E02D1DC0F90180819181892B09F0BBCF19
:10398000D801ED91FC910084F185E02DC8011995D5
:10399000FC0101900020E9F7AF0141505109481B9B
:1039A000590BD801ED91FC910084F185E02DC801FF
:1039B000498F588F1995498D588DBC0134C4F90130
:1039C00080819181892B09F096CFD801ED91FC91EE
:1039D0000284F385E02DC8011995FC0101900020B7
:1039E000E9F7AF0141505109481B590BD801ED913E
:1039F000FC910284F385E02DDACFF9018081918179
:103A0000892B09F078CFD801ED91FC910484F585DC
:103A1000E02DC8011995FC0101900020E9F7AF01E4
:103A200041505109481B590BD801ED91FC91048478
:103A3000F585E02DBCCFF90180819181892B09F0BA
:103A40005ACFD801ED91FC910684F785E02DC8018D
:103A50001995FC0101900020E9F7AF01415051098F
:103A6000481B590BD801ED91FC910684F785E02D98
:103A70009ECFF90180819181892B09F03CCF4AE0EA
:103A800050E06EE774E0CFC3D9018D919C9102970D
:103A900009F031CFF801EB5BF74F20813181A801AC
:103AA000420F531FDA01A259BF4F8C9111966C91AE
:103AB0002E5F3F4F318320830E945B2DC2C3F901EB
:103AC00080819181029709F016CFF801EB5BF74FE7
:103AD00020813181A801420F531FDA01A259BF4F43
:103AE0008C9111966C912E5F3F4F318320830E9401
:103AF000942DA7C3D9018D919C91019709F0FBCE1C
:103B0000F801EB5BF74F20813181D801A20FB31F81
:103B1000A259BF4F8C912F5F3F4F318320830E946A
:103B2000CA2DF5C2F90180819181029709F0E3CE97
:103B3000F801EB5BF74F20813181D801A20FB31F51
:103B4000A259BF4F8C91A9014F5F5F4F51834083B2
:103B5000D901A159BF4FA00FB11F6D917C912D5F6D
:103B60003F4F318320830E94412C6BC3C80184598D
:103B70009F4F26E0DC012C93F70120813181223018
:103B8000310508F462C3ADB6BEB6F801EB5BF74F82
:103B900040815181D801A40FB51FA259BF4F6C912C
:103BA0004F5F5F4F51834083462F50E0ADB7BEB7A4
:103BB000A41BB50B0FB6F894BEBF0FBEADBF1196D8
:103BC0006D012230310511F4613031F04D5F5F4FEE
:103BD0002417350709F07BC07C2D3601262D271BC5
:103BE000261788F420813181A801420F531F4259C2
:103BF0005F4FDA014C912F5F3F4F31832083D30118
:103C00004D933D01EBCFD7012D913C9122303105F1
:103C1000B1F020813181D901A259BF4FA00FB11F4E
:103C2000ED90FC902E5F3F4F31832083B9EEEB1671
:103C3000B3E0FB0638F029E0FC01208348C0EE2405
:103C4000E394F12CDC011C92F092730DE092720D62
:103C5000C80182599F4F9093770D8093760D80E035
:103C6000688F0E942203688D613029F4F6018081FB
:103C70000E94B00412C0D092700DC0926F0D60937C
:103C80006D0D10926C0D81EC94E090936B0D809310
:103C90006A0DD6018C910E9496040E9426048091A0
:103CA000720D9091730D2091740D3091750D281740
:103CB0003907C9F70E944504EE0CFF1CF801E95BC7
:103CC000F74F80819181E80EF91EF182E0820FB6F4
:103CD000F894BEBE0FBEADBEB8C2F901808191811D
:103CE000039709F008CED801AB5BB74F8D919C913B
:103CF0001197FC01E259FF4FE00FF11F60817181C4
:103D0000F801E80FF91FE059FF4F408103968D93AA
:103D10009C93D801ED91FC910288F389E02DC801B4
:103D200019958FC2F90180819181029709F0E3CD45
:103D3000D801AB5BB74F8D919C911197FC01E25973
:103D4000FF4FE00FF11F6081718102968D939C936C
:103D5000D801ED91FC910088F189E02DC8011995F9
:103D6000D6C1F90180819181029709F0C4CDF80193
:103D7000EB5BF74F808191819801280F391FD901A2
:103D8000A259BF4F6C911196EC900296918380835B
:103D9000CE0101960E94E709CE0101960E94D50945
:103DA000F12CBE01615F7F4FCE0101960E940A0A8D
:103DB000F394EF14B0F7980124593F4F7901882309
:103DC00009F422C248E050E0BE01615F7F4FC801A4
:103DD0000E946E1916C2D9018D919C910B9709F022
:103DE0008ACDD801AB5BB74F2D913C911197A801BB
:103DF000420F531FFA01E259FF4F60816901EFEF53
:103E0000CE1ADE0A1196DC92CE923E01FFE06F0ED2
:103E1000711C80E090E0B62CA72CC00ED11E76015C
:103E2000E80EF91E7EE6E70EF11CF701F080F301C3
:103E3000F1923F0101968830910589F7FA01E9581E
:103E4000FF4FF0803196E080255F3F4F2D933C93EC
:103E5000CE0101960E94E709CE0101960E94B208A8
:103E60006B2D7A2DCE0101960E94AD0940E06F2D99
:103E7000CE0101960E944F09F12CFE1409F4E1C114
:103E8000CE0101960E9491098F8B41E050E0BE0166
:103E9000695E7F4FC8010E946E19F394EECFD9017D
:103EA0008D919C910B9709F026CDD801AB5BB74F54
:103EB0002D913C911197A801420F531FFA01E2592D
:103EC000FF4F60816901EFEFCE1ADE0A1196DC9296
:103ED000CE923E01FFE06F0E711C80E090E0B62CA8
:103EE000A72CC00ED11E7601E80EF91E7EE6E70E65
:103EF000F11CF701F080F301F1923F010196883047
:103F0000910589F7FA01E958FF4FF0803196408119
:103F1000255F3F4F2D933C93CE010196498F0E9420
:103F2000E709CE0101960E94B2086B2D7A2DCE01D1
:103F300001960E94AD09498D6F2DCE0101960E9418
:103F40004F097FC1D9018D919C91029709F0D3CC83
:103F5000F801EB5BF74F808191819801280F391FA1
:103F6000D901A259BF4F6C911196EC9002969183A2
:103F700080834E2D8DEE9DE00E948608F12C8DEE03
:103F80009DE00E94D807892B79F08DEE9DE00E947C
:103F9000E007898341E050E0BE016F5F7F4FC801B9
:103FA0000E946E19F394EBCFF801E459FF4FFE1411
:103FB00009F44AC181E02AC1F90180819181029707
:103FC00008F499CC6801FBEBCF1AF7EFDF0AD601B2
:103FD0008D919C911197F801E80FF91FE259FF4F5D
:103FE000608101968D939C938DEE9DE00E948C08DC
:103FF000B12C2B2D30E0F70180819181019728179A
:10400000390798F4F60180819181F801E80FF91FD2
:10401000E259FF4F60810196D6018D939C938DEEFE
:104020009DE00E943008B394E4CF8DEE9DE00E94A5
:10403000AB0807C1F801EB5BF74F80819181D80194
:10404000A80FB91FA259BF4F2C910196918380836D
:104050008CB5211102C0806201C08F7D8CBDF1C082
:10406000F90180819181019709F045CCF801EB5B62
:10407000F74F80819181D801A80FB91FA259BF4F76
:104080002C910196918380839CB5822F83709C7FB5
:10409000892B8CBD8DB522FB222720F98E7F822BA8
:1040A0008DBD18C0D9018D919C91019709F023CC49
:1040B000F801EB5BF74F80819181D801A80FB91F00
:1040C000A259BF4F2C910196918380838CB5837F39
:1040D000282B2CBDE95DF740B7C0F90180819181A3
:1040E000019709F008CCF801EB5BF74F80819181D3
:1040F000D801A80FB91FA259BF4F2C9101969183E7
:1041000080832EBD00000DB407FEFDCF8EB58983E0
:1041100041E050E0BE016F5F7F4F85C0D9018D91B6
:104120009C91892B09F0E7CBF801EA59FF4F4081B8
:104130005181B8016E5F7F4F76C0F9018081918116
:10414000892B09F0D8CB8091640D9091650DA091D9
:10415000660DB091670D89839A83AB83BC8344E07D
:1041600050E0D8CFD9018D919C91049709F0C3CB31
:10417000D801AB5BB74F2D913C911197F901E259F2
:10418000FF4FE00FF11F60817181828193812C5F6D
:104190003F4F2D933C930E94370353C0F901808118
:1041A0009181892B09F0A7CB0E9409039A83898307
:1041B00042E050E0AFCFD9018D919C91029709F078
:1041C0009ACBD801AB5BB74F2D913C911197F90178
:1041D000E259FF4FE00FF11F808191812E5F3F4F29
:1041E0002D933C939C0122503109F801E459FF4F73
:1041F0007F012630310540F40E94000380E00E94D8
:10420000C903D7011C9221C085E0F70180831DC03E
:10421000D9018D919C91892B09F06DCB44E050E040
:10422000B80168597F4FC8010E946E190AC0F90190
:1042300080819181892B09F05ECB61E0C8010E94E9
:10424000971AF801E459FF4F10827801FCE6EF0E4F
:10425000F11CD7016C91C8010E94E71BF701808116
:104260000FB6F8949EBE0FBE8DBE69960FB6F89439
:10427000DEBF0FBECDBFDF91CF911F910F91FF9099
:10428000EF90DF90CF90BF90AF909F908F907F90F6
:104290006F900895EF92FF920F931F93CF93DF9348
:1042A0001F921F92CDB7DEB7122F8DEE9DE049838E
:1042B0005A830E948C084981042FE42E5A81F52EDE
:1042C0008E2D801B811740F4F70161917F018DEEE7
:1042D0009DE00E943008F4CF8DEE9DE00F900F908E
:1042E000DF91CF911F910F91FF90EF900C94AB084D
:1042F000CF93DF93EC0185E89EE00E94F32D181622
:1043000019064CF485E89EE00E940C2E682FCE0121
:104310000E94C119F0CFDF91CF9108952091740DC3
:104320003091750D8091720D9091730D281739079A
:1043300021F40E94450481E0089580E00895CF9320
:10434000DF93D82FC62F811109C0662321F0613079
:10435000B1F560E001C061E08DE01DC0813079F50C
:10436000613049F030F0623061F0633041F560E077
:104370001DC061E01BC060E08CE00E94942D61E0F4
:1043800019C060E08CE00E94942D60E08BE00E94F8
:10439000942D61E08AE00E94942D8BE1D89FF0017A
:1043A0001124E05CF14FC18380E00AC08CE00E94E0
:1043B000942D60E08BE00E94942D60E0EBCF85E0CF
:1043C000DF91CF9108959093790E8093780E60934A
:1043D000400E40935B0E60E078EB88E097E40E942B
:1043E000370361E08DE00E945B2D61E08CE00E946C
:1043F0005B2D61E08BE00E945B2D61E08AE00E9412
:104400005B2D83E00E9400036091410E80E00E94DA
:104410009F2160915C0E81E00E949F2120E032E0AC
:104420003093560E2093550E80E090E0A0E0B4E467
:104430008093570E9093580EA093590EB0935A0E36
:1044400041E04093500E3093710E2093700E809394
:10445000720E9093730EA093740EB093750E4093EA
:104460006B0E08950F931F93CF93DF93AB019BE1E6
:10447000899FE0011124C05CD14F9B012353310976
:104480002A393340B0F09B81911110C09A819F5F0F
:104490009A836981662321F061500E949F2103C0A5
:1044A00081E08093760E83E08B8337C091509B83AD
:1044B00034C08091770E882309F18D899E89DB01B4
:1044C000A81BB90B9D010E94F93709891A892B890C
:1044D0003C89060F171F281F391F098B1A8B2B8B3E
:1044E0003C8B88859985AA85BB85840F951FA11D66
:1044F000B11D88879987AA87BB870FC08C819D8152
:104500008617970718F47D836C8307C08E819F817F
:104510006817790710F47F836E83DF91CF911F9125
:104520000F91089580E00C94322281E00C943222A5
:104530002F923F924F925F926F927F928F929F92B3
:10454000AF92BF92CF92DF92EF92FF920F931F93A1
:10455000CF93DF93CDB7DEB764970FB6F894DEBF85
:104560000FBECDBF29013A01E986FA860B871C8769
:104570001601BA8AA98A0E94FB3520E030E04AE79A
:1045800054E40E9427349B01AC010E94AC336B01C0
:104590007C0120E030E0A9010E94B23520E030E04B
:1045A00040E05FE387FD05C0C701B6010E94AC3360
:1045B00004C0C701B6010E94AB330E948F340E9431
:1045C000C23420E030E040E05FE30E94FB356D83C1
:1045D0007E838F839887A30192016D817E818F8175
:1045E00098850E94273429853A854B855C850E94F1
:1045F000FB350E9410340E9494348B010230110567
:1046000008F42DC3B80180E090E00E94C0342D81F1
:104610003E814F8158850E942734A30192010E9458
:10462000FB3569837A838B839C83D1016D937D9362
:104630008D939C93139729853A854B855C850E94C1
:10464000B23518160CF408C3A301920169817A816E
:104650008B819C810E9427346B017C019B01AC0102
:1046600060E070E080E090E40E9427344B015C0140
:1046700020E030E0A9010E94B23520E030E040E0C7
:104680005FE387FD05C0C501B4010E94AC3304C0DF
:10469000C501B4010E94AB330E948F340E94C23422
:1046A000A70196010E94FB359B01AC0160E070E020
:1046B00080E090E40E94AB3320E030E0A9010E944A
:1046C000B23520E030E0A901181664F5C501B40147
:1046D0000E94B23520E030E040E05FE387FD05C096
:1046E000C501B4010E94AC3304C0C501B4010E94ED
:1046F000AB330E948F340E94C234A70196010E94FE
:10470000FB359B01AC0160E070E080E090E40E942A
:10471000AB332DEC3CEC4CEC5DE30E94233487FD85
:104720009BC22CC0C501B4010E94B23520E030E02C
:1047300040E05FE387FD05C0C501B4010E94AC33D2
:1047400004C0C501B4010E94AB330E948F340E94A3
:10475000C234A70196010E94FB359B01AC0160E0C9
:1047600070E080E090E40E94AB332DEC3CEC4CEC2C
:104770005DEB0E94B23518160CF46EC2A3019201D3
:10478000C301B2010E94AC339B01AC0169817A8103
:104790008B819C810E94233487FF61C129813A81EA
:1047A0004B815C81C301B2010E9427346D877E87F3
:1047B0008F87988B1C8A1B8AEB89FC89BF0180E05C
:1047C00090E00E94C0344B015C019B01AC016D85FF
:1047D0007E858F8598890E94AB3320E030E040E0F1
:1047E0005FE30E94233418163CF42B893C892F5F29
:1047F0003F4F3C8B2B8BE0CF29813A814B815C81F1
:10480000C501B4010E94FB359B01AC01C301B2019B
:104810000E94AB334B015C0120E030E0A9010E9413
:10482000B235181624F0B7FAB094B7F8B094A501D1
:10483000940169817A818B819C810E9427346983EC
:104840007A838B839C839B01AC0160E070E080E005
:1048500090E40E9427344B015C0120E030E0A90184
:104860000E94B23520E030E040E05FE387FD05C004
:10487000C501B4010E94AC3304C0C501B4010E945B
:10488000AB330E948F340E94C23429813A814B811C
:104890005C810E94FB359B01AC0160E070E080E030
:1048A00090E40E94AB3320E030E0A9010E94B235D1
:1048B00020E030E0A901181674F5C501B4010E948A
:1048C000B23520E030E040E05FE387FD05C0C50180
:1048D000B4010E94AC3304C0C501B4010E94AB33E3
:1048E0000E948F340E94C23429813A814B815C81BD
:1048F0000E94FB359B01AC0160E070E080E090E439
:104900000E94AB332DEC3CEC4CEC5DE30E94233475
:1049100087FF2FC0A1C1C501B4010E94B23520E0BC
:1049200030E040E05FE387FD05C0C501B4010E94AF
:10493000AC3304C0C501B4010E94AB330E948F3474
:104940000E94C23429813A814B815C810E94FB35EF
:104950009B01AC0160E070E080E090E40E94AB332A
:104960002DEC3CEC4CEC5DEB0E94B23518160CF4CF
:1049700073C120E030E0A901C701B6010E94B23541
:1049800020E030E040E05FE387FD05C0C701B601ED
:104990000E94AC3304C0C701B6010E94AB330E9431
:1049A0008F340E94C2349B01AC01C701B6010E9442
:1049B000AB3320E030E0A9010E94B23520E030E0C6
:1049C000A901181634F5C701B6010E94B23520E0DE
:1049D00030E040E05FE387FD05C0C701B6010E94FB
:1049E000AC3304C0C701B6010E94AB330E948F34C0
:1049F0000E94C2349B01AC01C701B6010E94AB33D7
:104A000027E137EB41ED58E30E94233487FF27C0AD
:104A100023C1C701B6010E94B23520E030E040E07A
:104A20005FE387FD05C0C701B6010E94AC3304C037
:104A3000C701B6010E94AB330E948F340E94C2347A
:104A40009B01AC01C701B6010E94AB3327E137EBF4
:104A500041ED58EB0E94B23518160CF4FDC020E071
:104A600030E040E251E4C701B6010E94233487FFE1
:104A700076C020E030E0A901C701B6010E94B2353E
:104A800020E030E040E05FE387FD05C0C701B601EC
:104A90000E94AC3304C0C701B6010E94AB330E9430
:104AA0008F340E94C2349B01AC01C701B6010E9441
:104AB000AB3320E030E0A9010E94B23520E030E0C5
:104AC000A901181634F5C701B6010E94B23520E0DD
:104AD00030E040E05FE387FD05C0C701B6010E94FA
:104AE000AC3304C0C701B6010E94AB330E948F34BF
:104AF0000E94C2349B01AC01C701B6010E94AB33D6
:104B000027E137EB41ED58E30E94233487FF27C0AC
:104B1000A3C0C701B6010E94B23520E030E040E0FA
:104B20005FE387FD05C0C701B6010E94AC3304C036
:104B3000C701B6010E94AB330E948F340E94C23479
:104B40009B01AC01C701B6010E94AB3327E137EBF3
:104B500041ED58EB0E94B23518160CF47DC02D8142
:104B60003E814F815885C701B6010E94FB356B011C
:104B70007C0120E030E0A9010E94B23520E030E065
:104B800040E05FE387FD05C0C701B6010E94AC337A
:104B900004C0C701B6010E94AB330E948F340E944B
:104BA000C2349B01AC01C701B6010E94AB3320E0C7
:104BB00030E0A9010E94B23520E030E0A9011816CA
:104BC00034F5C701B6010E94B23520E030E040E084
:104BD0005FE387FD05C0C701B6010E94AC3304C086
:104BE000C701B6010E94AB330E948F340E94C234C9
:104BF0009B01AC01C701B6010E94AB3327E137EB43
:104C000041ED58E30E94233487FF26C033C0C7011B
:104C1000B6010E94B23520E030E040E05FE387FD5E
:104C200005C0C701B6010E94AC3304C0C701B6017C
:104C30000E94AB330E948F340E94C2349B01AC01AE
:104C4000C701B6010E94AB3327E137EB41ED58EBCA
:104C50000E94B235181674F001501109CFCC20E033
:104C600030E040E05FE36D817E818F8198850E9416
:104C7000AC33ADCCA989BA890D931C9364960FB659
:104C8000F894DEBF0FBECDBFDF91CF911F910F9182
:104C9000FF90EF90DF90CF90BF90AF909F908F905C
:104CA0007F906F905F904F903F902F90089510925B
:104CB000410E10925C0E08952F923F924F925F9298
:104CC0006F927F928F929F92AF92BF92CF92DF921C
:104CD000EF92FF920F931F93CF93DF93CDB7DEB781
:104CE000C65CD1090FB6F894DEBF0FBECDBFC3546A
:104CF000DF4F59834883CD5BD040C154DF4F0883D9
:104D000019832A833B83CF5BD04026013701CF54E0
:104D1000DF4FA882C15BD0408092770EAA2031F18C
:104D2000AAE7AA2EAEE0BA2EAE014B555F4F6A013C
:104D3000E12C10E4F12E0CE916E4A30192010E948B
:104D40009822CB55DF4F688179818A819B81C55A32
:104D5000D0409B01AC010E94AC33CB55DF4F688340
:104D600079838A839B83C55AD04017C020E030E006
:104D700040E05FE30E94FB35EAE7AE2EEEE0BE2E98
:104D8000DE01AB55BF4F6D01E12C10E4F12E0CE1BB
:104D900017E4A30192010E94982280917A0E9091CB
:104DA0007B0E880F991F90937B0E80937A0ECB55C4
:104DB000DF4F688179818A819B81C55AD0400E94EA
:104DC0003703B091410EC554DF4FB883CB5BD04061
:104DD00081E0C555DF4F8883CB5AD04061E080E049
:104DE0000E949F21E0915C0EC454DF4FE883CC5BAE
:104DF000D04083E0C455DF4F8883CC5AD04063E075
:104E000081E00E949F218091400EFE01E755FF4FF7
:104E1000808390915B0E918320917A0E30917B0E6E
:104E2000CF54DF4F4881C15BD040442311F1309310
:104E3000730D2093720DF093700DE0936F0D92E05F
:104E400090936D0D10926C0D21EC34E030936B0D4E
:104E500020936A0D0E94960489ED94E090936B0D67
:104E600080936A0D82E392E29093690D8093680DBE
:104E700006C0369527953093730D2093720DE09000
:104E8000780EF090790EF701E859FF4F20E030ECF2
:104E90004FE754E460817181828193810E942734BD
:104EA000C954DF4F688379838A839B83C75BD04073
:104EB0001E015DE9250E311C3E0182E1680E711C68
:104EC000CE01815B9F4F2C01A9E04A0E511CF101DC
:104ED0003896C355DF4FF983E883CD5AD040CE547E
:104EE000DF4F8883C25BD040CA54DF4F9883C65BD4
:104EF000D04087010B59174F9701245A374FC1559E
:104F0000DF4F39832883CF5AD0408091400EF8017B
:104F1000CE54DF4FA881C25BD040CA54DF4FB88166
:104F2000C65BD0409EE401900D929A95E1F78823EC
:104F300041F0813061F4F20120893189428953893D
:104F400009C0D2012D913D914D915C9103C020E0AB
:104F500030E0A901F801DE0111969EE401900D9266
:104F60009A95E1F7882341F0813061F4F301C08C18
:104F7000D18CE28CF38C09C0D301CD90DD90ED9003
:104F8000FC9003C0C12CD12C760160E876E988E161
:104F90009BE40E94273420E030E040E85FE30E9479
:104FA000AC334B015C0120E836E948E15BE4C70122
:104FB000B6010E94FB359B01AC010E94AC332BED86
:104FC0003FE049E450E40E94FB35C155DF4FA88122
:104FD000B981CF5AD0402D913D914D915C910E9465
:104FE000FB356B017C01A5019401C501B4010E9450
:104FF000FB354B015C01A7019601C701B6010E9478
:10500000FB359B01AC01C501B4010E94AC330E9489
:10501000AE369B01AC01C954DF4F688179818A812A
:105020009B81C75BD0400E94FB35F1016193719376
:10503000819391931F01F4E06F0E711C24E0420EE6
:10504000511CC355DF4F48815981CD5AD040241699
:10505000350609F05ACF1092760EC155DF4F1982EE
:105060001882CF5AD040C155DF4F88819981CF5ADD
:10507000D040C354DF4FA881B981CD5BD0408A179F
:105080009B0709F4D1C28091770E1092420E1092C4
:10509000430E81110BC0EFEFF3E0F093470EE09366
:1050A000460E1092450E1092440E10C01092480EFB
:1050B0001092490E10924A0E10924B0E1092510E01
:1050C0001092520E1092530E1092540E10925D0ECA
:1050D00010925E0E882389F01092630E1092640E77
:1050E0001092650E1092660E10926C0E10926D0E5C
:1050F00010926E0E10926F0E0AC08FEF93E0909395
:10510000620E8093610E1092600E10925F0ECF546B
:10511000DF4F9881C15BD0409923E1F10E942604C2
:105120000E948E218823E1F30E94892BCE54DF4F09
:10513000688379838A839B83C25BD040A091770E7A
:10514000CA54DF4FA883C65BD04080917A0E9091FD
:105150007B0EFE01E555FF4FC355DF4FF983E88312
:10516000CD5AD04000E41EE09E012F5F3F4F290141
:10517000AE01415B5F4F1A01612C712C9C0140E034
:1051800050E0CD53DF4F288339834A835B83C35C70
:10519000D0409AC08091400E0E94B00449ED54E086
:1051A00050936B0D40936A0D82E992E29093690DE2
:1051B0008093680D0E9426040E948E218823E1F3CB
:1051C00080915B0E0E94B004A9EDB4E0B0936B0D2A
:1051D000A0936A0DE5E9F2E2F093690DE093680DA2
:1051E0000E9426040E948E218823E1F39DCFCD5397
:1051F000DF4F688179818A819B81C35CD0400E94A6
:10520000C0346B017C01D80151966D917D918D91D7
:105210009C9154970E94C0349B01AC010E94AC3316
:10522000A70196010E9427340E94AE36F2016083E6
:1052300071838283938320E030E040E852E40E944F
:10524000FB359B01AC010E94AC3323EF34E045EB0E
:105250005FE30E94FB350E949434D1016D937C93EF
:10526000F301E05CF14F82818823B9F1F301E05C46
:10527000F14F8281882309F4B3C08195C355DF4F74
:10528000A881B981CD5AD0408C93B1E0B08BC35581
:10529000DF4FE881F981CD5AD0403196C355DF4FB9
:1052A000F983E883CD5AD040FBE16F0E711C055E97
:1052B0001F4F22E0220E311C34E0430E511C46E306
:1052C0006416710409F496C0CA54DF4FF881C65BB6
:1052D000D040FF2309F45AC08ACF80898111C6CFFC
:1052E000F80180849184A284B38464857585868561
:1052F0009785680D791D8A1D9B1D0E94C0342AE088
:1053000037ED43E25CE30E94FB35A70196010E9462
:1053100027346B017C0124EA30E74DE75FE3D801D5
:1053200057966D917D918D919C915A970E94FB3576
:105330009B01AC01C701B6010E94AC336B017C013B
:10534000F801678B708F818F928F20E030E0A90188
:105350000E94B23520E030E040E05FE387FD05C009
:10536000C701B6010E94AC3304C0C701B6010E9458
:10537000AB330E948F34D80156967C936E93559729
:10538000F80184869586A686B78670CFD8011496D4
:105390006D917C91159716968D919C911797681B2E
:1053A000790B96E0660F771F9A95E1F7F10171830B
:1053B000608380E090E00E94C03423EF34E045EB4E
:1053C0005FE30E94273420E030E040E05CE30E948D
:1053D000FB35D2016D937D938D939C93139746CFAC
:1053E0008181C355DF4FA881B981CD5AD0408C93BC
:1053F000108A4DCF0091780E1091790EF801EC597A
:10540000F74F8081882309F470C08091420E81118A
:105410006CC03C97C080D180E280F38020E030E017
:10542000A901C701B6010E94B23518160CF05DC083
:10543000C555DF4F8881CB5AD040EDE9F0E0EC0F45
:10544000FD1F24E08202E00DF11D11242081318135
:105450004281538169817A818B819C810E94FB35D5
:105460004B015C0180915D0E8111B5C02D813E81A3
:105470004F815885C954DF4F688179818A819B812A
:10548000C75BD0400E94FB359B01AC01C701B60150
:105490000E94AC332B013C019B01AC01C501B4015E
:1054A0000E94AB336B017C0120E030E0A9010E9437
:1054B000B235181624F0F7FAF094F7F8F09420E0DB
:1054C00030E040E05FE3F801EE55F74F6081718115
:1054D000828193810E94FB359B01AC01C701B6011B
:1054E0000E94B23518160CF47AC001E41EE0CE0119
:1054F000815B9F4F6C01E12CF12CD6018D919C9129
:10550000893C9C4030F4F80160816F5F8E2D0E94D1
:105510009F2142E050E0B6018091780E9091790E83
:105520000E946E196BEA70E06C0F7D1F6E0D7F1D7F
:1055300041E050E08091780E9091790E0E946E19B2
:10554000FFEFEF1AFF0A22E0C20ED11C055E1F4FCB
:1055500032E0E316F10489F685E89EE00E94F32D1F
:10556000181619060CF460C00E94892BCE54DF4F28
:10557000288139814A815B81C25BD040621B730BF9
:10558000840B950B0E94C0346B017C0120E030E05D
:105590004AE754E4C154DF4F688179818A819B8155
:1055A000CF5BD0400E94FB359B01AC01C701B60127
:1055B0000E94233487FDD8CFC155DF4F48815981E0
:1055C000CF5AD0404F5F5F4FC155DF4F598348835B
:1055D000CF5AD04048CD20E030E0A90157CFF801A4
:1055E000E05AF74F2081318142815381C501B401D6
:1055F0000E94FB35A30192010E9427346B017C01BC
:1056000020E030E040E85FE30E94233487FF06C0DB
:10561000C12CD12C80E8E82E8FE3F82EB701A6012B
:10562000C8010E941A0E61CFC554DF4F6881CB5B61
:10563000D04080E00E949F21C454DF4F6881CC5B42
:10564000D04081E00E949F2180E0CA53DF4F0FB617
:10565000F894DEBF0FBECDBFDF91CF911F910F91A8
:10566000FF90EF90DF90CF90BF90AF909F908F9082
:105670007F906F905F904F903F902F9008951F9272
:105680000F920FB60F9211242F933F938F939F93F6
:10569000AF93BF9380917D0E90917E0EA0917F0E6F
:1056A000B091800E30917C0E23E0230F2D3720F433
:1056B0000196A11DB11D05C026E8230F0296A11D6C
:1056C000B11D20937C0E80937D0E90937E0EA0934F
:1056D0007F0EB093800E8091810E9091820EA091EA
:1056E000830EB091840E0196A11DB11D8093810E91
:1056F0009093820EA093830EB093840EBF91AF91CE
:105700009F918F913F912F910F900FBE0F901F90FF
:1057100018953FB7F8948091810E9091820EA091D8
:10572000830EB091840E26B5A89B05C02F3F19F0BB
:105730000196A11DB11D3FBF6627782F892F9A2F93
:10574000620F711D811D911D42E0660F771F881F3A
:10575000991F4A95D1F70895CF92DF92EF92FF9269
:10576000CF93DF936B017C010E94892BEB01C11465
:10577000D104E104F10489F00E94AA330E94892B2C
:105780006C1B7D0B683E734090F381E0C81AD10812
:10579000E108F108C851DC4FEACFDF91CF91FF90CB
:1057A000EF90DF90CF9008958230910538F0880F08
:1057B000991F880F991F05970197F1F7089578941D
:1057C00084B5826084BD84B5816084BD85B5826006
:1057D00085BD85B5816085BDEEE6F0E080818160A4
:1057E0008083E1E8F0E010828081826080838081A4
:1057F00081608083E0E8F0E0808181608083E1EB7C
:10580000F0E0808184608083E0EBF0E08081816063
:105810008083E1E9F0E08081826080838081816023
:105820008083E0E9F0E0808181608083E1EAF0E05C
:10583000808182608083808181608083E0EAF0E003
:10584000808181608083E1E2F1E0808182608083F9
:10585000808181608083E0E2F1E0808181608083EB
:10586000EAE7F0E0808184608083808182608083C9
:105870008081816080838081806880831092C100F4
:1058800008951F93CF93DF93182FEB0161E00E94DF
:105890005B2D209711F460E004C0CF3FD10539F4AF
:1058A00061E0812FDF91CF911F910C94942DE12F16
:1058B000F0E0E856FD4F449150E0FA013197E231B3
:1058C000F10508F09BC0E951FF4F0C94F33784B504
:1058D000806884BDC7BD97C084B5806284BDC8BDE3
:1058E00092C080918000806880938000D09389006E
:1058F000C093880088C0809180008062809380007F
:10590000D0938B00C0938A007EC080918000886015
:1059100080938000D0938D00C0938C0074C08091E0
:10592000B00080688093B000C093B3006CC08091D9
:10593000B00080628093B000C093B40064C08091D6
:105940009000806880939000D0939900C093980055
:105950005AC080919000806280939000D0939B0009
:10596000C0939A0050C0809190008860809390000E
:10597000D0939D00C0939C0046C08091A000806899
:105980008093A0008091A0008F7B8093A000D09393
:10599000A900C093A80037C08091A00080628093C6
:1059A000A000D093AB00C093AA002DC08091A000AE
:1059B00088608093A000D093AD00C093AC0023C05A
:1059C00080912001806880932001D0932901C093A9
:1059D000280119C080912001806280932001D0931A
:1059E0002B01C0932A010FC0809120018860809311
:1059F0002001D0932D01C0932C0105C0C038D105E2
:105A00000CF04ECF48CFDF91CF911F91089590E0D9
:105A1000FC013197E231F10508F04CC0E750FF4F2F
:105A20000C94F337809180008F7703C080918000C1
:105A30008F7D80938000089580918000877FF9CFCB
:105A400084B58F7702C084B58F7D84BD0895809121
:105A5000B0008F7703C08091B0008F7D8093B0003D
:105A60000895809190008F7707C0809190008F7D7E
:105A700003C080919000877F80939000089580916B
:105A8000A0008F7707C08091A0008F7D03C0809118
:105A9000A000877F8093A0000895809120018F77D8
:105AA00007C0809120018F7D03C080912001877FF6
:105AB000809320010895CF93DF9390E0FC01E252A0
:105AC000FD4F2491FC01EC5DFC4F8491882349F14A
:105AD00090E0880F991FFC01E256FC4FA591B4910C
