:100000000C94A2010C94D3010C94D3010C94D30151
:100010000C94D3010C94D3010C94D3010C94D30110
:100020000C94D3010C94D3010C94D3010C94D30100
:100030000C94D3010C94D3010C94D3010C94D301F0
:100040000C94D3010C94D3010C94D3010C94D301E0
:100050000C946C070C94D3010C94D3010C94632C76
:100060000C94D3010C948B300C94C1300C94D301BC
:100070000C94D3010C9441070C94D3010C94D3013C
:100080000C94D3010C94D3010C94D3010C94B302BF
:100090000C94D3010C94D3010C94D3010C946709F4
:1000A0000C94D3010C94D3010C94D3010C94D30180
:1000B0000C94D3010C94D3010C94D3010C94D30170
:1000C0000C94D3010C94D3010C94D3010C94D30160
:1000D0000C94D3010C94D3010C94D3010C94D30150
:1000E0000C94D30152106010D810E8105B11F31675
:1000F000F31687119711B611FF11F316F3161D129F
:1001000042125D128712D5120F1365137513B313C4
:10011000CE13DD1513162116E915F5153E165916E1
:10012000F316F316F316F316F316F316F316F31687
:10013000F316F316F316F316F316F316F316F31677
:10014000F316F316F316F316F316F316F316F31667
:10015000F316F316F316F316F316F316F316F31657
:10016000F316F316F316F316F316F316F316F31647
:10017000F316F316F316F316F316F316F316F31637
:10018000F316F316F316F316F316F316FB13BF1557
:1001900062142D1D551D721D8F1DD21DB41DF01D25
:1001A000191E4F1E341E8B1E671E671F421F861F9F
:1001B0002420C01FB12077204A1D0521272142217C
:1001C00063210E1E72218721A321B021DD21EC21A4
:1001D0008B2D902D952D9F2DA92D222EB32DBB2D2E
:1001E000C32DCD2DD72DE12DF02DFA2D222E042E4D
:1001F0000E2E182E442E472E362E3A2E402E7E2EB0
:100200004B2E4F2E552E592E5D2E632E672E6B2EA4
:100210007E2E712E752E792E00000A0B02090C0D10
:100220000E080703040100000000000000000000A9
:1002300000000000000000000000000000000000BE
:10024000000000001211100000000000000000007B
:10025000000000000000000000000000000001029B
:1002600010202008081020401020408002010201C8
:100270000804020101020408102040808040201080
:1002800008040201800402018040201008040201D9
:100290000804020101020408102040800102040841
:1002A000102040800505050507050808080802021A
:1002B00002020A0A08080404040401010101010100
:1002C00001010303030303030303040707070C0CE3
:1002D0000C0C0C0C0C0C02020202060606060606AA
:1002E00006060B0B0B0B0B0B0B0B00002000230067
:1002F000260029002C002F0032000001000003011D
:100300000601090100002200250028002B002E0014
:100310003100340002010000050108010B0100005A
:100320002100240027002A002D00300033000101A5
:100330000000040107010A010902760785086F27FA
:10034000F5300D0211241FBECFEFD1E2DEBFCDBFCD
:1003500000E00CBF14E0A0E0B2E0EAECF4E700E05B
:100360000BBF02C007900D92A63BB107D9F72FE053
:10037000A6EBB4E001C01D92A334B207E1F713E08D
:10038000C2E4D3E000E006C022970109FE010BBFE2
:100390000E94E437C833D10780E00807A9F70E941C
:1003A000A6020C94533A0C9400008091060290919E
:1003B000070201969093070280930602089586EB48
:1003C00094E00E946422809106029091070269E104
:1003D00070E00E948A37892BD9F48091080D882318
:1003E00089F08091090D81110BC0E091B604F09164
:1003F000B7040688F789E02D86EB94E0199502C0D2
:100400001092090D81E090E090930702809306021C
:10041000089586EB94E00C94C10A86EB94E00C946A
:10042000D20A80E1809391001092900085E0809341
:100430007A0D86E998E990937C0D80937B0D9093DB
:1004400097008093960085E18093910085ED91E07F
:100450009093790D8093780D81E08093710086EB05
:1004600094E00E941B1768E072E082EA9EE00E941E
:1004700084316FEF71E2605072404AE050E082EAEE
:100480009EE00E944E326DE072E082EA9EE00E94A1
:10049000843166EB74E0605072404AE050E082EADA
:1004A0009EE00E944E3264E172E082EA9EE00E9489
:1004B000843163E47FE0665B74404AE050E082EAA6
:1004C0009EE00E944E326AE172E082EA9EE00E9463
:1004D000843160913F0F7091400F6115710519F0E3
:1004E00063547F4002C060E070E04AE050E082EA7E
:1004F0009EE00E944E3260E272E082EA9EE00E943C
:1005000084318DB79EB76FEF71E2681B790B4AE0BB
:1005100050E082EA9EE00E944E3267E272E082EA98
:100520009EE00E94843180913F0F9091400F6DB703
:100530007EB7009719F463547F4002C0681B790BA3
:100540004AE050E082EA9EE00C944E320E94032D75
:100550000E941102C4E4DFE20E94DF012097E1F370
:100560000E94442FF9CF1F920F920FB60F921124C1
:100570000BB60F922F933F934F935F936F937F939D
:100580008F939F93AF93BF93EF93FF93E091780D79
:10059000F091790D1995FF91EF91BF91AF919F91D6
:1005A0008F917F916F915F914F913F912F910F901C
:1005B0000BBE0F900FBE0F901F901895FF920F93D8
:1005C0001F93CF93DF93FC010081C181D281F89406
:1005D0008981F02EF0948F21898378941DE7115042
:1005E00029F182E090E00E94F82C88818023B9F301
:1005F000F8948A818F218A838981802B89837894DA
:1006000080EE91E00E94F82CF89489818F218983F3
:1006100086E490E00E94F82C8881802311E009F0A4
:1006200010E078948AE991E00E94F82C812FDF9104
:10063000CF911F910F91FF9008951F93CF93DF9358
:10064000FC011081C181D281912F909560FF12C071
:10065000F8948A8189238A838981812B89838AE01E
:1006600090E00E94F82C8A81812B8A83789487E31A
:1006700090E011C0F8948A8189238A838981812B33
:10068000898381E490E00E94F82C8A81812B8A83FF
:10069000789485E090E0DF91CF911F910C94F82C35
:1006A0000F931F93CF93DF93FC011081C181D281FF
:1006B000F8948981812B89838A81012F0095802379
:1006C0008A8383E090E00E94F82C898180238983CB
:1006D0008AE090E00E94F82CC881789485E390E04D
:1006E0000E94F82C1C2381E009F480E0DF91CF9177
:1006F0001F910F910895CF92DF92EF92FF920F9387
:100700001F93CF93DF931F92CDB7DEB76C01E62E18
:1007100008E010E0FF24F39461E09F2D9E2109F48E
:1007200060E0C60149830E941D03FF0C01501109BE
:1007300049810115110581F7411115C0F894D601C1
:100740001196ED91FC91129791818C91809589235E
:1007500081831196ED91FC91129792818C918095F5
:100760008923828378940F90DF91CF911F910F910D
:10077000FF90EF90DF90CF900895EF92FF920F934C
:100780001F93CF93DF938C01C8E0D0E0F12CEE24CF
:10079000E394C8010E9450038111FE28EE0C2197BA
:1007A000C1F78F2DDF91CF911F910F91FF90EF90A7
:1007B0000895CF92DF92FF920F931F93CF93DF9311
:1007C0001F92CDB7DEB78C01F62E40E065E5798348
:1007D0000E947B03CF2C7981D72E88E0F82EF6017A
:1007E00061916F0140E0C8010E947B03FA94B9F760
:1007F0000F90DF91CF911F910F91FF90DF90CF90DD
:100800000895FC0113861586148627E030E0DF0189
:10081000A20FB31F13961C922115310519F0215018
:100820003109F5CF08951F93CF93DF93EC01162F75
:1008300060E0812F0E947F2E612F70E0FB01E25A61
:10084000FD4FE491E883FB01EC55FD4FE491F0E0AE
:10085000EE0FFF1FE651FD4F859194919A83898396
:10086000CE01DF91CF911F910C940104AF92BF9202
:10087000CF92DF92EF92FF920F931F93CF93DF936C
:100880001F92CDB7DEB75C01E62ED72EFC01858521
:1008900081115DC0C5010E94DE02811105C0F50114
:1008A0001386158614866EC040E060EFC5010E9475
:1008B0007B0301E0F12CC12C11E0C5010E94500323
:1008C000682FC50169830E9450036981613019F462
:1008D0008130B9F433C02F2D30E068131BC0F5010F
:1008E0008385181730F4E20FF31F8381802349F4C6
:1008F00002C0181731F060E0193058F4F501148780
:1009000008C0F501EF0DF11D8381802B838361E029
:1009100009C0C12EF501E20FF31F8381902F90953E
:1009200089238383C5010E941D031F5F000F11F4FB
:10093000F39401E0F7E0FF1508F0BFCF113438F071
:10094000F501C386C11018C081E0858715C0F50187
:1009500013861586148680E0EE2DFD2D20E030E014
:10096000D501A20FB31F13969C9191932F5F3F4F18
:1009700028303105A9F706C0F5018381882339F3B2
:1009800081E0EACF0F90DF91CF911F910F91FF90FF
:10099000EF90DF90CF90BF90AF900895ECE7F0E03C
:1009A00090819F739083208130E4839FC001112444
:1009B000282B20830895EAE7F0E09081987F9083C8
:1009C0009081982B9083089580917A00877090E0B1
:1009D0000895E1E8F0E08081887F808308950E9497
:1009E000E9041092850010928400E1E8F0E0808133
:1009F00090917D0D892B80830895882321F080912B
:100A00007C00806203C080917C008F7D80937C009D
:100A10000895EBE7F0E09081987F90839081982B88
:100A200090830895CF92DF92EF92FF92CF936B0164
:100A30007C0180E18093810010928000A7019601E3
:100A400060E074E284E799E40E944B3520E030E0F6
:100A500040E051E40E94DA360E94B8356115710514
:100A600021E08207910528F421E020937D0DCB0140
:100A70004CC06115710528E08207910568F422E0F9
:100A800020937D0DDC01CB0153E0B695A79597959A
:100A900087955A95D1F739C06115710520E4820711
:100AA000910568F423E020937D0DDC01CB0146E045
:100AB000B695A795979587954A95D1F726C0611564
:100AC0007105810521E0920740F424E020937D0D1B
:100AD000BB27A92F982F872F18C061157105810595
:100AE00024E0920768F425E020937D0DDC01CB0122
:100AF0002AE0B695A795979587952A95D1F705C0D1
:100B000085E080937D0D8FEF9FEF9093870080931A
:100B10008600C1E0C0936F0086E00E940905C09383
:100B2000930D80917A00806280937A00C092860D46
:100B3000D092870DE092880DF092890DCF91FF90B1
:100B4000EF90DF90CF9008958093930D882321F04C
:100B500080917A00806203C080917A008F7D8093BB
:100B60007A000895EAE7F0E0808180648083089548
:100B7000CF93DF93D0917800C09179004091960D8A
:100B80005091970D2091940D3091950D4217530778
:100B9000A8F58091930D811102C00E94B2058D2F9E
:100BA00090E09C2B20917C0025FF13C0E0919A0DD2
:100BB000F0919B0D2091960D3091970DA9014F5FFB
:100BC0005F4F5093970D4093960DE20FF31F908364
:100BD00015C0E091980DF091990D2091960D3091EE
:100BE000970DA9014F5F5F4F5093970D4093960D5E
:100BF000220F331FE20FF31F91838083DF91CF9188
:100C000008951092970D1092960D8091930D0E9469
:100C1000A4050E94AD2C60937E0D70937F0D809390
:100C2000800D9093810D80917A00886C80937A007A
:100C300080917B008770863011F40C94EF04089546
:100C40008F929F92AF92BF92CF92DF92EF92FF92DC
:100C50000E94AD2C4B015C0180917A00877D8093CE
:100C60007A0080917B008770863011F40E94E9043D
:100C70006091940D7091950D80E090E00E94E435B4
:100C800020E034E244E759E40E94DA366B017C014B
:100C900080917E0D90917F0DA091800DB091810D7E
:100CA000A5019401281B390B4A0B5B0BCA01B90142
:100CB0000E94E4359B01AC01C701B6010E944B358F
:100CC0006093820D7093830D8093840D9093850DB6
:100CD000FF90EF90DF90CF90BF90AF909F908F905C
:100CE00008958093900D90917C00907F90937C006C
:100CF00020917C00982F9770922B90937C008830E5
:100D000020F080917B00886003C080917B00877F0A
:100D100080937B00089591E090938F0D1092920D37
:100D20001092910D10928E0D28EB35E030938D0DC1
:100D300020938C0D0C94710680918E0D8F5F8093A3
:100D40008E0D90918F0D891302C010928E0D80919F
:100D50008E0DE091910DF091920DE80FF11D8081C3
:100D60000E9471060C94B8051F93CF93DF93C09136
:100D70008E0D90918F0D9230A0F081E08C0F89172D
:100D800019F080938E0D02C010928E0D80918E0D01
:100D9000E091910DF091920DE80FF11D80810E947C
:100DA000710610917800D09179004091960D509184
:100DB000970D2091940D3091950D42175307F0F443
:100DC0008091930D811102C00E94B205612F70E0E5
:100DD0007D2B80917C0085FF02C0672F7727E091F3
:100DE0008A0DF0918B0D8C2F19958091960D909115
:100DF000970D01969093970D8093960DDF91CF916B
:100E00001F910895CF93DF93D0917C00C0917B0018
:100E100080917C00807E80937C0080917C008E613C
:100E200080937C0080917B00877F80937B0063E0D0
:100E300070E080E090E00E94D02C80917A00806485
:100E400080937A0080917A0086FDFCCF60917800D3
:100E500080917900D0937C00C0937B0070E0782B68
:100E6000882777FD8095982F0E94E6359B01AC017D
:100E700060E070E889E894E40E944B35DF91CF91FF
:100E800008951F920F920FB60F9211240BB60F9276
:100E90002F933F934F935F936F937F938F939F9382
:100EA000AF93BF93EF93FF93E0918C0DF0918D0D75
:100EB0001995FF91EF91BF91AF919F918F917F9184
:100EC0006F915F914F913F912F910F900BBE0F90BB
:100ED0000FBE0F901F9018951F920F920FB60F9292
:100EE00011240F900FBE0F901F90189581E00C9465
:100EF000CE04CF93CFB7F89480919C0D811127C079
:100F0000E9EDF2E08491E3E9F2E09491E82FF0E07A
:100F1000EE0FFF1FE25EFC4FA591B4918C918923E7
:100F200021F461E085E30E94B82E61E085E30E9430
:100F30007F2E8CB580618CBD8CB580648CBD61E0EA
:100F400084E30E947F2E61E083E30E947F2E8091E4
:100F50009C0D8F5F80939C0DCFBFCF9108958091A2
:100F6000CD0D90E02091CE0D821B91090895209126
:100F7000CE0D8091CD0D281750F4E22FF0E0E15313
:100F8000F24F808190E02F5F2093CE0D08958FEF78
:100F90009FEF0895E091CE0D8091CD0DE81730F4CC
:100FA000F0E0E153F24F808190E008958FEF9FEFE2
:100FB00008950895CF92DF92EF92FF920F931F93BF
:100FC000CF93DF937C01CB018A012091A90D2223CD
:100FD00089F0EB016B01C40ED51ECC15DD0569F05F
:100FE0006991D701ED91FC910190F081E02DC7014D
:100FF0001995F3CF642F0E943E09C801DF91CF916C
:101000001F910F91FF90EF90DF90CF900895CF93B5
:10101000DF931F92CDB7DEB769832091A90D2223FC
:10102000D1F02091AA0D203240F021E030E0FC0107
:101030003383228380E090E015C08091AB0DE82FD0
:10104000F0E0E455F24F998190838F5F8093AB0D70
:101050008093AA0D05C061E0CE0101960E943E0971
:1010600081E090E00F90DF91CF910895FC01138211
:10107000128248EE53E060E070E04483558366835B
:10108000778388E392E09183808308951092CE0D58
:101090001092CD0D1092AB0D1092AA0D0C948908F0
:1010A000862F413208F040E26FEC7DE00E94A708F5
:1010B0001092CE0D8093CD0D089521E00C94500830
:1010C00021E00C94500881E08093A90D6093CC0D31
:1010D0001092AB0D1092AA0D08950C9463080F9313
:1010E000062F21E04091AA0D6CEA7DE08091CC0DA5
:1010F0000E94EB081092AB0D1092AA0D1092A90D50
:101100000F91089561E00C946F088DE99DE00C94B7
:10111000360810925C0E81E080935A0E1092590EA0
:1011200061E084E10E94B82E61E085E10E94B82E62
:10113000E9EBF0E080818E7F808380818D7F8083EA
:1011400088E48093B80085E48093BC000895413220
:1011500008F03FC090915C0E9111FCCF91E090930C
:101160005C0E20935A0E2FEF2093EF0D1092340E49
:10117000240F2093330E90935B0E90915B0E880F9B
:10118000892B80935B0E8091590E813041F410922F
:10119000590E80915B0E8093BB0085EC01C085EEFB
:1011A0008093BC0080915C0E8130E1F38091340E1D
:1011B000841710F44091340E25E33EE0FB01D90181
:1011C0008A2F821B841718F48D918193F9CF842F75
:1011D000089580E008950F93413208F046C0909141
:1011E0005C0E9111FCCF92E090935C0E00935A0E2E
:1011F0009FEF9093EF0D1092340E4093330EFB014E
:1012000065E37EE0DB019A2F961B941718F4919109
:101210009D93F9CF10925B0E90915B0E880F892BF6
:1012200080935B0E8091590E813041F41092590EDB
:1012300080915B0E8093BB0085EC01C085EE8093AE
:10124000BC00222321F080915C0E8230E1F380917A
:10125000EF0D8F3F61F08091EF0D803251F0809162
:10126000EF0D803341F483E007C081E005C080E0EA
:1012700003C082E001C084E00F910895613298F4C8
:1012800020915C0E243089F46093110EFC0183E1FF
:101290009EE0DC012A2F281B261718F421912D939C
:1012A000F9CF80E0089581E0089582E0089585ED0A
:1012B0008093BC008091BC0084FDFCCF10925C0E3A
:1012C000089585EC8093BC0010925C0E08951F92E7
:1012D0000F920FB60F9211240BB60F922F933F93DC
:1012E0004F935F936F937F938F939F93AF93BF932E
:1012F000EF93FF938091B900887F803609F49CC0FA
:1013000068F5883209F45BC090F4803109F454C068
:1013100038F4882309F4F5C0883009F44DC0F5C0CD
:10132000883109F44CC0803209F45DC0EEC08034CD
:1013300009F468C048F4803309F455C0883309F0D3
:10134000E4C08093EF0DA8C0803509F44FC0883504
:1013500009F45DC0883409F0D8C0D5C0883909F4D3
:10136000C6C0A8F4883709F467C038F4883609F491
:1013700063C0803709F460C0C8C0883809F4B7C0BA
:10138000803909F45FC0803809F0BFC05BC0803B82
:1013900009F485C038F4803A09F466C0883A09F443
:1013A0007EC0B3C0803C09F4A6C0883C09F4A3C049
:1013B000883B09F489C0A9C080915B0E10C0909150
:1013C000340E8091330E981770F5E091340E81E061
:1013D0008E0F8093340EF0E0EB5CF14F80818093B0
:1013E000BB0085EC85C08093EF0D8DC0E091340E7D
:1013F00081E08E0F8093340E8091BB00F0E0EB5CB7
:10140000F14F80839091340E8091330E6DC0E09146
:10141000340E81E08E0F8093340E8091BB00F0E09B
:10142000EB5CF14F808380915A0E81116CC081E09A
:101430008093590E84EA60C083E080935C0E109222
:10144000F00DCFCF8091F00D803208F050C0E091C8
:10145000F00D81E08E0F8093F00D8091BB00F0E0E5
:10146000EF50F24F8083BDCF8091F00D803230F489
:10147000E091F00DF0E0EF50F24F10820E9457091A
:101480006091F00D70E0E091550EF091560E81EFF5
:101490009DE019951092F00D0E94610936C084E01C
:1014A00080935C0E1092120E1092110EE091570E66
:1014B000F091580E19958091110E811105C081E0AF
:1014C0008093110E1092130EE091120E81E08E0F98
:1014D0008093120EF0E0ED5EF14F80818093BB00AF
:1014E0009091120E8091110E981708F47ACF85E82A
:1014F0008093BC000AC085EC8093BC0010925C0E07
:1015000004C01092EF0D0E945709FF91EF91BF9117
:10151000AF919F918F917F916F915F914F913F918B
:101520002F910F900BBE0F900FBE0F901F9018952C
:101530008DE294E0089589E294E0089582E194E0D8
:10154000089588EF93E0089582EF93E008958FEB7C
:1015500093E0089584E492E00895CF93DF93EC0143
:1015600061E082E00E94B82ECC5AD74F1882DF91FA
:10157000CF910895DC01ED91FC910190F081E02D77
:101580001994CF93DF93EC0161E00E94CD1987EAB3
:1015900093E099838883CE5AD74F18821982DF91BE
:1015A000CF91089527EA33E0FC01318320830C9426
:1015B0003D1AAF92BF92CF92DF92EF92FF920F93BC
:1015C0001F93CF93DF931F921F92CDB7DEB78C018D
:1015D000D12C7C018BEBE81A87EFF80A5801E5E97A
:1015E000AE1AE7EFBE0A2D2D30E0F801EB5AF74FA7
:1015F0008081918168E270E00E948A372617370760
:10160000E0F588E0C82EC982F7012081318180E0B1
:1016100090E040E0B801620F731FE42FF0E0DB01BF
:10162000A80FB91FA259BF4F41E050E0AC91AA23C7
:1016300011F040E050E0082E02C0440F551F0A94FC
:10164000E2F74E0F5F1F01968830910531F74A830C
:10165000285F3F4FF70131832083F50160816D0DD5
:1016600022E0AE014F5F5F4FC8010E943622C39453
:10167000FDE0CF12C8CFD394B6CF0F900F90DF917B
:10168000CF911F910F91FF90EF90DF90CF90BF907F
:10169000AF9008958F929F92AF92BF92CF92DF92B8
:1016A000EF92FF920F931F93CF93DF9300D0CDB7AC
:1016B000DEB78C01912C7C018BEAE81A87EFF80ADF
:1016C00098E2C92ED12C5801E5E9AE1AE7EFBE0A1F
:1016D00088248A94292D30E0F70180819181B60118
:1016E0000E948A3726173707A0F438E039838A82A8
:1016F000F5016081690D22E0AE014F5F5F4FC801C7
:101700003B830E9436223B813F5F3D3079F79394C3
:10171000E1CF0F900F900F90DF91CF911F910F911C
:10172000FF90EF90DF90CF90BF90AF909F908F9001
:101730000895EF92FF920F931F93CF93DF938C0145
:101740007C018BE9E81A87EFF80AC4E6D0E0F701DC
:1017500041917F01BE01C8010E94C8192196C13C78
:10176000D105A9F760E0C801DF91CF911F910F91DA
:10177000FF90EF900C94BC0B8F929F92AF92BF9210
:10178000CF92DF92EF92FF920F931F93CF93DF934D
:10179000EC01B62E7C012BE9E21A27EFF20A04E6EF
:1017A00010E06701E881F9810088F189E02DB80136
:1017B000CE011995F70181937F010F5F1F4F013C07
:1017C000110581F7F601808191819E012959374FDA
:1017D00079018E010759174F892BE9F4F9018081AE
:1017E0009181892BC1F4F80180819181892B99F431
:1017F000399780819181A281B381E35BFF4F808320
:101800009183A283B38381E090E0F8019183808388
:10181000CE010E94990BF60180819181892BB9F448
:10182000F70180819181892B91F4F8018081918168
:10183000019769F480E2FE01E559F74F808382E069
:1018400090E0F80191838083CE010E94990BF6010C
:1018500080819181892BE9F4F70180819181892B25
:10186000C1F4F80180819181029799F480E090E0C1
:10187000A0EAB0E4FE01EF54F74F80839183A28386
:10188000B38383E090E0F80191838083CE010E94CE
:10189000990BF60180819181892BB1F4F701808148
:1018A0009181892B89F4F80180819181039761F4FA
:1018B000FE01EB54F74F108284E090E0F801918331
:1018C0008083CE010E94990BF60180819181892B42
:1018D00079F5F70180819181892B51F5F80180819B
:1018E0009181049729F580E090E0A8ECB2E4FE0134
:1018F000EA54F74F80839183A283B38380E090E41E
:10190000ACE9B6E4349680839183A283B38380E00C
:1019100090E0A8E4B3E4349680839183A283B383F8
:1019200085E090E0F80191838083CE010E94990BBD
:10193000F60180819181892B69F4F7018081918181
:10194000892B41F4F80180819181059719F4BB201E
:1019500009F4B2C0F60111821082F70111821082DF
:1019600085E090E0F8019183808300E010E42CE9A9
:1019700036E4FE01E359F74F00831183228333835A
:1019800080E090E5A3E4B8E4349680839183A28359
:10199000B38340E054E264EF79E4349640835183AA
:1019A000628373830F2EC12CD12CF8E4EF2EF3E465
:1019B000FF2EF02D7096C082D182E282F3820F2E2C
:1019C000812C912CFAEFAF2EF4E4BF2EF02D34963B
:1019D00080829182A282B382349600831183228313
:1019E0003383349680839183A283B3833496408378
:1019F0005183628373834FEF56EE6BE57EE27497FB
:101A00004083518362837383B8964083518362839A
:101A100073838AE0FD9780833D9610821182128243
:101A20001382349610821182128213827C96408334
:101A300051836283738334964083518362837383BB
:101A400034964083518362837383349640835183F9
:101A500062837383E554F10980819181A281B3810E
:101A6000E35BFF4F80839183A283B38380E2E254E0
:101A7000F109808380E090E0A0EAB0E4EA5BFF4FE8
:101A800080839183A283B3833496108280E090E0B8
:101A9000A8ECB2E4319680839183A283B383349619
:101AA00000831183228333833496C082D182E28201
:101AB000F382CE010E94990BFE01E355F74FC080DF
:101AC000D180E280F38020E030E0A901C701B601B7
:101AD0000E944735FE01EC59F74F18161CF081E0C3
:101AE000808309C0DE01A05AB74FCD92DD92ED92FE
:101AF000FC9213971082FE01EB54F74F80818823EC
:101B000011F042E001C041E060E0CE01DF91CF91F1
:101B10001F910F91FF90EF90DF90CF90BF90AF900B
:101B20009F908F900C94F3225F926F927F928F928E
:101B30009F92AF92BF92CF92DF92EF92FF920F935C
:101B40001F93CF93DF931F921F92CDB7DEB76C0127
:101B5000CB01542E68E270E00E948A377B014C0171
:101B60005C0183E0B694A7948A95E1F73B01772462
:101B700086010559174FF8018081B301680F711D67
:101B80008DE99DE00E946D08B501685F7F4F8DE98A
:101B90009DE00E94BA0A8DE99DE00E948208F8014A
:101BA0008081B301680F711D41E050E08DE99DE037
:101BB0000E9460088DE99DE00E94AF07892B41F1EA
:101BC000F82DF7708F2E88E08A0D89838DE99DE0CE
:101BD0000E94B70741E050E060E070E004C0440FAD
:101BE000551F661F771F8A94D2F7511002C0482BE9
:101BF00002C0409548234A83F80160816E0D22E0BF
:101C0000AE014F5F5F4FC6010E94362280E001C0E7
:101C100081E00F900F90DF91CF911F910F91FF9076
:101C2000EF90DF90CF90BF90AF909F908F907F907C
:101C30006F905F9008959F92AF92BF92CF92DF9284
:101C4000EF92FF920F931F93CF93DF9300D000D0BA
:101C5000CDB7DEB78C016A017B01922E1E82FC019A
:101C6000E254F74F2081318142815381C701B6018F
:101C70000E94473518160CF444C0F801E05AF74F9B
:101C80002081318142815381C701B6010E944B35C9
:101C900028EA29836A837B838C839D83580184E9A6
:101CA000A81A87EFB80A25E0AE014F5F5F4FF50134
:101CB0006081C8010E943622992029F164E670E013
:101CC00080E090E00E94D02C41E0F50160818DE938
:101CD0009DE00E945D088DE99DE00E94AF07892B81
:101CE00091F08DE99DE00E94B707813061F421E019
:101CF000AE014A5F5F4FF5016081C8010E94DC1CA4
:101D000002C088E08E838E81811107C0F801E85AF5
:101D1000F74FC082D182E282F38226960FB6F89402
:101D2000DEBF0FBECDBFDF91CF911F910F91FF900E
:101D3000EF90DF90CF90BF90AF909F900895FC01FF
:101D4000E05AF74F40835183628373833897408111
:101D500051816281738120E00C941B0EAF92BF927F
:101D6000CF92DF92EF92FF920F931F93CF93DF9367
:101D700000D000D0CDB7DEB78C016A017B01FC0139
:101D8000EA54F74F24EA30E74DE75FE36081718161
:101D9000828193810E94DA369B01AC01C701B601B2
:101DA0000E94D63687FD4CC02EEA37E441E85FE357
:101DB000F801E654F74F60817181828193810E941E
:101DC000DA369B01AC01C701B6010E9447351816EF
:101DD000BCF18AEA8983CA82DB82EC82FD825801E7
:101DE00084E9A81A87EFB80A25E0AE014F5F5F4F7C
:101DF000F5016081C8010E94362264E670E080E04F
:101E000090E00E94D02C41E0F50160818DE99DE0D9
:101E10000E945D088DE99DE00E94AF07892B91F03B
:101E20008DE99DE00E94B707813061F421E0AE01A9
:101E30004A5F5F4FF5016081C8010E94DC1C02C04F
:101E400088E08E838E81811107C0F801E45AF74F34
:101E5000C082D182E282F38226960FB6F894DEBF6A
:101E60000FBECDBFDF91CF911F910F91FF90EF90EB
:101E7000DF90CF90BF90AF9008954F925F926F9296
:101E80007F928F929F92AF92BF92CF92DF92EF920A
:101E9000FF920F931F93CF93DF931F921F92CDB7A3
:101EA000DEB78C01FC01EC5AF74F81E0808360E0E3
:101EB00082E00E94B82E64EF71E080E090E00E9422
:101EC000D02C48018BEA881A87EF980AF401118216
:101ED000108228E2A22EB12CE12CF12C38E1632EE5
:101EE00077247A946801F5E9CF1AF7EFDF0A4E2CD0
:101EF00069827A82F60160816E0D22E0AE014F5F49
:101F00005F4FC8010E943622F60160816E0D21E00C
:101F1000AE014F5F5F4FC8010E94DC1C89818F3F7B
:101F200009F04BC098E1592E59821A82F60160815E
:101F3000640D22E0AE014F5F5F4FC8010E94362260
:101F4000F6016081640D21E0AE014F5F5F4FC80173
:101F50000E94DC1C8981811130C080EF850D89834E
:101F60007A82F6016081640D22E0AE014F5F5F4F1F
:101F7000C8010E9436225394FDE15F12D5CF6FE570
:101F800072E082EA9EE00E9484314AE050E0B701AC
:101F900082EA9EE00E94463269E672E082EA9EE0B2
:101FA0000E949131F40120813181C5018897281761
:101FB000390719F4F401B182A082FFEFEF1AFF0A8A
:101FC00088E2A80EB11CE8E0EE16F10409F08FCF0C
:101FD000F401608171814AE050E082EA9EE00E9453
:101FE00091326AE472E082EA9EE00E94913140E020
:101FF00050E46CE176E4C8010E94AE0E0F900F90A1
:10200000DF91CF911F910F91FF90EF90DF90CF90D4
:10201000BF90AF909F908F907F906F905F904F9008
:1020200008952F923F924F925F926F927F928F927C
:102030009F92AF92BF92CF92DF92EF92FF920F9357
:102040001F93CF93DF93CDB7DEB7AA970FB6F8945F
:10205000DEBF0FBECDBF2C016E8B2DB73EB73CA3AC
:102060002BA38C010D5A174F81E0D8018C93F201FC
:10207000EC5AF74F8081811103C0C2010E943D0FCD
:10208000EE898E2F90E0FC01E05AF109E735F10569
:1020900008F0A9C6EE58FF4F920124593F4F19018D
:1020A0000C94C037F201E05CF74F80819181892B5D
:1020B00009F096C642E050E0B2016B5A774FF5C086
:1020C000F201E05CF74F80819181892B09F088C68D
:1020D000D9011C92912C92012B5A374F3B872A87AA
:1020E000720135E9E31A37EFF30A88248394A92CA7
:1020F000B12CEA85FB858081918168E270E00E94C5
:102100008A37A616B70608F06EC608E010E0D701B9
:102110008C91B501680F711D8DE99DE00E946D08DD
:10212000B8018DE99DE00E94BA0A8DE99DE00E9408
:102130008208F7018081B501680F711D41E050E010
:102140008DE99DE00E9460088DE99DE00E94AF0747
:10215000892B51F18DE99DE00E94B7076C01612C3C
:10216000712CDD24C601062C02C0959587950A9432
:10217000E2F781709927F1E08F27898341E050E0F1
:10218000BE016F5F7F4FC2010E94431A2FEF621A98
:10219000720A38E06316710429F70F5F1F4F0D3084
:1021A000110509F0B4CF02C0D1018C9293949FCF56
:1021B000F201E05CF74F2081318175968081918139
:1021C0002817390709F00CC6C2010E94D90A96C522
:1021D000F201E05CF74F80819181029709F000C61F
:1021E000D201AB5BB74F2D913C911197F901E259A8
:1021F000FF4FE40DF51D808191812E5F3F4F2D93A0
:102200003C93F201EB5AF74F2081318182179307FB
:1022100008F07BC068E270E00E948A378C016B0195
:10222000DD247201F5E9EF1AF7EFFF0AD7018C916F
:10223000B601680F711D8DE99DE00E946D08B8011F
:1022400053E0769567955A95E1F7685F7F4F8DE982
:102250009DE00E94BA0A8DE99DE00E948208F70184
:102260008081B601680F711D41E050E08DE99DE06D
:102270000E9460088DE99DE00E94AF07892BC9F09C
:102280008DE99DE00E94B7079927077002C09595D8
:1022900087950A95E2F781709927F1E08F27898366
:1022A00041E050E0BE016F5F7F4FC2010E94431AC0
:1022B00025C581E096C5F201E05CF74F80819181F0
:1022C000039709F08DC5D201AB5BB74F8D919C91FF
:1022D0001197FC01E259FF4FE40DF51D60817181FA
:1022E000F201E80FF91FE059FF4F408103968D93EB
:1022F0009C93F201EB5AF74F80819181681779071F
:1023000020F4C2010E94940DDAC285E06AC5F20190
:10231000E05CF74F80819181892B09F061C5D9017B
:102320001C9244E050E0B201685A774FBEC4F201FB
:10233000E05CF74F80819181049709F051C5D2018B
:10234000AB5BB74F8D919C911197FC01E259FF4F08
:10235000E40DF51D408151816281738104968D9356
:102360009C9321E0C2010E941B0E3BC5F201E05C80
:10237000F74F80819181892B09F032C58201045980
:10238000174F49EAD8016C91C2010E941F2264E6EE
:1023900070E080E090E00E94D02C41E0F801608184
:1023A0008DE99DE00E945D088DE99DE00E94AF07E8
:1023B000892B09F418C58DE99DE00E94B707853087
:1023C00009F011C525E0AE014F5F5F4FD8016C9158
:1023D000C2010E94DC1C8D81F1018083811103C543
:1023E00089819A81AB81BC81B201645A774FFB012C
:1023F00080839183A283B38344E050E056C4F2010A
:10240000E05CF74F80819181049709F0E9C4D20123
:10241000AB5BB74F8D919C911197FC01E259FF4F37
:10242000E40DF51D408151816281738104968D9385
:102430009C93C2010E94AE0E42C2F201E05CF74FD3
:1024400080819181019709F0CBC4D201AB5BB74F7A
:102450008D919C911197F201E80FF91FE259FF4FFE
:10246000E08101968D939C93E23008F02CC1BBE192
:10247000EB9FF0011124E35AF14F81818983F90127
:1024800010820EC4F201E05CF74F808191810297C7
:1024900009F0A6C4359620813181A201420F531F55
:1024A000DA01A259BF4F8C9111966C912E5F3F4F6C
:1024B000318320830E948B2294C4F201E05CF74FA9
:1024C00080819181019709F08BC43596808191813B
:1024D000D201A80FB91FA259BF4F2C910196918329
:1024E0008083223008F0EFC0D1011C92BBE12B9F0A
:1024F000F0011124E35AF14FE181C2018B59974F4A
:10250000F0E0213011F0329679C0389677C0F201B0
:10251000E05CF74F80819181059709F061C43596A1
:1025200020813181D201A20FB31FA259BF4F4C911C
:10253000C901019691838083D1011C924423E1F06B
:10254000413009F0C0C04091790ED901A159BF4F67
:10255000A40DB51D8D919D910D90BC91A02D2B5F6B
:102560003F4F31832083F20134E0439FE00DF11DA2
:102570001124EB57F74F9FC040915E0ED901A1592E
:10258000BF4FA40DB51D8D919D910D90BC91A02DB7
:102590002B5F3F4F31832083F20124E0429FE00D07
:1025A000F11D1124E359F74F86C0F201E05CF74FAB
:1025B00080819181019709F013C4359680819181C2
:1025C000D201A80FB91FA259BF4F2C910196918338
:1025D0008083223008F077C0F10110823BE1239F15
:1025E000F0011124E35AF14FE181C2018B59974F59
:1025F000F0E0213011F0359601C03D96EE0FFF1F3F
:10260000EE0FFF1FE80FF91F80819181A281B38136
:1026100089839A83AB83BC8344E050E043C3F201D7
:10262000E05CF74F80819181059709F0D9C3359619
:1026300020813181D201A20FB31FA259BF4F4C910B
:10264000C901019691838083D1011C924423D9F062
:102650004130C9F54091790ED901A159BF4FA40D60
:10266000B51D8D919D910D90BC91A02D2B5F3F4F7D
:1026700031832083F20134E0439FE00DF11D1124EA
:10268000E756F74F18C040915E0ED901A159BF4FD0
:10269000A40DB51D8D919D910D90BC91A02D2B5F2A
:1026A0003F4F31832083F20124E0429FE00DF11D72
:1026B0001124E758F74F80839183A283B383C2012B
:1026C0000E94990B90C385E0FAC0F201E05CF74FDD
:1026D00080819181892B09F083C3F901108244E044
:1026E00050E0B201605A774FE0C2F201E05CF74F70
:1026F00080819181049709F073C3D201AB5BB74F1E
:102700008D919C911197FC01E259FF4FE40DF51D4D
:10271000C080D180E280F38004968D939C9320E06A
:1027200030E0A901C701B6010E94D6361816CCF4D4
:10273000F201EC59F74F8081882331F03497C08241
:10274000D182E282F382DAC2D201A355B74FCD9291
:10275000DD92ED92FC9213971082C2010E94990BB8
:10276000CDC288E03EC3F201E05CF74F80819181E9
:10277000892B09F035C3D9011C9211E020E030E02B
:10278000A901E359FF4F60817181828193810E9489
:10279000473518160CF410E0198382C2F201E05C90
:1027A000F74F80819181019709F01AC33596808196
:1027B0009181D201A80FB91FA259BF4F2C91019648
:1027C00091838083E859FF4F222329F010821182E0
:1027D000128213820CC0D201A05AB74F8D919D91E5
:1027E0000D90BC91A02D80839183A283B383C201FD
:1027F0000E94990B15C2F201E05CF74F0081118134
:102800000A30110508F4ECC2359680819181DC0113
:10281000A259BF4FA40DB51D2D913D914D915C91D5
:102820002A873B874C875D879C012C5F3F4F318314
:102830002083DC01AE58BF4FA40DB51D6D907C9078
:10284000DC01AC58BF4FA40DB51D4D915D916D914C
:102850007C914A8B5B8B6C8B7D8BD201A80FB91F4F
:10286000A858BF4FFC900B96918380830B301105C5
:1028700041F07096808191810B960817190709F035
:10288000AFC2BBE46B16B1E07B06C0F420E030E0E1
:102890004AE754E46A857B858C859D850E944B358B
:1028A00020E030E44CE157E40E94DA3620E030E0EA
:1028B00040E855E40E94473587FD23C281E0D101FD
:1028C0008C9391C2F201EB5AF74F20813181C901FB
:1028D0000B967597408151814817590709F080C2BE
:1028E000EDB7FEB7FA8FE98FD1011C92F201EB5BD5
:1028F000F74F80819181DC01A259BF4FA40DB51D16
:102900004D915D916D917C914A8B5B8B6C8B7D8B36
:10291000AC014C5F5F4F51834083DC01AE58BF4F29
:10292000A40DB51D6D907C90DC01AC58BF4FA40D7B
:10293000B51D4D915D916D917C914F8F58A369A309
:102940007AA3D201A80FB91FA858BF4F1C910B96AC
:10295000918380836DB77EB7621B730B0FB6F894BB
:102960007EBF0FBE6DBF8DB79EB701969B878A87CE
:10297000DC01280F391F80E090E07F01A217B30728
:10298000A1F0F70140815181B201640F751F6259B6
:102990007F4FFB0160814F5F5F4FF70151834083A1
:1029A0006D93662359F30196E9CF869D9001879D2B
:1029B000300D969D300D11242B34314008F0D2C0DB
:1029C00020E030E04AE754E46A897B898C899D895C
:1029D0000E944B3520E030E44CE157E40E94DA36A7
:1029E00020E030E040E855E40E94473587FFBAC058
:1029F000C2010E944A0B0E94AD2C6B8F7C8F8D8F81
:102A00009E8F212C312C92012B5A374F3EA32DA3A0
:102A1000A20144595F4F5F874E87812F8270682FD4
:102A200070E078A76FA311701F8B188EC201845AB3
:102A3000974F9AA789A7ADA1BEA18D919C91281609
:102A40003906F0F5AE85BF858C91811135C0EA85D8
:102A5000FB85E20DF31D8081882371F141E0B10116
:102A6000C2010E94940D88248394EFA1F8A51E163C
:102A70001F060CF0812CAA24A3942F89388D1216DE
:102A800013060CF0A12CA9A5BAA5CD90DD90ED9070
:102A9000FC900F8D18A129A13AA1A3016A897B8915
:102AA0008C899D890E947427EE85FF85808340E094
:102AB000B101C2010E94940DFFEF2F1A3F0ABBCF54
:102AC000EE85FF858081811152C00E94AD2C2B8D37
:102AD0003C8D4D8D5E8D621B730B840B950B0E949C
:102AE000E4356B017C01B30180E090E00E94E435A5
:102AF00020E030E04AE754E40E94DA369B01AC0162
:102B0000C701B6010E944B356E837F838887998702
:102B100044E050E0BE016A5F7F4FC2010E94431A49
:102B200044E050E064E77EE0C2010E94431A44E0C2
:102B300050E06FE87EE0C2010E94431AF201E05AC1
:102B4000F74F80819181A281B38189839A83AB837E
:102B5000BC8344E050E0BE016F5F7F4FC2010E9422
:102B6000431A05C081E0F201E459FF4F8083498D8B
:102B70005A8D0FB6F8945EBF0FBE4DBF34C1F2013F
:102B8000E05CF74F80819181019709F029C1D9015B
:102B90001C92359680819181D201A80FB91FA2594C
:102BA000BF4F2C9101969183808361E0211101C078
:102BB00060E0C2010E94BC0B16C1F201E05CF74F5D
:102BC00080819181892B09F00BC1F901108282E08B
:102BD00036C0F201E05CF74F80819181892B09F0CA
:102BE000FFC0D9011C92729629C0F201E05CF74F38
:102BF00080819181019709F0F3C0359680819181A0
:102C0000D201A80FB91FA259BF4F2C9101969183F1
:102C100080833D96222319F081E0808301C01082D9
:102C2000F1011082E0C0F201E05CF74F80819181F8
:102C3000892B09F0D5C0D9011C92F80180818983C4
:102C40002FC0F201E05CF74F80819181019709F07C
:102C5000C7C0359680819181D201A80FB91FA259B2
:102C6000BF4F2C91019691838083222321F081E034
:102C7000D8018C9343C0F801108240C0F201E05C9F
:102C8000F74F80819181892B09F0AAC0F901108248
:102C900082E00E94EE2E21E0892B09F020E02983BA
:102CA00041E050E0BE016F5F7F4FC2010E94431AB6
:102CB0009AC0F201E05CF74F80819181019709F0A1
:102CC0008FC0359680819181D201A80FB91FA2597A
:102CD000BF4F2C91019691838083222359F060E0AD
:102CE00082E00E94B82E64EF71E080E090E00E94E4
:102CF000D02C04C061E082E00E94B82ED1011C9269
:102D000072C0D1011C92F201EB5AF74F8081918180
:102D10000B960817190719F4C2010E94D90A0E94DC
:102D2000AD2C6E877F87888B998B88248394F1FEE6
:102D3000812CAA24A394F0FEA12CF201E45AF74FAF
:102D4000C080D180E280F3800A891B892C893D896B
:102D5000A3016A857B858C859D850E947427F1017E
:102D60008083811140C00E94AD2C2E853F8548890B
:102D70005989621B730B840B950B0E94E4356B0120
:102D80007C01B30180E090E00E94E43520E030E077
:102D90004AE754E40E94DA369B01AC01C701B60150
:102DA0000E944B356E837F838887998744E050E08B
:102DB000BE016A5F7F4FC2010E94431A44E050E0A7
:102DC00064E77EE0C2010E94431A44E050E06FE8ED
:102DD0007EE0C2010E94431AF201E05AF74F14CC80
:102DE00086E0F10180836E89C2010E94031DF20119
:102DF000E459FF4F80812BA13CA10FB6F8943EBF50
:102E00000FBE2DBFAA960FB6F894DEBF0FBECDBF82
:102E1000DF91CF911F910F91FF90EF90DF90CF90B6
:102E2000BF90AF909F908F907F906F905F904F90EA
:102E30003F902F900895AF92BF92CF92DF92EF9282
:102E4000FF920F931F93CF93DF93CDB7DEB76297B7
:102E50000FB6F894DEBF0FBECDBF8C010E943819AB
:102E600061E082E00E94B82E61E082E00E947F2E45
:102E7000F801E05AF74F80E090E0A6E9B3E48083E0
:102E80009183A283B38360E0C8010E94BC0BD80188
:102E9000ED91FC910680F781E02DC8011995BC01E8
:102EA00082EA9EE00E94843165E772E082EA9EE059
:102EB0000E948431D801ED91FC910484F585E02DC8
:102EC000C8011995BC0182EA9EE00E94913168E731
:102ED00072E082EA9EE00E948431D801ED91FC917B
:102EE0000284F385E02DC8011995BC0182EA9EE0B9
:102EF0000E9491316BE872E082EA9EE00E94843188
:102F00007801BBE9EB1AB7EFFB0AF7016081718129
:102F10004AE050E082EA9EE00E94913263E772E06C
:102F200082EA9EE00E948431F801E959F74F6081FE
:102F300071814AE050E082EA9EE00E94913263E7AC
:102F400072E082EA9EE00E948431F801E759F74F6F
:102F5000608171814AE050E082EA9EE00E949732EF
:102F600062EA72E082EA9EE00E948431F801E4594C
:102F7000F74F4AE050E0608182EA9EE00E947A3298
:102F8000B12CA12CA1E0BA1202C085E001C083E0FF
:102F9000A81608F0AFC04AE06A2DCE0101960E9443
:102FA00048344AE06B2DCE010D960E94483466EC01
:102FB00072E0CE0107960E941A34BE01635F7F4F14
:102FC000CE0107960E94A13468EC72E00E94B434EE
:102FD000BE016F5F7F4F0E94A1346CED72E00E94D2
:102FE000B434BC0182EA9EE00E947631CE0107969D
:102FF0000E94AC33CE010D960E94AC33CE010196F7
:103000000E94AC33CA2CD12CF1E0BF1619F0F601A6
:10301000329602C0F6013896EE0FFF1FEE0FFF1F2B
:10302000EE0DFF1D408151816281738122E030E00D
:1030300082EA9EE00E949A334AE06A2DCE01019610
:103040000E9448344AE06B2DCE010D960E94483410
:1030500066EC72E0CE0107960E941A34BE01635FEF
:103060007F4FCE0107960E94A1346FED72E00E945F
:10307000B434BE016F5F7F4F0E94A1346CED72E0EB
:103080000E94B434BC0182EA9EE00E947631CE01F7
:1030900007960E94AC33CE010D960E94AC33CE0150
:1030A00001960E94AC3381E0F601B81611F0359616
:1030B00001C03D96EE0FFF1FEE0FFF1FEE0DFF1D2F
:1030C000608171818281938125EA34ED48E653E580
:1030D0000E94DA36AB01BC0122E030E082EA9EE0D9
:1030E0000E94983364EF72E082EA9EE00E94913180
:1030F000A39448CFB394B2E0BB1243CF68EF72E021
:1031000082EA9EE00E948431F801E559F74F4AE0D7
:1031100050E0608182EA9EE00E947A326DE473E0C2
:1031200082EA9EE00E948431F801E355F74F408126
:1031300051816281738122E030E082EA9EE00E9448
:103140009A3365E173E082EA9EE00E948431F801DF
:10315000EF54F74F408151816281738122E030E06A
:1031600082EA9EE00E949A3368E273E082EA9EE07F
:103170000E948431F801EB54F74F608170E04AE01F
:1031800050E082EA9EE00E944E3261E473E082EAFF
:103190009EE00E948431F801EC59F74F608170E0A5
:1031A0004AE050E082EA9EE00E944E326DE573E014
:1031B00082EA9EE00E948431F801EA54F74F408190
:1031C00051816281738122E030E082EA9EE00E94B8
:1031D0009A3365E773E082EA9EE00E948431F80149
:1031E000E654F74F408151816281738122E030E0E3
:1031F00082EA9EE00E949A336DE873E082EA9EE0E4
:103200000E948431F801E254F74F4081518162817C
:10321000738122E030E082EA9EE00E949A33629657
:103220000FB6F894DEBF0FBECDBFDF91CF911F91D7
:103230000F91FF90EF90DF90CF90BF90AF900895E7
:103240008627682F62956827062E66956695602505
:10325000062E669560256770082E892F669507945F
:103260006795902D86270694679590258627089563
:10327000CF92DF92EF92FF920F931F93CF93DF9342
:1032800000D01F92CDB7DEB78C01CE0101966C0144
:103290009FE0E92EF12CD801ED91FC910088F18995
:1032A000E02DB701C8011995F60181936F01FFEF79
:1032B000EF1AFF0A23E1E216F10469F789819A8186
:1032C000AB81BC818F3F9F4FAF4FBF4FE1F1498131
:1032D0005A816B817C8126E082EA9EE00E9429303F
:1032E0008DE99DE00E9446080E9479070E9402072E
:1032F00008591F4FD8016D937D938D939C9313971D
:1033000062E474E082EA9EE00E948431F801408128
:1033100051816281738122E030E082EA9EE00E9466
:10332000983364E574E082EA9EE00F900F900F906E
:103330000F90DF91CF911F910F91FF90EF90DF9051
:10334000CF900C94913180E092ECA1E0B0E08983C1
:103350009A83AB83BC83CE0101966C018FE0E82E8B
:10336000F12CD6014D916D01D801ED91FC910288AF
:10337000F389E02DB701C8011995BFEFEB1AFB0ADD
:10338000E3E1EE16F10469F7A2CFCB010C942D3ADC
:10339000CB01642F0C94353A08958F929F92AF928F
:1033A000BF92CF92DF92EF92FF920F931F93CF9332
:1033B000DF9326E734E0FC0131832083E45BF74FA1
:1033C0006083399711821082369610823997118264
:1033D00010823596118210823296118210823A96AE
:1033E0001082E12CF12C00E010E0C8010E942D3A7F
:1033F000A82EC80107960E942D3A8E2CC0E0D0E07E
:10340000B12CA094B094C82ED12CC094D094CE01ED
:103410008E0D9F1DC697C4F4B5010C2E02C0759584
:1034200067950A94E2F761709C2E980C892D0E9492
:103430007F2EB6010C2E02C0759567950A94E2F7AF
:103440006170892D0E94B82E2196C830D105F9F6F9
:103450000F5F1F4FE8E0EE0EF11C0730110529F653
:10346000DF91CF911F910F91FF90EF90DF90CF9060
:10347000BF90AF909F908F90089526E734E0FC01B5
:103480003183208308951F93CF93DF93FB0120E0C6
:1034900030E0DC01A95BB74F2417350781F01191AB
:1034A000BC01620F731FCD91DC9111976C0F7D1FD2
:1034B000EB01C259DF4F18832F5F3F4FEDCF8D9146
:1034C0009C911197820F931F8D939C93DF91CF91C5
:1034D0001F910895CF93DF93FC01E359FF4F608163
:1034E000DC01A459BF4F67FF0EC020E8260F2083E0
:1034F00022E02C93DC01ED91FC910488F589E02D0C
:10350000DF91CF911994FC01E05CF74F208131816C
:1035100021503109820F931FEC01C259DF4F88817E
:103520008C9331832083DF91CF9108956F927F92A6
:103530008F929F92AF92BF92CF92DF92EF92FF92C3
:103540000F931F93CF93DF93EC019C01275B374FC1
:1035500059016D3721F481E0F9018083AEC0F90192
:1035600080819E012D5B374F7901882309F49EC02D
:1035700080E26827F701808191819E01245B374FAB
:103580004901FE01EE5BF74F6F018E01005C174FA2
:10359000009759F4E55DF7406083F9018081882345
:1035A000A9F18FEF9FEF33961EC08130910581F412
:1035B00067FF08C083E08083862F8F77F801108231
:1035C000818324C082E08083862F90E0F8010BC0C5
:1035D0008230910559F42081233041F4F801808133
:1035E0009181860F911D9183808310C0F601208107
:1035F000821B9109F801208131818217930730F4F1
:103600008C0F9D1FFC01E259FF4F6083F401808104
:10361000882369F03E01F1EB6F1AF7EF7F0AF3019F
:10362000808191810E942019F30191838083F701A9
:10363000208131812F5F3F4F31832083F40140810E
:10364000F6015081F80180819181850F911D840FD1
:10365000911D840F911D2817390711F5F70111826B
:103660001082FE01EB5BF74F1182108232961182BD
:103670001082442329F0389680819181892B19F496
:10368000CE010E946A1AFE01E55BF74F8081882314
:1036900039F0C359DF4F80589881981301C01082C8
:1036A000F5018081882349F0108207C06E3709F048
:1036B00061CFF70111821082F3CFDF91CF911F917B
:1036C0000F91FF90EF90DF90CF90BF90AF909F90C1
:1036D0008F907F906F900895FF920F931F93CF93D9
:1036E000DF931F92CDB7DEB78C01F62E88E0898379
:1036F00069816837E8F58DE99DE00E9463088DE9EE
:103700009DE00E948208811130C0FF2041F041E01D
:1037100050E0BE016F5F7F4FC8010E94431A67E50A
:1037200074E082EA9EE00E9484314AE050E06981C0
:1037300082EA9EE00E9473326BE674E082EA9EE0C9
:103740000E94843140E150E0698182EA9EE00E945B
:10375000733260E774E082EA9EE00E94913161E09A
:1037600070E080E090E00E94D02C89818F5FBFCF15
:103770000F90DF91CF911F910F91FF900895CF93FC
:10378000C62F83E8860F823090F46DE782EA9EE0D0
:103790000E94C42FE091A20EF091A30E60E26C276C
:1037A0000190F081E02D82EA9EE0CF91199482EAA7
:1037B0009EE0CF910C94C42F8F929F92AF92BF92B4
:1037C000CF92DF92EF92FF920F931F93CF93DF93ED
:1037D000EC018C017C0120ECE21A27EFF20A845BF9
:1037E000974F6C015E0193EBA91A97EFB90AF701A5
:1037F0008081918198012C1B3D0BF6012817390718
:10380000C8F48081980122593F4F4901882351F023
:10381000F9016081F501808191810E942019F501F3
:1038200091838083F4016081CE010E94BF1B0F5FF2
:103830001F4FDDCF8081882369F08E01035B174F16
:10384000F8016081CE010E94BF1BF8016181CE01A9
:103850000E94BF1BF70111821082C95BD74F1982EA
:103860001882DF91CF911F910F91FF90EF90DF9021
:10387000CF90BF90AF909F908F900895BF92CF92BE
:10388000DF92EF92FF920F931F93CF93DF93EC01A0
:10389000B62E8C01005C174FFC01E95BF74F80816D
:1038A0009181F801918380836EE782EA9EE00E9415
:1038B000C42F7E01F4EBEF1AF7EFFF0AF7018081C6
:1038C000882381F08FEF9FEF6E01F3EBCF1AF7EFB4
:1038D000DF0AF601918380836B2D0E942019F60187
:1038E000918380836B2DCE010E94BF1BF801608104
:1038F0007181F70180816038710580F4882371F14E
:103900007E01F3EBEF1AF7EFFF0AF7018081918157
:103910000E942019F7019183808320C08823B1F091
:103920007068672F7E01F3EBEF1AF7EFFF0AF701DC
:10393000808191810E942019F70191838083F80191
:1039400060810E942019F70191838083F8018081B2
:1039500091819068692FCE010E94BF1BF8016081A0
:10396000CE01DF91CF911F910F91FF90EF90DF90EB
:10397000CF90BF900C94BF1B0F931F93CF93DF93F7
:103980001F92CDB7DEB78C01698341E050E0BE01E4
:103990006F5F7F4F0E94431AF801E359FF4F608128
:1039A000C8010E943E1CC8010E94DC1B0F90DF91E1
:1039B000CF911F910F910895FF920F931F93CF9373
:1039C000DF938A01422F8DE99DE00E945D08C0E0EF
:1039D0008DE99DE00E94AF07892B71F0FF24F394DD
:1039E000FC0EC8018C0F911DEC018DE99DE00E9439
:1039F000B7078883CF2DECCF8C2FDF91CF911F910C
:103A00000F91FF9008956F927F928F929F92AF9245
:103A1000BF92CF92DF92EF92FF920F931F93CF93BB
:103A2000DF93CDB7DEB769970FB6F894DEBF0FBE50
:103A3000CDBF8C018DB69EB6862F90E0FC01E0587C
:103A4000F109EF31F10508F0D5C4E753FF4F9801B4
:103A5000205C374F79010C94C037D9018D919C912E
:103A6000892BF1F4D801ED91FC910280F381E02DD6
:103A7000C8011995FC0101900020E9F7AF01415000
:103A80005109481B590BD801ED91FC910280F3813B
:103A9000E02D62C0D9018D919C91019709F49FC3DB
:103AA00086E0F801E459FF4F86C4F90180819181D5
:103AB000892BB1F7D801ED91FC910480F581E02DBF
:103AC000C8011995FC0101900020E9F7AF014150B0
:103AD0005109481B590BD801ED91FC910480F581E7
:103AE000E02D3AC0F90180819181892BC9F6D80176
:103AF000ED91FC910680F781E02DC8011995FC013C
:103B000001900020E9F7AF0141505109481B590BC2
:103B1000D801ED91FC910680F781E02D1DC0F901DF
:103B200080819181892B09F0BBCFD801ED91FC9167
:103B30000084F185E02DC8011995FC010190002059
:103B4000E9F7AF0141505109481B590BD801ED91DC
:103B5000FC910084F185E02DC801498F588F19959B
:103B6000498D588DBC0134C4F90180819181892B24
:103B700009F096CFD801ED91FC910284F385E02DF8
:103B8000C8011995FC0101900020E9F7AF014150EF
:103B90005109481B590BD801ED91FC910284F38522
:103BA000E02DDACFF90180819181892B09F078CF5E
:103BB000D801ED91FC910484F585E02DC80119959B
:103BC000FC0101900020E9F7AF0141505109481B69
:103BD000590BD801ED91FC910484F585E02DBCCF03
:103BE000F90180819181892B09F05ACFD801ED919B
:103BF000FC910684F785E02DC8011995FC01019020
:103C00000020E9F7AF0141505109481B590BD80179
:103C1000ED91FC910684F785E02D9ECFF90180811E
:103C20009181892B09F03CCF4AE050E06CE874E0C8
:103C3000CFC3D9018D919C91029709F031CFF80142
:103C4000EB5BF74F20813181A801420F531FDA014E
:103C5000A259BF4F8C9111966C912E5F3F4F3183CB
:103C600020830E947F2EC2C3F90180819181029737
:103C700009F016CFF801EB5BF74F20813181A801E5
:103C8000420F531FDA01A259BF4F8C9111966C91CC
:103C90002E5F3F4F318320830E94B82EA7C3D901E6
:103CA0008D919C91019709F0FBCEF801EB5BF74FEA
:103CB00020813181D801A20FB31FA259BF4F8C912F
:103CC0002F5F3F4F318320830E94EE2EF5C2F90112
:103CD00080819181029709F0E3CEF801EB5BF74F09
:103CE00020813181D801A20FB31FA259BF4F8C91FF
:103CF000A9014F5F5F4F51834083D901A159BF4F45
:103D0000A00FB11F6D917C912D5F3F4F31832083B8
:103D10000E94652D6BC3C80184599F4F26E0DC01CA
:103D20002C93F701208131812230310508F462C3E0
:103D3000ADB6BEB6F801EB5BF74F40815181D801BB
:103D4000A40FB51FA259BF4F6C914F5F5F4F5183B6
:103D50004083462F50E0ADB7BEB7A41BB50B0FB6DE
:103D6000F894BEBF0FBEADBF11966D012230310574
:103D700011F4613031F04D5F5F4F2417350709F0C2
:103D80007BC07C2D3601262D271B261788F4208129
:103D90003181A801420F531F42595F4FDA014C9104
:103DA0002F5F3F4F31832083D3014D933D01EBCFF4
:103DB000D7012D913C9122303105B1F02081318124
:103DC000D901A259BF4FA00FB11FED90FC902E5FFB
:103DD0003F4F31832083B9EEEB16B3E0FB0638F09A
:103DE00029E0FC01208348C0EE24E394F12CDC019F
:103DF0001C92F092950DE092940DC80182599F4F4C
:103E00009093990D8093980D80E0688F0E94FD0437
:103E1000688D613029F4F60180810E948B0612C002
:103E2000D092920DC092910D60938F0D10928E0DD5
:103E30008CE996E090938D0D80938C0DD6018C913A
:103E40000E9471060E9401068091940D9091950D3B
:103E50002091960D3091970D28173907C9F70E94C8
:103E60002006EE0CFF1CF801E95BF74F8081918181
:103E7000E80EF91EF182E0820FB6F894BEBE0FBEC6
:103E8000ADBEB8C2F90180819181039709F008CED7
:103E9000D801AB5BB74F8D919C911197FC01E25912
:103EA000FF4FE00FF11F60817181F801E80FF91FEA
:103EB000E059FF4F408103968D939C93D801ED917B
:103EC000FC910288F389E02DC80119958FC2F90190
:103ED00080819181029709F0E3CDD801AB5BB74FA8
:103EE0008D919C911197FC01E259FF4FE00FF11F5A
:103EF0006081718102968D939C93D801ED91FC9124
:103F00000088F189E02DC8011995D6C1F901808199
:103F10009181029709F0C4CDF801EB5BF74F8081E6
:103F200091819801280F391FD901A259BF4F6C9177
:103F30001196EC90029691838083CE0101960E94A7
:103F40001304CE0101960E940104F12CBE01615FB1
:103F50007F4FCE0101960E943604F394EF14B0F720
:103F6000980124593F4F7901882309F422C248E07F
:103F700050E0BE01615F7F4FC8010E94431A16C224
:103F8000D9018D919C910B9709F08ACDD801AB5B3B
:103F9000B74F2D913C911197A801420F531FFA0181
:103FA000E259FF4F60816901EFEFCE1ADE0A1196E8
:103FB000DC92CE923E01FFE06F0E711C80E090E03B
:103FC000B62CA72CC00ED11E7601E80EF91E7EE697
:103FD000E70EF11CF701F080F301F1923F01019629
:103FE0008830910589F7FA01E958FF4FF080319642
:103FF000E080255F3F4F2D933C93CE0101960E94B8
:104000001304CE0101960E94DE026B2D7A2DCE01A3
:1040100001960E94D90340E06F2DCE0101960E94C7
:104020007B03F12CFE1409F4E1C1CE0101960E943C
:10403000BD038F8B41E050E0BE01695E7F4FC80138
:104040000E94431AF394EECFD9018D919C910B9766
:1040500009F026CDD801AB5BB74F2D913C9111975C
:10406000A801420F531FFA01E259FF4F6081690115
:10407000EFEFCE1ADE0A1196DC92CE923E01FFE0FF
:104080006F0E711C80E090E0B62CA72CC00ED11EE4
:104090007601E80EF91E7EE6E70EF11CF701F080CE
:1040A000F301F1923F0101968830910589F7FA01F9
:1040B000E958FF4FF08031964081255F3F4F2D93A7
:1040C0003C93CE010196498F0E941304CE010196C4
:1040D0000E94DE026B2D7A2DCE0101960E94D9033B
:1040E000498D6F2DCE0101960E947B037FC1D901BE
:1040F0008D919C91029709F0D3CCF801EB5BF74FBF
:10410000808191819801280F391FD901A259BF4F91
:104110006C911196EC900296918380834E2D8DE9DF
:104120009DE00E945D08F12C8DE99DE00E94AF07A3
:10413000892B79F08DE99DE00E94B707898341E0E2
:1041400050E0BE016F5F7F4FC8010E94431AF39495
:10415000EBCFF801E459FF4FFE1409F44AC181E0A6
:104160002AC1F90180819181029708F499CC6801F4
:10417000FBEBCF1AF7EFDF0AD6018D919C911197D7
:10418000F801E80FF91FE259FF4F608101968D9306
:104190009C938DE99DE00E946308B12C2B2D30E0AB
:1041A000F7018081918101972817390798F4F6016A
:1041B00080819181F801E80FF91FE259FF4F60817A
:1041C0000196D6018D939C938DE99DE00E9407088E
:1041D000B394E4CF8DE99DE00E94820807C1F80105
:1041E000EB5BF74F80819181D801A80FB91FA259CD
:1041F000BF4F2C910196918380838CB5211102C011
:10420000806201C08F7D8CBDF1C0F90180819181F8
:10421000019709F045CCF801EB5BF74F8081918164
:10422000D801A80FB91FA259BF4F2C9101969183B5
:1042300080839CB5822F83709C7F892B8CBD8DB52C
:1042400022FB222720F98E7F822B8DBD18C0D90139
:104250008D919C91019709F023CCF801EB5BF74F0E
:1042600080819181D801A80FB91FA259BF4F2C910D
:104270000196918380838CB5837F282B2CBDE95DCB
:10428000F740B7C0F90180819181019709F008CC0E
:10429000F801EB5BF74F80819181D801A80FB91F1E
:1042A000A259BF4F2C910196918380832EBD0000AF
:1042B0000DB407FEFDCF8EB5898341E050E0BE010D
:1042C0006F5F7F4F85C0D9018D919C91892B09F03B
:1042D000E7CBF801EA59FF4F40815181B8016E5F89
:1042E0007F4F76C0F90180819181892B09F0D8CB6D
:1042F0008091860D9091870DA091880DB091890DC8
:1043000089839A83AB83BC8344E050E0D8CFD90142
:104310008D919C91049709F0C3CBD801AB5BB74F4B
:104320002D913C911197F901E259FF4FE00FF11FD8
:1043300060817181828193812C5F3F4F2D933C93EB
:104340000E94120553C0F90180819181892B09F0E7
:10435000A7CB0E94E4049A83898342E050E0AFCF68
:10436000D9018D919C91029709F09ACBD801AB5B52
:10437000B74F2D913C911197F901E259FF4FE00F92
:10438000F11F808191812E5F3F4F2D933C939C01C3
:1043900022503109F801E459FF4F7F0126303105E1
:1043A00040F40E94DB0480E00E94A405D7011C9227
:1043B00021C085E0F70180831DC0D9018D919C91BA
:1043C000892B09F06DCB44E050E0B80168597F4F6C
:1043D000C8010E94431A0AC0F90180819181892B8A
:1043E00009F05ECB61E0C8010E946C1BF801E45942
:1043F000FF4F10827801FCE6EF0EF11CD7016C91A3
:10440000C8010E94BC1CF70180810FB6F8949EBEC3
:104410000FBE8DBE69960FB6F894DEBF0FBECDBF3E
:10442000DF91CF911F910F91FF90EF90DF90CF9090
:10443000BF90AF909F908F907F906F900895CF9393
:10444000DF931F92CDB7DEB78DE99DE049830E94CF
:1044500063084981642F8DE99DE00E9407088DE97A
:104460009DE00F90DF91CF910C948208EF92FF9224
:104470000F931F93CF93DF931F921F92CDB7DEB799
:10448000122F8DE99DE049835A830E946308498178
:10449000042FE42E5A81F52E8E2D801B811740F4B7
:1044A000F70161917F018DE99DE00E940708F4CF3B
:1044B0008DE99DE00F900F90DF91CF911F910F91AB
:1044C000FF90EF900C948208CF93DF93EC0182EA87
:1044D0009EE00E94172F181619064CF482EA9EE0FF
:1044E0000E94302F682FCE010E94961AF0CFDF91E4
:1044F000CF9108952091960D3091970D8091940D54
:104500009091950D2817390721F40E94200681E02B
:10451000089580E00895CF93DF93D82FC62F81119F
:1045200016C0613041F028F0623009F058C060E0F8
:1045300009C061E007C060E084E00E94B82E61E03D
:1045400085E02BC084E00E94B82E60E0F9CF813076
:1045500009F045C0623099F050F4662371F0613083
:10456000F1F560E086E00E94B82E61E033C0633070
:10457000F9F06430A1F560E029C061E027C060E097
:1045800086E00E94B82E60E087E00E94B82E61E0CD
:1045900088E00E94B82E60E089E00E94B82E8BE18E
:1045A000D89FF0011124E35AF14FC18380E018C075
:1045B00060E086E00E94B82E60E087E00E94B82E9E
:1045C00060E088E00E94B82E61E0E6CF86E00E94BD
:1045D000B82E60E087E00E94B82E60E0D9CF85E079
:1045E000DF91CF9108959093960E8093950E6093EE
:1045F0005D0E4093780E60E078EB88E097E40E94CF
:10460000120561E084E00E947F2E61E085E00E9457
:104610007F2E61E086E00E947F2E61E087E00E94AD
:104620007F2E61E088E00E947F2E61E089E00E9499
:104630007F2E83E00E94DB0460915E0E80E00E948A
:104640008B226091790E81E00E948B2220E032E083
:104650003093730E2093720E80E090E0A0E0B4E4FB
:104660008093740E9093750EA093760EB093770E90
:1046700041E040936D0E30938E0E20938D0E80930B
:104680008F0E9093900EA093910EB093920E409344
:10469000880E08950F931F93CF93DF93AB019BE197
:1046A000899FE0011124C35AD14F9B012353310943
:1046B0002A393340B0F09B81911110C09A819F5FDD
:1046C0009A836981662321F061500E948B2203C086
:1046D00081E08093930E83E08B8337C091509B835E
:1046E00034C08091940E882309F18D899E89DB0165
:1046F000A81BB90B9D010E94C63709891A892B890D
:104700003C89060F171F281F391F098B1A8B2B8B0B
:104710003C8B88859985AA85BB85840F951FA11D33
:10472000B11D88879987AA87BB870FC08C819D811F
:104730008617970718F47D836C8307C08E819F814D
:104740006817790710F47F836E83DF91CF911F91F3
:104750000F91089580E00C944A2381E00C944A2341
:104760002F923F924F925F926F927F928F929F9281
:10477000AF92BF92CF92DF92EF92FF920F931F936F
:10478000CF93DF93CDB7DEB764970FB6F894DEBF53
:104790000FBECDBF29013A01E986FA860B871C8737
:1047A0001601BA8AA98A0E94DA3620E030E04AE788
:1047B00054E40E944B359B01AC010E94D0346B0144
:1047C0007C0120E030E0A9010E94D63620E030E0F4
:1047D00040E05FE387FD05C0C701B6010E94D03409
:1047E00004C0C701B6010E94CF340E94B3350E94B5
:1047F000E63520E030E040E05FE30E94DA366D838A
:104800007E838F839887A30192016D817E818F8142
:1048100098850E944B3529853A854B855C850E9499
:10482000DA360E9434350E94B8358B01023011050A
:1048300008F42DC3B80180E090E00E94E4352D819A
:104840003E814F8158850E944B35A30192010E9401
:10485000DA3669837A838B839C83D1016D937D9350
:104860008D939C93139729853A854B855C850E948F
:10487000D63618160CF408C3A301920169817A8117
:104880008B819C810E944B356B017C019B01AC01AB
:1048900060E070E080E090E40E944B354B015C01E9
:1048A00020E030E0A9010E94D63620E030E040E070
:1048B0005FE387FD05C0C501B4010E94D03404C088
:1048C000C501B4010E94CF340E94B3350E94E63581
:1048D000A70196010E94DA369B01AC0160E070E00E
:1048E00080E090E40E94CF3420E030E0A9010E94F3
:1048F000D63620E030E0A901181664F5C501B401F0
:104900000E94D63620E030E040E05FE387FD05C03E
:10491000C501B4010E94D03404C0C501B4010E9495
:10492000CF340E94B3350E94E635A70196010E945C
:10493000DA369B01AC0160E070E080E090E40E9418
:10494000CF342DEC3CEC4CEC5DE30E94473587FD09
:104950009BC22CC0C501B4010E94D63620E030E0D5
:1049600040E05FE387FD05C0C501B4010E94D0347B
:1049700004C0C501B4010E94CF340E94B3350E9427
:10498000E635A70196010E94DA369B01AC0160E092
:1049900070E080E090E40E94CF342DEC3CEC4CECD5
:1049A0005DEB0E94D63618160CF46EC2A30192017C
:1049B000C301B2010E94D0349B01AC0169817A81AC
:1049C0008B819C810E94473587FF61C129813A8193
:1049D0004B815C81C301B2010E944B356D877E879C
:1049E0008F87988B1C8A1B8AEB89FC89BF0180E02A
:1049F00090E00E94E4354B015C019B01AC016D85A8
:104A00007E858F8598890E94CF3420E030E040E099
:104A10005FE30E94473518163CF42B893C892F5FD1
:104A20003F4F3C8B2B8BE0CF29813A814B815C81BE
:104A3000C501B4010E94DA369B01AC01C301B20189
:104A40000E94CF344B015C0120E030E0A9010E94BC
:104A5000D636181624F0B7FAB094B7F8B094A5017A
:104A6000940169817A818B819C810E944B35698395
:104A70007A838B839C839B01AC0160E070E080E0D3
:104A800090E40E944B354B015C0120E030E0A9012D
:104A90000E94D63620E030E040E05FE387FD05C0AD
:104AA000C501B4010E94D03404C0C501B4010E9404
:104AB000CF340E94B3350E94E63529813A814B817B
:104AC0005C810E94DA369B01AC0160E070E080E01E
:104AD00090E40E94CF3420E030E0A9010E94D63655
:104AE00020E030E0A901181674F5C501B4010E9458
:104AF000D63620E030E040E05FE387FD05C0C50129
:104B0000B4010E94D03404C0C501B4010E94CF3466
:104B10000E94B3350E94E63529813A814B815C8140
:104B20000E94DA369B01AC0160E070E080E090E426
:104B30000E94CF342DEC3CEC4CEC5DE30E944735F9
:104B400087FF2FC0A1C1C501B4010E94D63620E065
:104B500030E040E05FE387FD05C0C501B4010E947D
:104B6000D03404C0C501B4010E94CF340E94B335D3
:104B70000E94E63529813A814B815C810E94DA36B8
:104B80009B01AC0160E070E080E090E40E94CF34D3
:104B90002DEC3CEC4CEC5DEB0E94D63618160CF478
:104BA00073C120E030E0A901C701B6010E94D636EA
:104BB00020E030E040E05FE387FD05C0C701B601BB
:104BC0000E94D03404C0C701B6010E94CF340E94B5
:104BD000B3350E94E6359B01AC01C701B6010E94C6
:104BE000CF3420E030E0A9010E94D63620E030E04A
:104BF000A901181634F5C701B6010E94D63620E087
:104C000030E040E05FE387FD05C0C701B6010E94C8
:104C1000D03404C0C701B6010E94CF340E94B3351E
:104C20000E94E6359B01AC01C701B6010E94CF345A
:104C300027E137EB41ED58E30E94473587FF27C056
:104C400023C1C701B6010E94D63620E030E040E023
:104C50005FE387FD05C0C701B6010E94D03404C0E0
:104C6000C701B6010E94CF340E94B3350E94E635D9
:104C70009B01AC01C701B6010E94CF3427E137EB9D
:104C800041ED58EB0E94D63618160CF4FDC020E01A
:104C900030E040E251E4C701B6010E94473587FF8A
:104CA00076C020E030E0A901C701B6010E94D636E7
:104CB00020E030E040E05FE387FD05C0C701B601BA
:104CC0000E94D03404C0C701B6010E94CF340E94B4
:104CD000B3350E94E6359B01AC01C701B6010E94C5
:104CE000CF3420E030E0A9010E94D63620E030E049
:104CF000A901181634F5C701B6010E94D63620E086
:104D000030E040E05FE387FD05C0C701B6010E94C7
:104D1000D03404C0C701B6010E94CF340E94B3351D
:104D20000E94E6359B01AC01C701B6010E94CF3459
:104D300027E137EB41ED58E30E94473587FF27C055
:104D4000A3C0C701B6010E94D63620E030E040E0A3
:104D50005FE387FD05C0C701B6010E94D03404C0DF
:104D6000C701B6010E94CF340E94B3350E94E635D8
:104D70009B01AC01C701B6010E94CF3427E137EB9C
:104D800041ED58EB0E94D63618160CF47DC02D81EB
:104D90003E814F815885C701B6010E94DA366B010A
:104DA0007C0120E030E0A9010E94D63620E030E00E
:104DB00040E05FE387FD05C0C701B6010E94D03423
:104DC00004C0C701B6010E94CF340E94B3350E94CF
:104DD000E6359B01AC01C701B6010E94CF3420E04B
:104DE00030E0A9010E94D63620E030E0A901181673
:104DF00034F5C701B6010E94D63620E030E040E02D
:104E00005FE387FD05C0C701B6010E94D03404C02E
:104E1000C701B6010E94CF340E94B3350E94E63527
:104E20009B01AC01C701B6010E94CF3427E137EBEB
:104E300041ED58E30E94473587FF26C033C0C701C4
:104E4000B6010E94D63620E030E040E05FE387FD07
:104E500005C0C701B6010E94D03404C0C701B60125
:104E60000E94CF340E94B3350E94E6359B01AC010D
:104E7000C701B6010E94CF3427E137EB41ED58EB73
:104E80000E94D636181674F001501109CFCC20E0DC
:104E900030E040E05FE36D817E818F8198850E94E4
:104EA000D034ADCCA989BA890D931C9364960FB602
:104EB000F894DEBF0FBECDBFDF91CF911F910F9150
:104EC000FF90EF90DF90CF90BF90AF909F908F902A
:104ED0007F906F905F904F903F902F900895109229
:104EE0005E0E1092790E08952F923F924F925F922C
:104EF0006F927F928F929F92AF92BF92CF92DF92EA
:104F0000EF92FF920F931F93CF93DF93CDB7DEB74E
:104F1000C65ED1090FB6F894DEBF0FBECDBFC0523A
:104F2000DF4F59834883C05ED040CE51DF4F0883A6
:104F300019832A833B83C25ED04026013701CD52BC
:104F4000DF4FA882C35DD0408092940EAA2031F139
:104F5000A7E9AA2EAEE0BA2EAE0149535F4F6A010F
:104F6000E12C10E4F12E0CE916E4A30192010E9459
:104F7000B023C953DF4F688179818A819B81C75CE7
:104F8000D0409B01AC010E94D034C953DF4F6883ED
:104F900079838A839B83C75CD04017C020E030E0D0
:104FA00040E05FE30E94DA36E7E9AE2EEEE0BE2E87
:104FB000DE01A953BF4F6D01E12C10E4F12E0CE18D
:104FC00017E4A30192010E94B0238091970E909163
:104FD000980E880F991F9093980E8093970EC9533F
:104FE000DF4F688179818A819B81C75CD0400E94B4
:104FF0001205B0915E0EC252DF4FB883CE5DD04035
:1050000012E0C353DF4F1883CD5CD04062E080E0F4
:105010000E948B22E091790EC152DF4FE883CF5D71
:10502000D04084E0C253DF4F8883CE5CD04064E040
:1050300081E00E948B2280915D0EFE01E553FF4FBF
:1050400080839091780E91832091970E3091980EE5
:10505000CD52DF4F4881C35DD040442309F13093E6
:10506000950D2093940DF093920DE093910D109374
:105070008F0D10928E0D2CE936E030938D0D20931C
:105080008C0D0E94710684EB96E090938D0D8093B9
:105090008C0D8AE493E290938B0D80938A0D06C069
:1050A000369527953093950D2093940DE090950EAD
:1050B000F090960EF701E859FF4F20E030EC4FE7F3
:1050C00054E460817181828193810E944B352B0170
:1050D0003C018E0105541F4F1E0155E1250E311C68
:1050E000CE01825A9F4FDC011896C153DF4FB9831E
:1050F000A883CF5CD040F8013C96CC52DF4FF983B7
:10510000E883C45DD040C652DF4F8883CA5DD0407B
:10511000CA51DF4F9883C65ED04097012B59374F55
:10512000CF52DF4F39832883C15DD040A701445A55
:10513000574FC852DF4F59834883C85DD040809194
:105140005D0ECF52DF4FE881F981C15DD040C6527C
:10515000DF4FA881CA5DD040CA51DF4FB881C65E1B
:10516000D0409DE501900D929A95E1F7882369F072
:105170008130B1F4C153DF4FE881F981CF5CD04079
:10518000208D318D428D538D0EC0C153DF4FA881CC
:10519000B981CF5CD0402D913D914D915C9103C080
:1051A00020E030E0A901CF52DF4FE881F981C15DF5
:1051B000D040DE0111969DE501900D929A95E1F7A0
:1051C000882341F0813061F4F101C0A0D1A0E2A0B8
:1051D000F3A009C0D101CD90DD90ED90FC9003C00B
:1051E000C12CD12C760160E876E988E19BE40E942D
:1051F0004B354B015C0120E836E948E15BE4C7012F
:10520000B6010E94DA369B01AC010E94D0342BED2E
:105210003FE049E450E40E94DA36C852DF4FA881EB
:10522000B981C85DD0402D913D914D915C910E9416
:10523000DA366B017C01A5019401C501B4010E941D
:10524000DA364B015C01A7019601C701B6010E9445
:10525000DA369B01AC01C501B4010E94D0340E9432
:1052600041379B01AC01C301B2010E94DA36F8015B
:1052700061937193819391938F01F4E02F0E311C10
:10528000C153DF4F28813981CF5CD0402C5F3F4F25
:10529000C153DF4F39832883CF5CD040CC52DF4FDE
:1052A00048815981C45DD0400417150709F047CFE4
:1052B0001092930ECF52DF4F19821882C15DD040F9
:1052C000CF52DF4F88819981C15DD040C052DF4FFE
:1052D000A881B981C05ED0408A179B0791F4C25261
:1052E000DF4F6881CE5DD04080E00E948B22C152AA
:1052F000DF4F6881CF5DD04081E00E948B2280E04B
:10530000C8C28091940E10925F0E1092600E8111AF
:105310000BC0EFEFF3E0F093640EE093630E109296
:10532000620E1092610E10C01092650E1092660E01
:105330001092670E1092680E10926E0E10926F0E01
:105340001092700E1092710E10927A0E10927B0EC7
:10535000882389F01092800E1092810E1092820E96
:105360001092830E1092890E10928A0E10928B0E5C
:1053700010928C0E0AC08FEF93E090937F0E809373
:105380007E0E10927D0E10927C0ECD52DF4F9881D2
:10539000C35DD040992309F440C00E9401060E94D9
:1053A0007A228823E1F30E94AD2CCC52DF4F688330
:1053B00079838A839B83C45DD040A091940EC852A8
:1053C000DF4FA883C85DD0402091970E3091980E92
:1053D000FE01E353FF4FC153DF4FF983E883CF5CF6
:1053E000D0400DE51EE0AE014F5F5F4F2A01809176
:1053F000930E81113FC0CE01825A9F4F1C01612C38
:10540000712CC901A0E0B0E0C652DF4F88839983B8
:10541000AA83BB83CA5DD040ACC080915D0E0E9460
:105420008B06A4EBB6E0B0938D0DA0938C0DEAEA49
:10543000F3E2F0938B0DE0938A0D0E9401060E9427
:105440007A228823E1F38091780E0E948B0624EB68
:1054500036E030938D0D20938C0D4DEA53E250933E
:105460008B0D40938A0D0E9401060E947A228823A8
:10547000E1F399CF8091950E9091960E0E944A0B80
:1054800020E040E050E0BA018091950E9091960E98
:105490000E941B0E80E2FDC1C652DF4F68817981F8
:1054A0008A819B81CA5DD0400E94E4356B017C01FA
:1054B000D80151966D917D918D919C9154970E9448
:1054C000E4359B01AC010E94D034A70196010E94F3
:1054D0004B350E944137F20160837183828393834D
:1054E00020E030E040E852E40E94DA369B01AC0153
:1054F0000E94D03423EF34E045EB5FE30E94DA36BC
:105500000E94B835D1016D937C93F301E35AF14FBA
:1055100082818823B9F1F301E35AF14F8281882314
:1055200009F4B3C08195C153DF4FA881B981CF5C25
:10553000D0408C93B1E0B08BC153DF4FE881F9814B
:10554000CF5CD0403196C153DF4FF983E883CF5C05
:10555000D040FBE16F0E711C055E1F4F22E0220E52
:10556000311C34E0430E511C46E36416710409F407
:1055700096C0C852DF4F5881C85DD040552309F40A
:105580005AC08ACF80898111C6CFF8018084918466
:10559000A284B3846485758586859785680D791D99
:1055A0008A1D9B1D0E94E4352AE037ED43E25CE34F
:1055B0000E94DA36A70196010E944B356B017C01EF
:1055C00024EA30E74DE75FE3D80157966D917D916E
:1055D0008D919C915A970E94DA369B01AC01C701CC
:1055E000B6010E94D0346B017C01F801678B708F8B
:1055F000818F928F20E030E0A9010E94D63620E012
:1056000030E040E05FE387FD05C0C701B6010E94BE
:10561000D03404C0C701B6010E94CF340E94B33514
:10562000D80156967C936E935597F801848695869B
:10563000A686B78670CFD80114966D917C91159788
:1056400016968D919C911797681B790B96E0660FC3
:10565000771F9A95E1F7F1017183608380E090E014
:105660000E94E43523EF34E045EB5FE30E944B35C5
:1056700020E030E040E05CE30E94DA36D2016D9336
:105680007D938D939C93139746CF8181C153DF4FB8
:10569000A881B981CF5CD0408C93108A4DCF009106
:1056A000950E1091960EF801EC59F74F80818823E2
:1056B00009F454C080915F0E811150C03C97C080A6
:1056C000D180E280F38020E030E0A901C701B6017B
:1056D0000E94D63618160CF041C0C353DF4F8881A4
:1056E000CD5CD040EBEBF0E0EC0FFD1F24E082023C
:1056F000E00DF11D112420813181428153816981A6
:105700007A818B819C810E94DA362B013C01A701B2
:1057100096010E94CF344B015C0120E030E0A901EA
:105720000E94D636181624F0B7FAB094B7F8B094A1
:1057300020E030E040E05FE3F801EF54F74F608194
:105740007181828193810E94DA369B01AC01C5018F
:10575000B4010E94D63618160CF476C00EE51EE091
:10576000CE01825A9F4F6C01E12CF12CD6018D9114
:105770009C91893C9C4030F4F80160816F5F8E2DD4
:105780000E948B2242E050E0B6018091950E9091EC
:10579000960E0E94431A6DEC70E06C0F7D1F6E0D2B
:1057A0007F1D41E050E08091950E9091960E0E94F1
:1057B000431AFFEFEF1AFF0A22E0C20ED11C055E6A
:1057C0001F4F32E0E316F10489F682EA9EE00E9460
:1057D000172F181619060CF482CD0E94AD2CCC524E
:1057E000DF4F288139814A815B81C45DD040621BD3
:1057F000730B840B950B0E94E4356B017C0120E058
:1058000030E04AE754E4CE51DF4F688179818A81E4
:105810009B81C25ED0400E94DA369B01AC01C70179
:10582000B6010E94473587FDD8CFCF52DF4F488160
:105830005981C15DD0404F5F5F4FCF52DF4F5983D9
:105840004883C15DD0403CCDF801E05AF74F20813C
:10585000318142815381C301B2010E94DA36A7012E
:1058600096010E944B356B017C0120E030E040E85E
:105870005FE30E94473587FF06C0C12CD12C80E82A
:10588000E82E8FE3F82EB701A601C8010E949F0EF3
:1058900065CFCA51DF4F0FB6F894DEBF0FBECDBF44
:1058A000DF91CF911F910F91FF90EF90DF90CF90FC
:1058B000BF90AF909F908F907F906F905F904F9030
:1058C0003F902F9008951F920F920FB60F921124C0
:1058D0002F933F938F939F93AF93BF9380919A0E93
:1058E00090919B0EA0919C0EB0919D0E3091990EBF
:1058F00023E0230F2D3720F40196A11DB11D05C013
:1059000026E8230F0296A11DB11D2093990E8093C6
:105910009A0E90939B0EA0939C0EB0939D0E809137
:105920009E0E90919F0EA091A00EB091A10E019697
:10593000A11DB11D80939E0E90939F0EA093A00E6B
:10594000B093A10EBF91AF919F918F913F912F91F5
:105950000F900FBE0F901F9018953FB7F89480914D
:105960009E0E90919F0EA091A00EB091A10E26B513
:10597000A89B05C02F3F19F00196A11DB11D3FBF87
:105980006627782F892F9A2F620F711D811D911D17
:1059900042E0660F771F881F991F4A95D1F7089537
:1059A000CF92DF92EF92FF92CF93DF936B017C0156
:1059B0000E94AD2CEB01C114D104E104F10489F083
:1059C0000E94CE340E94AD2C6C1B7D0B683E734050
:1059D00090F381E0C81AD108E108F108C851DC4F02
:1059E000EACFDF91CF91FF90EF90DF90CF900895B5
:1059F0008230910538F0880F991F880F991F0597FD
:105A00000197F1F70895789484B5826084BD84B5D8
:105A1000816084BD85B5826085BD85B5816085BDA9
:105A2000EEE6F0E0808181608083E1E8F0E01082C2
:105A3000808182608083808181608083E0E8F0E003
:105A4000808181608083E1EBF0E0808184608083ED
:105A5000E0EBF0E0808181608083E1E9F0E080812B
:105A600082608083808181608083E0E9F0E08081D2
:105A700081608083E1EAF0E08081826080838081C0
:105A800081608083E0EAF0E0808181608083E1E2F0
:105A9000F1E0808182608083808181608083E0E2A8
:105AA000F1E0808181608083EAE7F0E080818460BA
:105AB0008083808182608083808181608083808117
:105AC000806880831092C10008951F93CF93DF9365
:105AD000182FEB0161E00E947F2E209711F460E007
