:100000000C94E3010C9414020C9414020C9414024A
:100010000C9414020C9414020C9414020C94140208
:100020000C9414020C9414020C9414020C941402F8
:100030000C9414020C9414020C9414020C941402E8
:100040000C9414020C9414020C9414020C941402D8
:100050000C9492050C9414020C9414020C94F52C3C
:100060000C9414020C941D310C9453310C94140212
:100070000C9414020C9467050C9414020C94140252
:100080000C9414020C9414020C9414020C949F050A
:100090000C9414020C9414020C9414020C94A806F0
:1000A0000C9414020C9414020C9414020C94140278
:1000B0000C9414020C9414020C9414020C94140268
:1000C0000C9414020C9414020C9414020C94140258
:1000D0000C9414020C9414020C9414020C94140248
:1000E0000C94140236134413BC13CC133F146B143A
:1000F00079149514A514C414D414D919D919F21467
:10010000171532156815B615EC15421652169016CD
:10011000AB16341974198019401956199D19AF1965
:10012000D919D919D919D919D919D919D919D9193F
:10013000D919D919D919D919D919D919D919D9192F
:10014000D919D919D919D919D919D919D919D9191F
:10015000D919D919D919D919D919D919D919D9190F
:10016000D919D919D919D919D919D919D919D919FF
:10017000D919D919D919D919D919D919D919D919EF
:10018000D919D919D919D919D919D919D8161619A6
:10019000B9170E1E361E531E701EB31E951ED11E9D
:1001A000FA1E301F151F6C1F481F48202320672090
:1001B0000521A120922158212B1EE621082223226D
:1001C0004422EF1E5322682284229122BE22CD2295
:1001D0001D2E222E272E312E3B2EB42E452E4D2E97
:1001E000552E5F2E692E732E822E8C2EB42E962EB7
:1001F000A02EAA2ED62ED92EC82ECC2ED22E102F1F
:10020000DD2EE12EE72EEB2EEF2EF52EF92EFD2E14
:10021000102F032F072F0B2F08000000BE92244938
:10022000123EABAAAA2ABECDCCCC4C3E0000008028
:10023000BEABAAAAAA3E00000000BF000000803F9B
:100240000000000000084178D3BB4387D1133D195B
:100250000E3CC3BD4282AD2B3E68EC8276BED98F88
:10026000E1A93E4C80EFFFBE01C4FF7F3F000000CC
:10027000000007634236B79BD8A71A39685618AEF4
:10028000BAAB558C1D3CB7CC5763BD6DEDFD753ECB
:10029000F6177231BF000000803F00000A0B020910
:1002A0000C0D0E0807030401000000000000000010
:1002B000000000000000000000000000000000003E
:1002C00000000000000012111000000000000000FB
:1002D000000000000000000000000000000000001E
:1002E0000102102020080810204010204080020148
:1002F000020108040201010204081020408080402D
:10030000201008040201800402018040201008042B
:1003100002010804020101020408102040800102C9
:100320000408102040800505050507050808080891
:10033000020202020A0A080804040404010101017D
:100340000101010103030303030303030407070778
:100350000C0C0C0C0C0C0C0C02020202060606061D
:10036000060606060B0B0B0B0B0B0B0B00002000FD
:100370002300260029002C002F003200000100007D
:1003800003010601090100002200250028002B00BE
:100390002E003100340002010000050108010B01AC
:1003A00000002100240027002A002D003000330027
:1003B00001010000040107010A014A029C05AF087F
:1003C0000D2887314E0211241FBECFEFD1E2DEBFD0
:1003D000CDBF00E00CBF14E0A0E0B2E0ECE9F8E72C
:1003E00000E00BBF02C007900D92A83AB107D9F701
:1003F0002FE0A8EAB4E001C01D92A632B207E1F7EF
:1004000013E0C4ECD3E000E006C022970109FE012E
:100410000BBF0E94CD39CA3BD10780E00807A9F77E
:100420000E94E7020C943C3C0C9400008091060270
:100430009091070201969093070280930602089517
:1004400088EA94E00E942E23809106029091070290
:1004500069E170E00E947339892BD9F48091FA0C1C
:10046000882389F08091FB0C81110BC0E091A804D6
:10047000F091A9040688F789E02D88EA94E019959F
:1004800002C01092FB0C81E090E0909307028093F1
:100490000602089588EA94E00C94090B88EA94E037
:1004A0000C941A0B80E1809391001092900085E0EB
:1004B00080937C0D86E998E990937E0D80937D0D65
:1004C000909397008093960085E18093910086E158
:1004D00092E090937B0D80937A0D81E08093710080
:1004E00088EA94E00E94000F68E072E085E89EE0F0
:1004F0000E9416326FEF71E2605072404AE050E0A5
:1005000085E89EE00E94E0326DE072E085E89EE0C2
:100510000E94163268EA74E0605072404AE050E08F
:1005200085E89EE00E94E03264E172E085E89EE0AA
:100530000E94163266E27FE0685A74404AE050E05A
:1005400085E89EE00E94E0326AE172E085E89EE084
:100550000E9416326091220F7091230F6115710570
:1005600019F066527F4002C060E070E04AE050E05F
:1005700085E89EE00E94E03260E272E085E89EE05D
:100580000E9416328DB79EB76FEF71E2681B790B30
:100590004AE050E085E89EE00E94E03267E272E0C7
:1005A00085E89EE00E9416328091220F9091230FE1
:1005B0006DB77EB7009719F466527F4002C0681B82
:1005C000790B4AE050E085E89EE00C94E0320E940E
:1005D000952D0E945202C6EDDFE20E942002209774
:1005E000E1F30E94D62FF9CFECE7F0E090819F7302
:1005F0009083208130E4839FC0011124282B208325
:100600000895EAE7F0E09081987F90839081982B9D
:100610009083089580917A00877090E00895E1E8D2
:10062000F0E08081887F808308950E940F031092FC
:10063000850010928400E1E8F0E0808190915B0DEC
:10064000892B80830895882321F080917C0080622B
:1006500003C080917C008F7D80937C000895EBE740
:10066000F0E09081987F90839081982B90830895FB
:10067000CF92DF92EF92FF92CF936B017C0180E1EA
:100680008093810010928000A701960160E074E2DF
:1006900084E799E40E94DD3520E030E040E051E459
:1006A0000E94B1370E944A366115710521E0820728
:1006B000910528F421E020935B0DCB014CC061151E
:1006C000710528E08207910568F422E020935B0D14
:1006D000DC01CB0153E0B695A795979587955A9580
:1006E000D1F739C06115710520E48207910568F4DE
:1006F00023E020935B0DDC01CB0146E0B695A79586
:10070000979587954A95D1F726C0611571058105A2
:1007100021E0920740F424E020935B0DBB27A92F32
:10072000982F872F18C061157105810524E0920765
:1007300068F425E020935B0DDC01CB012AE0B6953F
:10074000A795979587952A95D1F705C085E0809361
:100750005B0D8FEF9FEF9093870080938600C1E041
:10076000C0936F0086E00E942F03C093710D8091AB
:100770007A00806280937A00C092640DD092650DF9
:10078000E092660DF092670DCF91FF90EF90DF90B1
:10079000CF9008958093710D882321F080917A0085
:1007A000806203C080917A008F7D80937A000895E3
:1007B000EAE7F0E08081806480830895CF93DF933F
:1007C000D0917800C09179004091740D5091750DD1
:1007D0002091720D3091730D42175307A8F5809147
:1007E000710D811102C00E94D8038D2F90E09C2BC7
:1007F00020917C0025FF13C0E091780DF091790DD8
:100800002091740D3091750DA9014F5F5F4F50938A
:10081000750D4093740DE20FF31F908315C0E091A6
:10082000760DF091770D2091740D3091750DA90121
:100830004F5F5F4F5093750D4093740D220F331F20
:10084000E20FF31F91838083DF91CF91089510927F
:10085000750D1092740D8091710D0E94CA030E9453
:100860003F2D60935C0D70935D0D80935E0D9093B2
:100870005F0D80917A00886C80937A0080917B0074
:100880008770863011F40C94150308958F929F920F
:10089000AF92BF92CF92DF92EF92FF920E943F2DD4
:1008A0004B015C0180917A00877D80937A00809172
:1008B0007B008770863011F40E940F036091720DE7
:1008C0007091730D80E090E00E94763620E034E273
:1008D00044E759E40E94B1376B017C0180915C0DC3
:1008E00090915D0DA0915E0DB0915F0DA5019401F9
:1008F000281B390B4A0B5B0BCA01B9010E947636E3
:100900009B01AC01C701B6010E94DD356093600D0B
:100910007093610D8093620D9093630DFF90EF9043
:10092000DF90CF90BF90AF909F908F90089580936D
:100930006E0D90917C00907F90937C0020917C00C4
:10094000982F9770922B90937C00883020F08091A4
:100950007B00886003C080917B00877F80937B0051
:10096000089591E090936D0D1092700D10926F0D9F
:1009700010926C0D2EED33E030936B0D20936A0DC9
:100980000C94970480916C0D8F5F80936C0D909107
:100990006D0D891302C010926C0D80916C0DE09169
:1009A0006F0DF091700DE80FF11D80810E9497048A
:1009B0000C94DE031F93CF93DF93C0916C0D909145
:1009C0006D0D9230A0F081E08C0F891719F08093A3
:1009D0006C0D02C010926C0D80916C0DE0916F0D4A
:1009E000F091700DE80FF11D80810E949704109125
:1009F0007800D09179004091740D5091750D20913F
:100A0000720D3091730D42175307F0F48091710D00
:100A1000811102C00E94D803612F70E07D2B80916C
:100A20007C0085FF02C0672F7727E091680DF09169
:100A3000690D8C2F19958091740D9091750D01960B
:100A40009093750D8093740DDF91CF911F91089550
:100A5000CF93DF93D0917C00C0917B0080917C008C
:100A6000807E80937C0080917C008E6180937C00EE
:100A700080917B00877F80937B0063E070E080E063
:100A800090E00E94622D80917A00806480937A00C9
:100A900080917A0086FDFCCF60917800809179008A
:100AA000D0937C00C0937B0070E0782B882777FD83
:100AB0008095982F0E9478369B01AC0160E070E829
:100AC00089E894E40E94DD35DF91CF9108951F926B
:100AD0000F920FB60F9211240BB60F922F933F93E4
:100AE0004F935F936F937F938F939F93AF93BF9336
:100AF000EF93FF93E0916A0DF0916B0D1995FF91C3
:100B0000EF91BF91AF919F918F917F916F915F9185
:100B10004F913F912F910F900BBE0F900FBE0F90F2
:100B20001F9018951F920F920FB60F9211240F90DD
:100B30000FBE0F901F90189581E00C94F4021F9245
:100B40000F920FB60F9211240BB60F922F933F9373
:100B50004F935F936F937F938F939F93AF93BF93C5
:100B6000EF93FF93E0917A0DF0917B0D1995FF9132
:100B7000EF91BF91AF919F918F917F916F915F9115
:100B80004F913F912F910F900BBE0F900FBE0F9082
:100B90001F9018951092EC0D81E08093EA0D109251
:100BA000E90D61E084E10E944A2F61E085E10E9445
:100BB0004A2FE9EBF0E080818E7F808380818D7FFA
:100BC000808388E48093B80085E48093BC00089516
:100BD000413208F03FC09091EC0D9111FCCF91E0B3
:100BE0009093EC0D2093EA0D2FEF20937F0D109240
:100BF000C40D240F2093C30D9093EB0D9091EB0D3A
:100C0000880F892B8093EB0D8091E90D813041F4A1
:100C10001092E90D8091EB0D8093BB0085EC01C033
:100C200085EE8093BC008091EC0D8130E1F38091E2
:100C3000C40D841710F44091C40D25EC3DE0FB0178
:100C4000D9018A2F821B841718F48D918193F9CFD3
:100C5000842F089580E008950F93413208F046C034
:100C60009091EC0D9111FCCF92E09093EC0D0093DC
:100C7000EA0D9FEF90937F0D1092C40D4093C30D2A
:100C8000FB0165EC7DE0DB019A2F961B941718F4AD
:100C900091919D93F9CF1092EB0D9091EB0D880FF0
:100CA000892B8093EB0D8091E90D813041F41092F6
:100CB000E90D8091EB0D8093BB0085EC01C085EEC2
:100CC0008093BC00222321F08091EC0D8230E1F36F
:100CD00080917F0D8F3F61F080917F0D803251F0C8
:100CE00080917F0D803341F483E007C081E005C02F
:100CF00080E003C082E001C084E00F91089561327A
:100D000098F42091EC0D243089F46093A10DFC013E
:100D100083EA9DE0DC012A2F281B261718F4219175
:100D20002D93F9CF80E0089581E0089582E0089541
:100D300085ED8093BC008091BC0084FDFCCF1092B7
:100D4000EC0D089585EC8093BC001092EC0D089595
:100D50001F920F920FB60F9211240BB60F922F9382
:100D60003F934F935F936F937F938F939F93AF9333
:100D7000BF93EF93FF938091B900887F803609F489
:100D80009CC068F5883209F45BC090F4803109F4A6
:100D900054C038F4882309F4F5C0883009F44DC0F4
:100DA000F5C0883109F44CC0803209F45DC0EEC052
:100DB000803409F468C048F4803309F455C088339E
:100DC00009F0E4C080937F0DA8C0803509F44FC0BE
:100DD000883509F45DC0883409F0D8C0D5C0883999
:100DE00009F4C6C0A8F4883709F467C038F4883617
:100DF00009F463C0803709F460C0C8C0883809F4BA
:100E0000B7C0803909F45FC0803809F0BFC05BC04B
:100E1000803B09F485C038F4803A09F466C0883A0A
:100E200009F47EC0B3C0803C09F4A6C0883C09F434
:100E3000A3C0883B09F489C0A9C08091EB0D10C004
:100E40009091C40D8091C30D981770F5E091C40D79
:100E500081E08E0F8093C40DF0E0EB53F24F808160
:100E60008093BB0085EC85C080937F0D8DC0E091A1
:100E7000C40D81E08E0F8093C40D8091BB00F0E023
:100E8000EB53F24F80839091C40D8091C30D6DC0E0
:100E9000E091C40D81E08E0F8093C40D8091BB0062
:100EA000F0E0EB53F24F80838091EA0D81116CC02A
:100EB00081E08093E90D84EA60C083E08093EC0DCB
:100EC0001092800DCFCF8091800D803208F050C0FD
:100ED000E091800D81E08E0F8093800D8091BB00AA
:100EE000F0E0EF57F24F8083BDCF8091800D8032CC
:100EF00030F4E091800DF0E0EF57F24F10820E9445
:100F000098066091800D70E0E091E50DF091E60D9E
:100F100081E89DE019951092800D0E94A20636C0CE
:100F200084E08093EC0D1092A20D1092A10DE0913F
:100F3000E70DF091E80D19958091A10D811105C083
:100F400081E08093A10D1092A30DE091A20D81E0AC
:100F50008E0F8093A20DF0E0ED55F24F80818093CB
:100F6000BB009091A20D8091A10D981708F47ACF43
:100F700085E88093BC000AC085EC8093BC00109289
:100F8000EC0D04C010927F0D0E949806FF91EF9126
:100F9000BF91AF919F918F917F916F915F914F9191
:100FA0003F912F910F900BBE0F900FBE0F901F908F
:100FB000189580911D0E90E020911E0E821B9109C4
:100FC000089520911E0E80911D0E281750F4E22FD7
:100FD000F0E0E15EF14F808190E02F5F20931E0EE4
:100FE00008958FEF9FEF0895E0911E0E80911D0EE2
:100FF000E81730F4F0E0E15EF14F808190E0089571
:101000008FEF9FEF08950895CF92DF92EF92FF92B6
:101010000F931F93CF93DF937C01CB018A01209123
:10102000F90D222389F0EB016B01C40ED51ECC15FE
:10103000DD0569F06991D701ED91FC910190F08196
:10104000E02DC7011995F3CF642F0E947F06C801D8
:10105000DF91CF911F910F91FF90EF90DF90CF9094
:101060000895CF93DF931F92CDB7DEB769832091A8
:10107000F90D2223D1F02091FA0D203240F021E029
:1010800030E0FC013383228380E090E015C0809142
:10109000FB0DE82FF0E0E450F24F998190838F5FD1
:1010A0008093FB0D8093FA0D05C061E0CE0101969F
:1010B0000E947F0681E090E00F90DF91CF9108952C
:1010C000FC011382128248EE53E060E070E044833A
:1010D00055836683778388E392E0918380830895C4
:1010E00010921E0E10921D0E1092FB0D1092FA0D12
:1010F0000C94CA05862F413208F040E26FE17EE091
:101100000E94E80510921E0E80931D0E089521E0A6
:101110000C947A0821E00C947A0881E08093F90D10
:1011200060931C0E1092FB0D1092FA0D08950C9412
:101130008D080F93062F21E04091FA0D6CEF7DE0B2
:1011400080911C0E0E942C061092FB0D1092FA0D3D
:101150001092F90D0F91089561E00C9499088DEEAD
:101160009DE00C946008FF920F931F93CF93DF9341
:10117000FC010081C181D281F8948981F02EF09424
:101180008F21898378941DE7115029F182E090E046
:101190000E948A2D88818023B9F3F8948A818F2157
:1011A0008A838981802B8983789480EE91E00E94E4
:1011B0008A2DF89489818F21898386E490E00E94AA
:1011C0008A2D8881802311E009F010E078948AE963
:1011D00091E00E948A2D812FDF91CF911F910F9175
:1011E000FF9008951F93CF93DF93FC011081C1817D
:1011F000D281912F909560FF12C0F8948A81892343
:101200008A838981812B89838AE090E00E948A2DDC
:101210008A81812B8A83789487E390E011C0F894C7
:101220008A8189238A838981812B898381E490E063
:101230000E948A2D8A81812B8A83789485E090E0B0
:10124000DF91CF911F910C948A2D0F931F93CF9311
:10125000DF93FC011081C181D281F8948981812BB7
:1012600089838A81012F009580238A8383E090E01F
:101270000E948A2D8981802389838AE090E00E94E0
:101280008A2DC881789485E390E00E948A2D1C23E2
:1012900081E009F480E0DF91CF911F910F910895D3
:1012A000CF92DF92EF92FF920F931F93CF93DF9332
:1012B0001F92CDB7DEB76C01E62E08E010E0FF24E8
:1012C000F39461E09F2D9E2109F460E0C6014983FB
:1012D0000E94F208FF0C0150110949810115110506
:1012E00081F7411115C0F894D6011196ED91FC914A
:1012F000129791818C918095892381831196ED912C
:10130000FC91129792818C918095892382837894A5
:101310000F90DF91CF911F910F91FF90EF90DF9091
:10132000CF900895EF92FF920F931F93CF93DF9387
:101330008C01C8E0D0E0F12CEE24E394C8010E94B7
:1013400025098111FE28EE0C2197C1F78F2DDF9121
:10135000CF911F910F91FF90EF900895CF92DF9260
:10136000FF920F931F93CF93DF931F92CDB7DEB7FA
:101370008C01F62E40E065E579830E945009CF2C60
:101380007981D72E88E0F82EF60161916F0140E057
:10139000C8010E945009FA94B9F70F90DF91CF91DC
:1013A0001F910F91FF90DF90CF900895FC0113865D
:1013B0001586148627E030E0DF01A20FB31F1396D5
:1013C0001C922115310519F021503109F5CF0895EE
:1013D0001F93CF93DF93EC01162F60E0812F0E94C3
:1013E000112F612F70E0FB01E052FD4FE491E88383
:1013F000FB01EA5DFC4FE491F0E0EE0FFF1FE459C2
:10140000FC4F859194919A838983CE01DF91CF918E
:101410001F910C94D609AF92BF92CF92DF92EF92B8
:10142000FF920F931F93CF93DF931F92CDB7DEB739
:101430005C01E62ED72EFC01858581115DC0C501BA
:101440000E94B308811105C0F50113861586148624
:101450006EC040E060EFC5010E94500901E0F12C30
:10146000C12C11E0C5010E942509682FC5016983BF
:101470000E9425096981613019F48130B9F433C0C3
:101480002F2D30E068131BC0F5018385181730F449
:10149000E20FF31F8381802349F402C0181731F053
:1014A00060E0193058F4F501148708C0F501EF0D1C
:1014B000F11D8381802B838361E009C0C12EF5017A
:1014C000E20FF31F8381902F909589238383C501B9
:1014D0000E94F2081F5F000F11F4F39401E0F7E09F
:1014E000FF1508F0BFCF113438F0F501C386C110E5
:1014F00018C081E0858715C0F5011386158614860E
:1015000080E0EE2DFD2D20E030E0D501A20FB31FCD
:1015100013969C9191932F5F3F4F28303105A9F787
:1015200006C0F5018381882339F381E0EACF0F906B
:10153000DF91CF911F910F91FF90EF90DF90CF90AF
:10154000BF90AF900895CF93CFB7F89480913F0E9E
:10155000811127C0EBE5F3E08491E5E1F3E094919C
:10156000E82FF0E0EE0FFF1FE056FC4FA591B4917D
:101570008C91892321F461E085E30E944A2F61E088
:1015800085E30E94112F8CB580618CBD8CB5806481
:101590008CBD61E084E30E94112F61E083E30E942F
:1015A000112F80913F0E8F5F80933F0ECFBFCF9161
:1015B00008958FE194E008958BE194E0089584E02C
:1015C00094E008958AEE93E0089584EE93E0089500
:1015D00081EB93E0089584E492E00895CF93DF9344
:1015E000EC0161E088E00E944A2FCC5AD74F188264
:1015F000DF91CF910895DC01ED91FC910190F08194
:10160000E02D19948EBD00000DB407FEFDCF8EB500
:101610000895CF93DF93EC0161E00E94AE1A89E94F
:1016200093E099838883CE5AD74F18821982DF912D
:10163000CF91089529E933E0FC01318320830C9494
:101640001E1B1F93CF93DF931F921F92CDB7DEB760
:10165000162F60E0812F2A8349830E944A2F4981F7
:10166000842F0E94020B2A81822F0E94020B61E0CC
:10167000812F0F900F90DF91CF911F910C944A2FE3
:10168000643040F4242F2095462F65E30E94210BFF
:1016900080E0089585E00895AF92BF92CF92DF92E7
:1016A000EF92FF920F931F93CF93DF931F921F929E
:1016B000CDB7DEB78C01D12C7C018BEBE81A87EF1C
:1016C000F80A5801E5E9AE1AE7EFBE0A2D2D30E021
:1016D000F801EB5AF74F8081918168E270E00E9437
:1016E000733926173707E0F588E0C82EC982F7015D
:1016F0002081318180E090E040E0B801620F731FEB
:10170000E42FF0E0DB01A80FB91FA259BF4F41E061
:1017100050E0AC91AA2311F040E050E0082E02C046
:10172000440F551F0A94E2F74E0F5F1F0196883051
:10173000910531F74A83285F3F4FF70131832083BA
:10174000F50160816D0D22E0AE014F5F5F4FC80172
:101750000E940023C394FDE0CF12C8CFD394B6CF2C
:101760000F900F90DF91CF911F910F91FF90EF900D
:10177000DF90CF90BF90AF9008958F929F92AF92DD
:10178000BF92CF92DF92EF92FF920F931F93CF936E
:10179000DF9300D0CDB7DEB78C01912C7C018BEAB2
:1017A000E81A87EFF80A98E2C92ED12C5801E5E92A
:1017B000AE1AE7EFBE0A88248A94292D30E0F7019B
:1017C00080819181B6010E94733926173707A0F4F2
:1017D00038E039838A82F5016081690D22E0AE012B
:1017E0004F5F5F4FC8013B830E9400233B813F5FF7
:1017F0003D3079F79394E1CF0F900F900F90DF91E8
:10180000CF911F910F91FF90EF90DF90CF90BF90FD
:10181000AF909F908F900895EF92FF920F931F9338
:10182000CF93DF938C017C018BE9E81A87EFF80AEC
:10183000C4E6D0E0F70141917F01BE01C8010E94DA
:10184000A91A2196C23BD105A9F760E0C801DF9132
:10185000CF911F910F91FF90EF900C942F0C7F92DE
:101860008F929F92AF92BF92CF92DF92EF92FF92B0
:101870000F931F93CF93DF93EC01762E7C012BE91E
:10188000E21A27EFF20A04E610E04701E881F98145
:101890000088F189E02DB801CE011995F7018193F7
:1018A0007F010F5F1F4F023B110581F7F40180811B
:1018B00091819E012959374F5901FE01E759F74F90
:1018C0006F01295C3F4F7901892BE1F4F50180819B
:1018D0009181892BB9F4F60180819181892B91F452
:1018E000399780819181A281B381F90180839183AD
:1018F000A283B38381E090E0F60191838083CE01DF
:101900000E940C0CF40180819181892BB9F4F501BE
:1019100080819181892B91F4F601808191810197D9
:1019200069F480E2FE01E559F74F808382E090E0A0
:10193000F60191838083CE010E940C0CF40180811A
:101940009181892BE9F4F50180819181892BC1F482
:10195000F60180819181029799F480E090E0A0EAFD
:10196000B0E4FE01EE55F74F80839183A283B383E9
:1019700083E090E0F60191838083CE010E940C0CFD
:10198000F401808191818E010A55174F892BA1F4B2
:10199000F50180819181892B79F4F6018081918113
:1019A000039751F4F801108284E090E0F6019183EE
:1019B0008083CE010E940C0CF40180819181892BDF
:1019C00079F5F50180819181892B51F5F6018081AE
:1019D0009181049729F580E090E0A8ECB2E4FE0143
:1019E000E955F74F80839183A283B38380E090E42D
:1019F000ACE9B6E4349680839183A283B38380E01C
:101A000090E0A8E4B3E4349680839183A283B38307
:101A100085E090E0F60191838083CE010E940C0C5A
:101A2000F40180819181892B69F4F5018081918194
:101A3000892B41F4F60180819181059719F4772073
:101A400009F4A5C0F40111821082F50111821082FF
:101A500085E090E0F601918380838CE7FE01E359F5
:101A6000F74F808380E73197808380E09CE7A2E98D
:101A7000B8E4329680839183A283B38380E092E2BC
:101A8000A1EAB8E4349680839183A283B38380E093
:101A900090E0AAE7B4E43C9680839183A283B38369
:101AA00080E090E4ACE1B6E4349680839183A28335
:101AB000B38380E090E5A3ECB7E434968083918310
:101AC000A283B38380E094E2A4E7B9E434968083F0
:101AD0009183A283B383749710821182128213823E
:101AE000349610821182128213824FEF56EE6BE50C
:101AF0007EE274964083518362837383349640837D
:101B000051836283738334964083518362837383EA
:101B100034964083518362837383FA9780819181E5
:101B2000A281B381F70180839183A283B38380E292
:101B3000FE01E559F74F808380E090E0A0EAB0E431
:101B4000F79680839183A283B383F801108280E0AB
:101B500090E0A8ECB2E4FE01E955F74F8083918351
:101B6000A283B38380E090E4ACE9B6E4349680834A
:101B70009183A283B38380E090E0A8E4B3E4349639
:101B800080839183A283B383CE010E940C0CF70162
:101B9000C080D180E280F38020E030E0A901C7015D
:101BA000B6010E94D935FE01EC59F74F18161CF00A
:101BB00081E0808309C0DE01A05AB74FCD92DD924B
:101BC000ED92FC9213971082F8018081882311F026
:101BD00042E001C041E060E0CE01DF91CF911F9172
:101BE0000F91FF90EF90DF90CF90BF90AF909F90BC
:101BF0008F907F900C9499238F929F92AF92BF9277
:101C0000CF92DF92EF92FF92CF93DF93EC016A01C4
:101C10007B01FC01E05AF74F80809180A280B38065
:101C200020E030E0A901C701B6010E94D93587FD47
:101C300045C0FE01E155F74F20813181428153813A
:101C4000C701B6010E9468371816C4F1A5019401B6
:101C5000C701B6010E94DD359B01AC010E946235CF
:101C600023EF34E045EB5FE30E94B13720E030E042
:101C700040E85EE30E94B13720E030E04FE753E4F4
:101C80000E94B1374B015C0120E030E04FE753E4A4
:101C90000E946837181694F0FE01E85AF74FC08288
:101CA000D182E282F382C501B4010E944A36462FF6
:101CB00063E0CE010E94400B80E001C088E0DF912C
:101CC000CF91FF90EF90DF90CF90BF90AF909F901B
:101CD0008F900895FC01E05AF74F4083518362834F
:101CE00073833897408151816281738120E00C9425
:101CF000FC0D5F926F927F928F929F92AF92BF92F4
:101D0000CF92DF92EF92FF920F931F93CF93DF93C7
:101D10001F921F92CDB7DEB76C01CB01542E68E243
:101D200070E00E9473397B014C015C0123E0B694A2
:101D3000A7942A95E1F73B01772486010559174FAF
:101D4000F8018081B301680F711D8DEE9DE00E9446
:101D50009708B501685F7F4F8DEE9DE00E94FB0AFA
:101D60008DEE9DE00E94AC08F8018081B301680F00
:101D7000711D41E050E08DEE9DE00E948A088DEEDD
:101D80009DE00E94D907892B41F1F82DF7708F2E25
:101D900088E08A0D89838DEE9DE00E94E10741E095
:101DA00050E060E070E004C0440F551F661F771FCD
:101DB0008A94D2F7511002C0482B02C040954823A4
:101DC0004A83F80160816E0D22E0AE014F5F5F4FE4
:101DD000C6010E94002380E001C081E00F900F90B7
:101DE000DF91CF911F910F91FF90EF90DF90CF90F7
:101DF000BF90AF909F908F907F906F905F9008956D
:101E0000AF92BF92CF92DF92EF92FF920F931F9308
:101E1000CF93DF93CDB7DEB762970FB6F894DEBFEE
:101E20000FBECDBF8C010E94191A61E088E00E94AC
:101E30004A2F61E088E00E94112F61E085E30E9453
:101E4000112F61E089E00E94112F60E089E00E947B
:101E50004A2FF801E05AF74F80E090E0A6E9B3E49A
:101E600080839183A283B38360E0C8010E942F0C1A
:101E7000680183E9C81A87EFD80AD6014C9161E05E
:101E8000C8010E94400B5801B4E9AB1AB7EFBB0A76
:101E9000F501408162E0C8010E94400B40E063E030
:101EA000C8010E94400BD801ED91FC910680F7819A
:101EB000E02DC8011995BC0185E89EE00E9416320C
:101EC0006AE472E085E89EE00E941632D801ED9146
:101ED000FC910484F585E02DC8011995BC0185E8C5
:101EE0009EE00E9423326DE472E085E89EE00E944D
:101EF0001632D801ED91FC910284F385E02DC801E2
:101F00001995BC0185E89EE00E94233260E672E0EC
:101F100085E89EE00E9416327801BBE9EB1AB7EF24
:101F2000FB0AF701608171814AE050E085E89EE09C
:101F30000E94233363E973E085E89EE00E94163235
:101F4000F801E959F74F608171814AE050E085E876
:101F50009EE00E94233363E973E085E89EE00E94DF
:101F60001632F801E759F74F608171814AE050E07D
:101F700085E89EE00E94293367E772E085E89EE0ED
:101F80000E9416324AE050E0D5016C9185E89EE04F
:101F90000E940C3367E872E085E89EE00E941632EA
:101FA0004AE050E0F601608185E89EE00E940C3333
:101FB000B12CA12CA1E0BA1202C084E001C082E0E1
:101FC000A81608F0B9C04AE06A2DCE0101960E9419
:101FD000DA344AE06B2DCE010D960E94DA346DE8BA
:101FE00072E0CE0107960E94AC34BE01635F7F4F62
:101FF000CE0107960E9433356FE872E00E944635A5
:10200000BE016F5F7F4F0E94333563EA72E00E942A
:102010004635BC0185E89EE00E940832CE01079655
:102020000E943E34CE010D960E943E34CE010196B0
:102030000E943E34CA2CD12CF1E0BF1661F0F601AB
:10204000EE0FFF1FEE0FFF1FEE0DFF1D41855285A6
:10205000638574850BC0F601EE0FFF1FEE0FFF1FA7
:10206000EE0DFF1D418D528D638D748D22E030E0A9
:1020700085E89EE00E942C344AE06A2DCE0101964C
:102080000E94DA344AE06B2DCE010D960E94DA34BC
:102090006DE872E0CE0107960E94AC34BE01635F2A
:1020A0007F4FCE0107960E94333566EA72E00E94A8
:1020B0004635BE016F5F7F4F0E94333563EA72E0A1
:1020C0000E944635BC0185E89EE00E940832CE01A0
:1020D00007960E943E34CE010D960E943E34CE01FA
:1020E00001960E943E3481E0F601EE0FFF1FEE0FD5
:1020F000FF1FEE0DFF1DB81629F0618972898389D3
:10210000948904C061A572A583A594A525EA34ED40
:1021100048E653E50E94B137AB01BC0122E030E054
:1021200085E89EE00E942A346BEB72E085E89EE031
:102130000E942332A3943ECFB394B2E0BB1239CFB6
:102140006FEB72E085E89EE00E941632F801E559D7
:10215000F74F4AE050E0608185E89EE00E940C3332
:1021600064E173E085E89EE00E941632F801E256D1
:10217000F74F408151816281738122E030E085E830
:102180009EE00E942C346CED72E085E89EE00E9497
:102190001632F801EE55F74F40815181628173810B
:1021A00022E030E085E89EE00E942C346FEE72E081
:1021B00085E89EE00E941632F801EA55F74F6081EB
:1021C00070E04AE050E085E89EE00E94E03268E07E
:1021D00073E085E89EE00E941632F801EC59F74F53
:1021E000608170E04AE050E085E89EE00E94E032C5
:1021F00064E273E085E89EE00E941632F801E9553A
:10220000F74F408151816281738122E030E085E89F
:102210009EE00E942C346CE373E085E89EE00E940F
:102220001632F801E555F74F408151816281738183
:1022300022E030E085E89EE00E942C3464E573E003
:1022400085E89EE00E941632F801E155F74F408183
:1022500051816281738122E030E085E89EE00E9436
:102260002C3462960FB6F894DEBF0FBECDBFDF915F
:10227000CF911F910F91FF90EF90DF90CF90BF9083
:10228000AF9008958F929F92AF92BF92CF92DF92BC
:10229000EF92FF921F93CF93DF93EC016A017B01D2
:1022A000FC01E955F74F24EA30E74DE75FE3608131
:1022B0007181828193810E94B1379B01AC01C7017A
:1022C000B6010E94683787FDAFC02EEA37E441E8C7
:1022D0005FE3FE01E555F74F608171818281938153
:1022E0000E94B1379B01AC01C701B6010E94D935EC
:1022F00018160CF499C020E030E048E452E4C7011D
:10230000B6010E94B1374B015C0120E030E04AE7A2
:1023100054E40E94D93587FD87C020E233EB41E8C1
:102320005CE4C501B4010E94683718160CF47CC047
:1023300020E030EE41E854E4C501B4010E94DD35EF
:102340000E94713726EA3BE944E550E40E94B13728
:102350002EE83DE543E150E40E94DD350E944A3617
:10236000162F70E0665F7F4F882777FD8095982F46
:102370000E9478369B01AC0160E070E080E090E460
:102380000E94143820E030EE41E055E40E94B1375D
:10239000A50194010E94DD359B01AC0160E070E075
:1023A00080E095E40E9461354B015C0120E030E063
:1023B000A9010E94683720E030E040E05FE387FD3C
:1023C00005C0C501B4010E94623504C0C501B40155
:1023D0000E9461350E9445365B01CB0166E096950F
:1023E00087956A95E1F71295107F182B67E18DEEBE
:1023F0009DE00E948D08612F8DEE9DE00E943108C6
:102400006A2D660F660F62608DEE9DE00E943108B6
:102410008DEE9DE00E94AC08C45AD74FC882D98285
:10242000EA82FB8280E001C088E0DF91CF911F91BA
:10243000FF90EF90DF90CF90BF90AF909F908F90E4
:1024400008954F925F926F927F928F929F92AF9278
:10245000BF92CF92DF92EF92FF920F931F93CF9391
:10246000DF931F921F92CDB7DEB78C01FC01EC5AAF
:10247000F74F81E0808360E088E00E944A2F64EF9C
:1024800071E080E090E00E94622D48018BEA881A9A
:1024900087EF980AF40111821082E8E2AE2EB12C87
:1024A000E12CF12CF8E16F2E77247A946801F5E99C
:1024B000CF1AF7EFDF0A4E2C69827A82F60160812B
:1024C0006E0D22E0AE014F5F5F4FC8010E940023F6
:1024D000F60160816E0D21E0AE014F5F5F4FC801D4
:1024E0000E94BD1D89818F3F09F04BC078E1572EB6
:1024F00059821A82F6016081640D22E0AE014F5FBD
:102500005F4FC8010E940023F6016081640D21E045
:10251000AE014F5F5F4FC8010E94BD1D89818111CF
:1025200030C080EF850D89837A82F6016081640D69
:1025300022E0AE014F5F5F4FC8010E940023539419
:10254000FDE15F12D5CF6FE773E085E89EE00E9462
:1025500016324AE050E0B70185E89EE00E94D8328A
:1025600069E873E085E89EE00E942332F40120814F
:102570003181C50188972817390719F4F401B18210
:10258000A082FFEFEF1AFF0A88E2A80EB11CE8E074
:10259000EE16F10409F08FCFF401608171814AE0F9
:1025A00050E085E89EE00E9423336AE673E085E808
:1025B0009EE00E94233240E050E46CE176E4C801E2
:1025C0000E9442110F900F90DF91CF911F910F91B8
:1025D000FF90EF90DF90CF90BF90AF909F908F9043
:1025E0007F906F905F904F9008952F923F924F92FF
:1025F0005F926F927F928F929F92AF92BF92CF9293
:10260000DF92EF92FF920F931F93CF93DF93CDB79B
:10261000DEB7A9970FB6F894DEBF0FBECDBF2C0171
:102620006D8B2DB73EB73BA32AA38C010D5A174FD4
:1026300081E0D8018C93F201EC5AF74F808181112F
:1026400003C0C2010E942112ED898E2F90E0FC018F
:10265000E05AF109E735F10508F0ABC6EE58FF4F37
:10266000920124593F4F19010C94A939F201E05C01
:10267000F74F80819181892B09F098C642E050E0A4
:10268000B2016B5A774FF5C0F201E05CF74F8081E1
:102690009181892B09F08AC6D9011C92912C920153
:1026A0002B5A374F3A872987720135E9E31A37EFFA
:1026B000F30A88248394A92CB12CE985FA858081BA
:1026C000918168E270E00E947339A616B70608F09F
:1026D00070C608E010E0D7018C91B501680F711D3C
:1026E0008DEE9DE00E949708B8018DEE9DE00E945E
:1026F000FB0A8DEE9DE00E94AC08F7018081B501D8
:10270000680F711D41E050E08DEE9DE00E948A0847
:102710008DEE9DE00E94D907892B51F18DEE9DE051
:102720000E94E1076C01612C712CDD24C601062C8E
:1027300002C0959587950A94E2F781709927F1E098
:102740008F27898341E050E0BE016F5F7F4FC20158
:102750000E94241B2FEF621A720A38E0631671047C
:1027600029F70F5F1F4F0D30110509F0B4CF02C0DC
:10277000D1018C9293949FCFF201E05CF74F2081BE
:1027800031817596808191812817390709F00EC62D
:10279000C2010E944C0B07C6F201E05CF74F80813A
:1027A0009181029709F002C6D201AB5BB74F2D9120
:1027B0003C911197F901E259FF4FE40DF51D80811D
:1027C00091812E5F3F4F2D933C93F201EB5AF74FCF
:1027D000208131818217930708F07BC068E270E0A6
:1027E0000E9473398C016B01DD247201F5E9EF1A47
:1027F000F7EFFF0AD7018C91B601680F711D8DEEBE
:102800009DE00E949708B80113E0769567951A95A8
:10281000E1F7685F7F4F8DEE9DE00E94FB0A8DEE31
:102820009DE00E94AC08F7018081B601680F711D20
:1028300041E050E08DEE9DE00E948A088DEE9DE023
:102840000E94D907892BC9F08DEE9DE00E94E10717
:102850009927077002C0959587950A95E2F78170D0
:102860009927F1E08F27898341E050E0BE016F5F37
:102870007F4FC2010E94241B96C581E098C5F201DA
:10288000E05CF74F80819181039709F08FC5D201F9
:10289000AB5BB74F8D919C911197FC01E259FF4FB3
:1028A000E40DF51D60817181F201E80FF91FE05917
:1028B000FF4F408103968D939C93F201EB5AF74FA3
:1028C000808191816817790720F4C2010E94790EF6
:1028D0004DC385E06CC5F201E05CF74F80819181CA
:1028E000892B09F063C5D9011C9289E00E94802FD1
:1028F000D3C4F201E05CF74F80819181019709F028
:1029000055C5359680819181D201A80FB91FA25972
:10291000BF4F6C91019691838083623020F489E0EF
:102920000E944A2FDEC488E021C3F201E05CF74F29
:1029300080819181892B09F039C5F901108244E029
:1029400050E0B201685A774FADC4F201E05CF74F36
:1029500080819181049709F029C5D201AB5BB74F03
:102960008D919C911197FC01E259FF4FE40DF51DEB
:10297000408151816281738104968D939C9321E003
:10298000C2010E94FC0DF2C2F201E05CF74F8081AF
:102990009181892B09F00AC5F901108244E050E0C9
:1029A000B201645A774F7EC4F201E05CF74F808138
:1029B0009181049709F0FAC4D201AB5BB74F8D91B6
:1029C0009C911197FC01E259FF4FE40DF51D4081E8
:1029D00051816281738104968D939C93C2010E9400
:1029E0004211C4C2F201E05CF74F808191810197EE
:1029F00009F0DCC4D201AB5BB74F8D919C9111976C
:102A0000F201E80FF91FE259FF4FE08101968D9323
:102A10009C93E23008F034C1BBE1EB9FF00111243C
:102A2000E05CF14F81818983F901108236C4F201A3
:102A3000E05CF74F80819181029709F0B7C4359629
:102A400020813181A201420F531FDA01A259BF4FE9
:102A50008C9111966C912E5F3F4F318320830E94A1
:102A60005523A5C4F201E05CF74F80819181019765
:102A700009F09CC4359680819181D201A80FB91FBD
:102A8000A259BF4F2C91019691838083223008F088
:102A9000F7C0D1011C92BBE12B9FF0011124E05C37
:102AA000F14FE181C2018B59974FF0E0EE0FFF1F0C
:102AB000EE0FFF1FE80FF91F213029F08185928565
:102AC000A385B4854BC2818D928DA38DB48D46C2F2
:102AD000F201E05CF74F80819181059709F066C4AF
:102AE000359620813181D201A20FB31FA259BF4F69
:102AF0004C91C901019691838083D1011C9244239A
:102B0000E1F0413009F0BCC040915C0ED901A159FF
:102B1000BF4FA40DB51D8D919D910D90BC91A02D21
:102B20002B5F3F4F31832083F20134E0439FE00D60
:102B3000F11D1124E258F74F9BC04091410ED9017D
:102B4000A159BF4FA40DB51D8D919D910D90BC91C4
:102B5000A02D2B5F3F4F31832083F20124E0429F61
:102B6000E00DF11D1124E259F74F82C0F201E05C43
:102B7000F74F80819181019709F018C435968081C3
:102B80009181D201A80FB91FA259BF4F2C91019674
:102B900091838083223008F073C0F10110823BE101
:102BA000239FF0011124E05CF14FE181C2018B59B8
:102BB000974FF0E0EE0FFF1FEE0FFF1FE80FF91F1A
:102BC000213029F081899289A389B489C7C181A55F
:102BD00092A5A3A5B4A5C2C1F201E05CF74F808124
:102BE0009181059709F0E2C3359620813181D201A8
:102BF000A20FB31FA259BF4F4C91C90101969183F7
:102C00008083D1011C924423D9F04130C9F5409111
:102C10005C0ED901A159BF4FA40DB51D8D919D9199
:102C20000D90BC91A02D2B5F3F4F31832083F2018B
:102C300034E0439FE00DF11D1124E257F74F18C017
:102C40004091410ED901A159BF4FA40DB51D8D91E1
:102C50009D910D90BC91A02D2B5F3F4F3183208320
:102C6000F20124E0429FE00DF11D1124EA58F74FD4
:102C700080839183A283B383C2010E940C0C99C309
:102C800085E074C1F201E05CF74F80819181892B6E
:102C900009F08CC3F901108244E050E0B201605A9F
:102CA000774F00C3F201E05CF74F80819181049778
:102CB00009F07CC3D201AB5BB74F8D919C9111970A
:102CC000FC01E259FF4FE40DF51DC080D180E28088
:102CD000F38004968D939C9320E030E0A901C70116
:102CE000B6010E9468371816CCF4F201EC59F74F80
:102CF0008081882331F03497C082D182E282F382CE
:102D000052C3D201A256B74FCD92DD92ED92FC9202
:102D100013971082C2010E940C0C45C388E047C380
:102D2000F201E05CF74F80819181892B09F03EC36D
:102D3000D9011C9211E020E030E0A901E25AFF4FD6
:102D400060817181828193810E94D93518160CF4BB
:102D500010E01983A2C2F201E05CF74F80819181FB
:102D6000019709F023C3359680819181D201A80F84
:102D7000B91FA259BF4F2C91019691838083E75AC6
:102D8000FF4F222329F010821182128213820CC07D
:102D9000D201A05AB74F8D919D910D90BC91A02D5D
:102DA00080839183A283B383C2010E940C0C99C2D9
:102DB000F201E05CF74F008111810A30110508F43F
:102DC000F5C2359680819181DC01A259BF4FA40DD7
:102DD000B51D2D913D914D915C9129873A874B8787
:102DE0005C879C012C5F3F4F31832083DC01AE5810
:102DF000BF4FA40DB51D6D907C90DC01AC58BF4F4A
:102E0000A40DB51D4D915D916D917C91498B5A8BAF
:102E10006B8B7C8BD201A80FB91FA858BF4FFC90B9
:102E20000B96918380830B30110541F07096808161
:102E300091810B960817190709F0B8C2FBE46F16C9
:102E4000F1E07F0608F091C020E030E04AE754E46A
:102E500069857A858B859C850E94DD3520E030E48C
:102E60004CE157E40E94B13720E030E040E855E4FF
:102E70000E94D93587FF79C0D1011C92F201EB5A2B
:102E8000F74F808191810B960817190719F4C20139
:102E90000E944C0B0E943F2D6D877E878F87988BF9
:102EA00088248394F1FE812CAA24A394F0FEA12C03
:102EB000F201E45AF74FC080D180E280F3800989A3
:102EC0001A892B893C89A30169857A858B859C8524
:102ED0000E941228F101808381116BC20E943F2D54
:102EE0002D853E854F855889621B730B840B950B8E
:102EF0000E9476366B017C01B30180E090E00E9475
:102F0000763620E030E04AE754E40E94B1379B0176
:102F1000AC01C701B6010E94DD356D837E838F83CE
:102F2000988744E050E0BE016B5F7F4FC2010E9472
:102F3000241B44E050E067E57EE0C2010E94241BB0
:102F400044E050E062E77EE0C2010E94241BF201EF
:102F5000E05AF74F80819181A281B38189839A835E
:102F6000AB83BC8344E050E09AC181E0D1018C93F3
:102F700020C2F201EB5AF74F20813181C9010B9633
:102F80007597408151814817590709F00FC2EDB775
:102F9000FEB7F98FE88FD1011C92F201EB5BF74F7E
:102FA00080819181DC01A259BF4FA40DB51D4D91C7
:102FB0005D916D917C91498B5A8B6B8B7C8BAC01B5
:102FC0004C5F5F4F51834083DC01AE58BF4FA40D6F
:102FD000B51D6D907C90DC01AC58BF4FA40DB51DA4
:102FE0004D915D916D917C914E8F5F8F68A379A318
:102FF000D201A80FB91FA858BF4F1C910B969183FF
:1030000080836DB77EB7621B730B0FB6F8947EBFDB
:103010000FBE6DBF8DB79EB701969A878987DC0179
:10302000280F391F80E090E07F01A217B307A1F0BD
:10303000F70140815181B201640F751F62597F4FC2
:10304000FB0160814F5F5F4FF701518340836D93B8
:10305000662359F30196E9CF869D9001879D300D37
:10306000969D300D11242B34314008F0D2C020E061
:1030700030E04AE754E469897A898B899C890E9407
:10308000DD3520E030E44CE157E40E94B13720E028
:1030900030E040E855E40E94D93587FFBAC0C2014C
:1030A0000E94BD0B0E943F2D6A8F7B8F8C8F9D8F5E
:1030B000212C312C92012B5A374F3DA32CA3A20176
:1030C00044595F4F5E874D87812F8270682F70E073
:1030D0007FA36EA311701E8B1F8AC201845A974F63
:1030E00099A788A7ACA1BDA18D919C9128163906FE
:1030F000F0F5AD85BE858C91811135C0E985FA85E5
:10310000E20DF31D8081882371F141E0B101C2011C
:103110000E94790E88248394EEA1FFA11E161F063B
:103120000CF0812CAA24A3942E893F891216130631
:103130000CF0A12CA8A5B9A5CD90DD90ED90FC9048
:103140000E8D1F8D28A139A1A30169897A898B89E8
:103150009C890E941228ED85FE85808340E0B101A4
:10316000C2010E94790EFFEF2F1A3F0ABBCFED85F7
:10317000FE858081811152C00E943F2D2A8D3B8D9A
:103180004C8D5D8D621B730B840B950B0E94763604
:103190006B017C01B30180E090E00E94763620E074
:1031A00030E04AE754E40E94B1379B01AC01C7010B
:1031B000B6010E94DD356D837E838F83988744E05E
:1031C00050E0BE016B5F7F4FC2010E94241B44E0B0
:1031D00050E067E57EE0C2010E94241B44E050E01D
:1031E00062E77EE0C2010E94241BF201E05AF74F21
:1031F00080819181A281B38189839A83AB83BC83CF
:1032000044E050E0BE016F5F7F4FC2010E94241B6B
:1032100005C081E0F201E459FF4F8083488D598D4C
:103220000FB6F8945EBF0FBE4DBFC3C0F201E05CA5
:10323000F74F80819181019709F0B8C0D9011C92A4
:10324000359680819181D201A80FB91FA259BF4F35
:103250002C9101969183808361E0211101C060E08F
:10326000C2010E942F0CA5C0F201E05CF74F8081E3
:103270009181892B09F09AC0F901108288E00CC075
:10328000F201E05CF74F80819181892B09F08EC0BB
:10329000D9011C9272968081898341E050E0BE0181
:1032A0006F5F7F4FC2010E94241B83C0F201E05C6C
:1032B000F74F80819181019709F078C03596808120
:1032C0009181D201A80FB91FA259BF4F2C9101962D
:1032D000918380833D96222319F081E0808301C091
:1032E0001082F101108265C0F201E05CF74F80812D
:1032F0009181892B09F05AC0D9011C92F801CBCFDA
:10330000F201E05CF74F80819181019709F04EC096
:10331000359680819181D201A80FB91FA259BF4F64
:103320002C91019691838083222321F081E0D801A2
:103330008C9339C0F801108236C0F201E05CF74F7F
:1033400080819181892B91F5F901108288E00E949A
:10335000802F21E0892B09F020E029839ECFF20104
:10336000E05CF74F80819181019701F5359680816E
:103370009181D201A80FB91FA259BF4F2C9101967C
:1033800091838083222359F060E088E00E944A2FD5
:1033900064EF71E080E090E00E94622D04C061E083
:1033A00088E00E944A2FD1011C9203C086E0F101FF
:1033B00080836D89C2010E94E41DF201E459FF4F30
:1033C00080812AA13BA10FB6F8943EBF0FBE2DBF4E
:1033D000A9960FB6F894DEBF0FBECDBFDF91CF9197
:1033E0001F910F91FF90EF90DF90CF90BF90AF9023
:1033F0009F908F907F906F905F904F903F902F9015
:1034000008958627682F62956827062E669566952B
:103410006025062E669560256770082E892F6695B3
:1034200007946795902D86270694679590258627A3
:103430000895CF92DF92EF92FF920F931F93CF9355
:10344000DF9300D01F92CDB7DEB78C01CE0101967D
:103450006C019FE0E92EF12CD801ED91FC910088E0
:10346000F189E02DB701C8011995F60181936F012B
:10347000FFEFEF1AFF0A23E1E216F10469F78981F1
:103480009A81AB81BC818F3F9F4FAF4FBF4FE1F11E
:1034900049815A816B817C8126E085E89EE00E940B
:1034A000BB308DEE9DE00E9470080E94A30A0E942E
:1034B000280508591F4FD8016D937D938D939C93D8
:1034C000139764E374E085E89EE00E941632F801E9
:1034D000408151816281738122E030E085E89EE085
:1034E0000E942A3466E474E085E89EE00F900F9015
:1034F0000F900F90DF91CF911F910F91FF90EF9060
:10350000DF90CF900C94233280E092ECA1E0B0E009
:1035100089839A83AB83BC83CE0101966C018FE0D3
:10352000E82EF12CD6014D916D01D801ED91FC9161
:103530000288F389E02DB701C8011995BFEFEB1A96
:10354000FB0AE3E1EE16F10469F7A2CFCB010C947C
:10355000163CCB01642F0C941E3C08958F929F92D1
:10356000AF92BF92CF92DF92EF92FF920F931F9391
:10357000CF93DF9328E634E0FC0131832083E45BC2
:10358000F74F6083399711821082369610823997EF
:103590001182108235961182108232961182108229
:1035A0003A961082E12CF12C00E010E0C8010E9454
:1035B000163CA82EC80107960E94163C8E2CC0E02F
:1035C000D0E0B12CA094B094C82ED12CC094D0944B
:1035D000CE018E0D9F1DC697C4F4B5010C2E02C0FE
:1035E000759567950A94E2F761709C2E980C892D69
:1035F0000E94112FB6010C2E02C0759567950A9492
:10360000E2F76170892D0E944A2F2196C830D105BA
:10361000F9F60F5F1F4FE8E0EE0EF11C07301105C1
:1036200029F6DF91CF911F910F91FF90EF90DF90DE
:10363000CF90BF90AF909F908F90089528E634E090
:10364000FC013183208308951F93CF93DF93FB0107
:1036500020E030E0DC01A95BB74F2417350781F08B
:103660001191BC01620F731FCD91DC9111976C0F0A
:103670007D1FEB01C259DF4F18832F5F3F4FEDCF06
:103680008D919C911197820F931F8D939C93DF9145
:10369000CF911F910895CF93DF93FC01E359FF4F22
:1036A0006081DC01A459BF4F67FF0EC020E8260FE0
:1036B000208322E02C93DC01ED91FC910488F589B4
:1036C000E02DDF91CF911994FC01E05CF74F208150
:1036D000318121503109820F931FEC01C259DF4F14
:1036E00088818C9331832083DF91CF9108956F92ED
:1036F0007F928F929F92AF92BF92CF92DF92EF9282
:10370000FF920F931F93CF93DF93EC019C01275BF4
:10371000374F59016D3721F481E0F9018083AEC044
:10372000F90180819E012D5B374F7901882309F4CF
:103730009EC080E26827F701808191819E01245B11
:10374000374F4901FE01EE5BF74F6F018E01005CC0
:10375000174F009759F4E55DF7406083F9018081C8
:103760008823A9F18FEF9FEF33961EC0813091051A
:1037700081F467FF08C083E08083862F8F77F8018C
:103780001082818324C082E08083862F90E0F8013C
:103790000BC08230910559F42081233041F4F801A7
:1037A00080819181860F911D9183808310C0F601E5
:1037B0002081821B9109F8012081318182179307B2
:1037C00030F48C0F9D1FFC01E259FF4F6083F40120
:1037D0008081882369F03E01F1EB6F1AF7EF7F0AD1
:1037E000F301808191810E94011AF301918380830A
:1037F000F701208131812F5F3F4F31832083F40116
:103800004081F6015081F80180819181850F911DE1
:10381000840F911D840F911D2817390711F5F701A9
:1038200011821082FE01EB5BF74F118210823296FB
:1038300011821082442329F0389680819181892B4E
:1038400019F4CE010E944B1BFE01E55BF74F80810E
:10385000882339F0C359DF4F80589881981301C0ED
:103860001082F5018081882349F0108207C06E37ED
:1038700009F061CFF70111821082F3CFDF91CF9170
:103880001F910F91FF90EF90DF90CF90BF90AF907E
:103890009F908F907F906F900895FF920F931F934A
:1038A000CF93DF931F92CDB7DEB78C01F62E88E061
:1038B000898369816837E8F58DEE9DE00E948D0867
:1038C0008DEE9DE00E94AC08811130C0FF2041F0D8
:1038D00041E050E0BE016F5F7F4FC8010E94241B92
:1038E00069E474E085E89EE00E9416324AE050E008
:1038F000698185E89EE00E9405336DE574E085E806
:103900009EE00E94163240E150E0698185E89EE029
:103910000E94053362E674E085E89EE00E9423324F
:1039200061E070E080E090E00E94622D89818F5F0D
:10393000BFCF0F90DF91CF911F910F91FF9008950E
:10394000CF93C62F83E8860F823090F46DE785E829
:103950009EE00E945630E091850EF091860E60E266
:103960006C270190F081E02D85E89EE0CF911994BD
:1039700085E89EE0CF910C9456308F929F92AF9243
:10398000BF92CF92DF92EF92FF920F931F93CF934C
:10399000DF93EC018C017C0120ECE21A27EFF20AA4
:1039A000845B974F6C015E0193EBA91A97EFB90AFC
:1039B000F7018081918198012C1B3D0BF60128179E
:1039C0003907C8F48081980122593F4F4901882363
:1039D00051F0F9016081F501808191810E94011A05
:1039E000F50191838083F4016081CE010E94A01CC7
:1039F0000F5F1F4FDDCF8081882369F08E01035B4D
:103A0000174FF8016081CE010E94A01CF80161816E
:103A1000CE010E94A01CF70111821082C95BD74F12
:103A200019821882DF91CF911F910F91FF90EF9033
:103A3000DF90CF90BF90AF909F908F900895BF92EE
:103A4000CF92DF92EF92FF920F931F93CF93DF936A
:103A5000EC01B62E8C01005C174FFC01E95BF74FBF
:103A600080819181F801918380836EE785E89EE0F3
:103A70000E9456307E01F4EBEF1AF7EFFF0AF701D0
:103A80008081882381F08FEF9FEF6E01F3EBCF1AD7
:103A9000F7EFDF0AF601918380836B2D0E94011AF4
:103AA000F601918380836B2DCE010E94A01CF8014A
:103AB00060817181F70180816038710580F488230D
:103AC00071F17E01F3EBEF1AF7EFFF0AF701808146
:103AD00091810E94011AF7019183808320C088237D
:103AE000B1F07068672F7E01F3EBEF1AF7EFFF0A72
:103AF000F701808191810E94011AF70191838083EF
:103B0000F80160810E94011AF70191838083F80116
:103B1000808191819068692FCE010E94A01CF801DC
:103B20006081CE01DF91CF911F910F91FF90EF90B7
:103B3000DF90CF90BF900C94A01C0F931F93CF9356
:103B4000DF931F92CDB7DEB78C01698341E050E06F
:103B5000BE016F5F7F4F0E94241BF801E359FF4FA6
:103B60006081C8010E941F1DC8010E94BD1C0F90EA
:103B7000DF91CF911F910F910895FF920F931F93A3
:103B8000CF93DF938A01422F8DEE9DE00E9487083C
:103B9000C0E08DEE9DE00E94D907892B71F0FF24D3
:103BA000F394FC0EC8018C0F911DEC018DEE9DE08D
:103BB0000E94E1078883CF2DECCF8C2FDF91CF912E
:103BC0001F910F91FF9008956F927F928F929F9215
:103BD000AF92BF92CF92DF92EF92FF920F931F931B
:103BE000CF93DF93CDB7DEB769970FB6F894DEBFFA
:103BF0000FBECDBF8C018DB69EB6862F90E0FC0126
:103C0000E058F109EF31F10508F0D5C4E753FF4F53
:103C10009801205C374F79010C94A939D9018D9115
:103C20009C91892BF1F4D801ED91FC910280F381F4
:103C3000E02DC8011995FC0101900020E9F7AF01C2
:103C400041505109481B590BD801ED91FC9102805C
:103C5000F381E02D62C0D9018D919C91019709F407
:103C60009FC386E0F801E459FF4F86C4F9018081C3
:103C70009181892BB1F7D801ED91FC910480F581F8
:103C8000E02DC8011995FC0101900020E9F7AF0172
:103C900041505109481B590BD801ED91FC9104800A
:103CA000F581E02D3AC0F90180819181892BC9F617
:103CB000D801ED91FC910680F781E02DC80119959E
:103CC000FC0101900020E9F7AF0141505109481B68
:103CD000590BD801ED91FC910680F781E02D1DC0B4
:103CE000F90180819181892B09F0BBCFD801ED9139
:103CF000FC910084F185E02DC8011995FC0101902B
:103D00000020E9F7AF0141505109481B590BD80178
:103D1000ED91FC910084F185E02DC801498F588F09
:103D20001995498D588DBC0134C4F9018081918168
:103D3000892B09F096CFD801ED91FC910284F3858F
:103D4000E02DC8011995FC0101900020E9F7AF01B1
:103D500041505109481B590BD801ED91FC91028447
:103D6000F385E02DDACFF90180819181892B09F06B
:103D700078CFD801ED91FC910484F585E02DC80140
:103D80001995FC0101900020E9F7AF01415051095C
:103D9000481B590BD801ED91FC910484F585E02D69
:103DA000BCCFF90180819181892B09F05ACFD801CC
:103DB000ED91FC910684F785E02DC8011995FC0171
:103DC00001900020E9F7AF0141505109481B590B00
:103DD000D801ED91FC910684F785E02D9ECFF90185
:103DE00080819181892B09F03CCF4AE050E06EE759
:103DF00074E0CFC3D9018D919C91029709F031CF26
:103E0000F801EB5BF74F20813181A801420F531F6E
:103E1000DA01A259BF4F8C9111966C912E5F3F4FE2
:103E2000318320830E94112FC2C3F90180819181C7
:103E3000029709F016CFF801EB5BF74F2081318133
:103E4000A801420F531FDA01A259BF4F8C9111965E
:103E50006C912E5F3F4F318320830E944A2FA7C36E
:103E6000D9018D919C91019709F0FBCEF801EB5B94
:103E7000F74F20813181D801A20FB31FA259BF4F44
:103E80008C912F5F3F4F318320830E94802FF5C29A
:103E9000F90180819181029709F0E3CEF801EB5B93
:103EA000F74F20813181D801A20FB31FA259BF4F14
:103EB0008C91A9014F5F5F4F51834083D901A15974
:103EC000BF4FA00FB11F6D917C912D5F3F4F31838C
:103ED00020830E94F72D6BC3C80184599F4F26E0B1
:103EE000DC012C93F701208131812230310508F467
:103EF00062C3ADB6BEB6F801EB5BF74F40815181AE
:103F0000D801A40FB51FA259BF4F6C914F5F5F4FEF
:103F100051834083462F50E0ADB7BEB7A41BB50B0D
:103F20000FB6F894BEBF0FBEADBF11966D01223023
:103F3000310511F4613031F04D5F5F4F24173507C3
:103F400009F07BC07C2D3601262D271B261788F40F
:103F500020813181A801420F531F42595F4FDA017E
:103F60004C912F5F3F4F31832083D3014D933D010F
:103F7000EBCFD7012D913C9122303105B1F020815A
:103F80003181D901A259BF4FA00FB11FED90FC9014
:103F90002E5F3F4F31832083B9EEEB16B3E0FB0673
:103FA00038F029E0FC01208348C0EE24E394F12C92
:103FB000DC011C92F092730DE092720DC8018259DF
:103FC0009F4F9093770D8093760D80E0688F0E94CD
:103FD0002303688D613029F4F60180810E94B104C9
:103FE00012C0D092700DC0926F0D60936D0D109243
:103FF0006C0D82EC94E090936B0D80936A0DD6016A
:104000008C910E9497040E9427048091720D9091D8
:10401000730D2091740D3091750D28173907C9F76C
:104020000E944604EE0CFF1CF801E95BF74F80810B
:104030009181E80EF91EF182E0820FB6F894BEBEBF
:104040000FBEADBEB8C2F90180819181039709F01E
:1040500008CED801AB5BB74F8D919C911197FC01B5
:10406000E259FF4FE00FF11F60817181F801E80F05
:10407000F91FE059FF4F408103968D939C93D8011F
:10408000ED91FC910288F389E02DC80119958FC24A
:10409000F90180819181029709F0E3CDD801AB5BF2
:1040A000B74F8D919C911197FC01E259FF4FE00FA2
:1040B000F11F6081718102968D939C93D801ED91DF
:1040C000FC910088F189E02DC8011995D6C1F9014C
:1040D00080819181029709F0C4CDF801EB5BF74F25
:1040E000808191819801280F391FD901A259BF4FB2
:1040F0006C911196EC90029691838083CE0101968B
:104100000E94E809CE0101960E94D609F12CBE0159
:10411000615F7F4FCE0101960E940B0AF394EF146A
:10412000B0F7980124593F4F7901882309F422C23E
:1041300048E050E0BE01615F7F4FC8010E94241B30
:1041400016C2D9018D919C910B9709F08ACDD801A7
:10415000AB5BB74F2D913C911197A801420F531FB4
:10416000FA01E259FF4F60816901EFEFCE1ADE0AD2
:104170001196DC92CE923E01FFE06F0E711C80E042
:1041800090E0B62CA72CC00ED11E7601E80EF91EC9
:104190007EE6E70EF11CF701F080F301F1923F019A
:1041A00001968830910589F7FA01E958FF4FF080B0
:1041B0003196E080255F3F4F2D933C93CE010196D1
:1041C0000E94E809CE0101960E94B3086B2D7A2D5A
:1041D000CE0101960E94AE0940E06F2DCE010196FE
:1041E0000E945009F12CFE1409F4E1C1CE010196A0
:1041F0000E9492098F8B41E050E0BE01695E7F4FC3
:10420000C8010E94241BF394EECFD9018D919C919B
:104210000B9709F026CDD801AB5BB74F2D913C91A0
:104220001197A801420F531FFA01E259FF4F608115
:104230006901EFEFCE1ADE0A1196DC92CE923E01B2
:10424000FFE06F0E711C80E090E0B62CA72CC00E32
:10425000D11E7601E80EF91E7EE6E70EF11CF7018D
:10426000F080F301F1923F0101968830910589F7C2
:10427000FA01E958FF4FF08031964081255F3F4FAA
:104280002D933C93CE010196498F0E94E809CE01FF
:1042900001960E94B3086B2D7A2DCE0101960E94E3
:1042A000AE09498D6F2DCE0101960E9450097FC144
:1042B000D9018D919C91029709F0D3CCF801EB5B69
:1042C000F74F808191819801280F391FD901A25998
:1042D000BF4F6C911196EC900296918380834E2D86
:1042E0008DEE9DE00E948708F12C8DEE9DE00E94EE
:1042F000D907892B79F08DEE9DE00E94E107898333
:1043000041E050E0BE016F5F7F4FC8010E94241B57
:10431000F394EBCFF801E459FF4FFE1409F44AC1BE
:1043200081E02AC1F90180819181029708F499CC3A
:104330006801FBEBCF1AF7EFDF0AD6018D919C9154
:104340001197F801E80FF91FE259FF4F60810196BC
:104350008D939C938DEE9DE00E948D08B12C2B2DAA
:1043600030E0F7018081918101972817390798F48F
:10437000F60180819181F801E80FF91FE259FF4FA2
:1043800060810196D6018D939C938DEE9DE00E94F5
:104390003108B394E4CF8DEE9DE00E94AC0807C1D4
:1043A000F801EB5BF74F80819181D801A80FB91F0D
:1043B000A259BF4F2C910196918380838CB5211116
:1043C00002C0806201C08F7D8CBDF1C0F901808187
:1043D0009181019709F045CCF801EB5BF74F8081A3
:1043E0009181D801A80FB91FA259BF4F2C910196F6
:1043F000918380839CB5822F83709C7F892B8CBD99
:104400008DB522FB222720F98E7F822B8DBD18C00F
:10441000D9018D919C91019709F023CCF801EB5BB8
:10442000F74F80819181D801A80FB91FA259BF4FC2
:104430002C910196918380838CB5837F282B2CBD92
:10444000E95DF740B7C0F90180819181019709F0DA
:1044500008CCF801EB5BF74F80819181D801A80F60
:10446000B91FA259BF4F2C910196918380832EBD15
:1044700000000DB407FEFDCF8EB5898341E050E00A
:10448000BE016F5F7F4F85C0D9018D919C91892BB3
:1044900009F0E7CBF801EA59FF4F40815181B8019B
:1044A0006E5F7F4F76C0F90180819181892B09F081
:1044B000D8CB8091640D9091650DA091660DB0915F
:1044C000670D89839A83AB83BC8344E050E0D8CFE7
:1044D000D9018D919C91049709F0C3CBD801AB5BB6
:1044E000B74F2D913C911197F901E259FF4FE00F21
:1044F000F11F60817181828193812C5F3F4F2D93E9
:104500003C930E94380353C0F90180819181892B2B
:1045100009F0A7CB0E940A039A83898342E050E006
:10452000AFCFD9018D919C91029709F09ACBD80118
:10453000AB5BB74F2D913C911197F901E259FF4FB9
:10454000E00FF11F808191812E5F3F4F2D933C93AF
:104550009C0122503109F801E459FF4F7F012630B8
:10456000310540F40E94010380E00E94CA03D70194
:104570001C9221C085E0F70180831DC0D9018D9177
:104580009C91892B09F06DCB44E050E0B80168594B
:104590007F4FC8010E94241B0AC0F90180819181CC
:1045A000892B09F05ECB61E0C8010E944D1CF80127
:1045B000E459FF4F10827801FCE6EF0EF11CD701A1
:1045C0006C91C8010E949D1DF70180810FB6F8947F
:1045D0009EBE0FBE8DBE69960FB6F894DEBF0FBEAD
:1045E000CDBFDF91CF911F910F91FF90EF90DF90A2
:1045F000CF90BF90AF909F908F907F906F900895D5
:10460000EF92FF920F931F93CF93DF931F921F920E
:10461000CDB7DEB7122F8DEE9DE049835A830E94FD
:104620008D084981042FE42E5A81F52E8E2D801B92
:10463000811740F4F70161917F018DEE9DE00E94AA
:104640003108F4CF8DEE9DE00F900F90DF91CF9168
:104650001F910F91FF90EF900C94AC08CF93DF93D4
:10466000EC0185E89EE00E94A92F181619064CF46B
:1046700085E89EE00E94C22F682FCE010E94771B22
:10468000F0CFDF91CF9108952091740D3091750D89
:104690008091720D9091730D2817390721F40E94B3
:1046A000460481E0089580E00895CF93DF93D82FEA
:1046B000C62F811109C0662321F06130B1F560E099
:1046C00001C061E08DE01DC0813079F5613049F0B5
:1046D00030F0623061F0633041F560E01DC061E0B0
:1046E0001BC060E08CE00E944A2F61E019C060E0CE
:1046F0008CE00E944A2F60E08BE00E944A2F61E02C
:104700008AE00E944A2F8BE1D89FF0011124E05CDF
:10471000F14FC18380E00AC08CE00E944A2F60E024
:104720008BE00E944A2F60E0EBCF85E0DF91CF91D4
:1047300008959093790E8093780E6093400E409385
:104740005B0E60E078EB88E097E40E94380361E05C
:104750008DE00E94112F61E08CE00E94112F61E03A
:104760008BE00E94112F61E08AE00E94112F83E00C
:104770000E9401036091410E80E00E9455236091E8
:104780005C0E81E00E94552320E032E03093560E0B
:104790002093550E80E090E0A0E0B4E48093570EA3
:1047A0009093580EA093590EB0935A0E41E0409347
:1047B000500E3093710E2093700E8093720E909372
:1047C000730EA093740EB093750E40936B0E089504
:1047D0000F931F93CF93DF93AB019BE1899FE00180
:1047E0001124C05CD14F9B01235331092A39334036
:1047F000B0F09B81911110C09A819F5F9A8369816B
:10480000662321F061500E94552303C081E080930C
:10481000760E83E08B8337C091509B8334C08091A8
:10482000770E882309F18D899E89DB01A81BB90BBE
:104830009D010E94AF3909891A892B893C89060F8D
:10484000171F281F391F098B1A8B2B8B3C8B8885D0
:104850009985AA85BB85840F951FA11DB11D8887E9
:104860009987AA87BB870FC08C819D818617970780
:1048700018F47D836C8307C08E819F816817790748
:1048800010F47F836E83DF91CF911F910F91089574
:1048900080E00C94E82381E00C94E8232F923F926F
:1048A0004F925F926F927F928F929F92AF92BF9240
:1048B000CF92DF92EF92FF920F931F93CF93DF93EC
:1048C000CDB7DEB764970FB6F894DEBF0FBECDBF8D
:1048D00029013A01E986FA860B871C871601BA8AF4
:1048E000A98A0E94B13720E030E04AE754E40E94F0
:1048F000DD359B01AC010E9462356B017C0120E03B
:1049000030E0A9010E94683720E030E040E05FE33A
:1049100087FD05C0C701B6010E94623504C0C7010A
:10492000B6010E9461350E9445360E94783620E02B
:1049300030E040E05FE30E94B1376D837E838F8378
:104940009887A30192016D817E818F8198850E9455
:10495000DD3529853A854B855C850E94B1370E94FB
:10496000C6350E944A368B010230110508F42DC36A
:10497000B80180E090E00E9476362D813E814F8123
:1049800058850E94DD35A30192010E94B1376983E9
:104990007A838B839C83D1016D937D938D939C93BC
:1049A000139729853A854B855C850E9468371816D0
:1049B0000CF408C3A301920169817A818B819C81E7
:1049C0000E94DD356B017C019B01AC0160E070E071
:1049D00080E090E40E94DD354B015C0120E030E096
:1049E000A9010E94683720E030E040E05FE387FDE6
:1049F00005C0C501B4010E94623504C0C501B401FF
:104A00000E9461350E9445360E947836A7019601C2
:104A10000E94B1379B01AC0160E070E080E090E45F
:104A20000E94613520E030E0A9010E94683720E053
:104A300030E0A901181664F5C501B4010E94683779
:104A400020E030E040E05FE387FD05C0C501B40130
:104A50000E94623504C0C501B4010E9461350E9404
:104A600045360E947836A70196010E94B1379B0116
:104A7000AC0160E070E080E090E40E9461352DECD4
:104A80003CEC4CEC5DE30E94D93587FD9BC22CC009
:104A9000C501B4010E94683720E030E040E05FE3E8
:104AA00087FD05C0C501B4010E94623504C0C5017F
:104AB000B4010E9461350E9445360E947836A701F4
:104AC00096010E94B1379B01AC0160E070E080E08C
:104AD00090E40E9461352DEC3CEC4CEC5DEB0E94C7
:104AE000683718160CF46EC2A3019201C301B2011B
:104AF0000E9462359B01AC0169817A818B819C8126
:104B00000E94D93587FF61C129813A814B815C813F
:104B1000C301B2010E94DD356D877E878F87988B38
:104B20001C8A1B8AEB89FC89BF0180E090E00E940F
:104B300076364B015C019B01AC016D857E858F85CE
:104B400098890E94613520E030E040E05FE30E94F8
:104B5000D93518163CF42B893C892F5F3F4F3C8B8D
:104B60002B8BE0CF29813A814B815C81C501B40157
:104B70000E94B1379B01AC01C301B2010E946135B3
:104B80004B015C0120E030E0A9010E946837181653
:104B900024F0B7FAB094B7F8B094A50194016981F4
:104BA0007A818B819C810E94DD3569837A838B8336
:104BB0009C839B01AC0160E070E080E090E40E9487
:104BC000DD354B015C0120E030E0A9010E9468372F
:104BD00020E030E040E05FE387FD05C0C501B4019F
:104BE0000E94623504C0C501B4010E9461350E9473
:104BF00045360E94783629813A814B815C810E943A
:104C0000B1379B01AC0160E070E080E090E40E946D
:104C1000613520E030E0A9010E94683720E030E0F3
:104C2000A901181674F5C501B4010E94683720E087
:104C300030E040E05FE387FD05C0C501B4010E949C
:104C4000623504C0C501B4010E9461350E94453639
:104C50000E94783629813A814B815C810E94B1376C
:104C60009B01AC0160E070E080E090E40E9461355F
:104C70002DEC3CEC4CEC5DE30E94D93587FF2FC056
:104C8000A1C1C501B4010E94683720E030E040E0D6
:104C90005FE387FD05C0C501B4010E94623504C011
:104CA000C501B4010E9461350E9445360E947836E4
:104CB00029813A814B815C810E94B1379B01AC0113
:104CC00060E070E080E090E40E9461352DEC3CEC07
:104CD0004CEC5DEB0E94683718160CF473C120E0B1
:104CE00030E0A901C701B6010E94683720E030E03A
:104CF00040E05FE387FD05C0C701B6010E94623551
:104D000004C0C701B6010E9461350E9445360E9469
:104D100078369B01AC01C701B6010E94613520E0E5
:104D200030E0A9010E94683720E030E0A9011816A0
:104D300034F5C701B6010E94683720E030E040E05A
:104D40005FE387FD05C0C701B6010E94623504C05C
:104D5000C701B6010E9461350E9445360E9478362F
:104D60009B01AC01C701B6010E94613527E137EB19
:104D700041ED58E30E94D93587FF27C023C1C70101
:104D8000B6010E94683720E030E040E05FE387FD35
:104D900005C0C701B6010E94623504C0C701B60153
:104DA0000E9461350E9445360E9478369B01AC0115
:104DB000C701B6010E94613527E137EB41ED58EBA1
:104DC0000E94683718160CF4FDC020E030E040E285
:104DD00051E4C701B6010E94D93587FF76C020E0B3
:104DE00030E0A901C701B6010E94683720E030E039
:104DF00040E05FE387FD05C0C701B6010E94623550
:104E000004C0C701B6010E9461350E9445360E9468
:104E100078369B01AC01C701B6010E94613520E0E4
:104E200030E0A9010E94683720E030E0A90118169F
:104E300034F5C701B6010E94683720E030E040E059
:104E40005FE387FD05C0C701B6010E94623504C05B
:104E5000C701B6010E9461350E9445360E9478362E
:104E60009B01AC01C701B6010E94613527E137EB18
:104E700041ED58E30E94D93587FF27C0A3C0C70181
:104E8000B6010E94683720E030E040E05FE387FD34
:104E900005C0C701B6010E94623504C0C701B60152
:104EA0000E9461350E9445360E9478369B01AC0114
:104EB000C701B6010E94613527E137EB41ED58EBA0
:104EC0000E94683718160CF47DC02D813E814F81F9
:104ED0005885C701B6010E94B1376B017C0120E003
:104EE00030E0A9010E94683720E030E040E05FE355
:104EF00087FD05C0C701B6010E94623504C0C70125
:104F0000B6010E9461350E9445360E9478369B01A9
:104F1000AC01C701B6010E94613520E030E0A90173
:104F20000E94683720E030E0A901181634F5C70167
:104F3000B6010E94683720E030E040E05FE387FD83
:104F400005C0C701B6010E94623504C0C701B601A1
:104F50000E9461350E9445360E9478369B01AC0163
:104F6000C701B6010E94613527E137EB41ED58E3F7
:104F70000E94D93587FF26C033C0C701B6010E9401
:104F8000683720E030E040E05FE387FD05C0C701FF
:104F9000B6010E94623504C0C701B6010E946135A6
:104FA0000E9445360E9478369B01AC01C701B601CC
:104FB0000E94613527E137EB41ED58EB0E946837DD
:104FC000181674F001501109CFCC20E030E040E019
:104FD0005FE36D817E818F8198850E946235ADCCC3
:104FE000A989BA890D931C9364960FB6F894DEBF15
:104FF0000FBECDBFDF91CF911F910F91FF90EF902A
:10500000DF90CF90BF90AF909F908F907F906F90E8
:105010005F904F903F902F9008951092410E109204
:105020005C0E08952F923F924F925F926F927F9203
:105030008F929F92AF92BF92CF92DF92EF92FF92A8
:105040000F931F93CF93DF93CDB7DEB7C65CD10923
:105050000FB6F894DEBF0FBECDBFC354DF4F5983E8
:105060004883CD5BD040C154DF4F088319832A8326
:105070003B83CF5BD04026013701CF54DF4FA8825E
:10508000C15BD0408092770EAA2031F1AAE7AA2E08
:10509000AEE0BA2EAE014B555F4F6A01E12C10E431
:1050A000F12E0CE916E4A30192010E944E24CB5587
:1050B000DF4F688179818A819B81C55AD0409B01ED
:1050C000AC010E946235CB55DF4F688379838A83B8
:1050D0009B83C55AD04017C020E030E040E05FE33A
:1050E0000E94B137EAE7AE2EEEE0BE2EDE01AB55F0
:1050F000BF4F6D01E12C10E4F12E0CE117E4A30188
:1051000092010E944E2480917A0E90917B0E880F1E
:10511000991F90937B0E80937A0ECB55DF4F688159
:1051200079818A819B81C55AD0400E943803B09111
:10513000410EC554DF4FB883CB5BD04081E0C555ED
:10514000DF4F8883CB5AD04061E080E00E94552336
:10515000E0915C0EC454DF4FE883CC5BD04083E029
:10516000C455DF4F8883CC5AD04063E081E00E9471
:1051700055238091400EFE01E755FF4F80839091AB
:105180005B0E918320917A0E30917B0ECF54DF4FCE
:105190004881C15BD040442311F13093730D2093BB
:1051A000720DF093700DE0936F0D92E090936D0D82
:1051B00010926C0D22EC34E030936B0D20936A0D4D
:1051C0000E9497048AED94E090936B0D80936A0D92
:1051D00088EE93E29093690D8093680D06C0369532
:1051E00027953093730D2093720DE090780EF09018
:1051F000790EF701E859FF4F20E030EC4FE754E417
:1052000060817181828193810E94DD35C954DF4FB5
:10521000688379838A839B83C75BD0401E015DE9E5
:10522000250E311C3E0182E1680E711CCE01815BAE
:105230009F4F2C01A9E04A0E511CF1013896C3552D
:10524000DF4FF983E883CD5AD040CE54DF4F8883B7
:10525000C25BD040CA54DF4F9883C65BD040870101
:105260000B59174F9701245A374FC155DF4F3983D8
:105270002883CF5AD0408091400EF801CE54DF4FA2
:10528000A881C25BD040CA54DF4FB881C65BD04012
:105290009EE401900D929A95E1F7882341F08130C8
:1052A00061F4F201208931894289538909C0D20110
:1052B0002D913D914D915C9103C020E030E0A9011A
:1052C000F801DE0111969EE401900D929A95E1F7A6
:1052D000882341F0813061F4F301C08CD18CE28CE1
:1052E000F38C09C0D301CD90DD90ED90FC9003C00C
:1052F000C12CD12C760160E876E988E19BE40E941C
:10530000DD3520E030E040E85FE30E9462354B018C
:105310005C0120E836E948E15BE4C701B6010E9480
:10532000B1379B01AC010E9462352BED3FE049E4AF
:1053300050E40E94B137C155DF4FA881B981CF5ADF
:10534000D0402D913D914D915C910E94B1376B0100
:105350007C01A5019401C501B4010E94B1374B0144
:105360005C01A7019601C701B6010E94B1379B01FC
:10537000AC01C501B4010E9462350E9464389B01F2
:10538000AC01C954DF4F688179818A819B81C75BF9
:10539000D0400E94B137F101619371938193919351
:1053A0001F01F4E06F0E711C24E0420E511CC35526
:1053B000DF4F48815981CD5AD0402416350609F077
:1053C0005ACF1092760EC155DF4F19821882CF5AEC
:1053D000D040C155DF4F88819981CF5AD040C35406
:1053E000DF4FA881B981CD5BD0408A179B0709F4B4
:1053F000D1C28091770E1092420E1092430E81110D
:105400000BC0EFEFF3E0F093470EE093460E1092DF
:10541000450E1092440E10C01092480E1092490E84
:1054200010924A0E10924B0E1092510E1092520E84
:105430001092530E1092540E10925D0E10925E0E4A
:10544000882389F01092630E1092640E1092650EFC
:105450001092660E10926C0E10926D0E10926E0EDF
:1054600010926F0E0AC08FEF93E09093620E8093BC
:10547000610E1092600E10925F0ECF54DF4F988134
:10548000C15BD0409923E1F10E9427040E9444238C
:105490008823E1F30E943F2DCE54DF4F6883798348
:1054A0008A839B83C25BD040A091770ECA54DF4FA2
:1054B000A883C65BD04080917A0E90917B0EFE014E
:1054C000E555FF4FC355DF4FF983E883CD5AD040F0
:1054D00000E41EE09E012F5F3F4F2901AE01415BBA
:1054E0005F4F1A01612C712C9C0140E050E0CD53BC
:1054F000DF4F288339834A835B83C35CD0409AC0E3
:105500008091400E0E94B1044AED54E050936B0D1F
:1055100040936A0D88E494E29093690D8093680D3E
:105520000E9427040E9444238823E1F380915B0EAC
:105530000E94B104AAEDB4E0B0936B0DA0936A0D84
:10554000EBE4F4E2F093690DE093680D0E94270408
:105550000E9444238823E1F39DCFCD53DF4F688120
:1055600079818A819B81C35CD0400E9476366B0131
:105570007C01D80151966D917D918D919C915497AC
:105580000E9476369B01AC010E946235A70196010C
:105590000E94DD350E946438F2016083718382834A
:1055A000938320E030E040E852E40E94B1379B0151
:1055B000AC010E94623523EF34E045EB5FE30E94CB
:1055C000B1370E944A36D1016D937C93F301E05CC0
:1055D000F14F82818823B9F1F301E05CF14F8281C0
:1055E000882309F4B3C08195C355DF4FA881B981E1
:1055F000CD5AD0408C93B1E0B08BC355DF4FE881DA
:10560000F981CD5AD0403196C355DF4FF983E883F5
:10561000CD5AD040FBE16F0E711C055E1F4F22E09A
:10562000220E311C34E0430E511C46E36416710413
:1056300009F496C0CA54DF4FF881C65BD040FF23FF
:1056400009F45AC08ACF80898111C6CFF8018084BD
:105650009184A284B3846485758586859785680D59
:10566000791D8A1D9B1D0E9476362AE037ED43E2A4
:105670005CE30E94B137A70196010E94DD356B0102
:105680007C0124EA30E74DE75FE3D80157966D913E
:105690007D918D919C915A970E94B1379B01AC01ED
:1056A000C701B6010E9462356B017C01F801678B6E
:1056B000708F818F928F20E030E0A9010E946837BF
:1056C00020E030E040E05FE387FD05C0C701B601A0
:1056D0000E94623504C0C701B6010E9461350E9474
:1056E0004536D80156967C936E935597F80184867B
:1056F0009586A686B78670CFD80114966D917C9159
:10570000159716968D919C911797681B790B96E0CB
:10571000660F771F9A95E1F7F1017183608380E04E
:1057200090E00E94763623EF34E045EB5FE30E9481
:10573000DD3520E030E040E05CE30E94B137D2018B
:105740006D937D938D939C93139746CF8181C35521
:10575000DF4FA881B981CD5AD0408C93108A4DCFAC
:105760000091780E1091790EF801EC59F74F808175
:10577000882309F470C08091420E81116CC03C975F
:10578000C080D180E280F38020E030E0A901C70131
:10579000B6010E94683718160CF05DC0C555DF4F82
:1057A0008881CB5AD040EDE9F0E0EC0FFD1F24E0FA
:1057B0008202E00DF11D112420813181428153814B
:1057C00069817A818B819C810E94B1374B015C0198
:1057D00080915D0E8111B5C02D813E814F8158852C
:1057E000C954DF4F688179818A819B81C75BD04032
:1057F0000E94B1379B01AC01C701B6010E9462351E
:105800002B013C019B01AC01C501B4010E94613533
:105810006B017C0120E030E0A9010E946837181676
:1058200024F0F7FAF094F7F8F09420E030E040E04C
:105830005FE3F801EE55F74F6081718182819381BA
:105840000E94B1379B01AC01C701B6010E946837C5
:1058500018160CF47AC001E41EE0CE01815B9F4F64
:105860006C01E12CF12CD6018D919C91893C9C40DE
:1058700030F4F80160816F5F8E2D0E94552342E065
:1058800050E0B6018091780E9091790E0E94241B11
:105890006BEA70E06C0F7D1F6E0D7F1D41E050E0E4
:1058A0008091780E9091790E0E94241BFFEFEF1AE1
:1058B000FF0A22E0C20ED11C055E1F4F32E0E31644
:1058C000F10489F685E89EE00E94A92F18161906B2
:1058D0000CF460C00E943F2DCE54DF4F28813981E7
:1058E0004A815B81C25BD040621B730B840B950BBA
:1058F0000E9476366B017C0120E030E04AE754E4F8
:10590000C154DF4F688179818A819B81CF5BD04010
:105910000E94B1379B01AC01C701B6010E94D93585
:1059200087FDD8CFC155DF4F48815981CF5AD0402C
:105930004F5F5F4FC155DF4F59834883CF5AD040E7
:1059400048CD20E030E0A90157CFF801E05AF74FE9
:105950002081318142815381C501B4010E94B13758
:10596000A30192010E94DD356B017C0120E030E053
:1059700040E85FE30E94D93587FF06C0C12CD12CD7
:1059800080E8E82E8FE3F82EB701A601C8010E9437
:105990006A0E61CFC554DF4F6881CB5BD04080E099
:1059A0000E945523C454DF4F6881CC5BD04081E016
:1059B0000E94552380E0CA53DF4F0FB6F894DEBF34
:1059C0000FBECDBFDF91CF911F910F91FF90EF9050
:1059D000DF90CF90BF90AF909F908F907F906F900F
:1059E0005F904F903F902F9008951F920F920FB6A7
:1059F0000F9211242F933F938F939F93AF93BF9355
:105A000080917D0E90917E0EA0917F0EB091800EC0
:105A100030917C0E23E0230F2D3720F40196A11D39
:105A2000B11D05C026E8230F0296A11DB11D2093CC
:105A30007C0E80937D0E90937E0EA0937F0EB0938C
:105A4000800E8091810E9091820EA091830EB09174
:105A5000840E0196A11DB11D8093810E9093820E3C
:105A6000A093830EB093840EBF91AF919F918F91BD
:105A70003F912F910F900FBE0F901F9018953FB739
:105A8000F8948091810E9091820EA091830EB09136
:105A9000840E26B5A89B05C02F3F19F00196A11DC5
:105AA000B11D3FBF6627782F892F9A2F620F711D76
:105AB000811D911D42E0660F771F881F991F4A952F
:105AC000D1F70895CF92DF92EF92FF92CF93DF93B9
:105AD0006B017C010E943F2DEB01C114D104E10454
