:100000000C948C010C94BD010C94BD010C94BD01A9
:100010000C94BD010C94BD010C94BD010C94BD0168
:100020000C94BD010C94BD010C94BD010C94BD0158
:100030000C94BD010C94BD010C94BD010C94BD0148
:100040000C94BD010C94BD010C94BD010C94BD0138
:100050000C943B050C94BD010C94BD010C94AF2C89
:100060000C94BD010C94DA300C9410310C94BD0149
:100070000C94BD010C9410050C94BD010C94BD01B1
:100080000C94BD010C94BD010C94BD010C94670847
:100090000C94BD010C94BD010C94BD010C9426067A
:1000A0000C94BD010C94BD010C94BD010C94BD01D8
:1000B0000C94BD010C94BD010C94BD010C94BD01C8
:1000C0000C94BD010C94BD010C94BD010C94BD01B8
:1000D0000C94BD010C94BD010C94BD010C94BD01A8
:1000E0000C94BD01C51DED1D0A1E271E6A1E4C1E67
:1000F000881EB11EE71ECC1E231FFF1EFF1FDA1F26
:100100001E20BC20582049210F21E21D9D21BF2126
:10011000DA21FB21A61E0A221F223B224822752239
:100120008422DA2DDF2DE42DEE2DF82D712E022EF6
:100130000A2E122E1C2E262E302E3F2E492E712EC8
:10014000532E5D2E672E932E962E852E892E8F2E62
:10015000CD2E9A2E9E2EA42EA82EAC2EB22EB62ECA
:10016000BA2ECD2EC02EC42EC82E08000000BE927E
:100170002449123EABAAAA2ABECDCCCC4C3E0000EC
:100180000080BEABAAAAAA3E00000000BF0000008B
:10019000803F0000000000084178D3BB4387D113A3
:1001A0003D190E3CC3BD4282AD2B3E68EC8276BE4B
:1001B000D98FE1A93E4C80EFFFBE01C4FF7F3F0015
:1001C0000000000007634236B79BD8A71A3968566B
:1001D00018AEBAAB558C1D3CB7CC5763BD6DEDFD69
:1001E000753EF6177231BF000000803F00000A0B19
:1001F00002090C0D0E0807030401000000000000B6
:1002000000000000000000000000000000000000EE
:1002100000000000000000001211100000000000AB
:1002200000000000000000000000000000000000CE
:1002300000000102102020080810204010204080FB
:10024000020102010804020101020408102040809A
:100250008040201008040201800402018040201028
:100260000804020108040201010204081020408071
:10027000010204081020408005050505070508084F
:100280000808020202020A0A080804040404010120
:100290000101010101010303030303030303040735
:1002A00007070C0C0C0C0C0C0C0C020202020606CC
:1002B0000606060606060B0B0B0B0B0B0B0B0000C2
:1002C00020002300260029002C002F00320000010E
:1002D000000003010601090100002200250028009A
:1002E0002B002E003100340002010000050108013E
:1002F0000B0100002100240027002A002D003000FF
:10030000330001010000040107010A01F301450562
:100310002D08C7274431F70111241FBECFEFD1E2CA
:10032000DEBFCDBF00E00CBF14E0A0E0B2E0E6E12C
:10033000F8E700E00BBF02C007900D92A03BB107A9
:10034000D9F72FE0A0EBB4E001C01D92AF32B207A5
:10035000E1F713E0C6E1D3E000E006C0229701090F
:10036000FE010BBF0E948A39CC30D10780E008071C
:10037000A9F70E9490020C94F93B0C940000809124
:10038000060290910702019690930702809306025D
:10039000089580EB94E00E94E522809106029091FE
:1003A000070269E170E00E943039892BD9F480910D
:1003B000020D882389F08091030D81110BC0E0911B
:1003C000B004F091B1040688F789E02D80EB94E049
:1003D000199502C01092030D81E090E090930702FE
:1003E00080930602089580EB94E00C94AA0A80EBB7
:1003F00094E00C94BB0A80E18093910010929000ED
:1004000085E08093460E86E998E99093480E8093A4
:10041000470E909397008093960085E1809391001A
:100420008FEB91E09093450E8093440E81E0809392
:10043000710080EB94E00E94A40E69E072E08EE807
:100440009EE00E94D3316FEF71E2605072404AE04B
:1004500050E08EE89EE00E949D326EE072E08EE8F1
:100460009EE00E94D33160EB74E0605072404AE03D
:1004700050E08EE89EE00E949D3265E172E08EE8D9
:100480009EE00E94D3316FE27FE0605B74404AE0FF
:1004900050E08EE89EE00E949D326BE172E08EE8B3
:1004A0009EE00E94D33160912B0F70912C0F61154B
:1004B000710519F06F527F4002C060E070E04AE0C1
:1004C00050E08EE89EE00E949D3261E272E08EE88C
:1004D0009EE00E94D3318DB79EB76FEF71E2681B2B
:1004E000790B4AE050E08EE89EE00E949D3268E27F
:1004F00072E08EE89EE00E94D33180912B0F9091A4
:100500002C0F6DB77EB7009719F46F527F4002C071
:10051000681B790B4AE050E08EE89EE00C949D3217
:100520000E944F2D0E94FB01C3E9DFE20E94C90136
:100530002097E1F30E94932FF9CFECE7F0E0908150
:100540009F739083208130E4839FC0011124282B66
:1005500020830895EAE7F0E09081987F908390816E
:10056000982B9083089580917A00877090E0089589
:10057000E1E8F0E08081887F808308950E94B802DE
:100580001092850010928400E1E8F0E08081909163
:10059000640D892B80830895882321F080917C004D
:1005A000806203C080917C008F7D80937C000895E1
:1005B000EBE7F0E09081987F90839081982B908377
:1005C0000895CF92DF92EF92FF92CF936B017C015F
:1005D00080E18093810010928000A701960160E085
:1005E00074E284E799E40E949A3520E030E040E02C
:1005F00051E40E946E370E9407366115710521E0B3
:100600008207910528F421E02093640DCB014CC0B2
:100610006115710528E08207910568F422E02093B6
:10062000640DDC01CB0153E0B695A79597958795AE
:100630005A95D1F739C06115710520E482079105FB
:1006400068F423E02093640DDC01CB0146E0B6950D
:10065000A795979587954A95D1F726C0611571059D
:10066000810521E0920740F424E02093640DBB272C
:10067000A92F982F872F18C061157105810524E0D7
:10068000920768F425E02093640DDC01CB012AE099
:10069000B695A795979587952A95D1F705C085E0DA
:1006A0008093640D8FEF9FEF909387008093860077
:1006B000C1E0C0936F0086E00E94D802C0937A0D1B
:1006C00080917A00806280937A00C0926D0DD09202
:1006D0006E0DE0926F0DF092700DCF91FF90EF9044
:1006E000DF90CF90089580937A0D882321F0809138
:1006F0007A00806203C080917A008F7D80937A00B7
:100700000895EAE7F0E08081806480830895CF93C4
:10071000DF93D0917800C091790040917D0D509188
:100720007E0D20917B0D30917C0D42175307A8F56B
:1007300080917A0D811102C00E9481038D2F90E07B
:100740009C2B20917C0025FF13C0E091810DF0913E
:10075000820D20917D0D30917E0DA9014F5F5F4F7D
:1007600050937E0D40937D0DE20FF31F908315C0D3
:10077000E0917F0DF091800D20917D0D30917E0DE7
:10078000A9014F5F5F4F50937E0D40937D0D220F67
:10079000331FE20FF31F91838083DF91CF91089580
:1007A00010927E0D10927D0D80917A0D0E94730340
:1007B0000E94F92C6093650D7093660D8093670D10
:1007C0009093680D80917A00886C80937A00809174
:1007D0007B008770863011F40C94BE0208958F92CE
:1007E0009F92AF92BF92CF92DF92EF92FF920E94C0
:1007F000F92C4B015C0180917A00877D80937A000F
:1008000080917B008770863011F40E94B80260915D
:100810007B0D70917C0D80E090E00E94333620E0EB
:1008200034E244E759E40E946E376B017C01809109
:10083000650D9091660DA091670DB091680DA501B1
:100840009401281B390B4A0B5B0BCA01B9010E94AA
:1008500033369B01AC01C701B6010E949A35609303
:10086000690D70936A0D80936B0D90936C0DFF90E2
:10087000EF90DF90CF90BF90AF909F908F900895B2
:100880008093770D90917C00907F90937C002091D5
:100890007C00982F9770922B90937C00883020F0EA
:1008A00080917B00886003C080917B00877F80936C
:1008B0007B00089591E09093760D1092790D10923F
:1008C000780D1092750D27E833E03093740D209366
:1008D000730D0C9440048091750D8F5F8093750D9E
:1008E0009091760D891302C01092750D8091750D4F
:1008F000E091780DF091790DE80FF11D80810E9453
:1009000040040C9487031F93CF93DF93C091750D20
:100910009091760D9230A0F081E08C0F891719F03C
:100920008093750D02C01092750D8091750DE09148
:10093000780DF091790DE80FF11D80810E9440043F
:1009400010917800D091790040917D0D50917E0DED
:1009500020917B0D30917C0D42175307F0F480916C
:100960007A0D811102C00E948103612F70E07D2BFE
:1009700080917C0085FF02C0672F7727E091710D81
:10098000F091720D8C2F199580917D0D90917E0DB7
:10099000019690937E0D80937D0DDF91CF911F91F5
:1009A0000895CF93DF93D0917C00C0917B0080911C
:1009B0007C00807E80937C0080917C008E6180939F
:1009C0007C0080917B00877F80937B0063E070E0F8
:1009D00080E090E00E941C2D80917A0080648093DA
:1009E0007A0080917A0086FDFCCF6091780080913A
:1009F0007900D0937C00C0937B0070E0782B88272F
:100A000077FD8095982F0E9435369B01AC0160E000
:100A100070E889E894E40E949A35DF91CF910895B7
:100A20001F920F920FB60F9211240BB60F922F93B5
:100A30003F934F935F936F937F938F939F93AF9366
:100A4000BF93EF93FF93E091730DF091740D19959F
:100A5000FF91EF91BF91AF919F918F917F916F9196
:100A60005F914F913F912F910F900BBE0F900FBE52
:100A70000F901F9018951F920F920FB60F9211248E
:100A80000F900FBE0F901F90189581E00C949D025F
:100A90001092F00D81E08093EE0D1092ED0D61E06B
:100AA00084E10E94072F61E085E10E94072FE9EBB6
:100AB000F0E080818E7F808380818D7F808388E4D9
:100AC0008093B80085E48093BC000895413208F01B
:100AD0003FC09091F00D9111FCCF91E09093F00DFB
:100AE0002093EE0D2FEF2093830D1092C80D240F4D
:100AF0002093C70D9093EF0D9091EF0D880F892BE8
:100B00008093EF0D8091ED0D813041F41092ED0D49
:100B10008091EF0D8093BB0085EC01C085EE809342
:100B2000BC008091F00D8130E1F38091C80D8417F5
:100B300010F44091C80D29EC3DE0FB01D9018A2F4A
:100B4000821B841718F48D918193F9CF842F089517
:100B500080E008950F93413208F046C09091F00D67
:100B60009111FCCF92E09093F00D0093EE0D9FEF6A
:100B70009093830D1092C80D4093C70DFB0169EC53
:100B80007DE0DB019A2F961B941718F491919D93A9
:100B9000F9CF1092EF0D9091EF0D880F892B809374
:100BA000EF0D8091ED0D813041F41092ED0D8091AB
:100BB000EF0D8093BB0085EC01C085EE8093BC00F7
:100BC000222321F08091F00D8230E1F38091830D9A
:100BD0008F3F61F08091830D803251F08091830DC1
:100BE000803341F483E007C081E005C080E003C0AA
:100BF00082E001C084E00F910895613298F4209161
:100C0000F00D243089F46093A50DFC0187EA9DE086
:100C1000DC012A2F281B261718F421912D93F9CFD8
:100C200080E0089581E0089582E0089585ED809345
:100C3000BC008091BC0084FDFCCF1092F00D0895A3
:100C400085EC8093BC001092F00D08951F920F92D6
:100C50000FB60F9211240BB60F922F933F934F9321
:100C60005F936F937F938F939F93AF93BF93EF9314
:100C7000FF938091B900887F803609F49CC068F5A5
:100C8000883209F45BC090F4803109F454C038F420
:100C9000882309F4F5C0883009F44DC0F5C08831C7
:100CA00009F44CC0803209F45DC0EEC0803409F410
:100CB00068C048F4803309F455C0883309F0E4C0B3
:100CC0008093830DA8C0803509F44FC0883509F49E
:100CD0005DC0883409F0D8C0D5C0883909F4C6C0D1
:100CE000A8F4883709F467C038F4883609F463C07B
:100CF000803709F460C0C8C0883809F4B7C08039AB
:100D000009F45FC0803809F0BFC05BC0803B09F4C4
:100D100085C038F4803A09F466C0883A09F47EC088
:100D2000B3C0803C09F4A6C0883C09F4A3C0883B4A
:100D300009F489C0A9C08091EF0D10C09091C80D31
:100D40008091C70D981770F5E091C80D81E08E0F66
:100D50008093C80DF0E0E753F24F80818093BB0091
:100D600085EC85C08093830D8DC0E091C80D81E036
:100D70008E0F8093C80D8091BB00F0E0E753F24FD7
:100D800080839091C80D8091C70D6DC0E091C80D12
:100D900081E08E0F8093C80D8091BB00F0E0E75397
:100DA000F24F80838091EE0D81116CC081E08093C1
:100DB000ED0D84EA60C083E08093F00D1092840D05
:100DC000CFCF8091840D803208F050C0E091840D27
:100DD00081E08E0F8093840D8091BB00F0E0EB5793
:100DE000F24F8083BDCF8091840D803230F4E0914A
:100DF000840DF0E0EB57F24F10820E9416066091CE
:100E0000840D70E0E091E90DF091EA0D85E89DE038
:100E100019951092840D0E94200636C084E08093BC
:100E2000F00D1092A60D1092A50DE091EB0DF09132
:100E3000EC0D19958091A50D811105C081E080937D
:100E4000A50D1092A70DE091A60D81E08E0F809365
:100E5000A60DF0E0E955F24F80818093BB009091A0
:100E6000A60D8091A50D981708F47ACF85E8809398
:100E7000BC000AC085EC8093BC001092F00D04C049
:100E80001092830D0E941606FF91EF91BF91AF91D2
:100E90009F918F917F916F915F914F913F912F9192
:100EA0000F900BBE0F900FBE0F901F901895809162
:100EB000210E90E02091220E821B9109089520912D
:100EC000220E8091210E281750F4E22FF0E0ED5D04
:100ED000F14F808190E02F5F2093220E08958FEFD5
:100EE0009FEF0895E091220E8091210EE81730F4D3
:100EF000F0E0ED5DF14F808190E008958FEF9FEF7E
:100F000008950895CF92DF92EF92FF920F931F936F
:100F1000CF93DF937C01CB018A012091FD0D222329
:100F200089F0EB016B01C40ED51ECC15DD0569F00F
:100F30006991D701ED91FC910190F081E02DC701FD
:100F40001995F3CF642F0E94FD05C801DF91CF9161
:100F50001F910F91FF90EF90DF90CF900895CF9366
:100F6000DF931F92CDB7DEB769832091FD0D222359
:100F7000D1F02091FE0D203240F021E030E0FC0164
:100F80003383228380E090E015C08091FF0DE82F2D
:100F9000F0E0E050F24F998190838F5F8093FF0DD6
:100FA0008093FE0D05C061E0CE0101960E94FD0513
:100FB00081E090E00F90DF91CF910895FC011382C2
:100FC000128248EE53E060E070E04483558366830C
:100FD000778389E392E09183808308951092220EB3
:100FE0001092210E1092FF0D1092FE0D0C944805E8
:100FF000862F413208F040E263E27EE00E946605FF
:101000001092220E8093210E089521E00C94F8078F
:1010100021E00C94F80781E08093FD0D6093200E91
:101020001092FF0D1092FE0D08950C940B080F9373
:10103000062F21E04091FE0D60E07EE08091200EC1
:101040000E94AA051092FF0D1092FE0D1092FD0D48
:101050000F91089561E00C94170881EF9DE00C94C6
:10106000DE07CF93CFB7F8948091430E811127C04C
:10107000EDEAF2E08491E7E6F2E09491E82FF0E007
:10108000EE0FFF1FEE50FD4FA591B4918C91892377
:1010900021F461E085E30E94072F61E085E30E946F
:1010A000CE2E8CB580618CBD8CB580648CBD61E02A
:1010B00084E30E94CE2E61E083E30E94CE2E8091D5
:1010C000430E8F5F8093430ECFBFCF9108951F9241
:1010D0000F920FB60F9211240BB60F922F933F93DE
:1010E0004F935F936F937F938F939F93AF93BF9330
:1010F000EF93FF93E091440EF091450E1995FF9107
:10110000EF91BF91AF919F918F917F916F915F917F
:101110004F913F912F910F900BBE0F900FBE0F90EC
:101120001F901895FF920F931F93CF93DF93FC01AD
:101130000081C181D281F8948981F02EF0948F21B1
:10114000898378941DE7115029F182E090E00E9494
:10115000442D88818023B9F3F8948A818F218A8372
:101160008981802B8983789480EE91E00E94442DC0
:10117000F89489818F21898386E490E00E94442D30
:101180008881802311E009F010E078948AE991E0E9
:101190000E94442D812FDF91CF911F910F91FF90DD
:1011A00008951F93CF93DF93FC011081C181D281F9
:1011B000912F909560FF12C0F8948A8189238A83C9
:1011C0008981812B89838AE090E00E94442D8A8165
:1011D000812B8A83789487E390E011C0F8948A8108
:1011E00089238A838981812B898381E490E00E940D
:1011F000442D8A81812B8A83789485E090E0DF9169
:10120000CF911F910C94442D0F931F93CF93DF9395
:10121000FC011081C181D281F8948981812B89835D
:101220008A81012F009580238A8383E090E00E94C9
:10123000442D8981802389838AE090E00E94442D97
:10124000C881789485E390E00E94442D1C2381E0BE
:1012500009F480E0DF91CF911F910F910895CF9213
:10126000DF92EF92FF920F931F93CF93DF931F9222
:10127000CDB7DEB76C01E62E08E010E0FF24F39452
:1012800061E09F2D9E2109F460E0C60149830E9420
:10129000D108FF0C0150110949810115110581F791
:1012A000411115C0F894D6011196ED91FC91129759
:1012B00091818C918095892381831196ED91FC9188
:1012C000129792818C9180958923828378940F90D4
:1012D000DF91CF911F910F91FF90EF90DF90CF9012
:1012E0000895EF92FF920F931F93CF93DF938C019A
:1012F000C8E0D0E0F12CEE24E394C8010E94040978
:101300008111FE28EE0C2197C1F78F2DDF91CF912F
:101310001F910F91FF90EF900895CF92DF92FF926F
:101320000F931F93CF93DF931F92CDB7DEB78C013E
:10133000F62E40E065E579830E942F09CF2C798154
:10134000D72E88E0F82EF60161916F0140E0C801C8
:101350000E942F09FA94B9F70F90DF91CF911F9156
:101360000F91FF90DF90CF900895FC0113861586B2
:10137000148627E030E0DF01A20FB31F13961C9202
:101380002115310519F021503109F5CF08951F932A
:10139000CF93DF93EC01162F60E0812F0E94CE2EB9
:1013A000612F70E0FB01EE5CFD4FE491E883FB01EF
:1013B000E858FD4FE491F0E0EE0FFF1FE254FD4FBF
:1013C000859194919A838983CE01DF91CF911F916A
:1013D0000C94B509AF92BF92CF92DF92EF92FF9239
:1013E0000F931F93CF93DF931F92CDB7DEB75C01AE
:1013F000E62ED72EFC01858581115DC0C5010E94B6
:101400009208811105C0F5011386158614866EC0F9
:1014100040E060EFC5010E942F0901E0F12CC12CD2
:1014200011E0C5010E940409682FC50169830E946B
:1014300004096981613019F48130B9F433C02F2D6A
:1014400030E068131BC0F5018385181730F4E20FF4
:10145000F31F8381802349F402C0181731F060E044
:10146000193058F4F501148708C0F501EF0DF11D8E
:101470008381802B838361E009C0C12EF501E20FD7
:10148000F31F8381902F909589238383C5010E9448
:10149000D1081F5F000F11F4F39401E0F7E0FF158E
:1014A00008F0BFCF113438F0F501C386C11018C061
:1014B00081E0858715C0F50113861586148680E0C6
:1014C000EE2DFD2D20E030E0D501A20FB31F1396C5
:1014D0009C9191932F5F3F4F28303105A9F706C0AB
:1014E000F5018381882339F381E0EACF0F90DF9102
:1014F000CF911F910F91FF90EF90DF90CF90BF9011
:10150000AF90089586E294E0089582E294E0089511
:101510008BE094E0089581EF93E008958BEE93E0E3
:10152000089588EB93E008958C5A974FFC01108240
:10153000089585E492E00895DC01ED91FC9101901D
:10154000F081E02D19948EBD00000DB407FEFDCF93
:101550008EB50895CF93DF93EC0161E00E94651A88
:1015600080EA93E099838883CE5AD74F18821982F4
:10157000DF91CF91089520EA33E0FC01318320838D
:101580000C94D51A1F93CF93DF931F921F92CDB760
:10159000DEB7162F60E0812F2A8349830E94072F30
:1015A0004981842F0E94A30A2A81822F0E94A30AC4
:1015B00061E0812F0F900F90DF91CF911F910C94DC
:1015C000072F643040F4242F2095462F65E30E94B6
:1015D000C20A80E0089585E00895AF92BF92CF924D
:1015E000DF92EF92FF920F931F93CF93DF931F929F
:1015F0001F92CDB7DEB78C01D12C7C018BEBE81AA2
:1016000087EFF80A5801E4E9AE1AE7EFBE0A2D2D7C
:1016100030E0F801EB5AF74F8081918168E270E089
:101620000E94303926173707E0F588E0C82EC982B6
:10163000F7012081318180E090E040E0B801620F45
:10164000731FE42FF0E0DB01A80FB91FA259BF4FB1
:1016500041E050E0AC91AA2311F040E050E0082EA8
:1016600002C0440F551F0A94E2F74E0F5F1F019608
:101670008830910531F74A83285F3F4FF701318366
:101680002083F50160816D0D22E0AE014F5F5F4F59
:10169000C8010E94B722C394FDE0CF12C8CFD394F3
:1016A000B6CF0F900F90DF91CF911F910F91FF90C8
:1016B000EF90DF90CF90BF90AF9008958F929F9260
:1016C000AF92BF92CF92DF92EF92FF920F931F9350
:1016D000CF93DF9300D0CDB7DEB78C01912C7C0186
:1016E0008BEAE81A87EFF80A98E2C92ED12C580144
:1016F000E4E9AE1AE7EFBE0A88248A94292D30E087
:10170000F70180819181B6010E9430392617370791
:10171000A0F438E039838A82F5016081690D22E006
:10172000AE014F5F5F4FC8013B830E94B7223B81F0
:101730003F5F3D3079F79394E1CF0F900F900F907A
:10174000DF91CF911F910F91FF90EF90DF90CF909D
:10175000BF90AF909F908F900895EF92FF920F935C
:101760001F93CF93DF938C017C018BE9E81A87EFFD
:10177000F80AC4E6D0E0F70141917F01BE01C8013B
:101780000E94601A2196C33BD105A9F760E0C80109
:10179000DF91CF911F910F91FF90EF900C94D00BA0
:1017A0007F928F929F92AF92BF92CF92DF92EF92F1
:1017B000FF920F931F93CF93DF93EC01762E7C0162
:1017C0002BE9E21A27EFF20A04E610E04701E8816C
:1017D000F9810088F189E02DB801CE011995F70152
:1017E00081937F010F5F1F4F033B110581F7F401C8
:1017F000808191819E012959374F5901FE01E75996
:10180000F74F6F01285C3F4F7901892BE1F4F50117
:1018100080819181892BB9F4F60180819181892B96
:1018200091F4399780819181A281B381F9018083FC
:101830009183A283B38381E090E0F601918380835A
:10184000CE010E94AD0BF40180819181892BB9F406
:10185000F50180819181892B91F4F601808191813C
:10186000019769F480E2FE01E459F74F808382E03A
:1018700090E0F60191838083CE010E94AD0BF401CC
:1018800080819181892BE9F4F50180819181892BF7
:10189000C1F4F60180819181029799F480E090E093
:1018A000A0EAB0E4FE01ED55F74F80839183A28357
:1018B000B38383E090E0F60191838083CE010E94A0
:1018C000AD0BF401808191818E010955174F892B51
:1018D000A1F4F50180819181892B79F4F601808151
:1018E0009181039751F4F801108284E090E0F601B1
:1018F00091838083CE010E94AD0BF40180819181A0
:10190000892B79F5F50180819181892B51F5F601BB
:1019100080819181049729F580E090E0A8ECB2E401
:10192000FE01E855F74F80839183A283B38380E063
:1019300090E4ACE9B6E4349680839183A283B383C8
:1019400080E090E0A8E4B3E4349680839183A2839E
:10195000B38385E090E0F60191838083CE010E94FD
:10196000AD0BF40180819181892B69F4F5018081AF
:101970009181892B41F4F60180819181059719F4B9
:10198000772009F4A8C0F40111821082F5011182B8
:10199000108285E090E0F601918380838FEFFE0155
:1019A000E559F74F80838CE73396808380E7319742
:1019B000808380E09CE7A2E9B8E43296808391833B
:1019C000A283B38380E092E2A1EAB8E434968083F4
:1019D0009183A283B38380E090E0AAE7B4E43C96CD
:1019E00080839183A283B38380E090E4ACE1B6E48A
:1019F000349680839183A283B38380E090E5A3EC47
:101A0000B7E4349680839183A283B38380E094E229
:101A1000A4E7B9E4349680839183A283B383749757
:101A200010821182128213823496108211821282E5
:101A300013824FEF56EE6BE57EE27496408351833E
:101A400062837383349640835183628373833496B5
:101A500040835183628373833496408351836283CE
:101A60007383FB9780819181A281B381F701808389
:101A70009183A283B38380E2FE01E459F74F808310
:101A800080E090E0A0EAB0E4F79680839183A2839F
:101A9000B383F801108280E090E0A8ECB2E4FE018C
:101AA000E855F74F80839183A283B38380E090E46D
:101AB000ACE9B6E4349680839183A283B38380E05B
:101AC00090E0A8E4B3E4349680839183A283B38347
:101AD000CE010E94AD0BF701C080D180E280F3807F
:101AE00020E030E0A901C701B6010E949635FE0151
:101AF000EC59F74F18161CF081E0808309C0DE0115
:101B0000A05AB74FCD92DD92ED92FC9213971082BE
:101B1000F8018081882311F042E001C041E060E0DB
:101B2000CE01DF91CF911F910F91FF90EF90DF9049
:101B3000CF90BF90AF909F908F907F900C94502348
:101B40008F929F92AF92BF92CF92DF92EF92FF92CD
:101B5000CF93DF93EC016A017B01FC01E05AF74F60
:101B600080809180A280B38020E030E0A901C7018D
:101B7000B6010E94963587FD45C0FE01E055F74F3E
:101B80002081318142815381C701B6010E942537EE
:101B90001816C4F1A5019401C701B6010E949A3537
:101BA0009B01AC010E941F3523EF34E045EB5FE35E
:101BB0000E946E3720E030E040E85EE30E946E371E
:101BC00020E030E04FE753E40E946E374B015C01A8
:101BD00020E030E04FE753E40E942537181694F0D8
:101BE000FE01E85AF74FC082D182E282F382C5013A
:101BF000B4010E940736462F63E0CE010E94E10A3D
:101C000080E001C088E0DF91CF91FF90EF90DF90FE
:101C1000CF90BF90AF909F908F900895FC01E05AB5
:101C2000F74F40835183628373833897408151819A
:101C30006281738120E00C94A00D5F926F927F927D
:101C40008F929F92AF92BF92CF92DF92EF92FF92CC
:101C50000F931F93CF93DF931F921F92CDB7DEB7E1
:101C60006C01CB01542E68E270E00E9430397B0198
:101C70004C015C0123E0B694A7942A95E1F73B015F
:101C8000772486010459174FF8018081B301680F4A
:101C9000711D81EF9DE00E941508B501685F7F4FBF
:101CA00081EF9DE00E949C0A81EF9DE00E942A083E
:101CB000F8018081B301680F711D41E050E081EFB0
:101CC0009DE00E94080881EF9DE00E945707892B44
:101CD00041F1F82DF7708F2E88E08A0D898381EF0E
:101CE0009DE00E945F0741E050E060E070E004C0CA
:101CF000440F551F661F771F8A94D2F7511002C0F8
:101D0000482B02C0409548234A83F80160816E0D3C
:101D100022E0AE014F5F5F4FC6010E94B72280E014
:101D200001C081E00F900F90DF91CF911F910F9133
:101D3000FF90EF90DF90CF90BF90AF909F908F90EB
:101D40007F906F905F9008958F929F92AF92BF9215
:101D5000CF92DF92EF92FF920F931F93CF93DF9377
:101D6000CDB7DEB762970FB6F894DEBF0FBECDBF1A
:101D70008C010E94D01961E085E30E94CE2E61E0C3
:101D800089E00E94CE2E60E089E00E94072FF801D2
:101D9000E05AF74F80E090E0A6E9B3E480839183B6
:101DA000A283B38360E0C8010E94D00B480185E99B
:101DB000881A87EF980AD4014C9160E0C8010E940C
:101DC000E10A6801B2E9CB1AB7EFDB0AF6014081FC
:101DD00061E0C8010E94E10A5801F3E9AF1AF7EF88
:101DE000BF0AD5014C9162E0C8010E94E10A40E0BF
:101DF00063E0C8010E94E10AD801ED91FC910680E0
:101E0000F781E02DC8011995BC018EE89EE00E9483
:101E1000D3316BE472E08EE89EE00E94D331D801AA
:101E2000ED91FC910484F585E02DC8011995BC0164
:101E30008EE89EE00E94E0316EE472E08EE89EE063
:101E40000E94D331D801ED91FC910284F385E02DFD
:101E5000C8011995BC018EE89EE00E94E03161E660
:101E600072E08EE89EE00E94D3317801BBE9EB1A64
:101E7000B7EFFB0AF701608171814AE050E08EE81C
:101E80009EE00E94E0326AE973E08EE89EE00E94E4
:101E9000D331F801E959F74F608171814AE050E090
:101EA0008EE89EE00E94E0326AE973E08EE89EE0F0
:101EB0000E94D331F801E759F74F608171814AE000
:101EC00050E08EE89EE00E94E63268E772E08EE81D
:101ED0009EE00E94D3314AE050E0D4016C918EE83C
:101EE0009EE00E94C9326EE772E08EE89EE00E949A
:101EF000D3314AE050E0F50160818EE89EE00E9417
:101F0000C9326EE872E08EE89EE00E94D3314AE06A
:101F100050E0D6016C918EE89EE00E94C932B12C4F
:101F2000A12CF1E0BF1202C084E001C082E0A8163B
:101F300008F0B9C04AE06A2DCE0101960E9497349C
:101F40004AE06B2DCE010D960E94973464E972E051
:101F5000CE0107960E946934BE01635F7F4FCE01B8
:101F600007960E94F03466E972E00E940335BE01D4
:101F70006F5F7F4F0E94F0346AEA72E00E9403357F
:101F8000BC018EE89EE00E94C531CE0107960E94FA
:101F9000FB33CE010D960E94FB33CE0101960E94C9
:101FA000FB33CA2CD12CB1E0F601EE0FFF1FEE0F70
:101FB000FF1FEE0DFF1DBB1629F04285538564857A
:101FC000758504C0428D538D648D758D22E030E09F
:101FD0008EE89EE00E94E9334AE06A2DCE01019628
:101FE0000E9497344AE06B2DCE010D960E949734E3
:101FF00064E972E0CE0107960E946934BE01635F16
:102000007F4FCE0107960E94F0346DEA72E00E9485
:102010000335BE016F5F7F4F0E94F0346AEA72E0C1
:102020000E940335BC018EE89EE00E94C531CE01BE
:1020300007960E94FB33CE010D960E94FB33CE0122
:1020400001960E94FB33E1E0BE1661F0F601EE0F4F
:10205000FF1FEE0FFF1FEE0DFF1D6289738984893C
:1020600095890BC0F601EE0FFF1FEE0FFF1FEE0D5F
:10207000FF1D62A573A584A595A525EA34ED48E664
:1020800053E50E946E37AB01BC0122E030E08EE8E0
:102090009EE00E94E73362EC72E08EE89EE00E94D0
:1020A000E031A3943ECFB39482E0B81239CF66EC0E
:1020B00072E08EE89EE00E94D331F801E459F74FB8
:1020C0004AE050E060818EE89EE00E94C9326BE1F8
:1020D00073E08EE89EE00E94D331F801E156F74F9D
:1020E000408151816281738122E030E08EE89EE080
:1020F0000E94E93363EE72E08EE89EE00E94D331E5
:10210000F801ED55F74F408151816281738122E0E2
:1021100030E08EE89EE00E94E93366EF72E08EE8E0
:102120009EE00E94D331F801E955F74F608170E0DD
:102130004AE050E08EE89EE00E949D326FE073E03E
:102140008EE89EE00E94D331F801EC59F74F608190
:1021500070E04AE050E08EE89EE00E949D326BE223
:1021600073E08EE89EE00E94D331F801E855F74F06
:10217000408151816281738122E030E08EE89EE0EF
:102180000E94E93363E473E08EE89EE00E94D3315D
:10219000F801E455F74F408151816281738122E05B
:1021A00030E08EE89EE00E94E9336BE573E08EE854
:1021B0009EE00E94D331F801E055F74F40815181F4
:1021C0006281738122E030E08EE89EE00E94E93374
:1021D00062960FB6F894DEBF0FBECDBFDF91CF91F0
:1021E0001F910F91FF90EF90DF90CF90BF90AF9035
:1021F0009F908F9008958F929F92AF92BF92CF92AF
:10220000DF92EF92FF921F93CF93DF93EC016A016D
:102210007B01FC01E855F74F24EA30E74DE75FE327
:1022200060817181828193810E946E379B01AC0134
:10223000C701B6010E94253787FDAFC02EEA37E4FB
:1022400041E85FE3FE01E455F74F608171818281CF
:1022500093810E946E379B01AC01C701B6010E94B9
:10226000963518160CF499C020E030E048E452E4AA
:10227000C701B6010E946E374B015C0120E030E0DF
:102280004AE754E40E94963587FD87C020E233EB8D
:1022900041E85CE4C501B4010E94253718160CF42E
:1022A0007CC020E030EE41E854E4C501B4010E9456
:1022B0009A350E942E3726EA3BE944E550E40E9415
:1022C0006E372EE83DE543E150E40E949A350E94C6
:1022D0000736162F70E0665F7F4F882777FD809561
:1022E000982F0E9435369B01AC0160E070E080E0E1
:1022F00090E40E94D13720E030EE41E055E40E94A6
:102300006E37A50194010E949A359B01AC0160E0F3
:1023100070E080E095E40E941E354B015C0120E0F6
:1023200030E0A9010E94253720E030E040E05FE383
:1023300087FD05C0C501B4010E941F3504C0C50159
:10234000B4010E941E350E9402365B01CB0166E09B
:10235000969587956A95E1F71295107F182B67E19E
:1023600081EF9DE00E940B08612F81EF9DE00E94AC
:10237000AF076A2D660F660F626081EF9DE00E94D5
:10238000AF0781EF9DE00E942A08C45AD74FC88248
:10239000D982EA82FB8280E001C088E0DF91CF91A0
:1023A0001F91FF90EF90DF90CF90BF90AF909F90E4
:1023B0008F9008954F925F926F927F928F929F922B
:1023C000AF92BF92CF92DF92EF92FF920F931F9343
:1023D000CF93DF931F921F92CDB7DEB78C01FC0124
:1023E000EC5AF74F81E0808348018BEA881A87EF27
:1023F000980AF40111821082E8E2AE2EB12CE12C91
:10240000F12CF8E16F2E77247A946801F4E9CF1A61
:10241000F7EFDF0A4E2C69827A82F60160816E0D39
:1024200022E0AE014F5F5F4FC8010E94B722F60164
:1024300060816E0D21E0AE014F5F5F4FC8010E94C9
:10244000741D89818F3F09F04BC078E1572E598266
:102450001A82F6016081640D22E0AE014F5F5F4F8A
:10246000C8010E94B722F6016081640D21E0AE012F
:102470004F5F5F4FC8010E94741D8981811130C078
:1024800080EF850D89837A82F6016081640D22E0F8
:10249000AE014F5F5F4FC8010E94B7225394FDE128
:1024A0005F12D5CF66E873E08EE89EE00E94D331DC
:1024B0004AE050E0B7018EE89EE00E94953260E964
:1024C00073E08EE89EE00E94E031F40120813181CA
:1024D000C50188972817390719F4F401B182A08241
:1024E000FFEFEF1AFF0A88E2A80EB11CE8E0EE1633
:1024F000F10409F08FCFF401608171814AE050E06E
:102500008EE89EE00E94E03261E773E08EE89EE094
:102510000E94E03140E050E46CE176E4C8010E94A2
:10252000FB100F900F90DF91CF911F910F91FF90B3
:10253000EF90DF90CF90BF90AF909F908F907F9063
:102540006F905F904F9008952F923F924F925F92BD
:102550006F927F928F929F92AF92BF92CF92DF92B3
:10256000EF92FF920F931F93CF93DF93CDB7DEB718
:10257000A9970FB6F894DEBF0FBECDBF2C016987B7
:102580002DB73EB73BA32AA38C010D5A174F81E00C
:10259000D8018C93F201EC5AF74F8081811103C06E
:1025A000C2010E94DA11F201E459FF4F1F01F985BF
:1025B000FF3A09F456C278F5F63A09F499C1A8F43D
:1025C000F23A09F4E6C038F4F03A09F457C0F13AA7
:1025D00009F468C0A5C6F201E05CF74F2985243AEA
:1025E00009F452C108F457C078C13985393A09F461
:1025F000CAC138F4373A09F497C1383A09F4A4C18A
:102600008FC649854D3A09F4ECC108F00FC24A3A29
:1026100009F4C9C185C65985563B09F496C3A8F487
:10262000523B09F4D9C238F4503B09F450C2513B33
:1026300009F49CC275C6F201E05CF74F6985643B02
:1026400009F42DC308F41EC367C379857B3B09F4E5
:1026500011C648F4793B09F441C608F0FCC5783B43
:1026600009F426C65DC68985853F09F4D6C5863F2F
:1026700009F476C4843F09F053C694C3F201E05CC8
:10268000F74F80819181892B59F442E050E0B201EB
:102690006B5A774FF3C080819181029709F489C00A
:1026A00086E037C3F201E05CF74F80819181892B8E
:1026B000B9F7D1011C92912C92012B5A374F3B87CD
:1026C0002A87720134E9E31A37EFF30A88248394E6
:1026D000A92CB12CEA85FB858081918168E270E0AC
:1026E0000E943039A616B70608F01AC608E010E0B6
:1026F000D7018C91B501680F711D81EF9DE00E949B
:102700001508B80181EF9DE00E949C0A81EF9DE0D1
:102710000E942A08F7018081B501680F711D41E010
:1027200050E081EF9DE00E94080881EF9DE00E944B
:102730005707892B51F181EF9DE00E945F076C01E3
:10274000612C712CDD24C601062C02C0959587955D
:102750000A94E2F781709927F1E08F27898341E09D
:1027600050E0BE016F5F7F4FC2010E94DB1A2FEF66
:10277000621A720A38E06316710429F70F5F1F4F5F
:102780000D30110509F0B4CF02C0D1018C929394A1
:102790009FCFF201E05CF74F2081318175968081F7
:1027A00091812817390709F07BCFC2010E94ED0AF9
:1027B0007CC5D201AB5BB74F2D913C911197F901CC
:1027C000E259FF4FE40DF51D808191812E5F3F4F4F
:1027D0002D933C93F201EB5AF74F20813181821700
:1027E000930708F078C068E270E00E9430398C01ED
:1027F0006B01DD247201F4E9EF1AF7EFFF0AD7014C
:102800008C91B601680F711D81EF9DE00E94150843
:10281000B80113E0769567951A95E1F7685F7F4FE9
:1028200081EF9DE00E949C0A81EF9DE00E942A08B2
:10283000F7018081B601680F711D41E050E081EF22
:102840009DE00E94080881EF9DE00E945707892BB8
:10285000C9F081EF9DE00E945F079927077002C0D1
:10286000959587950A95E2F781709927F1E08F2772
:10287000898341E050E0BE016F5F7F4FC2010E943B
:10288000DB1A13C581E045C280819181039709F06D
:1028900007CFD201AB5BB74F8D919C911197FC0193
:1028A000E259FF4FE40DF51D60817181F201E80FDF
:1028B000F91FE059FF4F408103968D939C93F201DD
:1028C000EB5AF74F808191816817790720F4C20194
:1028D0000E941D0E23C585E01CC280819181892B39
:1028E00009F0DECED1011C9289E00E943D2FECC49C
:1028F000F201E05CF74F80819181019709F0D0CE21
:10290000359680819181D201A80FB91FA259BF4F7E
:102910006C91019691838083623020F489E00E945B
:10292000072FF8C488E0FAC4F201E05CF74F808119
:102930009181892B09F0B4CEF101108244E050E07E
:10294000B201685A774FC6C4F201E05CF74F80814C
:102950009181049709F0A4CED201AB5BB74F8D9162
:102960009C911197FC01E259FF4FE40DF51D408148
:1029700051816281738104968D939C9321E0C20101
:102980000E94A00DCBC4F201E05CF74F80819181E1
:10299000892B09F085CEF101108244E050E0B201AC
:1029A000645A774F97C4F201E05CF74F80819181C0
:1029B000049709F075CED201AB5BB74F8D919C9116
:1029C0001197FC01E259FF4FE40DF51D4081518143
:1029D0006281738104968D939C93C2010E94FB10C7
:1029E0009DC4F201E05CF74F80819181019709F06D
:1029F00057CED201AB5BB74F8D919C911197F201ED
:102A0000E80FF91FE259FF4FE08101968D939C93E7
:102A1000E23008F035C1BBE1EB9FF0011124E75B28
:102A2000F14F81818983F10110824FC4F201E05C92
:102A3000F74F80819181029709F032CE359620813F
:102A40003181A201420F531FDA01A259BF4F8C916D
:102A500011966C912E5F3F4F318320830E940C238F
:102A600058C1F201E05CF74F80819181019709F034
:102A700017CE359680819181D201A80FB91FA25936
:102A8000BF4F2C91019691838083223008F0F8C0CB
:102A9000D1011C92BBE12B9FF0011124E75BF14FA8
:102AA000E181C2018B59974FF0E0EE0FFF1FEE0F4F
:102AB000FF1FE80FF91F213029F082859385A48537
:102AC000B58547C2828D938DA48DB58D42C2F2012A
:102AD000E05CF74F80819181059709F0E1CD359653
:102AE00020813181D201A20FB31FA259BF4F8C9117
:102AF000B9016F5F7F4F71836083D1011C9288237E
:102B0000E1F0813009F0BCC04091650EDB01A259B3
:102B1000BF4FA40DB51D8D919D910D90BC91A02D21
:102B20002B5F3F4F31832083F20134E0439FE00D60
:102B3000F11D1124E158F74F9BC040914A0ED90175
:102B4000A159BF4FA40DB51D8D919D910D90BC91C4
:102B5000A02D2B5F3F4F31832083F20124E0429F61
:102B6000E00DF11D1124E159F74F82C0F201E05C44
:102B7000F74F80819181019709F092CD3596808140
:102B80009181D201A80FB91FA259BF4F2C91019674
:102B900091838083223008F073C0F10110823BE101
:102BA000239FF0011124E75BF14FE181C2018B59B2
:102BB000974FF0E0EE0FFF1FEE0FFF1FE80FF91F1A
:102BC000213029F082899389A489B589C2C182A55F
:102BD00093A5A4A5B5A5BDC1F201E05CF74F808126
:102BE0009181059709F05CCD359620813181D20124
:102BF000A20FB31FA259BF4F4C91C90101969183F7
:102C00008083D1011C924423D9F04130C9F5409111
:102C1000650ED901A159BF4FA40DB51D8D919D9190
:102C20000D90BC91A02D2B5F3F4F31832083F2018B
:102C300034E0439FE00DF11D1124E157F74F18C018
:102C400040914A0ED901A159BF4FA40DB51D8D91D8
:102C50009D910D90BC91A02D2B5F3F4F3183208320
:102C6000F20124E0429FE00DF11D1124E958F74FD5
:102C700080839183A283B383C2010E94AD0B50C3B2
:102C800085E04CC380819181892B09F009CDF10148
:102C9000108244E050E0B201605A774F1BC380813C
:102CA0009181049709F0FCCCD201AB5BB74F8D91B9
:102CB0009C911197FC01E259FF4FE40DF51DC08076
:102CC000D180E280F38004968D939C9320E030E0E5
:102CD000A901C701B6010E9425371816CCF4F201EC
:102CE000EC59F74F8081882331F03497C082D1822C
:102CF000E282F382DAC2D201A156B74FCD92DD92C1
:102D0000ED92FC9213971082C2010E94AD0BCDC2CE
:102D100088E0F101808304C380819181892B09F0CF
:102D2000BFCCD1011C9211E020E030E0A901F201FA
:102D3000E156F74F60817181828193810E949635BF
:102D400018160CF410E01983C0C2F201E05CF74FD2
:102D500080819181019709F0A3CC35968081918182
:102D6000D201A80FB91FA259BF4F2C910196918390
:102D70008083E65AFF4F222329F0108211821282AB
:102D800013820CC0D201A05AB74F8D919D910D9026
:102D9000BC91A02D80839183A283B383C2010E9442
:102DA000AD0BB8C2F201E05CF74F008111810A302F
:102DB000110508F475CC359680819181DC01A2590A
:102DC000BF4FA40DB51D2D913D914D915C912A876A
:102DD0003B874C875D879C012C5F3F4F318320836D
:102DE000DC01AE58BF4FA40DB51D6D907C90DC0189
:102DF000AC58BF4FA40DB51D4D915D916D917C9167
:102E00004A8B5B8B6C8B7D8BD201A80FB91FA858A6
:102E1000BF4FFC900B96918380830B30110549F0D6
:102E20007096808191810B960817190711F086E042
:102E300075C2BBE46B16B1E07B0608F06EC220E001
:102E400030E04AE754E46A857B858C859D850E9445
:102E50009A3520E030E44CE157E40E946E3720E0E0
:102E600030E040E855E40E94963587FF56C2D10114
:102E70001C92F201EB5AF74F808191810B96081753
:102E8000190719F4C2010E94ED0A0E94F92C6E87FD
:102E90007F87888B998B88248394F1FE812CAA24C8
:102EA000A394F0FEA12CF201E45AF74FC080D18028
:102EB000E280F3800A891B892C893D89A3016A85F8
:102EC0007B858C859D850E94CC27F10180838111B3
:102ED00027C20E94F92C2E853F8548895989621B9B
:102EE000730B840B950B0E9433366B017C01B3018D
:102EF00080E090E00E94333620E030E04AE754E47E
:102F00000E946E379B01AC01C701B6010E949A3541
:102F10006D837E838F83988744E050E0BE016B5FB2
:102F20007F4FC2010E94DB1A44E050E060E67EE081
:102F3000C2010E94DB1A44E050E06BE77EE0C20170
:102F40000E94DB1AF201E05AF74F80819181A28141
:102F5000B38189839A83AB83BC8344E050E0B7C1DB
:102F6000F201EB5AF74F20813181C9010B96759719
:102F7000408151814817590709F092CBEDB7FEB750
:102F8000F98FE88FD1011C92F201EB5BF74F808142
:102F90009181DC01A259BF4FA40DB51D4D915D91EA
:102FA0006D917C914A8B5B8B6C8B7D8BAC014C5F04
:102FB0005F4F51834083DC01AE58BF4FA40DB51D58
:102FC0006D907C90DC01AC58BF4FA40DB51D4D91A8
:102FD0005D916D917C914E8F5F8F68A379A3D20133
:102FE000A80FB91FA858BF4F1C910B9691838083DF
:102FF0006DB77EB7621B730B0FB6F8947EBF0FBE22
:103000006DBF8DB79EB701969B878A87DC01280F1D
:10301000391F80E090E07F01A217B307A1F0F7010C
:1030200040815181B201640F751F62597F4FFB01CE
:1030300060814F5F5F4FF701518340836D9366233B
:1030400059F30196E9CF869D9001879D300D969D9D
:10305000300D11242B34314008F0D2C020E030E094
:103060004AE754E46A897B898C899D890E949A3554
:1030700020E030E44CE157E40E946E3720E030E07D
:1030800040E855E40E94963587FFBAC0C2010E940D
:103090005E0B0E94F92C6A8F7B8F8C8F9D8F212C69
:1030A000312C92012B5A374F3DA32CA3A201445936
:1030B0005F4F5F874E87812F8270682F70E07FA3FC
:1030C0006EA311701E8B1F8AC201845A974F99A755
:1030D00088A7ACA1BDA18D919C9128163906F0F569
:1030E000AE85BF858C91811135C0EA85FB85E20DE7
:1030F000F31D8081882371F141E0B101C2010E947A
:103100001D0E88248394EEA1FFA11E161F060CF04D
:10311000812CAA24A3942E893F89121613060CF041
:10312000A12CA8A5B9A5CD90DD90ED90FC900E8DB9
:103130001F8D28A139A1A3016A897B898C899D896A
:103140000E94CC27EE85FF85808340E0B101C2015B
:103150000E941D0EFFEF2F1A3F0ABBCFEE85FF85A1
:103160008081811152C00E94F92C2A8D3B8D4C8D9B
:103170005D8D621B730B840B950B0E9433366B01C4
:103180007C01B30180E090E00E94333620E030E023
:103190004AE754E40E946E379B01AC01C701B601B7
:1031A0000E949A356D837E838F83988744E050E038
:1031B000BE016B5F7F4FC2010E94DB1A44E050E00A
:1031C00060E67EE0C2010E94DB1A44E050E06BE75B
:1031D0007EE0C2010E94DB1AF201E05AF74F8081C3
:1031E0009181A281B38189839A83AB83BC8344E0BC
:1031F00050E0BE016F5F7F4FC2010E94DB1A05C025
:1032000081E0F201E459FF4F8083488D598D0FB65C
:10321000F8945EBF0FBE4DBF83C0F201E05CF74F74
:1032200080819181019709F03BCAD1011C923596AA
:1032300080819181D201A80FB91FA259BF4F2C9153
:1032400001969183808361E0211101C060E0C20199
:103250000E94D00B65C0F201E05CF74F8081918144
:10326000892B09F01DCAF1011082F201EE5AF74FC5
:1032700080812AC0F201E05CF74F80819181019743
:1032800009F00ECA359680819181D201A80FB91F2D
:10329000A259BF4F2C910196918380833D962223A2
:1032A00019F081E0808301C01082D1011C9238C0E6
:1032B000F201E05CF74F80819181892B09F0F0C920
:1032C000F1011082D8018C91898341E050E0BE0168
:1032D0006F5F7F4FC2010E94DB1A22C0F201E05CE7
:1032E000F74F80819181019709F0DAC93596808185
:1032F0009181D201A80FB91FA259BF4F2C910196FD
:1033000091838083222321F081E0F801808302C031
:10331000D8011C92F101108203C081E0D1018C938D
:103320006985C2010E949B1DF201E459FF4F808113
:10333000EAA1FBA10FB6F894FEBF0FBEEDBFA996A0
:103340000FB6F894DEBF0FBECDBFDF91CF911F91B6
:103350000F91FF90EF90DF90CF90BF90AF909F9034
:103360008F907F906F905F904F903F902F90089537
:103370008627682F62956827062E669566956025D4
:10338000062E669560256770082E892F669507942E
:103390006795902D86270694679590258627089532
:1033A000CF92DF92EF92FF920F931F93CF93DF9311
:1033B00000D01F92CDB7DEB78C01CE0101966C0113
:1033C0009FE0E92EF12CD801ED91FC910088F18964
:1033D000E02DB701C8011995F60181936F01FFEF48
:1033E000EF1AFF0A23E1E216F10469F789819A8155
:1033F000AB81BC818F3F9F4FAF4FBF4FE1F1498100
:103400005A816B817C8126E08EE89EE00E947830B4
:1034100081EF9DE00E94EE070E9431080E94D104D6
:1034200008591F4FD8016D937D938D939C931397EB
:103430006BE374E08EE89EE00E94D331F801408196
:1034400051816281738122E030E08EE89EE00E942B
:10345000E7336DE474E08EE89EE00F900F900F90DC
:103460000F90DF91CF911F910F91FF90EF90DF9020
:10347000CF900C94E03180E092ECA1E0B0E0898341
:103480009A83AB83BC83CE0101966C018FE0E82E5A
:10349000F12CD6014D916D01D801ED91FC9102887E
:1034A000F389E02DB701C8011995BFEFEB1AFB0AAC
:1034B000E3E1EE16F10469F7A2CFCB010C94D33B04
:1034C000CB01642F0C94DB3B08958F929F92AF92B7
:1034D000BF92CF92DF92EF92FF920F931F93CF9301
:1034E000DF932FE634E0FC0131832083E45BF74F68
:1034F0006083399711821082369610823997118233
:1035000010823596118210823296118210823A967C
:103510001082E12CF12C00E010E0C8010E94D33BA6
:10352000A82EC80107960E94D33B8E2CC0E0D0E0A5
:10353000B12CA094B094C82ED12CC094D094CE01BC
:103540008E0D9F1DC697C4F4B5010C2E02C0759553
:1035500067950A94E2F761709C2E980C892D0E9461
:10356000CE2EB6010C2E02C0759567950A94E2F72F
:103570006170892D0E94072F2196C830D105F9F678
:103580000F5F1F4FE8E0EE0EF11C0730110529F622
:10359000DF91CF911F910F91FF90EF90DF90CF902F
:1035A000BF90AF909F908F9008952FE634E0FC017C
:1035B0003183208308951F93CF93DF93FB0120E095
:1035C00030E0DC01A95BB74F2417350781F011917A
:1035D000BC01620F731FCD91DC9111976C0F7D1FA1
:1035E000EB01C259DF4F18832F5F3F4FEDCF8D9115
:1035F0009C911197820F931F8D939C93DF91CF9194
:103600001F910895CF93DF93FC01E359FF4F608131
:10361000DC01A459BF4F67FF0EC020E8260F2083AE
:1036200022E02C93DC01ED91FC910488F589E02DDA
:10363000DF91CF911994FC01E05CF74F208131813B
:1036400021503109820F931FEC01C259DF4F88814D
:103650008C9331832083DF91CF9108956F927F9275
:103660008F929F92AF92BF92CF92DF92EF92FF9292
:103670000F931F93CF93DF93EC019C01275B374F90
:1036800059016D3721F481E0F9018083AEC0F90161
:1036900080819E012D5B374F7901882309F49EC0FC
:1036A00080E26827F701808191819E01245B374F7A
:1036B0004901FE01EE5BF74F6F018E01005C174F71
:1036C000009759F4E55DF7406083F9018081882314
:1036D000A9F18FEF9FEF33961EC08130910581F4E1
:1036E00067FF08C083E08083862F8F77F801108200
:1036F000818324C082E08083862F90E0F8010BC094
:103700008230910559F42081233041F4F801808101
:103710009181860F911D9183808310C0F6012081D5
:10372000821B9109F801208131818217930730F4BF
:103730008C0F9D1FFC01E259FF4F6083F4018081D3
:10374000882369F03E01F1EB6F1AF7EF7F0AF3016E
:10375000808191810E94B819F30191838083F701E0
:10376000208131812F5F3F4F31832083F4014081DD
:10377000F6015081F80180819181850F911D840FA0
:10378000911D840F911D2817390711F5F70111823A
:103790001082FE01EB5BF74F11821082329611828C
:1037A0001082442329F0389680819181892B19F465
:1037B000CE010E94021BFE01E55BF74F808188234A
:1037C00039F0C359DF4F80589881981301C0108297
:1037D000F5018081882349F0108207C06E3709F017
:1037E00061CFF70111821082F3CFDF91CF911F914A
:1037F0000F91FF90EF90DF90CF90BF90AF909F9090
:103800008F907F906F900895FF920F931F93CF93A7
:10381000DF931F92CDB7DEB78C01F62E88E0898347
:1038200069816837E8F581EF9DE00E940B0881EF20
:103830009DE00E942A08811130C0FF2041F041E044
:1038400050E0BE016F5F7F4FC8010E94DB1A60E548
:1038500074E08EE89EE00E94D3314AE050E0698136
:103860008EE89EE00E94C23264E674E08EE89EE03C
:103870000E94D33140E150E069818EE89EE00E94D1
:10388000C23269E674E08EE89EE00E94E03161E0B9
:1038900070E080E090E00E941C2D89818F5FBFCF97
:1038A0000F90DF91CF911F910F91FF900895CF93CB
:1038B000C62F83E8860F823090F46DE78EE89EE095
:1038C0000E941330E0918E0EF0918F0E60E26C2713
:1038D0000190F081E02D8EE89EE0CF9119948EE862
:1038E0009EE0CF910C9413308F929F92AF92BF9233
:1038F000CF92DF92EF92FF920F931F93CF93DF93BC
:10390000EC018C017C0120ECE21A27EFF20A845BC7
:10391000974F6C015E0193EBA91A97EFB90AF70173
:103920008081918198012C1B3D0BF60128173907E6
:10393000C8F48081980122593F4F4901882351F0F2
:10394000F9016081F501808191810E94B819F5012A
:1039500091838083F4016081CE010E94571C0F5F28
:103960001F4FDDCF8081882369F08E01035B174FE5
:10397000F8016081CE010E94571CF8016181CE01DF
:103980000E94571CF70111821082C95BD74F198220
:103990001882DF91CF911F910F91FF90EF90DF90F0
:1039A000CF90BF90AF909F908F900895BF92CF928D
:1039B000DF92EF92FF920F931F93CF93DF93EC016F
:1039C000B62E8C01005C174FFC01E95BF74F80813C
:1039D0009181F801918380836EE78EE89EE00E94DA
:1039E00013307E01F4EBEF1AF7EFFF0AF701808145
:1039F000882381F08FEF9FEF6E01F3EBCF1AF7EF83
:103A0000DF0AF601918380836B2D0E94B819F601BD
:103A1000918380836B2DCE010E94571CF801608139
:103A20007181F70180816038710580F4882371F11C
:103A30007E01F3EBEF1AF7EFFF0AF7018081918126
:103A40000E94B819F7019183808320C08823B1F0C8
:103A50007068672F7E01F3EBEF1AF7EFFF0AF701AB
:103A6000808191810E94B819F70191838083F801C8
:103A700060810E94B819F70191838083F8018081E9
:103A800091819068692FCE010E94571CF8016081D6
:103A9000CE01DF91CF911F910F91FF90EF90DF90BA
:103AA000CF90BF900C94571C0F931F93CF93DF932D
:103AB0001F92CDB7DEB78C01698341E050E0BE01B3
:103AC0006F5F7F4F0E94DB1AF801E359FF4F60815F
:103AD000C8010E94D61CC8010E94741C0F90DF917F
:103AE000CF911F910F910895FF920F931F93CF9342
:103AF000DF938A01422F81EF9DE00E940508C0E01C
:103B000081EF9DE00E945707892B71F0FF24F39409
:103B1000FC0EC8018C0F911DEC0181EF9DE00E940D
:103B20005F078883CF2DECCF8C2FDF91CF911F9132
:103B30000F91FF9008956F927F928F929F92AF9214
:103B4000BF92CF92DF92EF92FF920F931F93CF938A
:103B5000DF93CDB7DEB769970FB6F894DEBF0FBE1F
:103B6000CDBF8C018DB69EB6862F90E0FC01E0584B
:103B7000F109EF31F10508F0D5C4EE58FF4F980177
:103B8000205C374F79010C946639D9018D919C9155
:103B9000892BF1F4D801ED91FC910280F381E02DA5
:103BA000C8011995FC0101900020E9F7AF014150CF
:103BB0005109481B590BD801ED91FC910280F3810A
:103BC000E02D62C0D9018D919C91019709F49FC3AA
:103BD00086E0F801E459FF4F86C4F90180819181A4
:103BE000892BB1F7D801ED91FC910480F581E02D8E
:103BF000C8011995FC0101900020E9F7AF0141507F
:103C00005109481B590BD801ED91FC910480F581B5
:103C1000E02D3AC0F90180819181892BC9F6D80144
:103C2000ED91FC910680F781E02DC8011995FC010A
:103C300001900020E9F7AF0141505109481B590B91
:103C4000D801ED91FC910680F781E02D1DC0F901AE
:103C500080819181892B09F0BBCFD801ED91FC9136
:103C60000084F185E02DC8011995FC010190002028
:103C7000E9F7AF0141505109481B590BD801ED91AB
:103C8000FC910084F185E02DC801498F588F19956A
:103C9000498D588DBC0134C4F90180819181892BF3
:103CA00009F096CFD801ED91FC910284F385E02DC7
:103CB000C8011995FC0101900020E9F7AF014150BE
:103CC0005109481B590BD801ED91FC910284F385F1
:103CD000E02DDACFF90180819181892B09F078CF2D
:103CE000D801ED91FC910484F585E02DC80119956A
:103CF000FC0101900020E9F7AF0141505109481B38
:103D0000590BD801ED91FC910484F585E02DBCCFD1
:103D1000F90180819181892B09F05ACFD801ED9169
:103D2000FC910684F785E02DC8011995FC010190EE
:103D30000020E9F7AF0141505109481B590BD80148
:103D4000ED91FC910684F785E02D9ECFF9018081ED
:103D50009181892B09F03CCF4AE050E065E874E09E
:103D6000CFC3D9018D919C91029709F031CFF80111
:103D7000EB5BF74F20813181A801420F531FDA011D
:103D8000A259BF4F8C9111966C912E5F3F4F31839A
:103D900020830E94CE2EC2C3F901808191810297B7
:103DA00009F016CFF801EB5BF74F20813181A801B4
:103DB000420F531FDA01A259BF4F8C9111966C919B
:103DC0002E5F3F4F318320830E94072FA7C3D90165
:103DD0008D919C91019709F0FBCEF801EB5BF74FB9
:103DE00020813181D801A20FB31FA259BF4F8C91FE
:103DF0002F5F3F4F318320830E943D2FF5C2F90191
:103E000080819181029709F0E3CEF801EB5BF74FD7
:103E100020813181D801A20FB31FA259BF4F8C91CD
:103E2000A9014F5F5F4F51834083D901A159BF4F13
:103E3000A00FB11F6D917C912D5F3F4F3183208387
:103E40000E94B42D6BC3C80184599F4F26E0DC014A
:103E50002C93F701208131812230310508F462C3AF
:103E6000ADB6BEB6F801EB5BF74F40815181D8018A
:103E7000A40FB51FA259BF4F6C914F5F5F4F518385
:103E80004083462F50E0ADB7BEB7A41BB50B0FB6AD
:103E9000F894BEBF0FBEADBF11966D012230310543
:103EA00011F4613031F04D5F5F4F2417350709F091
:103EB0007BC07C2D3601262D271B261788F42081F8
:103EC0003181A801420F531F42595F4FDA014C91D3
:103ED0002F5F3F4F31832083D3014D933D01EBCFC3
:103EE000D7012D913C9122303105B1F020813181F3
:103EF000D901A259BF4FA00FB11FED90FC902E5FCA
:103F00003F4F31832083B9EEEB16B3E0FB0638F068
:103F100029E0FC01208348C0EE24E394F12CDC016D
:103F20001C92F0927C0DE0927B0DC80182599F4F4C
:103F30009093800D80937F0D80E0688F0E94CC026B
:103F4000688D613029F4F60180810E945A0412C004
:103F5000D092790DC092780D6093760D1092750D08
:103F60008BE694E09093740D8093730DD6018C9141
:103F70000E9440040E94D00380917B0D90917C0DA3
:103F800020917D0D30917E0D28173907C9F70E94C9
:103F9000EF03EE0CFF1CF801E95BF74F8081918184
:103FA000E80EF91EF182E0820FB6F894BEBE0FBE95
:103FB000ADBEB8C2F90180819181039709F008CEA6
:103FC000D801AB5BB74F8D919C911197FC01E259E1
:103FD000FF4FE00FF11F60817181F801E80FF91FB9
:103FE000E059FF4F408103968D939C93D801ED914A
:103FF000FC910288F389E02DC80119958FC2F9015F
:1040000080819181029709F0E3CDD801AB5BB74F76
:104010008D919C911197FC01E259FF4FE00FF11F28
:104020006081718102968D939C93D801ED91FC91F2
:104030000088F189E02DC8011995D6C1F901808168
:104040009181029709F0C4CDF801EB5BF74F8081B5
:1040500091819801280F391FD901A259BF4F6C9146
:104060001196EC90029691838083CE0101960E9476
:10407000C709CE0101960E94B509F12CBE01615F0E
:104080007F4FCE0101960E94EA09F394EF14B0F736
:10409000980124593F4F7901882309F422C248E04E
:1040A00050E0BE01615F7F4FC8010E94DB1A16C25B
:1040B000D9018D919C910B9709F08ACDD801AB5B0A
:1040C000B74F2D913C911197A801420F531FFA0150
:1040D000E259FF4F60816901EFEFCE1ADE0A1196B7
:1040E000DC92CE923E01FFE06F0E711C80E090E00A
:1040F000B62CA72CC00ED11E7601E80EF91E7EE666
:10410000E70EF11CF701F080F301F1923F010196F7
:104110008830910589F7FA01E958FF4FF080319610
:10412000E080255F3F4F2D933C93CE0101960E9486
:10413000C709CE0101960E9492086B2D7A2DCE01FF
:1041400001960E948D0940E06F2DCE0101960E94DC
:104150002F09F12CFE1409F4E1C1CE0101960E9451
:1041600071098F8B41E050E0BE01695E7F4FC8014D
:104170000E94DB1AF394EECFD9018D919C910B979D
:1041800009F026CDD801AB5BB74F2D913C9111972B
:10419000A801420F531FFA01E259FF4F60816901E4
:1041A000EFEFCE1ADE0A1196DC92CE923E01FFE0CE
:1041B0006F0E711C80E090E0B62CA72CC00ED11EB3
:1041C0007601E80EF91E7EE6E70EF11CF701F0809D
:1041D000F301F1923F0101968830910589F7FA01C8
:1041E000E958FF4FF08031964081255F3F4F2D9376
:1041F0003C93CE010196498F0E94C709CE010196DA
:104200000E9492086B2D7A2DCE0101960E948D0995
:10421000498D6F2DCE0101960E942F097FC1D901D2
:104220008D919C91029709F0D3CCF801EB5BF74F8D
:10423000808191819801280F391FD901A259BF4F60
:104240006C911196EC900296918380834E2D81EFB4
:104250009DE00E940508F12C81EF9DE00E94570728
:10426000892B79F081EF9DE00E945F07898341E00F
:1042700050E0BE016F5F7F4FC8010E94DB1AF394CC
:10428000EBCFF801E459FF4FFE1409F44AC181E075
:104290002AC1F90180819181029708F499CC6801C3
:1042A000FBEBCF1AF7EFDF0AD6018D919C911197A6
:1042B000F801E80FF91FE259FF4F608101968D93D5
:1042C0009C9381EF9DE00E940B08B12C2B2D30E0D8
:1042D000F7018081918101972817390798F4F60139
:1042E00080819181F801E80FF91FE259FF4F608149
:1042F0000196D6018D939C9381EF9DE00E94AF07BC
:10430000B394E4CF81EF9DE00E942A0807C1F80131
:10431000EB5BF74F80819181D801A80FB91FA2599B
:10432000BF4F2C910196918380838CB5211102C0DF
:10433000806201C08F7D8CBDF1C0F90180819181C7
:10434000019709F045CCF801EB5BF74F8081918133
:10435000D801A80FB91FA259BF4F2C910196918384
:1043600080839CB5822F83709C7F892B8CBD8DB5FB
:1043700022FB222720F98E7F822B8DBD18C0D90108
:104380008D919C91019709F023CCF801EB5BF74FDD
:1043900080819181D801A80FB91FA259BF4F2C91DC
:1043A0000196918380838CB5837F282B2CBDE95D9A
:1043B000F740B7C0F90180819181019709F008CCDD
:1043C000F801EB5BF74F80819181D801A80FB91FED
:1043D000A259BF4F2C910196918380832EBD00007E
:1043E0000DB407FEFDCF8EB5898341E050E0BE01DC
:1043F0006F5F7F4F85C0D9018D919C91892B09F00A
:10440000E7CBF801EA59FF4F40815181B8016E5F57
:104410007F4F76C0F90180819181892B09F0D8CB3B
:1044200080916D0D90916E0DA0916F0DB091700DFA
:1044300089839A83AB83BC8344E050E0D8CFD90111
:104440008D919C91049709F0C3CBD801AB5BB74F1A
:104450002D913C911197F901E259FF4FE00FF11FA7
:1044600060817181828193812C5F3F4F2D933C93BA
:104470000E94E10253C0F90180819181892B09F0EA
:10448000A7CB0E94B3029A83898342E050E0AFCF6A
:10449000D9018D919C91029709F09ACBD801AB5B21
:1044A000B74F2D913C911197F901E259FF4FE00F61
:1044B000F11F808191812E5F3F4F2D933C939C0192
:1044C00022503109F801E459FF4F7F0126303105B0
:1044D00040F40E94AA0280E00E947303D7011C925C
:1044E00021C085E0F70180831DC0D9018D919C9189
:1044F000892B09F06DCB44E050E0B80168597F4F3B
:10450000C8010E94DB1A0AC0F90180819181892BC0
:1045100009F05ECB61E0C8010E94041CF801E45977
:10452000FF4F10827801FCE6EF0EF11CD7016C9171
:10453000C8010E94541DF70180810FB6F8949EBEF9
:104540000FBE8DBE69960FB6F894DEBF0FBECDBF0D
:10455000DF91CF911F910F91FF90EF90DF90CF905F
:10456000BF90AF909F908F907F906F900895EF9243
:10457000FF920F931F93CF93DF931F921F92CDB79C
:10458000DEB7122F81EF9DE049835A830E940B080A
:104590004981042FE42E5A81F52E8E2D801B811720
:1045A00040F4F70161917F0181EF9DE00E94AF0728
:1045B000F4CF81EF9DE00F900F90DF91CF911F918D
:1045C0000F91FF90EF900C942A08CF93DF93EC01AA
:1045D0008EE89EE00E94662F181619064CF48EE8AD
:1045E0009EE00E947F2F682FCE010E942E1BF0CFED
:1045F000DF91CF91089520917D0D30917E0D8091B6
:104600007B0D90917C0D2817390721F40E94EF0350
:1046100081E0089580E00895CF93DF93D82FC62FCF
:10462000811109C0662321F06130B1F560E001C05D
:1046300061E08DE01DC0813079F5613049F030F0E6
:10464000623061F0633041F560E01DC061E01BC085
:1046500060E08CE00E94072F61E019C060E08CE010
:104660000E94072F60E08BE00E94072F61E08AE044
:104670000E94072F8BE1D89FF0011124E75BF14FD7
:10468000C18380E00AC08CE00E94072F60E08BE0CD
:104690000E94072F60E0EBCF85E0DF91CF91089576
:1046A0009093820E8093810E6093490E4093640E26
:1046B00060E078EB88E097E40E94E10280E00E94ED
:1046C000B12D61E08DE00E94CE2E61E08CE00E9471
:1046D000CE2E61E08BE00E94CE2E61E08AE00E9447
:1046E000CE2E83E00E94AA0260914A0E80E00E94D2
:1046F0000C236091650E81E00E940C2320E032E0E3
:1047000030935F0E20935E0E80E090E0A0E0B4E472
:104710008093600E9093610EA093620EB093630E2F
:1047200041E04093590E30937A0E2093790E809396
:104730007B0E90937C0EA0937D0EB0937E0E4093E3
:10474000740E08950F931F93CF93DF93AB019BE1FA
:10475000899FE0011124C75BD14F9B01235331098D
:104760002A393340B0F09B81911110C09A819F5F2C
:104770009A836981662321F061500E940C2303C053
:1047800081E080937F0E83E08B8337C091509B83C1
:1047900034C08091800E882309F18D899E89DB01C8
:1047A000A81BB90B9D010E946C3909891A892B89B4
:1047B0003C89060F171F281F391F098B1A8B2B8B5B
:1047C0003C8B88859985AA85BB85840F951FA11D83
:1047D000B11D88879987AA87BB870FC08C819D816F
:1047E0008617970718F47D836C8307C08E819F819D
:1047F0006817790710F47F836E83DF91CF911F9143
:104800000F91089580E00C94A22381E00C94A223E0
:104810002F923F924F925F926F927F928F929F92D0
:10482000AF92BF92CF92DF92EF92FF920F931F93BE
:10483000CF93DF93CDB7DEB764970FB6F894DEBFA2
:104840000FBECDBF29013A01E986FA860B871C8786
:104850001601BA8AA98A0E946E3720E030E04AE742
:1048600054E40E949A359B01AC010E941F356B01F4
:104870007C0120E030E0A9010E94253720E030E0F3
:1048800040E05FE387FD05C0C701B6010E941F3508
:1048900004C0C701B6010E941E350E9402360E9464
:1048A000353620E030E040E05FE30E946E376D83F4
:1048B0007E838F839887A30192016D817E818F8192
:1048C00098850E949A3529853A854B855C850E949A
:1048D0006E370E9483350E9407368B010230110526
:1048E00008F42DC3B80180E090E00E9433362D819A
:1048F0003E814F8158850E949A35A30192010E9402
:104900006E3769837A838B839C83D1016D937D930A
:104910008D939C93139729853A854B855C850E94DE
:10492000253718160CF408C3A301920169817A8116
:104930008B819C810E949A356B017C019B01AC01AB
:1049400060E070E080E090E40E949A354B015C01E9
:1049500020E030E0A9010E94253720E030E040E06F
:104960005FE387FD05C0C501B4010E941F3504C087
:10497000C501B4010E941E350E9402360E943536E0
:10498000A70196010E946E379B01AC0160E070E0C8
:1049900080E090E40E941E3520E030E0A9010E94F2
:1049A000253720E030E0A901181664F5C501B401EF
:1049B0000E94253720E030E040E05FE387FD05C03E
:1049C000C501B4010E941F3504C0C501B4010E9495
:1049D0001E350E9402360E943536A70196010E94BC
:1049E0006E379B01AC0160E070E080E090E40E94D3
:1049F0001E352DEC3CEC4CEC5DE30E94963587FDBA
:104A00009BC22CC0C501B4010E94253720E030E0D4
:104A100040E05FE387FD05C0C501B4010E941F357A
:104A200004C0C501B4010E941E350E9402360E94D6
:104A30003536A70196010E946E379B01AC0160E0FC
:104A400070E080E090E40E941E352DEC3CEC4CECD4
:104A50005DEB0E94253718160CF46EC2A30192017B
:104A6000C301B2010E941F359B01AC0169817A81AB
:104A70008B819C810E94963587FF61C129813A8193
:104A80004B815C81C301B2010E949A356D877E879C
:104A90008F87988B1C8A1B8AEB89FC89BF0180E079
:104AA00090E00E9433364B015C019B01AC016D85A7
:104AB0007E858F8598890E941E3520E030E040E099
:104AC0005FE30E94963518163CF42B893C892F5FD2
:104AD0003F4F3C8B2B8BE0CF29813A814B815C810E
:104AE000C501B4010E946E379B01AC01C301B20144
:104AF0000E941E354B015C0120E030E0A9010E94BC
:104B00002537181624F0B7FAB094B7F8B094A50179
:104B1000940169817A818B819C810E949A35698395
:104B20007A838B839C839B01AC0160E070E080E022
:104B300090E40E949A354B015C0120E030E0A9012D
:104B40000E94253720E030E040E05FE387FD05C0AC
:104B5000C501B4010E941F3504C0C501B4010E9403
:104B60001E350E9402360E94353629813A814B81DA
:104B70005C810E946E379B01AC0160E070E080E0D8
:104B800090E40E941E3520E030E0A9010E94253704
:104B900020E030E0A901181674F5C501B4010E94A7
:104BA000253720E030E040E05FE387FD05C0C50128
:104BB000B4010E941F3504C0C501B4010E941E3516
:104BC0000E9402360E94353629813A814B815C81F0
:104BD0000E946E379B01AC0160E070E080E090E4E1
:104BE0000E941E352DEC3CEC4CEC5DE30E949635AA
:104BF00087FF2FC0A1C1C501B4010E94253720E065
:104C000030E040E05FE387FD05C0C501B4010E94CC
:104C10001F3504C0C501B4010E941E350E94023632
:104C20000E94353629813A814B815C810E946E3722
:104C30009B01AC0160E070E080E090E40E941E35D2
:104C40002DEC3CEC4CEC5DEB0E94253718160CF477
:104C500073C120E030E0A901C701B6010E942537E9
:104C600020E030E040E05FE387FD05C0C701B6010A
:104C70000E941F3504C0C701B6010E941E350E9464
:104C800002360E9435369B01AC01C701B6010E9475
:104C90001E3520E030E0A9010E94253720E030E0F9
:104CA000A901181634F5C701B6010E94253720E086
:104CB00030E040E05FE387FD05C0C701B6010E9418
:104CC0001F3504C0C701B6010E941E350E9402367E
:104CD0000E9435369B01AC01C701B6010E941E350A
:104CE00027E137EB41ED58E30E94963587FF27C057
:104CF00023C1C701B6010E94253720E030E040E023
:104D00005FE387FD05C0C701B6010E941F3504C0DF
:104D1000C701B6010E941E350E9402360E94353638
:104D20009B01AC01C701B6010E941E3527E137EB9C
:104D300041ED58EB0E94253718160CF4FDC020E019
:104D400030E040E251E4C701B6010E94963587FF8A
:104D500076C020E030E0A901C701B6010E942537E6
:104D600020E030E040E05FE387FD05C0C701B60109
:104D70000E941F3504C0C701B6010E941E350E9463
:104D800002360E9435369B01AC01C701B6010E9474
:104D90001E3520E030E0A9010E94253720E030E0F8
:104DA000A901181634F5C701B6010E94253720E085
:104DB00030E040E05FE387FD05C0C701B6010E9417
:104DC0001F3504C0C701B6010E941E350E9402367D
:104DD0000E9435369B01AC01C701B6010E941E3509
:104DE00027E137EB41ED58E30E94963587FF27C056
:104DF000A3C0C701B6010E94253720E030E040E0A3
:104E00005FE387FD05C0C701B6010E941F3504C0DE
:104E1000C701B6010E941E350E9402360E94353637
:104E20009B01AC01C701B6010E941E3527E137EB9B
:104E300041ED58EB0E94253718160CF47DC02D81EA
:104E40003E814F815885C701B6010E946E376B01C4
:104E50007C0120E030E0A9010E94253720E030E00D
:104E600040E05FE387FD05C0C701B6010E941F3522
:104E700004C0C701B6010E941E350E9402360E947E
:104E800035369B01AC01C701B6010E941E3520E0FA
:104E900030E0A9010E94253720E030E0A901181672
:104EA00034F5C701B6010E94253720E030E040E02C
:104EB0005FE387FD05C0C701B6010E941F3504C02E
:104EC000C701B6010E941E350E9402360E94353687
:104ED0009B01AC01C701B6010E941E3527E137EBEB
:104EE00041ED58E30E94963587FF26C033C0C701C5
:104EF000B6010E94253720E030E040E05FE387FD07
:104F000005C0C701B6010E941F3504C0C701B60124
:104F10000E941E350E9402360E9435369B01AC016C
:104F2000C701B6010E941E3527E137EB41ED58EB72
:104F30000E942537181674F001501109CFCC20E0DB
:104F400030E040E05FE36D817E818F8198850E9433
:104F50001F35ADCCA989BA890D931C9364960FB601
:104F6000F894DEBF0FBECDBFDF91CF911F910F919F
:104F7000FF90EF90DF90CF90BF90AF909F908F9079
:104F80007F906F905F904F903F902F900895109278
:104F90004A0E1092650E08952F923F924F925F92A3
:104FA0006F927F928F929F92AF92BF92CF92DF9239
:104FB000EF92FF920F931F93CF93DF93CDB7DEB79E
:104FC000C85CD1090FB6F894DEBF0FBECDBFC15487
:104FD000DF4F59834883CF5BD040CF53DF4F0883E7
:104FE00019832A833B83C15CD04026013701CD540D
:104FF000DF4FA882C35BD0408092800EAA2031F19F
:10500000A3E8AA2EAEE0BA2EAE0149555F4F6A0161
:10501000E12C10E4F12E0CE916E4A30192010E94A8
:105020000824C955DF4F688179818A819B81C75ADD
:10503000D0409B01AC010E941F35C955DF4F6883EA
:1050400079838A839B83C75AD04017C020E030E021
:1050500040E05FE30E946E37E3E8AE2EEEE0BE2E46
:10506000DE01A955BF4F6D01E12C10E4F12E0CE1DA
:1050700017E4A30192010E9408248091830E90916D
:10508000840E880F991F9093840E8093830EC955C8
:10509000DF4F688179818A819B81C75AD0400E9405
:1050A000E102B0914A0EC354DF4FB883CD5BD040CC
:1050B00081E0C355DF4F8883CD5AD04061E080E066
:1050C0000E940C23E091650EC254DF4FE883CE5B53
:1050D000D04083E0C255DF4F8883CE5AD04063E092
:1050E00081E00E940C238091490EFE01E555FF4F9F
:1050F00080839091640E91832091830E3091840E71
:10510000CD54DF4F4881C35BD040442311F130932D
:105110007C0D20937B0DF093790DE093780D92E058
:105120009093760D1092750D2BE634E03093740D4C
:105130002093730D0E94400483E894E09093740DD3
:105140008093730D82EA93E29093720D8093710DB8
:1051500006C03695279530937C0D20937B0DE0900B
:10516000810EF090820EF701E859FF4F20E030ECFD
:105170004FE754E460817181828193810E949A3566
:10518000C754DF4F688379838A839B83C95BD04090
:105190001E015FE9250E311C3E0183E1680E711C82
:1051A000CE01805B9F4F2C01AAE04A0E511CF101F9
:1051B0003896C155DF4FF983E883CF5AD040CC549D
:1051C000DF4F8883C45BD040C854DF4F9883C85BEF
:1051D000D04087010B59174F9701245A374FCF54AE
:1051E000DF4F39832883C15BD0408091490EF8019D
:1051F000CC54DF4FA881C45BD040C854DF4FB88186
:10520000C85BD0409FE401900D929A95E1F7882306
:1052100041F0813061F4F20120893189428953895A
:1052200009C0D2012D913D914D915C9103C020E0C8
:1052300030E0A901F801DE0111969FE401900D9282
:105240009A95E1F7882341F0813061F4F301C08C35
:10525000D18CE28CF38C09C0D301CD90DD90ED9020
:10526000FC9003C0C12CD12C760160E876E988E17E
:105270009BE40E949A3520E030E040E85FE30E9422
:105280001F354B015C0120E836E948E15BE4C701CA
:10529000B6010E946E379B01AC010E941F352BEDB9
:1052A0003FE049E450E40E946E37CF54DF4FA881BD
:1052B000B981C15BD0402D913D914D915C910E948F
:1052C0006E376B017C01A5019401C501B4010E94F8
:1052D0006E374B015C01A7019601C701B6010E9420
:1052E0006E379B01AC01C501B4010E941F350E94BD
:1052F00021389B01AC01C754DF4F688179818A81D5
:105300009B81C95BD0400E946E37F101619371931C
:10531000819391931F01F4E06F0E711C24E0420E03
:10532000511CC155DF4F48815981CF5AD0402416B6
:10533000350609F05ACF10927F0ECF54DF4F1982F5
:105340001882C15BD040CF54DF4F88819981C15B07
:10535000D040C154DF4FA881B981CF5BD0408A17BC
:105360009B0709F4D1C28091800E10924B0E1092CF
:105370004C0E81110BC0EFEFF3E0F093500EE09371
:105380004F0E10924E0E10924D0E10C01092510EF4
:105390001092520E1092530E1092540E10925A0EFA
:1053A00010925B0E10925C0E10925D0E1092660EC3
:1053B0001092670E882389F010926C0E10926D0E79
:1053C00010926E0E10926F0E1092750E1092760E55
:1053D0001092770E1092780E0AC08FEF93E09093A0
:1053E0006B0E80936A0E1092690E1092680ECD5467
:1053F000DF4F9881C35BD0409923E1F10E94D00335
:105400000E94FB228823E1F30E94F92CCC54DF4F49
:10541000688379838A839B83C45BD040A091800E8C
:10542000C854DF4FA883C85BD0408091830E909111
:10543000840EFE01E355FF4FC155DF4FF983E8832A
:10544000CF5AD04009E41EE09E012F5F3F4F290153
:10545000AE01405B5F4F1A01612C712C9C0140E052
:1054600050E0CB53DF4F288339834A835B83C55C8D
:10547000D0409AC08091490E0E945A0443E854E0FB
:105480005093740D4093730D82E094E29093720DEB
:105490008093710D0E94D0030E94FB228823E1F3C8
:1054A0008091640E0E945A04A3E8B4E0B093740D96
:1054B000A093730DE5E0F4E2F093720DE093710DAB
:1054C0000E94D0030E94FB228823E1F39DCFCB539F
:1054D000DF4F688179818A819B81C55CD0400E94C1
:1054E00033366B017C01D80151966D917D918D9180
:1054F0009C9154970E9433369B01AC010E941F354A
:10550000A70196010E949A350E942138F20160831A
:1055100071838283938320E030E040E852E40E946C
:105520006E379B01AC010E941F3523EF34E045EB41
:105530005FE30E946E370E940736D1016D937C9322
:10554000F301E75BF14F82818823B9F1F301E75B57
:10555000F14F8281882309F4B3C08195C155DF4F93
:10556000A881B981CF5AD0408C93B1E0B08BC1559E
:10557000DF4FE881F981CF5AD0403196C155DF4FD6
:10558000F983E883CF5AD040FBE16F0E711C055EB2
:105590001F4F22E0220E311C34E0430E511C46E323
:1055A0006416710409F496C0C854DF4FF881C85BD3
:1055B000D040FF2309F45AC08ACF80898111C6CF19
:1055C000F80180849184A284B3846485758586857E
:1055D0009785680D791D8A1D9B1D0E9433362AE030
:1055E00037ED43E25CE30E946E37A70196010E940B
:1055F0009A356B017C0124EA30E74DE75FE3D8017F
:1056000057966D917D918D919C915A970E946E371E
:105610009B01AC01C701B6010E941F356B017C01E3
:10562000F801678B708F818F928F20E030E0A901A5
:105630000E94253720E030E040E05FE387FD05C0B1
:10564000C701B6010E941F3504C0C701B6010E9400
:105650001E350E940236D80156967C936E9355975C
:10566000F80184869586A686B78670CFD8011496F1
:105670006D917C91159716968D919C911797681B4B
:10568000790B96E0660F771F9A95E1F7F101718328
:10569000608380E090E00E94333623EF34E045EBF6
:1056A0005FE30E949A3520E030E040E05CE30E9436
:1056B0006E37D2016D937D938D939C93139746CF54
:1056C0008181C155DF4FA881B981CF5AD0408C93D9
:1056D000108A4DCF0091810E1091820EF801EC5985
:1056E000F74F8081882309F470C080914B0E81119F
:1056F0006CC03C97C080D180E280F38020E030E035
:10570000A901C701B6010E94253718160CF05DC02B
:10571000C355DF4F8881CD5AD040EFE9F0E0EC0F60
:10572000FD1F24E08202E00DF11D11242081318152
:105730004281538169817A818B819C810E946E377D
:105740004B015C018091660E8111B5C02D813E81B7
:105750004F815885C754DF4F688179818A819B8149
:10576000C95BD0400E946E379B01AC01C701B601F6
:105770000E941F352B013C019B01AC01C501B40106
:105780000E941E356B017C0120E030E0A9010E94DF
:105790002537181624F0F7FAF094F7F8F09420E083
:1057A00030E040E05FE3F801ED55F74F6081718133
:1057B000828193810E946E379B01AC01C701B601C3
:1057C0000E94253718160CF47AC00AE41EE0CE01B8
:1057D000805B9F4F6C01E12CF12CD6018D919C9147
:1057E000893C9C4030F4F80160816F5F8E2D0E94EF
:1057F0000C2342E050E0B6018091810E9091820E20
:105800000E94DB1A6DEA70E06C0F7D1F6E0D7F1D2C
:1058100041E050E08091810E9091820E0E94DB1A4F
:10582000FFEFEF1AFF0A22E0C20ED11C055E1F4FE8
:1058300032E0E316F10489F68EE89EE00E94662FBE
:10584000181619060CF460C00E94F92CCC54DF4FD6
:10585000288139814A815B81C45BD040621B730B14
:10586000840B950B0E9433366B017C0120E030E005
:105870004AE754E4CF53DF4F688179818A819B8165
:10588000C15CD0400E946E379B01AC01C701B601DC
:105890000E94963587FDD8CFCF54DF4F488159817C
:1058A000C15BD0404F5F5F4FCF54DF4F5983488378
:1058B000C15BD04048CD20E030E0A90157CFF801CE
:1058C000E05AF74F2081318142815381C501B401F3
:1058D0000E946E37A30192010E949A356B017C01F0
:1058E00020E030E040E85FE30E94963587FF06C085
:1058F000C12CD12C80E8E82E8FE3F82EB701A60149
:10590000C8010E940E0E61CFC354DF4F6881CD5B8A
:10591000D04080E00E940C23C254DF4F6881CE5BF0
:10592000D04081E00E940C2380E0C853DF4F0FB6C7
:10593000F894DEBF0FBECDBFDF91CF911F910F91C5
:10594000FF90EF90DF90CF90BF90AF909F908F909F
:105950007F906F905F904F903F902F9008951F928F
:105960000F920FB60F9211242F933F938F939F9313
:10597000AF93BF938091860E9091870EA091880E71
:10598000B091890E3091850E23E0230F2D3720F43E
:105990000196A11DB11D05C026E8230F0296A11D89
:1059A000B11D2093850E8093860E9093870EA09351
:1059B000880EB093890E80918A0E90918B0EA091E3
:1059C0008C0EB0918D0E0196A11DB11D80938A0E93
:1059D00090938B0EA0938C0EB0938D0EBF91AF91D0
:1059E0009F918F913F912F910F900FBE0F901F901D
:1059F00018953FB7F89480918A0E90918B0EA091E4
:105A00008C0EB0918D0E26B5A89B05C02F3F19F0C6
:105A10000196A11DB11D3FBF6627782F892F9A2FB0
:105A2000620F711D811D911D42E0660F771F881F57
:105A3000991F4A95D1F70895CF92DF92EF92FF9286
:105A4000CF93DF936B017C010E94F92CEB01C11411
:105A5000D104E104F10489F00E941D350E94F92C63
:105A60006C1B7D0B683E734090F381E0C81AD1082F
:105A7000E108F108C851DC4FEACFDF91CF91FF90E8
:105A8000EF90DF90CF9008958230910538F0880F25
:105A9000991F880F991F05970197F1F7089578943A
:105AA00084B5826084BD84B5816084BD85B5826023
:105AB00085BD85B5816085BDEEE6F0E080818160C1
:105AC0008083E1E8F0E010828081826080838081C1
:105AD00081608083E0E8F0E0808181608083E1EB99
