:100000000C9441010C9469010C9469010C946901F0
:100010000C9469010C9469010C9469010C946901B8
:100020000C9469010C9469010C9469010C946901A8
:100030000C9469010C9469010C9469010C94690198
:100040000C94960D0C9469010C94F4100C942611E8
:100050000C9469010C9469010C9469010C94690178
:100060000C94E1010C946901EA0405052905440595
:100070007A055F0595058307830783078307830751
:100080008307830783078307D705EF05C80517068E
:10009000A90660063807EC068307830783078307F2
:1000A000AF05687474703A2F2F6D6963726F666C58
:1000B0007569646963732E75746F726F6E746F2ED9
:1000C00063612F64726F70626F7400302E31003183
:1000D0002E3000457874656E73696F6E204D6F64C5
:1000E000756C652050726F746F20426F617264008E
:1000F000576865656C6572204D6963726F666C75D3
:100100006964696373204C616200302E3100457868
:1001100074656E73696F6E206D6F64756C652070A9
:10012000726F746F636F6C006932635F61646472D5
:100130006573733D0073657269616C5F6E756D62A6
:1001400065723D004572726F7220007365745F7056
:10015000726F6772616D6D696E675F6D6F64652840
:10016000007365745F73657269616C5F6E756D6253
:10017000657228007365745F6932635F61646472DD
:100180006573732800636F6E66696728290072655E
:100190007365745F636F6E66696728290070726F9C
:1001A0006772616D6D696E675F6D6F64653D007349
:1001B0007570706F7274735F4953503D66616C73F4
:1001C0006500737570706F7274735F4953503D743E
:1001D0007275650073657269616C5F6E756D6265DD
:1001E000723D0070726F6772616D6D696E675F6DF1
:1001F0006F64653D006932635F6164647265737347
:100200003D00626173655F636F6E6669675F766507
:100210007273696F6E3D004669726D776172652019
:10022000760000000008000201000003040700003F
:1002300000000000000001020408102040800102BC
:10024000040810200102040810200404040404041B
:100250000404020202020202030303030303000078
:1002600000002300260029000000000025002800CF
:100270002B0000000000240027002A008301FB035C
:10028000561111241FBECFEFD8E0DEBFCDBF11E065
:10029000A0E0B1E0E2EBFEE202C005900D92AC39C5
:1002A000B107D9F723E0ACE9B1E001C01D92AC3F42
:1002B000B207E1F712E0C2E8D2E004C02297FE01E3
:1002C0000E942E14CC37D107C9F70E9474010C94F8
:1002D00057170C94000008958CE991E00C940104E8
:1002E0008CE991E00C94420D0E94370E0E946B0144
:1002F0000E946C01CCEDDFE00E9470012097E1F3D9
:100300000E94DC0FF9CF88E691E090939D018093E5
:100310009C011092BD01089510922B0281E0809300
:1003200029021092280261E082E10E94500F61E0F0
:1003300083E10E94500FE9EBF0E080818E7F8083A3
:1003400080818D7F808388E48093B80085E48093EA
:10035000BC000895880F8093BA000895613298F424
:1003600020912B02243089F46093E001FC0182EE9D
:1003700091E0DC012A2F281B261718F421912D93D8
:10038000F9CF80E0089581E0089582E00895909388
:1003900025028093240208959093270280932602D9
:1003A000089585ED8093BC008091BC0084FDFCCF56
:1003B00010922B02089585EC8093BC0010922B02C2
:1003C00008951F920F920FB60F9211242F933F930F
:1003D0004F935F936F937F938F939F93AF93BF934D
:1003E000EF93FF938091B900887F803609F49CC019
:1003F00068F5883209F45BC090F4803109F454C088
:1004000038F4882309F4F5C0883009F44DC0F5C0EC
:10041000883109F44CC0803209F45DC0EEC08034EC
:1004200009F468C048F4803309F455C0883309F0F2
:10043000E4C08093BE01A8C0803509F44FC0883560
:1004400009F45DC0883409F0D8C0D5C0883909F4F2
:10045000C6C0A8F4883709F467C038F4883609F4B0
:1004600063C0803709F460C0C8C0883809F4B7C0D9
:10047000803909F45FC0803809F0BFC05BC0803BA1
:1004800009F485C038F4803A09F466C0883A09F462
:100490007EC0B3C0803C09F4A6C0883C09F4A3C068
:1004A000883B09F489C0A9C080912A0210C09091AC
:1004B000030280910202981770F5E091030281E037
:1004C0008E0F80930302F0E0EC5FFD4F80818093FC
:1004D000BB0085EC85C08093BE018DC0E091030216
:1004E00081E08E0F809303028091BB00F0E0EC5F0F
:1004F000FD4F808390910302809102026DC0E091D4
:10050000030281E08E0F809303028091BB00F0E034
:10051000EC5FFD4F80838091290281116CC081E0E6
:100520008093280284EA60C083E080932B021092BB
:10053000BF01CFCF8091BF01803208F050C0E09161
:10054000BF0181E08E0F8093BF018091BB00F0E07E
:10055000E054FE4F8083BDCF8091BF01803230F4E4
:10056000E091BF01F0E0E054FE4F10820E94D10103
:100570006091BF0170E0E0912402F091250280ECCF
:1005800091E009951092BF010E94DB0136C084E022
:1005900080932B021092E1011092E001E09126027B
:1005A000F091270209958091E001811105C081E059
:1005B0008093E0011092E201E091E10181E08E0F71
:1005C0008093E101F0E0EE51FE4F80818093BB000B
:1005D0009091E1018091E001981708F47ACF85E8C5
:1005E0008093BC000AC085EC8093BC0010922B0263
:1005F00004C01092BE010E94D101FF91EF91BF9102
:10060000AF919F918F917F916F915F914F913F91AA
:100610002F910F900FBE0F901F90189580915F0241
:1006200090E020916002821B910908952091600260
:1006300080915F02281750F4E22FF0E0EF59FD4F50
:10064000808190E02F5F2093600208958FEF9FEFED
:100650000895E091600280915F02E81730F4F0E0C5
:10066000EF59FD4F808190E008958FEF9FEF08953F
:100670000895E0913802F09139023097E1F030911D
:10068000600220915F023217B0F040E0242F30E08A
:100690002617370754F4DC01A20FB31F5C91D90170
:1006A000AF59BD4F5C934F5FF1CF109260026093E2
:1006B0005F02CB0109940895E0913A02F0913B0268
:1006C000309729F010923E0210923D02099408954D
:1006D000CF92DF92EF92FF920F931F93CF93DF930E
:1006E0007C01CB018A0120913C02222389F0EB019D
:1006F0006B01C40ED51ECC15DD0569F06991D701DB
:10070000ED91FC910190F081E02DC7010995F3CFA7
:10071000642F0E94AE01C801DF91CF911F910F910C
:10072000FF90EF90DF90CF900895CF93DF931F92CB
:10073000CDB7DEB7698320913C022223D1F020910E
:100740003D02203240F021E030E0FC01338322837F
:1007500080E090E015C080913E02E82FF0E0E15C7F
:10076000FD4F998190838F5F80933E0280933D027D
:1007700005C061E0CE0101960E94AE0181E090E0EB
:100780000F90DF91CF910895FC011382128248EE01
:1007900053E060E070E044835583668377838BE0A9
:1007A00091E09183808308951092600210925F021D
:1007B00010923E0210923D020C948C01CF93DF9375
:1007C000EC01862F0E94AA018CE593E00E94CC01E7
:1007D00089E393E00E94C701CE01DF91CF910C9491
:1007E000D4037093390260933802089570933B02EA
:1007F00060933A0208958CE292E00C94C40380E086
:100800000895CF93DF93EC01E881F9810484F585A5
:10081000E02D0995882341F061E087E00E94500FA8
:1008200061E087E00E94170F26E040E052EC61E0B3
:1008300070E08BE593E00E949210E881F9810088D6
:10084000F189E02D60E0CE010995E881F981068407
:10085000F785E02DCE0109956DE07DE08CE292E018
:100860000E94F60362EE7CE08CE292E0DF91CF9191
:100870000C94F1034EE150E060E070E002960C94BD
:10088000F816CB010C94F016CB01642F0C940217D0
:1008900020914E0330914F03F901EB51FD4F8081C0
:1008A0002F5F3F4F30934F0320934E0308952091C5
:1008B0004E0330914F03F901EB51FD4F808191813F
:1008C0002E5F3F4F30934F0320934E030895CF93F5
:1008D00020914C0330914D03FB0180E090E0B90181
:1008E0006B517D4F8417950739F0C191DB01A80F3B
:1008F000B91FCC930196F6CF820F931F90934D03AF
:1009000080934C03CF9108950F931F93CF93DF9360
:10091000CDB7DEB72C970FB6F894DEBF0FBECDBFB4
:100920008C01DC0119966C934AE0CE0107960E9477
:100930002A136DE971E081E892E00E94411661E8B6
:1009400072E0CE0101960E94DC12BE01695F7F4F0A
:10095000CE0101960E94DC13BC018BE593E00E945E
:10096000E911CE0101960E946E12CE0107960E94F7
:100970006E12D801ED91FC910288F389E02DC80137
:1009800009952C960FB6F894DEBF0FBECDBFDF9150
:10099000CF911F910F910895DF92EF92FF920F93E5
:1009A0001F93CF93DF93CDB7DEB766970FB6F8945A
:1009B000DEBF0FBECDBF8C014091500350E0FA0165
:1009C000E058F109ED31F10508F09DC2EC5CFF4FF4
:1009D0000C942C1480914A0390914B03892B09F0BD
:1009E000DDC06EE071E085EE92E00E944116E5EE1A
:1009F000F2E0DF010D900020E9F7AD01415051090F
:100A0000455E52406EE071E01AC080914A039091B9
:100A10004B03892B09F0C2C06AE071E085EE92E0D9
:100A20000E944116E5EEF2E0DF010D900020E9F7AB
:100A3000AD0141505109455E52406AE071E0CF017D
:100A40004D8B5E8B0E9441164D895E8965EE72E08A
:100A500055C280914A0390914B03892B09F09EC0A7
:100A600063ED70E085EE92E00E944116E5EEF2E063
:100A7000DF010D900020E9F7AD0141505109455EBD
:100A8000524063ED70E0DBCF80914A0390914B03BD
:100A9000892B09F083C060EF70E085EE92E00E9440
:100AA0004116E5EEF2E0DF010D900020E9F7AD011F
:100AB00041505109455E524060EF70E0C0CF8091D7
:100AC0004A0390914B03892B09F068C06BEC70E0EE
:100AD00085EE92E00E944116E5EEF2E0DF010D9016
:100AE0000020E9F7AD0141505109455E52406BECE1
:100AF00070E0A5CF80914A0390914B03892B09F0B8
:100B00004DC06FEC70E085EE92E00E944116E5EE7C
:100B1000F2E0DF010D900020E9F7AD0141505109ED
:100B2000455E52406FEC70E08ACF80914A0390910D
:100B30004B03892B99F562EA70E085EE92E00E9402
:100B40004116E5EEF2E0DF010D900020E9F7AD017E
:100B500041505109455E524062EA70E070CFDC01BD
:100B6000ED91FC910484F585E02D09958823D9F059
:100B700080914A0390914B03019781F40E944804AD
:100B800061E0811101C060E0C8010E948404B9C124
:100B900080914A0390914B030197B9F186E0D80107
:100BA00090968C93B0C181E0F80180A3ACC1809194
:100BB0004A0390914B03029789F70E945704D8018A
:100BC000ED91FC910480F581E02DBC01C8010995EF
:100BD000898341E050E0BE016F5F7F4F8FC18091FC
:100BE0004A0390914B030397C9F60E9457047C0176
:100BF0000E944804D801ED91FC910680F781E02D18
:100C0000482FB701C80109957CC1D80190961C9264
:100C10000E944804D801ED91FC9161E0811101C06E
:100C200060E00088F189E02DC80109956CC18091D0
:100C30004A0390914B03029709F0B0CF0E944804F9
:100C4000F82E0E944804E82E4AE0682FCE01019653
:100C50000E942A134AE06F2DCE010D960E942A139E
:100C600067E171E0CE0107960E94DC12BE01635F6E
:100C70007F4FCE0107960E94DC1360E271E00E9474
:100C8000EF13BE016F5F7F4F0E94DC136DE571E0D3
:100C90000E94EF13BC018BE593E00E94E911CE01A5
:100CA00007960E946E12CE010D960E946E12CE0122
:100CB00001960E946E126E2D8F2D0E94170F21C17A
:100CC00080914A0390914B03029709F067CF0E94ED
:100CD0004804F82E0E944804E82E4AE0682FCE010E
:100CE00001960E942A134AE06F2DCE010D960E94B4
:100CF0002A1363E271E0CE0107960E94DC12BE0166
:100D0000635F7F4FCE0107960E94DC1360E271E0C3
:100D10000E94EF13BE016F5F7F4F0E94DC136DE5F1
:100D200071E00E94EF13BC018BE593E00E94E91192
:100D3000CE0107960E946E12CE010D960E946E1291
:100D4000CE0101960E946E126E2D8F2D0E94500FC3
:100D50008BC080914A0390914B03019709F01ECFFD
:100D60000E944804F82E0E94860F8B8B4AE0682F61
:100D7000CE0101960E942A134AE06F2DCE010D96F6
:100D80000E942A1361E371E0CE0107960E94DC12F3
:100D9000BE01635F7F4FCE0107960E94DC136EE3B6
:100DA00071E00E94EF13BE016F5F7F4F0E94DC1362
:100DB000BC018BE593E00E94E911CE0107960E94E9
:100DC0006E12CE010D960E946E12CE0101960E9407
:100DD0006E1241E050E08FC080914A0390914B0326
:100DE000029709F0DBCE0E944804D82E0E945704D7
:100DF0007C014AE0BC01CE0101960E9457134AE0F3
:100E00006D2DCE010D960E942A1363E471E0CE0190
:100E100007960E94DC12BE01635F7F4FCE010796EA
:100E20000E94DC1360E271E00E94EF13BE016F5F6D
:100E30007F4F0E94DC136DE571E00E94EF13BC014F
:100E40008BE593E00E94E911CE0107960E946E1295
:100E5000CE010D960E946E12CE0101960E946E1276
:100E6000B7018D2D0E948F0ED80190961C924BC019
:100E700080914A0390914B03019709F08FCE0E9415
:100E80004804F82E0E94720E9C8B8B8B4AE0BC01AA
:100E9000CE0101960E9457134AE06F2DCE010D96A8
:100EA0000E942A1360E571E0CE0107960E94DC12D1
:100EB000BE01635F7F4FCE0107960E94DC136EE395
:100EC00071E00E94EF13BE016F5F7F4F0E94DC1341
:100ED000BC018BE593E00E94E911CE0107960E94C8
:100EE0006E12CE010D960E946E12CE0101960E94E6
:100EF0006E1242E050E0BE016D5E7F4FC8010E945D
:100F00006704F80110A266960FB6F894DEBF0FBE14
:100F1000CDBFDF91CF911F910F91FF90EF90DF90A8
:100F20000895FC01818581110CC061E083E10E947C
:100F3000170F60E083E10E94500F60E083E10C94A2
:100F4000170F60E087E00E94500F61E087E00C948B
:100F5000500F7F928F929F92AF92BF92CF92DF926B
:100F6000EF92FF920F931F93CF93DF93EC01162F15
:100F70004EE150E060E070E002960E94E0168A8147
:100F80009B81892BD1F48C819D81892BB1F48E8139
:100F90009F81892B91F44FEF5FEFBA014A875B87FE
:100FA0006C877D8781E090E09F838E83E881F98163
:100FB0000288F389E02DCE0109958A819B81892BD6
:100FC00001F58C819D81892BE1F48E819F810197B0
:100FD000C1F489E0FE013E96DF01982F1D929A959B
:100FE000E9F73996DF011D928A95E9F782E090E0F2
:100FF0009F838E83E881F9810288F389E02DCE01F9
:1010000009958A819B81892B51F48C819D81892B43
:1010100031F48E819F81029711F4112331F11B82EB
:101020001A821D821C8282E090E09F838E838AE078
:10103000888719864FEF5FEFBA014A875B876C8715
:101040007D8789E0FE013E96DF01982F1D929A95DB
:10105000E9F73996DF011D928A95E9F7E881F98170
:101060000288F389E02DCE010995C12CD12CE12C09
:10107000F12CF3E0EF16F104C1F18C2C00E010E04C
:101080005E01AE0CBF1CC8018C0D9D1D44970CF574
:10109000F501678970E0002E02C0759567950A9486
:1010A000E2F7F62FF1707F2ED5011E968C9190E01D
:1010B000002E02C0959587950A94E2F7682F61701B
:1010C000982C900E892D0E94170F672D892D0E9454
:1010D000500F0F5F1F4F08301105A9F6BFEFEB1A35
:1010E000FB0AE8E0CE0ED11CC4CFE881F98104846C
:1010F000F585E02DCE010995882319F0CE010E94D7
:10110000910768858CE292E0DF91CF911F910F915A
:10111000FF90EF90DF90CF90BF90AF909F908F9017
:101120007F900C94DE03CF93DF93EB016CE571E0CD
:1011300085EE92E00E946C16BE01892B41F085EE8F
:1011400092E00E945C1621E0892B41F126C085EED9
:1011500092E00E946C16009701F122E0853E920712
:10116000E1F4FC0101900020E9F732978081893297
:10117000A1F41082FE0101900020E9F73197EC1BE9
:10118000FD0B80914E0390914F038E0F9F1F909304
:101190004F0380934E0321E001C020E0822FDF91B6
:1011A000CF910895CF93DF93CDB7DEB72C970FB6CD
:1011B000F894DEBF0FBECDBF4AE0CE0107960E9475
:1011C0002A1364E471E081E892E00E94411661E82C
:1011D00072E0CE0101960E94DC12BE01695F7F4F72
:1011E000CE0101960E94DC13BC018BE593E00E94C6
:1011F000E911CE0101960E946E12CE0107960E945F
:101200006E122C960FB6F894DEBF0FBECDBFDF91E5
:10121000CF910895CF92DF92EF92FF920F931F9399
:10122000CF93DF937C01EB018A01C0904E03D090F5
:101230004F03C6018B519D4F998388836CE270E008
:101240000E945116F80191838083A881B98100978B
:1012500071F4FD0101900020E9F73197EA1BFB0BC7
:101260002E2FAE0FB11DF801B183A08304C09C01E5
:101270002A1B3B0B2F5F222341F0C20ED11CD092C0
:101280004F03C0924E0381E005C068E0C7010E9491
:10129000D20880E0DF91CF911F910F91FF90EF90E6
:1012A000DF90CF900895AF92BF92CF92DF92EF92EE
:1012B000FF920F931F93CF93DF9300D000D0CDB751
:1012C000DEB76B01EDB6FEB6AE014F5F5F4FBE01FC
:1012D0006D5F7F4F0E940A09882379F16B817C81C1
:1012E00009811A81061B170BC80101962DB73EB75D
:1012F000281B390B0FB6F8943EBF0FBE2DBF8DB71C
:101300009EB701965C01A8010E944816F501E00F06
:10131000F11F1082C5010E942316AA2797FDA095F0
:10132000BA2FF60180839183A283B3830FB6F8941A
:10133000FEBE0FBEEDBE81E001C080E00FB6F894A6
:10134000FEBE0FBEEDBE0F900F900F900F90DF917D
:10135000CF911F910F91FF90EF90DF90CF90BF90B2
:10136000AF900895EF92FF920F931F93CF93DF9367
:10137000CDB7DEB76E970FB6F894DEBF0FBECDBF08
:101380007C01098F1A8F2B8F3C8F4D8F5E8F6D8D57
:101390007E8D4AE0CE0101960E9457136B8D7C8DA5
:1013A0004AE0CE0107960E945713698D7A8D4AE074
:1013B000CE0143960E945713BE016D5E7F4FCE0152
:1013C0000D960E9409136FE571E0CE010D960E9403
:1013D000EF13BE01695F7F4F0E94DC136FE571E080
:1013E0000E94EF13BE016F5F7F4F0E94DC13BC01B0
:1013F000C7010E940913CE010D960E946E12CE0104
:1014000043960E946E12CE0107960E946E12CE0184
:1014100001960E946E12C7016E960FB6F894DEBF59
:101420000FBECDBFDF91CF911F910F91FF90EF9035
:101430000895CF93DF93CDB7DEB72C970FB6F8940E
:10144000DEBF0FBECDBF46E050E060E070E0CE01F1
:1014500007960E94E01686E0FE013796DE0111969F
:1014600001900D928A95E1F729813A814B815C8147
:101470006D817E8180E090E02C960FB6F894DEBFFF
:101480000FBECDBFDF91CF910895EF92FF920F93E2
:101490001F93CF93DF93CDB7DEB762970FB6F89463
:1014A000DEBF0FBECDBF7C016FEC70E085EE92E039
:1014B0000E94411665EE72E0CE0101960E94DC1298
:1014C00063ED70E085EE92E00E94411665EE72E0F9
:1014D000CE010D960E94DC12BE01635F7F4FCE01EC
:1014E00007960E94091361E671E0CE0107960E94FB
:1014F000EF13BE016F5F7F4F0E94DC13BC018BE5D1
:1015000093E00E94E911CE0107960E946E12CE016F
:101510000D960E946E12CE0101960E946E126BEC27
:1015200070E085EE92E00E94411665EE72E0CE0119
:1015300007960E94DC1267E172E081E892E00E9467
:10154000411661E872E0CE0101960E94DC12BE01F4
:10155000695F7F4FCE0101960E94DC13BC018BE5D1
:1015600093E00E94E911CE0101960E946E12CE0115
:1015700007960E946E1262EA70E085EE92E00E9489
:10158000411665EE72E08BE593E00E94FB11C70106
:101590000E94190A29833A834B835C836D837E837F
:1015A00089019A01AB01B701CE010D960E94B209E3
:1015B00062E072E081E892E00E94411661E872E028
:1015C000CE0107960E94DC12BE01635F7F4FCE0101
:1015D00007960E94DC13BC018BE593E00E94E911A1
:1015E000CE0107960E946E12CE010D960E946E12D9
:1015F0004AE0D70118966C91CE010D960E942A13ED
:1016000065EF71E081E892E00E94411661E872E0C6
:10161000CE0107960E94DC12BE01635F7F4FCE01B0
:1016200007960E94DC13BC018BE593E00E94E91150
:10163000CE0107960E946E12CE010D960E946E1288
:101640004AE0F7016185CE010D960E942A1363EEF0
:1016500071E081E892E00E94411661E872E0CE01FB
:1016600007960E94DC12BE01635F7F4FCE01079692
:101670000E94DC13BC018BE593E00E94E911CE01CE
:1016800007960E946E12CE010D960E946E12D7012F
:101690001A964D915D916D917C911D972AE0CE0136
:1016A0000D960E94831364ED71E081E892E00E9440
:1016B000411661E872E0CE0107960E94DC12BE017D
:1016C000635F7F4FCE0107960E94DC13BC018BE560
:1016D00093E00E94E911CE0107960E946E12CE019E
:1016E0000D960E946E12D701ED91FC910484F58550
:1016F000E02DC7010995882319F062EC71E002C062
:101700006FEA71E081E892E00E94411661E872E0C0
:101710008BE593E00E94FB1162960FB6F894DEBF52
:101720000FBECDBFDF91CF911F910F91FF90EF9032
:1017300008950F931F93CF93DF93CDB7DEB72C9708
:101740000FB6F894DEBF0FBECDBF8C01DC011A9638
:101750004D935D936D937C931D972AE0CE01079680
:101760000E94831365E371E081E892E00E944116D4
:1017700061E872E0CE0101960E94DC12BE01695F51
:101780007F4FCE0101960E94DC13BC018BE593E0F4
:101790000E94E911CE0101960E946E12CE010796B9
:1017A0000E946E12D801ED91FC910288F389E02D20
:1017B000C80109952C960FB6F894DEBF0FBECDBFB9
:1017C000DF91CF911F910F9108950F931F93CF93A6
:1017D000DF93CDB7DEB72C970FB6F894DEBF0FBE00
:1017E000CDBF8C01DC0118966C938CE292E00E94D4
:1017F000DE034AE0F8016085CE0107960E942A13B5
:1018000068E271E081E892E00E94411661E872E0CE
:10181000CE0101960E94DC12BE01695F7F4FCE01AE
:1018200001960E94DC13BC018BE593E00E94E91154
:10183000CE0101960E946E12CE0107960E946E1292
:10184000D801ED91FC910288F389E02DC80109953A
:101850002C960FB6F894DEBF0FBECDBFDF91CF91AF
:101860001F910F9108950F931F93CF93DF9300D093
:1018700000D01F92CDB7DEB78C016EE871E081E831
:1018800092E00E94411661E872E0C8010E9493084C
:10189000882351F0D801ED91FC910088F189E02D69
:1018A00061E0C80109950DC065E871E081E892E04A
:1018B0000E94411661E872E0C8010E9493088823E3
:1018C00049F0D801ED91FC910684F785E02DC8011F
:1018D000099536C064E771E081E892E00E94411604
:1018E00061E872E0C8010E949308882369F0BE0194
:1018F0006F5F7F4FC8010E945309882309F16981F6
:10190000C8010E94E50B1CC061E671E081E892E02D
:101910000E94411661E872E0C8010E949308882382
:1019200089F0BE016F5F7F4FC8010E945309882371
:1019300039F049815A816B817C81C8010E94990BE1
:1019400021E035C0D801ED91FC910484F585E02DAE
:10195000C8010995882371F06BE471E081E892E099
:101960000E94411661E872E0C8010E949308282F86
:10197000811102C020E01BC0BE016F5F7F4FC80114
:101980002D830E9453092D81882389F081E04981AC
:101990005A816B817C8114161506160617060CF009
:1019A00080E0682FC8012D830E9484042D81822F3E
:1019B0000F900F900F900F900F90DF91CF911F918C
:1019C0000F9108950F931F93CF93DF93EC018CE257
:1019D00092E00E941603809350032197D0934B030B
:1019E000C0934A03C536D10540F081E08093490396
:1019F000DF91CF911F910F91089505EE12E0C8017C
:101A0000855E92408C179D0784F78CE292E00E94DD
:101A10001603F80181938F01F2CF8091510388233F
:101A200059F042E050E06CE473E08CE292E00E94F6
:101A3000680310925103089540914C0350914D0357
:101A400065EE72E08CE292E00C9468038BE593E023
:101A50000E94AF0F892BA1F024E630E045EE52E062
:101A60006AE08BE593E00E943B1299278B519D4FD2
:101A7000FC01108210924F0310924E0381E00895F2
:101A800080E00895CF93DF93EC010E94260D882318
:101A900069F0E881F9810284F385E02DCE01099592
:101AA000811104C062E0CE010E94D20880914903F6
:101AB0008823C9F110924D0310924C0310924F03EA
:101AC00010924E0381E08093510388A3E881F9814D
:101AD0000084F185E02DCE01099580915103882382
:101AE00041F041E050E0BE01605E7F4FCE010E94B8
:101AF000670410924903E881F9810484F585E02D9B
:101B0000CE010995882379F0809150038C3959F4DE
:101B100068EE73E080E090E00E940F0ECE01DF914E
:101B2000CF910C949107DF91CF9108951F920F925E
:101B30000FB60F9211242F933F938F939F93AF93E0
:101B4000BF938091530390915403A0915503B0919A
:101B500056033091520323E0230F2D3720F40196D2
:101B6000A11DB11D05C026E8230F0296A11DB11DC0
:101B7000209352038093530390935403A0935503EF
:101B8000B09356038091570390915803A091590345
:101B9000B0915A030196A11DB11D809357039093F4
:101BA0005803A0935903B0935A03BF91AF919F91EB
:101BB0008F913F912F910F900FBE0F901F9018950E
:101BC0002FB7F8946091530370915403809155039B
:101BD000909156032FBF08953FB7F8948091570313
:101BE00090915803A0915903B0915A0326B5A89B30
:101BF00005C02F3F19F00196A11DB11D3FBF6627FB
:101C0000782F892F9A2F620F711D811D911D42E03F
:101C1000660F771F881F991F4A95D1F70895CF92B5
:101C2000DF92EF92FF92CF93DF936B017C010E94D2
:101C3000EC0DEB01C114D104E104F10489F00E9420
:101C400009140E94EC0D6C1B7D0B683E734090F3F1
:101C500081E0C81AD108E108F108C851DC4FEACF89
:101C6000DF91CF91FF90EF90DF90CF90089578941F
:101C700084B5826084BD84B5816084BD85B5826091
:101C800085BD85B5816085BDEEE6F0E0808181602F
:101C90008083E1E8F0E0108280818260808380812F
:101CA00081608083E0E8F0E0808181608083E1EB07
:101CB000F0E0808184608083E0EBF0E080818160EF
:101CC0008083EAE7F0E080818460808380818260A5
:101CD000808380818160808380818068808310928E
:101CE000C10008958E3008F08E5087702091060153
:101CF00090E4299F90011124822B80937C00809195
:101D00007A00806480937A0080917A0086FDFCCF0F
:101D1000809178002091790090E0922B08951F9394
:101D2000CF93DF93182FEB0161E00E94170F2097EC
:101D300011F460E004C0CF3FD10539F461E0812F98
:101D4000DF91CF911F910C94500FE12FF0E0EE5DE9
:101D5000FD4FE491E330F9F048F4E130B9F0E230BE
:101D6000A1F584B5806284BDC8BD34C0E730E9F018
:101D7000E83019F1E43049F5809180008062809369
:101D80008000D0938B00C0938A0024C084B5806803
:101D900084BDC7BD1FC08091800080688093800093
:101DA000D0938900C093880015C08091B0008068EE
:101DB0008093B000C093B3000DC08091B0008062EA
:101DC0008093B000C093B40005C0C038D1050CF0BA
:101DD000B5CFAFCFDF91CF911F910895833081F0C0
:101DE00028F4813099F08230A1F008958730A9F06D
:101DF0008830B9F08430D1F4809180008F7D03C0A9
:101E0000809180008F7780938000089584B58F77CC
:101E100002C084B58F7D84BD08958091B0008F7716
:101E200003C08091B0008F7D8093B0000895CF9360
:101E3000DF9390E0FC01EA5CFD4F2491FC01E65B3E
:101E4000FD4F8491882349F190E0880F991FFC0190
:101E5000EE58FD4FA591B49188599D4FFC01C59155
:101E6000D4919FB7611108C0F8948C91209582237A
:101E70008C93888182230AC0623051F4F8948C914B
:101E8000322F309583238C938881822B888304C0E2
:101E9000F8948C91822B8C939FBFDF91CF91089502
:101EA0000F931F93CF93DF931F92CDB7DEB7282FE9
:101EB00030E0F901EE5DFD4F8491F901EA5CFD4FE0
:101EC0001491F901E65BFD4F04910023C9F08823CA
:101ED00021F069830E94EE0E6981E02FF0E0EE0FA1
:101EE000FF1FE859FD4FA591B4919FB7F8948C91CD
:101EF000611103C01095812301C0812B8C939FBF7A
:101F00000F90DF91CF911F910F910895CF93DF93A1
:101F1000282F30E0F901EE5DFD4F8491F901EA5C74
:101F2000FD4FD491F901E65BFD4FC491CC2391F0B4
:101F300081110E94EE0EEC2FF0E0EE0FFF1FE25A2F
:101F4000FD4FA591B4912C912D2381E090E021F4D7
:101F500080E002C080E090E0DF91CF910895FC0125
:101F6000818D228D90E0805C9F4F821B91098F7341
:101F700099270895FC01918D828D981731F0828DFB
:101F8000E80FF11D858D90E008958FEF9FEF089584
:101F9000FC01918D828D981761F0828DDF01A80F71
:101FA000B11D5D968C91928D9F5F9F73928F90E093
:101FB00008958FEF9FEF08958CE491E1892B49F00C
:101FC00080E090E0892B29F00E944C1181110C9443
:101FD00000000895FC01848DDF01A80FB11DA35AF4
:101FE000BF4F2C91848D90E001968F739927848F39
:101FF000A689B7892C93A089B1898C9180648C9330
:10200000938D848D981306C00288F389E02D80811A
:102010008F7D80830895CF93DF93EC01888D882393
:10202000C9F0EA89FB89808185FD05C0A889B98945
:102030008C9186FD0FC00FB607FCF5CF808185FF20
:10204000F2CFA889B9898C9185FFEDCFCE010E948E
:10205000EA0FE7CFDF91CF910895CF92DF92FF9201
:102060000F931F93CF93DF931F92CDB7DEB76C0111
:1020700081E0D60158968C9358975B969C915B971C
:102080005C968C915C97981307C05096ED91FC91EB
:102090005197808185FD2EC0F601038D10E00F5F02
:1020A0001F4F0F731127F02EF601848DF81211C007
:1020B0000FB607FCF9CFD6015096ED91FC915197E0
:1020C000808185FFF1CFC60169830E94EA0F698193
:1020D000EBCF838DE80FF11DE35AFF4F6083D601EC
:1020E0005B960C935B975296ED91FC915397808190
:1020F00080620CC0D6015696ED91FC915797608393
:102100005096ED91FC91519780818064808381E0AD
:1021100090E00F90DF91CF911F910F91FF90DF9092
:10212000CF900895BF92CF92DF92EF92FF92CF931C
:10213000DF93EC016A017B01B22EE889F98982E024
:102140008083411581EE580761057105A1F060E0BB
:1021500079E08DE390E0A70196010E940A142150D6
:10216000310941095109569547953795279521150C
:1021700080E1380798F0E889F989108260E874E80E
:102180008EE190E0A70196010E940A1421503109C6
:10219000410951095695479537952795EC85FD8559
:1021A0003083EE85FF852083188EEC89FD89B0820F
:1021B000EA89FB89808180618083EA89FB8980814B
:1021C00088608083EA89FB89808180688083EA89CE
:1021D000FB8980818F7D8083DF91CF91FF90EF908D
:1021E000DF90CF90BF9008951F920F920FB60F927D
:1021F00011242F938F939F93EF93FF93E0916B03A1
:10220000F0916C038081E0917103F091720382FD83
:1022100012C09081809174038F5F8F73209175033A
:10222000821751F0E0917403F0E0E55AFC4F958F6E
:102230008093740301C08081FF91EF919F918F91F2
:102240002F910F900FBE0F901F9018951F920F9215
:102250000FB60F9211242F933F934F935F936F9379
:102260007F938F939F93AF93BF93EF93FF938BE5F0
:1022700093E00E94EA0FFF91EF91BF91AF919F9180
:102280008F917F916F915F914F913F912F910F901F
:102290000FBE0F901F9018958BE593E00E94AF0F33
:1022A00021E0892B09F420E0822F089510925E032B
:1022B00010925D0388EE93E0A0E0B0E080935F03AE
:1022C00090936003A0936103B093620380E891E070
:1022D00090935C0380935B0385EC90E0909368039C
:1022E0008093670384EC90E090936A038093690382
:1022F00080EC90E090936C0380936B0381EC90E012
:1023000090936E0380936D0382EC90E09093700342
:1023100080936F0386EC90E0909372038093710337
:102320001092740310927503109276031092770343
:102330000895CF92DF92EF92FF920F931F93CF9366
:10234000DF936C017A01EB01E60EF71E00E010E06E
:10235000CE15DF0561F06991D601ED91FC910190F8
:10236000F081E02DC6010995080F191FF1CFC801B2
:10237000DF91CF911F910F91FF90EF90DF90CF9061
:1023800008956115710581F0DB010D900020E9F7DA
:10239000AD0141505109461B570BDC01ED91FC91F9
:1023A0000280F381E02D099480E090E00895DC0143
:1023B000ED91FC91DB0114964D915C9115976D9117
:1023C0007C910280F381E02D09946CE871E00C941B
:1023D000C1110F931F93CF93DF93EC010E94D7118C
:1023E0008C01CE010E94E511800F911FDF91CF91EA
:1023F0001F910F9108950F931F93CF93DF93EC01DB
:102400000E94C1118C01CE010E94E511800F911F25
:10241000DF91CF911F910F9108950F931F93CF9349
:10242000DF93EC010E94E00D688779878A879B879C
:10243000E881F9810680F781E02DCE01099597FFAB
:1024400015C00E94E00D088519852A853B85601B13
:10245000710B820B930B0C811D812E813F816017C4
:1024600071078207930720F38FEF9FEFDF91CF91E2
:102470001F910F910895AF92BF92CF92DF92EF928A
:10248000FF920F931F93CF93DF936C017901211576
:102490003105A9F08A01C0E0D0E0A62EB12CC6011A
:1024A0000E940D1297FD0EC08A159B0559F0F80188
:1024B00081938F012196CE15DF0589F703C080E057
:1024C00090E001C0CE01DF91CF911F910F91FF905D
:1024D000EF90DF90CF90BF90AF900895FC01808186
:1024E00091810C94CA14CF93DF93EC018881998178
:1024F000009711F00E94CA14198218821D821C8252
:102500001B821A82DF91CF9108950F931F93CF936F
:10251000DF93EC018B016F5F7F4F888199810E946F
:102520005915009731F0998388831B830A8381E0D2
:1025300001C080E0DF91CF911F910F910895CF935B
:10254000DF93EC0188819981892B29F08A819B8115
:102550008617970760F4CE010E948512882341F008
:102560008C819D81892B19F4E881F981108281E0A9
:10257000DF91CF910895EF92FF920F931F93CF9326
:10258000DF93EC017B018A01BA010E949F12811145
:1025900004C0CE010E94731207C01D830C83B701D3
:1025A000888199810E946516CE01DF91CF911F919C
:1025B0000F91FF90EF900895FC0111821082138219
:1025C0001282158214826115710559F0FB01019088
:1025D0000020E9F7AF0141505109461B570B0C94FD
:1025E000BB120895CF93DF93EC01FB018617970789
:1025F00061F0608171816115710529F04481558117
:102600000E94BB1202C00E947312CE01DF91CF91D3
:102610000895FC01118210821382128215821482A5
:102620000C94F212CF93DF93EC016115710561F008
:10263000FB0101900020E9F7AF0141505109461B11
:10264000570B0E94BB1202C00E947312CE01DF9191
:10265000CF9108950F931F93CF93DF93CDB7DEB73C
:1026600029970FB6F894DEBF0FBECDBF8C01862F21
:10267000F80111821082138212821582148250E0B6
:10268000BE016F5F7F4F90E00E94BB16BE016F5F7F
:102690007F4FC8010E94121329960FB6F894DEBF2F
:1026A0000FBECDBFDF91CF911F910F9108950F9372
:1026B0001F93CF93DF93CDB7DEB761970FB6F89432
:1026C000DEBF0FBECDBF8C01CB01F801118210829D
:1026D000138212821582148250E0BE016F5F7F4F19
:1026E0000E94BB16BE016F5F7F4FC8010E9412138C
:1026F00061960FB6F894DEBF0FBECDBFDF91CF91CC
:102700001F910F9108950F931F93CF93DF93CDB730
:10271000DEB7A1970FB6F894DEBF0FBECDBF8C0118
:10272000CB01BA01F8011182108213821282158244
:10273000148230E0AE014F5F5F4F0E948E16BE01E3
:102740006F5F7F4FC8010E941213A1960FB6F894D5
:10275000DEBF0FBECDBFDF91CF911F910F910895C6
:10276000EF92FF920F931F93CF93DF93EC017B01C6
:102770000C811D816115710511F480E016C04115B1
:10278000510591F0040F151FB8010E949F12882374
:10279000A1F3288139818C819D81B701820F931F1C
:1027A0000E9465161D830C8381E0DF91CF911F91FC
:1027B0000F91FF90EF900895CF93DF93EC01FB0111
:1027C00044815581608171810E94B013811103C0E1
:1027D000CE010E947312CE01DF91CF910895CF9365
:1027E000DF93EC016115710569F0FB010190002098
:1027F000E9F7AF0141505109461B570B0E94B01336
:10280000811103C0CE010E947312CE01DF91CF91DE
:1028100008950895A1E21A2EAA1BBB1BFD010DC04D
:10282000AA1FBB1FEE1FFF1FA217B307E407F50780
:1028300020F0A21BB30BE40BF50B661F771F881F5C
:10284000991F1A9469F760957095809590959B01F2
:10285000AC01BD01CF010895EE0FFF1F0590F4916B
:10286000E02D0994CF93DF938230910510F482E03C
:1028700090E0E091FA03F091FB0320E030E0A0E06B
:10288000B0E0309739F14081518148175907B8F0CD
:102890004817590771F482819381109729F0139694
:1028A0009C938E9312972CC09093FB038093FA0312
:1028B00027C02115310531F04217530718F0A9013F
:1028C000DB0101C0EF019A01BD01DF010280F3814C
:1028D000E02DD7CF21153105F9F0281B390B243015
:1028E000310580F48A819B816115710521F0FB011E
:1028F0009383828304C09093FB038093FA03FE01C9
:10290000329644C0FE01E20FF31F8193919322504F
:102910003109398328833AC02091F8033091F903B3
:10292000232B41F420910201309103013093F903EC
:102930002093F80320910001309101012115310508
:1029400041F42DB73EB74091040150910501241B7D
:10295000350BE091F803F091F903E217F307A0F4C7
:102960002E1B3F0B2817390778F0AC014E5F5F4FE5
:102970002417350748F04E0F5F1F5093F90340931B
:10298000F8038193919302C0E0E0F0E0CF01DF9182
:10299000CF910895CF93DF93009709F487C0FC018E
:1029A000329713821282C091FA03D091FB032097D1
:1029B00081F420813181280F391F8091F803909193
:1029C000F9038217930779F5F093F903E093F8037D
:1029D0006DC0DE0120E030E0AE17BF0750F4129664
:1029E0004D915C9113979D014115510509F1DA0153
:1029F000F3CFB383A28340815181840F951F8A173F
:102A00009B0771F48D919C911197840F951F0296ED
:102A10009183808312968D919C91139793838283E7
:102A20002115310529F4F093FB03E093FA033EC02E
:102A3000D9011396FC93EE9312974D915D91A40FDB
:102A4000B51FEA17FB0779F480819181840F951FE8
:102A50000296D90111969C938E938281938113964D
:102A60009C938E931297E0E0F0E08A819B8100971F
:102A700019F0FE01EC01F9CFCE01029628813981CF
:102A8000820F931F2091F8033091F903281739071B
:102A900069F4309729F41092FB031092FA0302C0F4
:102AA00013821282D093F903C093F803DF91CF9180
:102AB0000895A0E0B0E0EFE5F5E10C942417EC01F7
:102AC000CB01209719F40E943214B8C0FE01E60F22
:102AD000F71F9E0122503109E217F30708F4ACC03A
:102AE000D9010D911C91119706171707B8F0053001
:102AF000110508F49FC0A801445051094617570713
:102B000008F498C002501109061B170B019311938A
:102B10006D937C93CF010E94CA148CC05B01A01AF4
:102B2000B10A4E01800E911EA091FA03B091FB03F1
:102B3000612C712C60E070E0109709F449C0A81571
:102B4000B905C9F5ED90FC901197670142E0C40EFC
:102B5000D11CCA14DB0478F147018A189B08640170
:102B600042E0C40ED11C1296BC9012971396AC9101
:102B7000B5E0CB16D10440F0B282A383918280826B
:102B8000D9018D939C9309C00E5F1F4F0E0D1F1D21
:102B9000F90111830083EB2DFA2F6115710531F0D6
:102BA000DB011396FC93EE93129744C0F093FB0362
:102BB000E093FA033FC06D917C91119766167706FA
:102BC00008F43B01BD0112960D90BC91A02DB4CF2D
:102BD0006091F8037091F90368157905E9F46816B6
:102BE0007906D0F440910001509101014115510541
:102BF00041F44DB75EB76091040170910501461B29
:102C0000570BE417F507C0F4F093F903E093F803CA
:102C1000F901918380830EC00E9432147C010097D9
:102C200059F0A801BE010E944816CE010E94CA14A4
:102C3000C70104C0CE0102C080E090E0CDB7DEB78E
:102C4000EEE00C944017FC0188279927E894219125
:102C50002032E9F3293010F02E30C8F32B3241F046
:102C60002D3239F4689404C00E948616820F911D9B
:102C7000219120532A30C0F31EF4909581959F4FE7
:102C80000895FB01DC0105900D920020E1F7089505
:102C9000FB01DC0102C001900D9241505040D8F779
:102CA0000895FC018191861721F08823D9F799278F
:102CB00008953197CF010895FB01DC018D910190BA
:102CC00080190110D9F3990B0895FB01DC010190E3
:102CD0000D920020E1F70895FB0151915523A9F0D1
:102CE000BF01DC014D9145174111E1F759F4CD01C8
:102CF0000190002049F04D9140154111C9F3FB01AD
:102D00004111EFCF81E090E0019708957AE0979F1D
:102D1000902D879F802D910D112408952532310526
:102D200020F4223010F00C949916FA011082CA0196
:102D30000895BB27FA01A62F621771058105910539
:102D4000330B30FB66F0AA27660F771F881F991F89
:102D5000AA1FA21710F0A21B63953850A9F7A05D17
:102D6000AA3308F0A95DA19336F7B111B19310828F
:102D7000CA010C9410174532510520F4423010F06E
:102D80000C94C616FB011082CB010895BB27FB01F2
:102D90005527AA27880F991FAA1FA41710F0A41B54
:102DA00083955051B9F7A05DAA3308F0A95DA193AE
:102DB000009779F7B111B1931192CB010C941017D0
:102DC000DC01CB01FC01F999FECF06C0F2BDE1BDEB
:102DD000F89A319600B40D9241505040B8F70895DA
:102DE000F999FECF92BD81BDF89A992780B50895D3
:102DF000DC01CB0103C02D910E94031741505040CC
:102E0000D0F70895262FF999FECF1FBA92BD81BD44
:102E100020BD0FB6F894FA9AF99A0FBE019608955C
:102E2000DC01FC01672F71917723E1F7329704C031
:102E30007C916D9370836291AE17BF07C8F30895BC
:102E40002F923F924F925F926F927F928F929F92BA
:102E5000AF92BF92CF92DF92EF92FF920F931F93A8
:102E6000CF93DF93CDB7DEB7CA1BDB0B0FB6F89459
:102E7000DEBF0FBECDBF09942A88398848885F8499
:102E80006E847D848C849B84AA84B984C884DF800A
:102E9000EE80FD800C811B81AA81B981CE0FD11DEE
:102EA0000FB6F894DEBF0FBECDBFED010895F894C4
:022EB000FFCF52
:102EB2000000FC0380000100000000950368030E7F
:102EC2000316032903380370696E4D6F6465280089
:102ED2002C20006469676974616C57726974652893
:102EE200006469676974616C526561642800292015
:102EF2003D2000616E616C6F6757726974652800CE
:102F0200616E616C6F675265616428002829002E2A
:102F120000207600000000000104420D4104440438
:102F2200CC04330CFF03450AA9073A040000000051
:102F32002D109911AF0FC80FBA0F0B100D0A006EAA
:0C2F4200616E00696E66006F766600002C
:00000001FF
