:100000000C944B010C947C010C947C010C947C01AD
:100010000C947C010C947C010C947C010C947C016C
:100020000C947C010C947C010C947C010C947C015C
:100030000C947C010C947C010C947C010C947C014C
:100040000C947C010C947C010C947C010C947C013C
:100050000C94FE090C947C010C947C010C94A52A50
:100060000C947C010C94CD2E0C94032F0C947C01E9
:100070000C947C010C94D3090C947C010C947C01AD
:100080000C947C010C947C010C947C010C9435073D
:100090000C947C010C947C010C947C010C9404065F
:1000A0000C947C010C947C010C947C010C947C01DC
:1000B0000C947C010C947C010C947C010C947C01CC
:1000C0000C947C010C947C010C947C010C947C01BC
:1000D0000C947C010C947C010C947C010C947C01AC
:1000E0000C947C01861BAE1BCB1BE81B2B1C0D1C30
:1000F000491C721CA81C8D1CE41CC01CC01D9B1D2F
:10010000DF1D7D1E191E0A1FD01EA31B5E1F801F30
:100110009B1FBC1F671CCB1FE01FFC1F0920362044
:100120004520CD2BD22BD72BE12BEB2B642CF52BA1
:10013000FD2B052C0F2C192C232C322C3C2C642C41
:10014000462C502C5A2C862C892C782C7C2C822CDA
:10015000C02C8D2C912C972C9B2C9F2CA52CA92C42
:10016000AD2CC02CB32CB72CBB2C00000A0B020901
:100170000C0D0E0807030401000000000000000041
:10018000000000000000000000000000000000006F
:10019000000000000000121110000000000000002C
:1001A000000000000000000000000000000000004F
:1001B0000102102020080810204010204080020179
:1001C000020108040201010204081020408080405E
:1001D000201008040201800402018040201008045D
:1001E00002010804020101020408102040800102FB
:1001F00004081020408005050505070508080808C3
:10020000020202020A0A08080404040401010101AE
:1002100001010101030303030303030304070707A9
:100220000C0C0C0C0C0C0C0C02020202060606064E
:10023000060606060B0B0B0B0B0B0B0B000020002E
:100240002300260029002C002F00320000010000AE
:1002500003010601090100002200250028002B00EF
:100260002E003100340002010000050108010B01DD
:1002700000002100240027002A002D003000330058
:1002800001010000040107010A01B2012205080A68
:10029000C825372FB60111241FBECFEFD1E2DEBF34
:1002A000CDBF00E00CBF14E0A0E0B2E0EEE4F1E767
:1002B00000E00BBF02C007900D92AC3CB107D9F72C
:1002C0002FE0ACECB4E001C01D92A935B207E1F714
:1002D00012E0C4E9D2E000E006C022970109FE0165
:1002E0000BBF0E942636CA38D10780E00807A9F75D
:1002F0000E944F020C9495380C94000080910602E5
:100300009091070201969093070280930602089548
:100310008CEC94E00E94BD2080910602909107022F
:1003200069E170E00E94CC35892BD9F480911E0DD3
:10033000882389F080911F0D81110BC0E091CC04BE
:10034000F091CD040688F789E02D8CEC94E01995A6
:1003500002C010921F0D81E090E0909307028093FD
:10036000060208958CEC94E00C946A0A8CEC94E0FC
:100370000C947B0A80E1809391001092900085E0BC
:100380008093500E86E998E99093520E8093510E17
:10039000909397008093960085E1809391008EE77B
:1003A00091E090934F0E80934E0E81E08093710008
:1003B0008CEC94E00E94741568E072E088EB9EE09B
:1003C0000E94C62F6FEF71E2605072404AE050E029
:1003D00088EB9EE00E9490306DE072E088EB9EE03A
:1003E0000E94C62F6CEC74E0605072404AE050E00E
:1003F00088EB9EE00E94903064E172E088EB9EE022
:100400000E94C62F69E57FE06C5C74404AE050E0D2
:1004100088EB9EE00E9490306AE172E088EB9EE0FB
:100420000E94C62F6091550F7091560F611571058E
:1004300019F069557F4002C060E070E04AE050E08A
:1004400088EB9EE00E94903060E272E088EB9EE0D4
:100450000E94C62F8DB79EB76FEF71E2681B790BB4
:100460004AE050E088EB9EE00E94903067E272E044
:1004700088EB9EE00E94C62F8091550F9091560FF9
:100480006DB77EB7009719F469557F4002C0681BAD
:10049000790B4AE050E088EB9EE00C9490300E948B
:1004A000452B0E94BA01C6E8DDE20E948801209730
:1004B000E1F30E94862DF9CFFF920F931F93CF9304
:1004C000DF93FC010081C181D281F8948981F02EF3
:1004D000F0948F21898378941DE7115029F182E0EF
:1004E00090E00E943A2B88818023B9F3F8948A81A6
:1004F0008F218A838981802B8983789480EE91E093
:100500000E943A2BF89489818F21898386E490E0B8
:100510000E943A2B8881802311E009F010E0789442
:100520008AE991E00E943A2B812FDF91CF911F91B0
:100530000F91FF9008951F93CF93DF93FC011081DB
:10054000C181D281912F909560FF12C0F8948A8169
:1005500089238A838981812B89838AE090E00E94A4
:100560003A2B8A81812B8A83789487E390E011C0AB
:10057000F8948A8189238A838981812B898381E404
:1005800090E00E943A2B8A81812B8A83789485E0BF
:1005900090E0DF91CF911F910C943A2B0F931F9312
:1005A000CF93DF93FC011081C181D281F8948981BE
:1005B000812B89838A81012F009580238A8383E0A0
:1005C00090E00E943A2B8981802389838AE090E021
:1005D0000E943A2BC881789485E390E00E943A2BE0
:1005E0001C2381E009F480E0DF91CF911F910F91EE
:1005F0000895CF92DF92EF92FF920F931F93CF93C4
:10060000DF931F92CDB7DEB76C01E62E08E010E055
:10061000FF24F39461E09F2D9E2109F460E0C60160
:1006200049830E949B02FF0C015011094981011569
:10063000110581F7411115C0F894D6011196ED917D
:10064000FC91129791818C918095892381831196D9
:10065000ED91FC91129792818C91809589238283F0
:1006600078940F90DF91CF911F910F91FF90EF90B1
:10067000DF90CF900895EF92FF920F931F93CF9347
:10068000DF938C01C8E0D0E0F12CEE24E394C801A4
:100690000E94CE028111FE28EE0C2197C1F78F2D0A
:1006A000DF91CF911F910F91FF90EF900895CF921E
:1006B000DF92FF920F931F93CF93DF931F92CDB7DB
:1006C000DEB78C01F62E40E065E579830E94F902E1
:1006D000CF2C7981D72E88E0F82EF60161916F0139
:1006E00040E0C8010E94F902FA94B9F70F90DF9137
:1006F000CF911F910F91FF90DF90CF900895FC0153
:1007000013861586148627E030E0DF01A20FB31FA1
:1007100013961C922115310519F021503109F5CF9E
:1007200008951F93CF93DF93EC01162F60E0812F84
:100730000E94C12C612F70E0FB01E055FE4FE49157
:10074000E883FB01EA50FE4FE491F0E0EE0FFF1F5B
:10075000E45CFD4F859194919A838983CE01DF916A
:10076000CF911F910C947F03AF92BF92CF92DF92F3
:10077000EF92FF920F931F93CF93DF931F92CDB70A
:10078000DEB75C01E62ED72EFC01858581115DC0A8
:10079000C5010E945C02811105C0F5011386158612
:1007A00014866EC040E060EFC5010E94F90201E0CE
:1007B000F12CC12C11E0C5010E94CE02682FC501A9
:1007C00069830E94CE026981613019F48130B9F4E5
:1007D00033C02F2D30E068131BC0F5018385181737
:1007E00030F4E20FF31F8381802349F402C018170D
:1007F00031F060E0193058F4F501148708C0F501B4
:10080000EF0DF11D8381802B838361E009C0C12E30
:10081000F501E20FF31F8381902F90958923838345
:10082000C5010E949B021F5F000F11F4F39401E0C9
:10083000F7E0FF1508F0BFCF113438F0F501C3869B
:10084000C11018C081E0858715C0F5011386158693
:10085000148680E0EE2DFD2D20E030E0D501A20FC2
:10086000B31F13969C9191932F5F3F4F2830310512
:10087000A9F706C0F5018381882339F381E0EACF27
:100880000F90DF91CF911F910F91FF90EF90DF902C
:10089000CF90BF90AF9008958091BE0D90E02091D1
:1008A000BF0D821B910908952091BF0D8091BE0D4F
:1008B000281750F4E22FF0E0E054F24F808190E0EE
:1008C0002F5F2093BF0D08958FEF9FEF0895E09164
:1008D000BF0D8091BE0DE81730F4F0E0E054F24F08
:1008E000808190E008958FEF9FEF08950895CF9253
:1008F000DF92EF92FF920F931F93CF93DF937C01D0
:10090000CB018A0120919A0D222389F0EB016B0122
:10091000C40ED51ECC15DD0569F06991D701ED91A6
:10092000FC910190F081E02DC7011995F3CF642F60
:100930000E94DB05C801DF91CF911F910F91FF90BD
:10094000EF90DF90CF900895CF93DF931F92CDB7B4
:10095000DEB7698320919A0D2223D1F020919B0D5F
:10096000203240F021E030E0FC013383228380E03C
:1009700090E015C080919C0DE82FF0E0E356F24F17
:10098000998190838F5F80939C0D80939B0D05C010
:1009900061E0CE0101960E94DB0581E090E00F90BE
:1009A000DF91CF910895FC011382128248EE53E04B
:1009B00060E070E0448355836683778388E392E048
:1009C0009183808308951092BF0D1092BE0D1092F6
:1009D0009C0D10929B0D0C942605862F413208F039
:1009E00040E260EC7DE00E9444051092BF0D8093D0
:1009F000BE0D089521E00C94ED0421E00C94ED046B
:100A000081E080939A0D6093BD0D10929C0D109221
:100A10009B0D08950C9400050F93062F21E0409143
:100A20009B0D6DE97DE08091BD0D0E9488051092BF
:100A30009C0D10929B0D10929A0D0F91089561E0FC
:100A40000C940C058EE89DE00C94D30410924D0E8E
:100A500081E080934B0E10924A0E61E084E10E9487
:100A6000FA2C61E085E10E94FA2CE9EBF0E080814C
:100A70008E7F808380818D7F808388E48093B8001F
:100A800085E48093BC000895413208F03FC0909106
:100A90004D0E9111FCCF91E090934D0E20934B0E93
:100AA0002FEF2093E00D1092250E240F2093240E9B
:100AB00090934C0E90914C0E880F892B80934C0E86
:100AC00080914A0E813041F410924A0E80914C0E72
:100AD0008093BB0085EC01C085EE8093BC008091C3
:100AE0004D0E8130E1F38091250E841710F4409172
:100AF000250E26E23EE0FB01D9018A2F821B8417D6
:100B000018F48D918193F9CF842F089580E0089592
:100B10000F93413208F046C090914D0E9111FCCFD9
:100B200092E090934D0E00934B0E9FEF9093E00D4B
:100B30001092250E4093240EFB0166E27EE0DB015D
:100B40009A2F961B941718F491919D93F9CF1092B8
:100B50004C0E90914C0E880F892B80934C0E8091F7
:100B60004A0E813041F410924A0E80914C0E8093CF
:100B7000BB0085EC01C085EE8093BC00222321F0F0
:100B800080914D0E8230E1F38091E00D8F3F61F056
:100B90008091E00D803251F08091E00D803341F47E
:100BA00083E007C081E005C080E003C082E001C0AF
:100BB00084E00F910895613298F420914D0E243015
:100BC00089F46093020EFC0184E09EE0DC012A2F90
:100BD000281B261718F421912D93F9CF80E0089552
:100BE00081E0089582E0089585ED8093BC008091B6
:100BF000BC0084FDFCCF10924D0E089585EC8093CF
:100C0000BC0010924D0E08951F920F920FB60F92D6
:100C100011240BB60F922F933F934F935F936F93D3
:100C20007F938F939F93AF93BF93EF93FF938091A5
:100C3000B900887F803609F49CC068F5883209F4D1
:100C40005BC090F4803109F454C038F4882309F46F
:100C5000F5C0883009F44DC0F5C0883109F44CC0A6
:100C6000803209F45DC0EEC0803409F468C048F4F5
:100C7000803309F455C0883309F0E4C08093E00D57
:100C8000A8C0803509F44FC0883509F45DC08834A8
:100C900009F0D8C0D5C0883909F4C6C0A8F488378F
:100CA00009F467C038F4883609F463C0803709F462
:100CB00060C0C8C0883809F4B7C0803909F45FC083
:100CC000803809F0BFC05BC0803B09F485C038F4B0
:100CD000803A09F466C0883A09F47EC0B3C0803C0B
:100CE00009F4A6C0883C09F4A3C0883B09F489C074
:100CF000A9C080914C0E10C09091250E8091240EB9
:100D0000981770F5E091250E81E08E0F8093250EE7
:100D1000F0E0EA5DF14F80818093BB0085EC85C0F7
:100D20008093E00D8DC0E091250E81E08E0F8093C1
:100D3000250E8091BB00F0E0EA5DF14F8083909139
:100D4000250E8091240E6DC0E091250E81E08E0F5E
:100D50008093250E8091BB00F0E0EA5DF14F808327
:100D600080914B0E81116CC081E080934A0E84EA21
:100D700060C083E080934D0E1092E10DCFCF809143
:100D8000E10D803208F050C0E091E10D81E08E0F5E
:100D90008093E10D8091BB00F0E0EE51F24F808333
:100DA000BDCF8091E10D803230F4E091E10DF0E0B3
:100DB000EE51F24F10820E94F4056091E10D70E057
:100DC000E091460EF091470E82EE9DE0199510924B
:100DD000E10D0E94FE0536C084E080934D0E109216
:100DE000030E1092020EE091480EF091490E1995F3
:100DF0008091020E811105C081E08093020E109255
:100E0000040EE091030E81E08E0F8093030EF0E05C
:100E1000EC5FF14F80818093BB009091030E809135
:100E2000020E981708F47ACF85E88093BC000AC0B8
:100E300085EC8093BC0010924D0E04C01092E00D22
:100E40000E94F405FF91EF91BF91AF919F918F9117
:100E50007F916F915F914F913F912F910F900BBEBA
:100E60000F900FBE0F901F9018951F920F920FB604
:100E70000F9211240BB60F922F933F934F935F93D2
:100E80006F937F938F939F93AF93BF93EF93FF9352
:100E9000E0914E0EF0914F0E1995FF91EF91BF9199
:100EA000AF919F918F917F916F915F914F913F9102
:100EB0002F910F900BBE0F900FBE0F901F901895A3
:100EC000ECE7F0E090819F739083208130E4839F72
:100ED000C0011124282B20830895EAE7F0E09081D7
:100EE000987F90839081982B9083089580917A00C9
:100EF000877090E00895E1E8F0E08081887F80834A
:100F000008950E947B071092850010928400E1E80A
:100F1000F0E080819091530E892B8083089588237F
:100F200021F080917C00806203C080917C008F7DE5
:100F300080937C000895EBE7F0E09081987F9083A8
:100F40009081982B90830895CF92DF92EF92FF9239
:100F5000CF936B017C0180E180938100109280002F
:100F6000A701960160E074E284E799E40E948D3362
:100F700020E030E040E051E40E941C350E94FA334A
:100F80006115710521E08207910528F421E0209385
:100F9000530ECB014CC06115710528E08207910505
:100FA00068F422E02093530EDC01CB0153E0B695A8
:100FB000A795979587955A95D1F739C06115710511
:100FC00020E48207910568F423E02093530EDC01AE
:100FD000CB0146E0B695A795979587954A95D1F7A9
:100FE00026C061157105810521E0920740F424E0D7
:100FF0002093530EBB27A92F982F872F18C0611558
:101000007105810524E0920768F425E02093530ED2
:10101000DC01CB012AE0B695A795979587952A958F
:10102000D1F705C085E08093530E8FEF9FEF90932B
:10103000870080938600C1E0C0936F0086E00E9425
:101040009B07C093690E80917A00806280937A003A
:10105000C0925C0ED0925D0EE0925E0EF0925F0E3A
:10106000CF91FF90EF90DF90CF9008958093690E1D
:10107000882321F080917A00806203C080917A00F9
:101080008F7D80937A000895EAE7F0E080818064A4
:1010900080830895CF93DF93D0917800C091790039
:1010A00040916C0E50916D0E20916A0E30916B0E36
:1010B00042175307A8F58091690E811102C00E9462
:1010C00044088D2F90E09C2B20917C0025FF13C0BD
:1010D000E091700EF091710E20916C0E30916D0EBA
:1010E000A9014F5F5F4F50936D0E40936C0EE20F5E
:1010F000F31F908315C0E0916E0EF0916F0E20915A
:101100006C0E30916D0EA9014F5F5F4F50936D0EC5
:1011100040936C0E220F331FE20FF31F91838083E5
:10112000DF91CF91089510926D0E10926C0E809108
:10113000690E0E9436080E94EF2A6093540E709345
:10114000550E8093560E9093570E80917A00886CBE
:1011500080937A0080917B008770863011F40C9424
:10116000810708958F929F92AF92BF92CF92DF92A4
:10117000EF92FF920E94EF2A4B015C0180917A006E
:10118000877D80937A0080917B008770863011F490
:101190000E947B0760916A0E70916B0E80E090E078
:1011A0000E94263420E034E244E759E40E941C35D2
:1011B0006B017C018091540E9091550EA091560EBA
:1011C000B091570EA5019401281B390B4A0B5B0BFC
:1011D000CA01B9010E9426349B01AC01C701B601C6
:1011E0000E948D336093580E7093590E80935A0E5F
:1011F00090935B0EFF90EF90DF90CF90BF90AF90F9
:101200009F908F9008958093660E90917C00907FC0
:1012100090937C0020917C00982F9770922B909354
:101220007C00883020F080917B00886003C0809132
:101230007B00877F80937B00089591E09093650EFB
:101240001092680E1092670E1092640E2AE438E035
:101250003093630E2093620E0C9403098091640E08
:101260008F5F8093640E9091650E891302C0109277
:10127000640E8091640EE091670EF091680EE80FA5
:10128000F11D80810E9403090C944A081F93CF939B
:10129000DF93C091640E9091650E9230A0F081E0D2
:1012A0008C0F891719F08093640E02C01092640E9F
:1012B0008091640EE091670EF091680EE80FF11DC9
:1012C00080810E94030910917800D09179004091AB
:1012D0006C0E50916D0E20916A0E30916B0E42177C
:1012E0005307F0F48091690E811102C00E944408F6
:1012F000612F70E07D2B80917C0085FF02C0672FFD
:101300007727E091600EF091610E8C2F19958091F6
:101310006C0E90916D0E019690936D0E80936C0EF5
:10132000DF91CF911F910895CF93DF93D0917C00EF
:10133000C0917B0080917C00807E80937C008091B6
:101340007C008E6180937C0080917B00877F8093FE
:101350007B0063E070E080E090E00E94122B8091BF
:101360007A00806480937A0080917A0086FDFCCFB9
:101370006091780080917900D0937C00C0937B00CD
:1013800070E0782B882777FD8095982F0E9428346D
:101390009B01AC0160E070E889E894E40E948D3321
:1013A000DF91CF9108951F920F920FB60F921124E3
:1013B0000BB60F922F933F934F935F936F937F934F
:1013C0008F939F93AF93BF93EF93FF93E091620E40
:1013D000F091630E1995FF91EF91BF91AF919F919D
:1013E0008F917F916F915F914F913F912F910F90CE
:1013F0000BBE0F900FBE0F901F9018951F920F926B
:101400000FB60F9211240F900FBE0F901F901895DA
:1014100081E00C946007CF93CFB7F8948091720E5F
:10142000811127C0EBE2F2E08491E5EEF1E09491C6
:10143000E82FF0E0EE0FFF1FE059FD4FA591B491AA
:101440008C91892321F461E085E30E94FA2C61E00C
:1014500085E30E94C12C8CB580618CBD8CB5806405
:101460008CBD61E084E30E94C12C61E083E30E94B3
:10147000C12C8091720E8F5F8093720ECFBFCF917F
:10148000089583E494E008958FE394E0089588E25A
:1014900094E008958EE094E0089582EF93E008953B
:1014A0008FEB93E0089584E492E00895CF93DF9367
:1014B000EC0161E082E00E94FA2CCC5AD74F1882EE
:1014C000DF91CF910895DC01ED91FC910190F081C5
:1014D000E02D1994CF93DF93EC0161E00E94261870
:1014E00087EA93E099838883CE5AD74F188219826E
:1014F000DF91CF91089527EA33E0FC013183208307
:101500000C949618AF92BF92CF92DF92EF92FF9217
:101510000F931F93CF93DF931F921F92CDB7DEB728
:101520008C01D12C7C018BEBE81A87EFF80A58016B
:10153000E5E9AE1AE7EFBE0A2D2D30E0F801EB5ACF
:10154000F74F8081918168E270E00E94CC352617C8
:101550003707E0F588E0C82EC982F7012081318184
:1015600080E090E040E0B801620F731FE42FF0E0EC
:10157000DB01A80FB91FA259BF4F41E050E0AC9169
:10158000AA2311F040E050E0082E02C0440F551F7E
:101590000A94E2F74E0F5F1F01968830910531F7EC
:1015A0004A83285F3F4FF70131832083F501608133
:1015B0006D0D22E0AE014F5F5F4FC8010E948F208A
:1015C000C394FDE0CF12C8CFD394B6CF0F900F9045
:1015D000DF91CF911F910F91FF90EF90DF90CF900F
:1015E000BF90AF900895EF92FF920F931F93CF9308
:1015F000DF938C017C018BE9E81A87EFF80AC4E6D7
:10160000D0E0F70141917F01BE01C8010E9421187D
:101610002196C13CD105A9F760E0C801DF91CF91C7
:101620001F910F91FF90EF900C94160B8F929F9249
:10163000AF92BF92CF92DF92EF92FF920F931F93E0
:10164000CF93DF93EC01B62E7C012BE9E21A27EF52
:10165000F20A04E610E06701E881F9810088F18967
:10166000E02DB801CE011995F70181937F010F5F3D
:101670001F4F013C110581F7F601808191819E0188
:101680002959374F79018E010759174F892BE9F4F2
:10169000F90180819181892BC1F4F80180819181C8
:1016A000892B99F4399780819181A281B381E35B81
:1016B000FF4F80839183A283B38381E090E0F801A0
:1016C00091838083CE010E94F30AF601808191818B
:1016D000892BB9F4F70180819181892B91F4F8016C
:1016E00080819181019769F480E2FE01E559F74F0D
:1016F000808382E090E0F80191838083CE010E9494
:10170000F30AF60180819181892BE9F4F701808148
:101710009181892BC1F4F80180819181029799F41C
:1017200080E090E0A0EAB0E4FE01EF54F74F808340
:101730009183A283B38383E090E0F8019183808357
:10174000CE010E94F30AF60180819181892BB1F4C8
:10175000F70180819181892B89F4F8018081918141
:10176000039761F4FE01EB54F74F108284E090E0A0
:10177000F80191838083CE010E94F30AF6018081F3
:101780009181892B79F5F70180819181892B51F520
:10179000F80180819181049729F580E090E0A8EC20
:1017A000B2E4FE01EA54F74F80839183A283B383AE
:1017B00080E090E4ACE9B6E4349680839183A28320
:1017C000B38380E090E0A8E4B3E43496808391830F
:1017D000A283B38385E090E0F80191838083CE01FA
:1017E0000E94F30AF60180819181892B69F4F70147
:1017F00080819181892B41F4F80180819181059745
:1018000019F4BB2009F4B2C0F60111821082F7016D
:101810001182108285E090E0F8019183808300E0DE
:1018200010E42CE936E4FE01E359F74F00831183FD
:101830002283338380E090E5A3E4B8E43496808388
:101840009183A283B38340E054E264EF79E4349659
:1018500040835183628373830F2EC12CD12CF8E413
:10186000EF2EF3E4FF2EF02D7096C082D182E2823B
:10187000F3820F2E812C912CFAEFAF2EF4E4BF2EC1
:10188000F02D349680829182A282B38234960083B6
:10189000118322833383349680839183A283B3831D
:1018A000349640835183628373834FEF56EE6BE52A
:1018B0007EE274974083518362837383B89640833A
:1018C0005183628373838AE0FD9780833D96108203
:1018D0001182128213823496108211821282138234
:1018E0007C96408351836283738334964083518313
:1018F0006283738334964083518362837383349607
:101900004083518362837383E554F109808191811F
:10191000A281B381E35BFF4F80839183A283B38372
:1019200080E2E254F109808380E090E0A0EAB0E434
:10193000EA5BFF4F80839183A283B3833496108246
:1019400080E090E0A8ECB2E4319680839183A2839A
:10195000B383349600831183228333833496C08209
:10196000D182E282F382CE010E94F30AFE01E355A6
:10197000F74FC080D180E280F38020E030E0A90101
:10198000C701B6010E948933FE01EC59F74F1816C2
:101990001CF081E0808309C0DE01A05AB74FCD92D0
:1019A000DD92ED92FC9213971082FE01EB54F74FFB
:1019B0008081882311F042E001C041E060E0CE0167
:1019C000DF91CF911F910F91FF90EF90DF90CF901B
:1019D000BF90AF909F908F900C944C215F926F922C
:1019E0007F928F929F92AF92BF92CF92DF92EF92AF
:1019F000FF920F931F93CF93DF931F921F92CDB748
:101A0000DEB76C01CB01542E68E270E00E94CC3549
:101A10007B014C015C0183E0B694A7948A95E1F7C1
:101A20003B01772486010559174FF8018081B301E6
:101A3000680F711D8EE89DE00E940A05B501685F80
:101A40007F4F8EE89DE00E94630A8EE89DE00E9431
:101A50001F05F8018081B301680F711D41E050E05E
:101A60008EE89DE00E94FD048EE89DE00E944C04FB
:101A7000892B41F1F82DF7708F2E88E08A0D89832C
:101A80008EE89DE00E94540441E050E060E070E088
:101A900004C0440F551F661F771F8A94D2F7511058
:101AA00002C0482B02C0409548234A83F801608158
:101AB0006E0D22E0AE014F5F5F4FC6010E948F2086
:101AC00080E001C081E00F900F90DF91CF911F91D6
:101AD0000F91FF90EF90DF90CF90BF90AF909F90CD
:101AE0008F907F906F905F9008959F92AF92BF927A
:101AF000CF92DF92EF92FF920F931F93CF93DF93DA
:101B000000D000D0CDB7DEB78C016A017B01922EE8
:101B10001E82FC01E254F74F2081318142815381C2
:101B2000C701B6010E94893318160CF444C0F801AD
:101B3000E05AF74F2081318142815381C701B601BC
:101B40000E948D3328EA29836A837B838C839D835B
:101B5000580184E9A81A87EFB80A25E0AE014F5F63
:101B60005F4FF5016081C8010E948F20992029F103
:101B700064E670E080E090E00E94122B41E0F50105
:101B800060818EE89DE00E94FA048EE89DE00E944C
:101B90004C04892B91F08EE89DE00E945404813022
:101BA00061F421E0AE014A5F5F4FF5016081C80139
:101BB0000E94351B02C088E08E838E81811107C090
:101BC000F801E85AF74FC082D182E282F38226966A
:101BD0000FB6F894DEBF0FBECDBFDF91CF911F913E
:101BE0000F91FF90EF90DF90CF90BF90AF909F90BC
:101BF0000895FC01E05AF74F408351836283738359
:101C00003897408151816281738120E00C94750D79
:101C1000AF92BF92CF92DF92EF92FF920F931F93FA
:101C2000CF93DF9300D000D0CDB7DEB78C016A012F
:101C30007B01FC01EA54F74F24EA30E74DE75FE30C
:101C400060817181828193810E941C359B01AC016E
:101C5000C701B6010E94183587FD4CC02EEA37E453
:101C600041E85FE3F801E654F74F608171818281BA
:101C700093810E941C359B01AC01C701B6010E94F3
:101C800089331816BCF18AEA8983CA82DB82EC8226
:101C9000FD82580184E9A81A87EFB80A25E0AE0151
:101CA0004F5F5F4FF5016081C8010E948F2064E69D
:101CB00070E080E090E00E94122B41E0F50160812D
:101CC0008EE89DE00E94FA048EE89DE00E944C049C
:101CD000892B91F08EE89DE00E945404813061F4DC
:101CE00021E0AE014A5F5F4FF5016081C8010E94AB
:101CF000351B02C088E08E838E81811107C0F801F8
:101D0000E45AF74FC082D182E282F38226960FB660
:101D1000F894DEBF0FBECDBFDF91CF911F910F9121
:101D2000FF90EF90DF90CF90BF90AF9008954F92CB
:101D30005F926F927F928F929F92AF92BF92CF925B
:101D4000DF92EF92FF920F931F93CF93DF931F9237
:101D50001F92CDB7DEB78C01FC01EC5AF74F81E042
:101D6000808360E082E00E94FA2C64EF71E080E002
:101D700090E00E94122B48018BEA881A87EF980A9C
:101D8000F4011182108228E2A22EB12CE12CF12C58
:101D900038E1632E77247A946801F5E9CF1AF7EFDA
:101DA000DF0A4E2C69827A82F60160816E0D22E094
:101DB000AE014F5F5F4FC8010E948F20F601608126
:101DC0006E0D21E0AE014F5F5F4FC8010E94351BD1
:101DD00089818F3F09F04BC098E1592E59821A82B0
:101DE000F6016081640D22E0AE014F5F5F4FC801D4
:101DF0000E948F20F6016081640D21E0AE014F5FEB
:101E00005F4FC8010E94351B8981811130C080EF6E
:101E1000850D89837A82F6016081640D22E0AE012E
:101E20004F5F5F4FC8010E948F205394FDE15F1206
:101E3000D5CF6FE572E088EB9EE00E94C62F4AE0A6
:101E400050E0B70188EB9EE00E94883069E672E0BE
:101E500088EB9EE00E94D32FF40120813181C501DF
:101E600088972817390719F4F401B182A082FFEF8F
:101E7000EF1AFF0A88E2A80EB11CE8E0EE16F104A2
:101E800009F08FCFF401608171814AE050E088EB66
:101E90009EE00E94D3306AE472E088EB9EE00E94EC
:101EA000D32F40E050E46CE176E4C8010E94080EB4
:101EB0000F900F90DF91CF911F910F91FF90EF90B6
:101EC000DF90CF90BF90AF909F908F907F906F905A
:101ED0005F904F9008952F923F924F925F926F9232
:101EE0007F928F929F92AF92BF92CF92DF92EF92AA
:101EF000FF920F931F93CF93DF93CDB7DEB7659714
:101F00000FB6F894DEBF0FBECDBF1C01B62E8C01FC
:101F10000D5A174F81E0D8018C93F101EC5AF74F1D
:101F20008081811103C0C1010E94970EF101E45923
:101F3000FF4F2F01F1EBBF1609F4FBC2FB15D8F1DF
:101F400028EAB21609F4B9C12B15D8F032EAB31653
:101F500009F4F6C03B1548F040EAB41609F468C02D
:101F600051EAB51609F475C02DC584EAB81609F40E
:101F700069C1B81608F4F4C097EAB91609F48DC11E
:101F800021C5ADEABA1609F41EC2AB1548F0B9EA8C
:101F9000BB1609F4B1C1EAEABE1609F4F6C112C5CE
:101FA000F101E05CF74F2FEAB21609F44BC22B1592
:101FB00008F02EC270C238EBB31609F497C43B1573
:101FC000D0F044EBB41609F455C34B1548F052EB6E
:101FD000B51609F4E8C283EBB81609F43BC3F2C4A2
:101FE000F101E05CF74F96EBB91609F49AC39B1523
:101FF00008F07EC349C4ACEBBA1609F4A1C4AB1512
:1020000058F0F101E05CF74FBAEBBB1609F445C498
:10201000BB1508F079C44DC4E4EFBE1609F4ADC396
:10202000F5EFBF1609F410C42DEBB212CBC4A3C454
:10203000F101E05CF74F80819181892B09F050C557
:1020400042E050E0B1016B5A774FC1010E949C18E9
:102050004AC4F101E05CF74F80819181892B09F03E
:102060003FC5D2011C92A12C91012B5A374F3B87BF
:102070002A87610135E9C31A37EFD30AEA2CF12C1C
:10208000AA85BB858D919C9168E270E00E94CC3559
:10209000E616F70608F096C408E010E0D6018C9129
:1020A000B701680F711D8EE89DE00E940A05B80116
:1020B0008EE89DE00E94630A8EE89DE00E941F0565
:1020C000F6018081B701680F711D41E050E08EE894
:1020D0009DE00E94FD048EE89DE00E944C04892B47
:1020E00051F18EE89DE00E9454044C01612C712C4A
:1020F0009924C401062C02C0959587950A94E2F7AD
:1021000081709927F1E08F27898341E050E0BE017B
:102110006F5F7F4FC1010E949C182FEF621A720AF5
:1021200038E06316710429F70F5F1F4F0D3011055A
:1021300009F0B4CF03C0E1E0D201EC93A3949ECFA9
:10214000F101E05CF74F20813181759680819181AA
:102150002817390709F0C4C4C1010E94820A30C49B
:10216000F101E05CF74F80819181029709F0B8C4DA
:10217000D101AB5BB74F2D913C911197F901E25919
:10218000FF4FE20DF31D808191812E5F3F4F2D9314
:102190003C93F101EB5AF74F20813181821793076D
:1021A00008F056C268E270E00E94CC358C016B01E9
:1021B000DD247101B5E9EB1AB7EFFB0AF701808165
:1021C000B601680F711D8EE89DE00E940A05B801F6
:1021D00053E0769567955A95E1F7685F7F4F8EE8F3
:1021E0009DE00E94630A8EE89DE00E941F05D701D2
:1021F0008C91B601680F711D41E050E08EE89DE0C2
:102200000E94FD048EE89DE00E944C04892B09F495
:1022100017C38EE89DE00E9454049927077002C0FE
:10222000959587950A95E2F781709927B1E08B27FC
:10223000898341E050E0BE016F5F7F4FC1010E9482
:102240009C18BEC3F101E05CF74F80819181039738
:1022500009F046C4D101AB5BB74F8D919C911197AA
:10226000FC01E259FF4FE20DF31D60817181F10124
:10227000E80FF91FE059FF4F408103968D939C931F
:10228000F101EB5AF74F808191816817790708F0C7
:10229000DFC1C1010E94EE0C24C4F101E05CF74FE4
:1022A00080819181892B09F01BC4F201108244E0E6
:1022B00050E0B101685A774F5AC3F101E05CF74F23
:1022C00080819181049709F00BC4D101AB5BB74FBA
:1022D0008D919C911197FC01E259FF4FE20DF31D86
:1022E000408151816281738104968D939C9321E09A
:1022F000C1010E94750DA5C2F101E05CF74F80811C
:102300009181892B09F0ECC381010459174F49EAE7
:10231000F8016081C1010E94782064E670E080E0ED
:1023200090E00E94122B41E0D8016C918EE89DE074
:102330000E94FA048EE89DE00E944C04892B09F467
:1023400041C38EE89DE00E945404853009F03AC3F1
:1023500025E0AE014F5F5F4FF8016081C1010E942F
:10236000351B8D81D2018C9381112CC389819A8177
:10237000AB81BC81B101645A774FFB0180839183AB
:10238000A283B38344E050E0F2C2F101E05CF74F76
:1023900080819181049709F0A3C3D101AB5BB74F52
:1023A0008D919C911197FC01E259FF4FE20DF31DB5
:1023B000408151816281738104968D939C93C10108
:1023C0000E94080E3EC2F101E05CF74F80819181CE
:1023D000019709F085C3D101AB5BB74F8D919C91FB
:1023E0001197F101E80FF91FE259FF4FE0810196C3
:1023F0008D939C93E23008F02BC1BBE1EB9FF00181
:102400001124ED58F14F81818983F2011082AAC213
:1024100080819181029709F063C3F101EB5BF74F73
:1024200020813181A101420F531FDA01A259BF4F10
:102430008C9111966C912E5F3F4F318320830E94C7
:10244000E4204FC380819181019709F049C3F101D4
:10245000EB5BF74F80819181D101A80FB91FA25981
:10246000BF4F2C91019691838083223008F0F0C0F9
:10247000D2011C92BBE12B9FF0011124ED58F14FCA
:10248000E181C1018B59974FF0E0213011F0329674
:1024900079C0389677C080819181059709F020C373
:1024A000F101EB5BF74F20813181D101A20FB31F06
:1024B000A259BF4F8C91B9016F5F7F4F71836083C9
:1024C000D2011C928823E1F0813009F0C1C0409113
:1024D0008F0EDB01A259BF4FA20DB31D8D919D91AF
:1024E0000D90BC91A02D2B5F3F4F31832083F101D4
:1024F00034E0439FE00DF11D1124EB57F74FA0C0CE
:102500004091740EDB01A259BF4FA20DB31D8D91F6
:102510009D910D90BC91A02D2B5F3F4F3183208367
:10252000F10124E0429FE00DF11D1124E359F74F22
:1025300087C0F101E05CF74F80819181019709F03C
:10254000CFC2359680819181D101A80FB91FA259C0
:10255000BF4F2C91019691838083223008F078C080
:10256000F20110823BE1239FF0011124ED58F14F5D
:10257000E181C1018B59974FF0E0213011F0359680
:1025800001C03D96EE0FFF1FEE0FFF1FE80FF91F72
:1025900080819181A281B38189839A83AB83BC833B
:1025A00044E050E0E1C1F101E05CF74F80819181AE
:1025B000059709F095C2359620813181D101A20F8E
:1025C000B31FA259BF4F8C91B9016F5F7F4F7183C9
:1025D0006083D2011C928823D9F08130C9F54091E3
:1025E0008F0EDB01A259BF4FA20DB31D8D919D919E
:1025F0000D90BC91A02D2B5F3F4F31832083F101C3
:1026000034E0439FE00DF11D1124E756F74F18C049
:102610004091740ED901A159BF4FA20DB31D8D91E8
:102620009D910D90BC91A02D2B5F3F4F3183208356
:10263000F10124E0429FE00DF11D1124E758F74F0E
:1026400080839183A283B383C1010E94F30ABAC13C
:1026500085E0F7C0F101E05CF74F80819181892B23
:1026600009F03EC2F201108244E050E0B101605A2C
:10267000774F7DC1F101E05CF74F80819181049734
:1026800009F02EC2D101AB5BB74F8D919C91119790
:10269000FC01E259FF4FE20DF31DC080D180E280C2
:1026A000F38004968D939C9320E030E0A901C7014C
:1026B000B6010E9418351816CCF4F101EC59F74F09
:1026C0008081882331F03497C082D182E282F38204
:1026D0000AC1D101A355B74FCD92DD92ED92FC9284
:1026E00013971082C1010E94F30AFDC088E0F9C16E
:1026F00080819181892B09F0F3C1D2011C9211E0F4
:1027000020E030E0A901F101E355F74F60817181CC
:10271000828193810E94893318160CF410E019838A
:1027200021C180819181019709F0DAC1F101EB5B50
:10273000F74F80819181D101A80FB91FA259BF4FD6
:102740002C91019691838083E859FF4F222329F031
:1027500010821182128213820CC0D101A05AB74F8D
:102760008D919D910D90BC91A02D80839183A2832A
:10277000B383C1010E94F30A23C1F101E05CF74F6A
:10278000008111810A30110508F4AAC135968081B3
:102790009181DC01A259BF4FA20DB31D2D913D9136
:1027A0004D915C912A873B874C875D879C012C5F0C
:1027B0003F4F31832083DC01AE58BF4FA20DB31DC4
:1027C0006D907C90DC01AC58BF4FA20DB31D2D91D4
:1027D0003D914D915C912A8B3B8B4C8B5D8BD10154
:1027E000A80FB91FA858BF4FFC900B969183808308
:1027F0000B30110541F07096808191810B9608177E
:10280000190709F06DC1BBE46B16B1E07B06C0F49B
:1028100020E030E04AE754E46A857B858C859D851D
:102820000E948D3320E030E44CE157E40E941C35D7
:1028300020E030E040E855E40E94893387FDE1C0A4
:1028400081E0D2018C93BEC0F101E05CF74F808142
:102850009181019709F044C1F2011082F101EB5B13
:10286000F74F80819181D101A80FB91FA259BF4FA5
:102870002C9101969183808361E0211101C060E079
:10288000C1010E94160B9EC080819181892B09F0A5
:1028900027C1D2011C9282E035C080819181892BB1
:1028A00009F01EC1F2011082F101EE5AF74F80814A
:1028B00029C080819181019709F012C1F101EB5B80
:1028C000F74F80819181D101A80FB91FA259BF4F45
:1028D0002C910196918380833D96222319F081E00B
:1028E000808301C01082D2011C926CC0F101E05CB7
:1028F000F74F80819181892B09F0F2C0F20110829B
:10290000D8018C9189832EC080819181019709F033
:10291000E7C0F101EB5BF74F80819181D101A80FF6
:10292000B91FA259BF4F2C91019691838083222316
:1029300021F081E0F801808343C0D8011C9240C09F
:10294000F101E05CF74F80819181892B09F0C8C0CB
:10295000D2011C9282E00E94302D21E0892B09F0E7
:1029600020E0298341E050E0BE016F5F7F4FC1014D
:102970000E949C1827C0F101E05CF74F8081918193
:10298000019709F0ADC0359680819181D101A80FE2
:10299000B91FA259BF4F2C910196918380832223A6
:1029A00059F060E082E00E94FA2C64EF71E080E070
:1029B00090E00E94122B04C061E082E00E94FA2C99
:1029C000F20110826B2DC1010E945C1BD2018C911F
:1029D00065960FB6F894DEBF0FBECDBFDF91CF91E5
:1029E0001F910F91FF90EF90DF90CF90BF90AF902D
:1029F0009F908F907F906F905F904F903F902F901F
:102A00000895D2011C92F101EB5AF74F8081918118
:102A10000B960817190719F4C1010E94820A0E9437
:102A2000EF2A6E877F87888B998B88248394F1FEA9
:102A3000812CAA24A394F0FEA12CF101E45AF74FB3
:102A4000C080D180E280F3800A891B892C893D896E
:102A5000A3016A857B858C859D850E94CD25F20129
:102A600080838111AFCF0E94EF2A2E853F85488950
:102A70005989621B730B840B950B0E9426346B01E2
:102A80007C01B30180E090E00E94263420E030E039
:102A90004AE754E40E941C359B01AC01C701B60112
:102AA0000E948D336E837F838887998744E050E04E
:102AB000BE016A5F7F4FC1010E949C1844E050E054
:102AC0006AE87EE0C1010E949C1844E050E065EA9B
:102AD0007EE0C1010E949C18F101E05AF74F58CDE9
:102AE00086E0F20180836ECFAF92BF92CF92DF92E9
:102AF000EF92FF920F931F93CF93DF93CDB7DEB783
:102B000062970FB6F894DEBF0FBECDBF8C010E9456
:102B1000911761E082E00E94FA2C61E082E00E945D
:102B2000C12CF801E05AF74F80E090E0A6E9B3E449
:102B300080839183A283B38360E0C8010E94160B57
:102B4000D801ED91FC910680F781E02DC80119951F
:102B5000BC0188EB9EE00E94C62F65E772E088EB1F
:102B60009EE00E94C62FD801ED91FC910484F5856A
:102B7000E02DC8011995BC0188EB9EE00E94D32F7F
:102B800068E772E088EB9EE00E94C62FD801ED91C5
:102B9000FC910284F385E02DC8011995BC0188EBF6
:102BA0009EE00E94D32F6BE872E088EB9EE00E94CB
:102BB000C62F7801BBE9EB1AB7EFFB0AF70160817A
:102BC00071814AE050E088EB9EE00E94D33063E7D9
:102BD00072E088EB9EE00E94C62FF801E959F74F9A
:102BE000608171814AE050E088EB9EE00E94D33022
:102BF00063E772E088EB9EE00E94C62FF801E75978
:102C0000F74F608171814AE050E088EB9EE00E94BE
:102C1000D93062EA72E088EB9EE00E94C62FF8018C
:102C2000E459F74F4AE050E0608188EB9EE00E9453
:102C3000BC30B12CA12CA1E0BA1202C085E001C0C9
:102C400083E0A81608F0AFC04AE06A2DCE010196D5
:102C50000E948A324AE06B2DCE010D960E948A3284
:102C600066EC72E0CE0107960E945C32BE01635FA3
:102C70007F4FCE0107960E94E33268EC72E00E941B
:102C8000F632BE016F5F7F4F0E94E3326CED72E05F
:102C90000E94F632BC0188EB9EE00E94B82FCE0164
:102CA00007960E94EE31CE010D960E94EE31CE01C4
:102CB00001960E94EE31CA2CD12CF1E0BF1619F01A
:102CC000F601329602C0F6013896EE0FFF1FEE0FA6
:102CD000FF1FEE0DFF1D408151816281738122E053
:102CE00030E088EB9EE00E94DC314AE06A2DCE01A4
:102CF00001960E948A324AE06B2DCE010D960E9409
:102D00008A3266EC72E0CE0107960E945C32BE0108
:102D1000635F7F4FCE0107960E94E3326FED72E052
:102D20000E94F632BE016F5F7F4F0E94E3326CED6E
:102D300072E00E94F632BC0188EB9EE00E94B82F40
:102D4000CE0107960E94EE31CE010D960E94EE3123
:102D5000CE0101960E94EE3181E0F601B81611F025
:102D6000359601C03D96EE0FFF1FEE0FFF1FEE0DD3
:102D7000FF1D608171818281938125EA34ED48E6EF
:102D800053E50E941C35AB01BC0122E030E088EB2A
:102D90009EE00E94DA3164EF72E088EB9EE00E94D0
:102DA000D32FA39448CFB394B2E0BB1243CF68EFC4
:102DB00072E088EB9EE00E94C62FF801E559F74FBC
:102DC0004AE050E0608188EB9EE00E94BC306DE4F8
:102DD00073E088EB9EE00E94C62FF801E355F74FA1
:102DE000408151816281738122E030E088EB9EE076
:102DF0000E94DC3165E173E088EB9EE00E94C62F03
:102E0000F801EF54F74F408151816281738122E0D4
:102E100030E088EB9EE00E94DC3168E273E088EBF2
:102E20009EE00E94C62FF801EB54F74F608170E0DE
:102E30004AE050E088EB9EE00E94903061E473E04D
:102E400088EB9EE00E94C62FF801EC59F74F608195
:102E500070E04AE050E088EB9EE00E9490306DE523
:102E600073E088EB9EE00E94C62FF801EA54F74F0A
:102E7000408151816281738122E030E088EB9EE0E5
:102E80000E94DC3165E773E088EB9EE00E94C62F6C
:102E9000F801E654F74F408151816281738122E04D
:102EA00030E088EB9EE00E94DC316DE873E088EB57
:102EB0009EE00E94C62FF801E254F74F40815181F5
:102EC0006281738122E030E088EB9EE00E94DC3179
:102ED00062960FB6F894DEBF0FBECDBFDF91CF91E3
:102EE0001F910F91FF90EF90DF90CF90BF90AF9028
:102EF00008958627682F62956827062E6695669541
:102F00006025062E669560256770082E892F6695C8
:102F100007946795902D86270694679590258627B8
:102F20000895CF92DF92EF92FF920F931F93CF936A
:102F3000DF9300D01F92CDB7DEB78C01CE01019692
:102F40006C019FE0E92EF12CD801ED91FC910088F5
:102F5000F189E02DB701C8011995F60181936F0140
:102F6000FFEFEF1AFF0A23E1E216F10469F7898106
:102F70009A81AB81BC818F3F9F4FAF4FBF4FE1F133
:102F800049815A816B817C8126E088EB9EE00E941A
:102F90006B2E8EE89DE00E94E3040E940B0A0E94C3
:102FA000940908591F4FD8016D937D938D939C937D
:102FB000139768E574E088EB9EE00E94C62FF80145
:102FC000408151816281738122E030E088EB9EE094
:102FD0000E94DA316AE674E088EB9EE00F900F9071
:102FE0000F900F90DF91CF911F910F91FF90EF9075
:102FF000DF90CF900C94D32F80E092ECA1E0B0E072
:1030000089839A83AB83BC83CE0101966C018FE0E8
:10301000E82EF12CD6014D916D01D801ED91FC9176
:103020000288F389E02DB701C8011995BFEFEB1AAB
:10303000FB0AE3E1EE16F10469F7A2CFCB010C9491
:103040006F38CB01642F0C94773808958F929F923C
:10305000AF92BF92CF92DF92EF92FF920F931F93A6
:10306000CF93DF932CE834E0FC0131832083E45BD1
:10307000F74F608339971182108236961082399704
:10308000118210823596118210823296118210823E
:103090003A961082E12CF12C00E010E0C8010E9469
:1030A0006F38A82EC80107960E946F388E2CC0E09A
:1030B000D0E0B12CA094B094C82ED12CC094D09460
:1030C000CE018E0D9F1DC697C4F4B5010C2E02C013
:1030D000759567950A94E2F761709C2E980C892D7E
:1030E0000E94C12CB6010C2E02C0759567950A94FA
:1030F000E2F76170892D0E94FA2C2196C830D10523
:10310000F9F60F5F1F4FE8E0EE0EF11C07301105D6
:1031100029F6DF91CF911F910F91FF90EF90DF90F3
:10312000CF90BF90AF909F908F9008952CE834E09F
:10313000FC013183208308951F93CF93DF93FB011C
:1031400020E030E0DC01A95BB74F2417350781F0A0
:103150001191BC01620F731FCD91DC9111976C0F1F
:103160007D1FEB01C259DF4F18832F5F3F4FEDCF1B
:103170008D919C911197820F931F8D939C93DF915A
:10318000CF911F910895CF93DF93FC01E359FF4F37
:103190006081DC01A459BF4F67FF0EC020E8260FF5
:1031A000208322E02C93DC01ED91FC910488F589C9
:1031B000E02DDF91CF911994FC01E05CF74F208165
:1031C000318121503109820F931FEC01C259DF4F29
:1031D00088818C9331832083DF91CF9108956F9202
:1031E0007F928F929F92AF92BF92CF92DF92EF9297
:1031F000FF920F931F93CF93DF93EC019C01275B0A
:10320000374F59016D3721F481E0F9018083AEC059
:10321000F90180819E012D5B374F7901882309F4E4
:103220009EC080E26827F701808191819E01245B26
:10323000374F4901FE01EE5BF74F6F018E01005CD5
:10324000174F009759F4E55DF7406083F9018081DD
:103250008823A9F18FEF9FEF33961EC0813091052F
:1032600081F467FF08C083E08083862F8F77F801A1
:103270001082818324C082E08083862F90E0F80151
:103280000BC08230910559F42081233041F4F801BC
:1032900080819181860F911D9183808310C0F601FA
:1032A0002081821B9109F8012081318182179307C7
:1032B00030F48C0F9D1FFC01E259FF4F6083F40135
:1032C0008081882369F03E01F1EB6F1AF7EF7F0AE6
:1032D000F301808191810E947917F30191838083AA
:1032E000F701208131812F5F3F4F31832083F4012B
:1032F0004081F6015081F80180819181850F911DF7
:10330000840F911D840F911D2817390711F5F701BE
:1033100011821082FE01EB5BF74F11821082329610
:1033200011821082442329F0389680819181892B63
:1033300019F4CE010E94C318FE01E55BF74F8081AE
:10334000882339F0C359DF4F80589881981301C002
:103350001082F5018081882349F0108207C06E3702
:1033600009F061CFF70111821082F3CFDF91CF9185
:103370001F910F91FF90EF90DF90CF90BF90AF9093
:103380009F908F907F906F900895FF920F931F935F
:10339000CF93DF931F92CDB7DEB78C01F62E88E076
:1033A000898369816837E8F58EE89DE00E94000511
:1033B0008EE89DE00E941F05811130C0FF2041F082
:1033C00041E050E0BE016F5F7F4FC8010E949C1832
:1033D0006DE674E088EB9EE00E94C62F4AE050E064
:1033E000698188EB9EE00E94B53061E874E088EB6B
:1033F0009EE00E94C62F40E150E0698188EB9EE08C
:103400000E94B53066E874E088EB9EE00E94D32FFE
:1034100061E070E080E090E00E94122B89818F5F74
:10342000BFCF0F90DF91CF911F910F91FF90089523
:10343000CF93C62F83E8860F823090F46DE788EB38
:103440009EE00E94062EE091B80EF091B90E60E267
:103450006C270190F081E02D88EB9EE0CF911994CC
:1034600088EB9EE0CF910C94062E8F929F92AF92A4
:10347000BF92CF92DF92EF92FF920F931F93CF9361
:10348000DF93EC018C017C0120ECE21A27EFF20AB9
:10349000845B974F6C015E0193EBA91A97EFB90A11
:1034A000F7018081918198012C1B3D0BF6012817B3
:1034B0003907C8F48081980122593F4F4901882378
:1034C00051F0F9016081F501808191810E947917A5
:1034D000F50191838083F4016081CE010E94181A66
:1034E0000F5F1F4FDDCF8081882369F08E01035B62
:1034F000174FF8016081CE010E94181AF80161810E
:10350000CE010E94181AF70111821082C95BD74FB1
:1035100019821882DF91CF911F910F91FF90EF9048
:10352000DF90CF90BF90AF909F908F900895BF9203
:10353000CF92DF92EF92FF920F931F93CF93DF937F
:10354000EC01B62E8C01005C174FFC01E95BF74FD4
:1035500080819181F801918380836EE788EB9EE002
:103560000E94062E7E01F4EBEF1AF7EFFF0AF70137
:103570008081882381F08FEF9FEF6E01F3EBCF1AEC
:10358000F7EFDF0AF601918380836B2D0E94791794
:10359000F601918380836B2DCE010E94181AF801E9
:1035A00060817181F70180816038710580F4882322
:1035B00071F17E01F3EBEF1AF7EFFF0AF70180815B
:1035C00091810E947917F7019183808320C088231D
:1035D000B1F07068672F7E01F3EBEF1AF7EFFF0A87
:1035E000F701808191810E947917F701918380838F
:1035F000F80160810E947917F70191838083F801B7
:10360000808191819068692FCE010E94181AF8017B
:103610006081CE01DF91CF911F910F91FF90EF90CC
:10362000DF90CF90BF900C94181A0F931F93CF93F5
:10363000DF931F92CDB7DEB78C01698341E050E084
:10364000BE016F5F7F4F0E949C18F801E359FF4F46
:103650006081C8010E94971AC8010E94351A0F9014
:10366000DF91CF911F910F910895FF920F931F93B8
:10367000CF93DF938A01422F8EE89DE00E94FA04E7
:10368000C0E08EE89DE00E944C04892B71F0FF247D
:10369000F394FC0EC8018C0F911DEC018EE89DE0A7
:1036A0000E9454048883CF2DECCF8C2FDF91CF91D3
:1036B0001F910F91FF9008956F927F928F929F922A
:1036C000AF92BF92CF92DF92EF92FF920F931F9330
:1036D000CF93DF93CDB7DEB769970FB6F894DEBF0F
:1036E0000FBECDBF8C018DB69EB6862F90E0FC013B
:1036F000E058F109EF31F10508F0D5C4EE58FF4F5D
:103700009801205C374F79010C940236D9018D91D4
:103710009C91892BF1F4D801ED91FC910280F38109
:10372000E02DC8011995FC0101900020E9F7AF01D7
:1037300041505109481B590BD801ED91FC91028071
:10374000F381E02D62C0D9018D919C91019709F41C
:103750009FC386E0F801E459FF4F86C4F9018081D8
:103760009181892BB1F7D801ED91FC910480F5810D
:10377000E02DC8011995FC0101900020E9F7AF0187
:1037800041505109481B590BD801ED91FC9104801F
:10379000F581E02D3AC0F90180819181892BC9F62C
:1037A000D801ED91FC910680F781E02DC8011995B3
:1037B000FC0101900020E9F7AF0141505109481B7D
:1037C000590BD801ED91FC910680F781E02D1DC0C9
:1037D000F90180819181892B09F0BBCFD801ED914E
:1037E000FC910084F185E02DC8011995FC01019040
:1037F0000020E9F7AF0141505109481B590BD8018E
:10380000ED91FC910084F185E02DC801498F588F1E
:103810001995498D588DBC0134C4F901808191817D
:10382000892B09F096CFD801ED91FC910284F385A4
:10383000E02DC8011995FC0101900020E9F7AF01C6
:1038400041505109481B590BD801ED91FC9102845C
:10385000F385E02DDACFF90180819181892B09F080
:1038600078CFD801ED91FC910484F585E02DC80155
:103870001995FC0101900020E9F7AF014150510971
:10388000481B590BD801ED91FC910484F585E02D7E
:10389000BCCFF90180819181892B09F05ACFD801E1
:1038A000ED91FC910684F785E02DC8011995FC0186
:1038B00001900020E9F7AF0141505109481B590B15
:1038C000D801ED91FC910684F785E02D9ECFF9019A
:1038D00080819181892B09F03CCF4AE050E062EA77
:1038E00074E0CFC3D9018D919C91029709F031CF3B
:1038F000F801EB5BF74F20813181A801420F531F84
:10390000DA01A259BF4F8C9111966C912E5F3F4FF7
:10391000318320830E94C12CC2C3F901808191812F
:10392000029709F016CFF801EB5BF74F2081318148
:10393000A801420F531FDA01A259BF4F8C91119673
:103940006C912E5F3F4F318320830E94FA2CA7C3D6
:10395000D9018D919C91019709F0FBCEF801EB5BA9
:10396000F74F20813181D801A20FB31FA259BF4F59
:103970008C912F5F3F4F318320830E94302DF5C201
:10398000F90180819181029709F0E3CEF801EB5BA8
:10399000F74F20813181D801A20FB31FA259BF4F29
:1039A0008C91A9014F5F5F4F51834083D901A15989
:1039B000BF4FA00FB11F6D917C912D5F3F4F3183A1
:1039C00020830E94A72B6BC3C80184599F4F26E018
:1039D000DC012C93F701208131812230310508F47C
:1039E00062C3ADB6BEB6F801EB5BF74F40815181C3
:1039F000D801A40FB51FA259BF4F6C914F5F5F4F05
:103A000051834083462F50E0ADB7BEB7A41BB50B22
:103A10000FB6F894BEBF0FBEADBF11966D01223038
:103A2000310511F4613031F04D5F5F4F24173507D8
:103A300009F07BC07C2D3601262D271B261788F424
:103A400020813181A801420F531F42595F4FDA0193
:103A50004C912F5F3F4F31832083D3014D933D0124
:103A6000EBCFD7012D913C9122303105B1F020816F
:103A70003181D901A259BF4FA00FB11FED90FC9029
:103A80002E5F3F4F31832083B9EEEB16B3E0FB0688
:103A900038F029E0FC01208348C0EE24E394F12CA7
:103AA000DC011C92F0926B0EE0926A0EC801825902
:103AB0009F4F90936F0E80936E0E80E0688F0E94F0
:103AC0008F07688D613029F4F60180810E941D09FD
:103AD00012C0D092680EC092670E6093650E10926D
:103AE000640E8EE299E09093630E8093620ED6018D
:103AF0008C910E9403090E94930880916A0E909114
:103B00006B0E20916C0E30916D0E28173907C9F796
:103B10000E94B208EE0CFF1CF801E95BF74F8081B0
:103B20009181E80EF91EF182E0820FB6F894BEBED4
:103B30000FBEADBEB8C2F90180819181039709F033
:103B400008CED801AB5BB74F8D919C911197FC01CA
:103B5000E259FF4FE00FF11F60817181F801E80F1A
:103B6000F91FE059FF4F408103968D939C93D80134
:103B7000ED91FC910288F389E02DC80119958FC25F
:103B8000F90180819181029709F0E3CDD801AB5B07
:103B9000B74F8D919C911197FC01E259FF4FE00FB7
:103BA000F11F6081718102968D939C93D801ED91F4
:103BB000FC910088F189E02DC8011995D6C1F90161
:103BC00080819181029709F0C4CDF801EB5BF74F3A
:103BD000808191819801280F391FD901A259BF4FC7
:103BE0006C911196EC90029691838083CE010196A0
:103BF0000E949103CE0101960E947F03F12CBE0129
:103C0000615F7F4FCE0101960E94B403F394EF14DD
:103C1000B0F7980124593F4F7901882309F422C253
:103C200048E050E0BE01615F7F4FC8010E949C18D0
:103C300016C2D9018D919C910B9709F08ACDD801BC
:103C4000AB5BB74F2D913C911197A801420F531FC9
:103C5000FA01E259FF4F60816901EFEFCE1ADE0AE7
:103C60001196DC92CE923E01FFE06F0E711C80E057
:103C700090E0B62CA72CC00ED11E7601E80EF91EDE
:103C80007EE6E70EF11CF701F080F301F1923F01AF
:103C900001968830910589F7FA01E958FF4FF080C5
:103CA0003196E080255F3F4F2D933C93CE010196E6
:103CB0000E949103CE0101960E945C026B2D7A2D29
:103CC000CE0101960E94570340E06F2DCE01019670
:103CD0000E94F902F12CFE1409F4E1C1CE01019613
:103CE0000E943B038F8B41E050E0BE01695E7F4F35
:103CF000C8010E949C18F394EECFD9018D919C913C
:103D00000B9709F026CDD801AB5BB74F2D913C91B5
:103D10001197A801420F531FFA01E259FF4F60812A
:103D20006901EFEFCE1ADE0A1196DC92CE923E01C7
:103D3000FFE06F0E711C80E090E0B62CA72CC00E47
:103D4000D11E7601E80EF91E7EE6E70EF11CF701A2
:103D5000F080F301F1923F0101968830910589F7D7
:103D6000FA01E958FF4FF08031964081255F3F4FBF
:103D70002D933C93CE010196498F0E949103CE0171
:103D800001960E945C026B2D7A2DCE0101960E9455
:103D90005703498D6F2DCE0101960E94F9027FC114
:103DA000D9018D919C91029709F0D3CCF801EB5B7E
:103DB000F74F808191819801280F391FD901A259AD
:103DC000BF4F6C911196EC900296918380834E2D9B
:103DD0008EE89DE00E94FA04F12C8EE89DE00E949E
:103DE0004C04892B79F08EE89DE00E94540489836D
:103DF00041E050E0BE016F5F7F4FC8010E949C18F8
:103E0000F394EBCFF801E459FF4FFE1409F44AC1D3
:103E100081E02AC1F90180819181029708F499CC4F
:103E20006801FBEBCF1AF7EFDF0AD6018D919C9169
:103E30001197F801E80FF91FE259FF4F60810196D1
:103E40008D939C938EE89DE00E940005B12C2B2D54
:103E500030E0F7018081918101972817390798F4A4
:103E6000F60180819181F801E80FF91FE259FF4FB7
:103E700060810196D6018D939C938EE89DE00E940F
:103E8000A404B394E4CF8EE89DE00E941F0507C10F
:103E9000F801EB5BF74F80819181D801A80FB91F22
:103EA000A259BF4F2C910196918380838CB521112B
:103EB00002C0806201C08F7D8CBDF1C0F90180819C
:103EC0009181019709F045CCF801EB5BF74F8081B8
:103ED0009181D801A80FB91FA259BF4F2C9101960B
:103EE000918380839CB5822F83709C7F892B8CBDAE
:103EF0008DB522FB222720F98E7F822B8DBD18C025
:103F0000D9018D919C91019709F023CCF801EB5BCD
:103F1000F74F80819181D801A80FB91FA259BF4FD7
:103F20002C910196918380838CB5837F282B2CBDA7
:103F3000E95DF740B7C0F90180819181019709F0EF
:103F400008CCF801EB5BF74F80819181D801A80F75
:103F5000B91FA259BF4F2C910196918380832EBD2A
:103F600000000DB407FEFDCF8EB5898341E050E01F
:103F7000BE016F5F7F4F85C0D9018D919C91892BC8
:103F800009F0E7CBF801EA59FF4F40815181B801B0
:103F90006E5F7F4F76C0F90180819181892B09F096
:103FA000D8CB80915C0E90915D0EA0915E0EB09189
:103FB0005F0E89839A83AB83BC8344E050E0D8CF03
:103FC000D9018D919C91049709F0C3CBD801AB5BCB
:103FD000B74F2D913C911197F901E259FF4FE00F36
:103FE000F11F60817181828193812C5F3F4F2D93FE
:103FF0003C930E94A40753C0F90180819181892BD1
:1040000009F0A7CB0E9476079A83898342E050E0AB
:10401000AFCFD9018D919C91029709F09ACBD8012D
:10402000AB5BB74F2D913C911197F901E259FF4FCE
:10403000E00FF11F808191812E5F3F4F2D933C93C4
:104040009C0122503109F801E459FF4F7F012630CD
:10405000310540F40E946D0780E00E943608D701C8
:104060001C9221C085E0F70180831DC0D9018D918C
:104070009C91892B09F06DCB44E050E0B801685960
:104080007F4FC8010E949C180AC0F901808191816C
:10409000892B09F05ECB61E0C8010E94C519F801C7
:1040A000E459FF4F10827801FCE6EF0EF11CD701B6
:1040B0006C91C8010E94151BF70180810FB6F8941E
:1040C0009EBE0FBE8DBE69960FB6F894DEBF0FBEC2
:1040D000CDBFDF91CF911F910F91FF90EF90DF90B7
:1040E000CF90BF90AF909F908F907F906F900895EA
:1040F000CF93DF931F92CDB7DEB78EE89DE0498363
:104100000E9400054981642F8EE89DE00E94A4046E
:104110008EE89DE00F90DF91CF910C941F05EF92F8
:10412000FF920F931F93CF93DF931F921F92CDB7F0
:10413000DEB7122F8EE89DE049835A830E94000566
:104140004981042FE42E5A81F52E8E2D801B811774
:1041500040F4F70161917F018EE89DE00E94A40484
:10416000F4CF8EE89DE00F900F90DF91CF911F91DB
:104170000F91FF90EF900C941F05CF93DF93EC010C
:1041800088EB9EE00E94592D181619064CF488EB16
:104190009EE00E94722D682FCE010E94EF18F0CF92
:1041A000DF91CF91089520916C0E30916D0E80912A
:1041B0006A0E90916B0E2817390721F40E94B208FD
:1041C00081E0089580E00895CF93DF93D82FC62F24
:1041D000811116C0613041F028F0623009F058C0FA
:1041E00060E009C061E007C060E088E00E94FA2C4E
:1041F00061E089E02BC088E00E94FA2C60E0F9CFF2
:10420000813009F045C0623099F050F4662371F0B6
:104210006130F1F560E08AE00E94FA2C61E033C081
:104220006330F9F06430A1F560E029C061E027C097
:1042300060E08AE00E94FA2C60E08BE00E94FA2C99
:1042400061E08CE00E94FA2C60E08DE00E94FA2C84
:104250008BE1D89FF0011124ED58F14FC18380E02C
:1042600018C060E08AE00E94FA2C60E08BE00E94B7
:10427000FA2C60E08CE00E94FA2C61E0E6CF8AE044
:104280000E94FA2C60E08BE00E94FA2C60E0D9CF0B
:1042900085E0DF91CF9108959093AC0E8093AB0EA3
:1042A0006093730E40938E0E60E078EB88E097E4A5
:1042B0000E94A40761E088E00E94C12C61E089E0CF
:1042C0000E94C12C61E08AE00E94C12C61E08BE079
:1042D0000E94C12C61E08CE00E94C12C61E08DE065
:1042E0000E94C12C83E00E946D076091740E80E0F3
:1042F0000E94E42060918F0E81E00E94E42020E083
:1043000032E03093890E2093880E80E090E0A0E0A8
:10431000B4E480938A0E90938B0EA0938C0EB0938E
:104320008D0E41E04093830E3093A40E2093A30E94
:104330008093A50E9093A60EA093A70EB093A80EFF
:1043400040939E0E08950F931F93CF93DF93AB017D
:104350009BE1899FE0011124CD58D14F9B0123534C
:1043600031092A393340B0F09B81911110C09A81F4
:104370009F5F9A836981662321F061500E94E42047
:1043800003C081E08093A90E83E08B8337C09150F6
:104390009B8334C08091AA0E882309F18D899E8960
:1043A000DB01A81BB90B9D010E94083609891A89F7
:1043B0002B893C89060F171F281F391F098B1A8B61
:1043C0002B8B3C8B88859985AA85BB85840F951F8F
:1043D000A11DB11D88879987AA87BB870FC08C81D3
:1043E0009D818617970718F47D836C8307C08E81A3
:1043F0009F816817790710F47F836E83DF91CF91D7
:104400001F910F91089580E00C94A32181E00C94FA
:10441000A3212F923F924F925F926F927F928F9241
:104420009F92AF92BF92CF92DF92EF92FF920F9343
:104430001F93CF93DF93CDB7DEB764970FB6F89491
:10444000DEBF0FBECDBF29013A01E986FA860B8790
:104450001C871601BA8AA98A0E941C3520E030E028
:104460004AE754E40E948D339B01AC010E94123351
:104470006B017C0120E030E0A9010E94183520E0AA
:1044800030E040E05FE387FD05C0C701B6010E9450
:10449000123304C0C701B6010E9411330E94F533E4
:1044A0000E94283420E030E040E05FE30E941C35A9
:1044B0006D837E838F839887A30192016D817E81B6
:1044C0008F8198850E948D3329853A854B855C853F
:1044D0000E941C350E9476330E94FA338B01023011
:1044E000110508F42DC3B80180E090E00E94263445
:1044F0002D813E814F8158850E948D33A301920109
:104500000E941C3569837A838B839C83D1016D93D0
:104510007D938D939C93139729853A854B855C8574
:104520000E94183518160CF408C3A3019201698182
:104530007A818B819C810E948D336B017C019B0170
:10454000AC0160E070E080E090E40E948D334B01AC
:104550005C0120E030E0A9010E94183520E030E045
:1045600040E05FE387FD05C0C501B4010E9412333E
:1045700004C0C501B4010E9411330E94F5330E94AA
:104580002834A70196010E941C359B01AC0160E014
:1045900070E080E090E40E94113320E030E0A90157
:1045A0000E94183520E030E0A901181664F5C50115
:1045B000B4010E94183520E030E040E05FE387FD61
:1045C00005C0C501B4010E94123304C0C501B40185
:1045D0000E9411330E94F5330E942834A7019601EE
:1045E0000E941C359B01AC0160E070E080E090E42B
:1045F0000E9411332DEC3CEC4CEC5DE30E948933BE
:1046000087FD9BC22CC0C501B4010E94183520E073
:1046100030E040E05FE387FD05C0C501B4010E94C2
:10462000123304C0C501B4010E9411330E94F53356
:104630000E942834A70196010E941C359B01AC0101
:1046400060E070E080E090E40E9411332DEC3CECDF
:104650004CEC5DEB0E94183518160CF46EC2A301E9
:104660009201C301B2010E9412339B01AC01698126
:104670007A818B819C810E94893387FF61C1298166
:104680003A814B815C81C301B2010E948D336D87F9
:104690007E878F87988B1C8A1B8AEB89FC89BF01D8
:1046A00080E090E00E9426344B015C019B01AC014C
:1046B0006D857E858F8598890E94113320E030E0DA
:1046C00040E05FE30E94893318163CF42B893C8953
:1046D0002F5F3F4F3C8B2B8BE0CF29813A814B8161
:1046E0005C81C501B4010E941C359B01AC01C30172
:1046F000B2010E9411334B015C0120E030E0A901BE
:104700000E941835181624F0B7FAB094B7F8B09490
:10471000A501940169817A818B819C810E948D33EE
:1047200069837A838B839C839B01AC0160E070E09A
:1047300080E090E40E948D334B015C0120E030E08A
:10474000A9010E94183520E030E040E05FE387FDDA
:1047500005C0C501B4010E94123304C0C501B401F3
:104760000E9411330E94F5330E94283429813A8136
:104770004B815C810E941C359B01AC0160E070E0C4
:1047800080E090E40E94113320E030E0A9010E9413
:10479000183520E030E0A901181674F5C501B40100
:1047A0000E94183520E030E040E05FE387FD05C05F
:1047B000C501B4010E94123304C0C501B4010E94B6
:1047C00011330E94F5330E94283429813A814B81AC
:1047D0005C810E941C359B01AC0160E070E080E0D0
:1047E00090E40E9411332DEC3CEC4CEC5DE30E9414
:1047F000893387FF2FC0A1C1C501B4010E941835BC
:1048000020E030E040E05FE387FD05C0C501B40172
:104810000E94123304C0C501B4010E9411330E94EA
:10482000F5330E94283429813A814B815C810E94B2
:104830001C359B01AC0160E070E080E090E40E94D8
:1048400011332DEC3CEC4CEC5DEB0E941835181646
:104850000CF473C120E030E0A901C701B6010E9449
:10486000183520E030E040E05FE387FD05C0C70178
:10487000B6010E94123304C0C701B6010E94113371
:104880000E94F5330E9428349B01AC01C701B60198
:104890000E94113320E030E0A9010E94183520E089
:1048A00030E0A901181634F5C701B6010E94183589
:1048B00020E030E040E05FE387FD05C0C701B601BE
:1048C0000E94123304C0C701B6010E9411330E9436
:1048D000F5330E9428349B01AC01C701B6010E9448
:1048E000113327E137EB41ED58E30E94893387FF0D
:1048F00027C023C1C701B6010E94183520E030E06F
:1049000040E05FE387FD05C0C701B6010E94123396
:1049100004C0C701B6010E9411330E94F5330E9402
:1049200028349B01AC01C701B6010E94113327E175
:1049300037EB41ED58EB0E94183518160CF4FDC00A
:1049400020E030E040E251E4C701B6010E94893323
:1049500087FF76C020E030E0A901C701B6010E94C0
:10496000183520E030E040E05FE387FD05C0C70177
:10497000B6010E94123304C0C701B6010E94113370
:104980000E94F5330E9428349B01AC01C701B60197
:104990000E94113320E030E0A9010E94183520E088
:1049A00030E0A901181634F5C701B6010E94183588
:1049B00020E030E040E05FE387FD05C0C701B601BD
:1049C0000E94123304C0C701B6010E9411330E9435
:1049D000F5330E9428349B01AC01C701B6010E9447
:1049E000113327E137EB41ED58E30E94893387FF0C
:1049F00027C0A3C0C701B6010E94183520E030E0EF
:104A000040E05FE387FD05C0C701B6010E94123395
:104A100004C0C701B6010E9411330E94F5330E9401
:104A200028349B01AC01C701B6010E94113327E174
:104A300037EB41ED58EB0E94183518160CF47DC089
:104A40002D813E814F815885C701B6010E941C35DA
:104A50006B017C0120E030E0A9010E94183520E0C4
:104A600030E040E05FE387FD05C0C701B6010E946A
:104A7000123304C0C701B6010E9411330E94F533FE
:104A80000E9428349B01AC01C701B6010E9411337A
:104A900020E030E0A9010E94183520E030E0A901B3
:104AA000181634F5C701B6010E94183520E030E031
:104AB00040E05FE387FD05C0C701B6010E941233E5
:104AC00004C0C701B6010E9411330E94F5330E9451
:104AD00028349B01AC01C701B6010E94113327E1C4
:104AE00037EB41ED58E30E94893387FF26C033C07E
:104AF000C701B6010E94183520E030E040E05FE3D6
:104B000087FD05C0C701B6010E94123304C0C7016A
:104B1000B6010E9411330E94F5330E9428349B0194
:104B2000AC01C701B6010E94113327E137EB41ED1B
:104B300058EB0E941835181674F001501109CFCCAB
:104B400020E030E040E05FE36D817E818F819885D9
:104B50000E941233ADCCA989BA890D931C93649637
:104B60000FB6F894DEBF0FBECDBFDF91CF911F917E
:104B70000F91FF90EF90DF90CF90BF90AF909F90FC
:104B80008F907F906F905F904F903F902F900895FF
:104B90001092740E10928F0E08952F923F924F92A2
:104BA0005F926F927F928F929F92AF92BF92CF92BD
:104BB000DF92EF92FF920F931F93CF93DF93CDB7C6
:104BC000DEB7C65ED1090FB6F894DEBF0FBECDBF0B
:104BD000C052DF4F59834883C05ED040CE51DF4F73
:104BE000088319832A833B83C25ED04026013701A4
:104BF000CD52DF4FA882C35DD0408092AA0EAA207A
:104C000031F1ADEAAA2EAEE0BA2EAE0149535F4FA4
:104C10006A01E12C10E4F12E0CE916E4A3019201E3
:104C20000E940922C953DF4F688179818A819B8163
:104C3000C75CD0409B01AC010E941233C953DF4FC7
:104C4000688379838A839B83C75CD04017C020E048
:104C500030E040E05FE30E941C35EDEAAE2EEEE06E
:104C6000BE2EDE01A953BF4F6D01E12C10E4F12EE1
:104C70000CE117E4A30192010E9409228091AD0E7C
:104C80009091AE0E880F991F9093AE0E8093AD0E4B
:104C9000C953DF4F688179818A819B81C75CD0408D
:104CA0000E94A407B091740EC252DF4FB883CE5D4C
:104CB000D04012E0C353DF4F1883CD5CD04062E098
:104CC00080E00E94E420E0918F0EC152DF4FE88324
:104CD000CF5DD04084E0C253DF4F8883CE5CD040AC
:104CE00064E081E00E94E4208091730EFE01E553B0
:104CF000FF4F808390918E0E91832091AD0E309165
:104D0000AE0ECD52DF4F4881C35DD040442309F140
:104D100030936B0E20936A0EF093680EE093670E4B
:104D20001093650E1092640E2EE239E03093630EFC
:104D30002093620E0E94030986E499E09093630E2B
:104D40008093620E83EA91E29093610E8093600EED
:104D500006C03695279530936B0E20936A0EE0902F
:104D6000AB0EF090AC0EF701E859FF4F20E030ECAD
:104D70004FE754E460817181828193810E948D3379
:104D80002B013C018E0105541F4F1E0155E1250EDC
:104D9000311CCE01825A9F4FDC011896C153DF4F60
:104DA000B983A883CF5CD040F8013C96CC52DF4F4A
:104DB000F983E883C45DD040C652DF4F8883CA5D63
:104DC000D040CA51DF4F9883C65ED04097012B591F
:104DD000374FCF52DF4F39832883C15DD040A701C1
:104DE000445A574FC852DF4F59834883C85DD0405B
:104DF0008091730ECF52DF4FE881F981C15DD040C1
:104E0000C652DF4FA881CA5DD040CA51DF4FB8817A
:104E1000C65ED0409DE501900D929A95E1F78823FA
:104E200069F08130B1F4C153DF4FE881F981CF5C83
:104E3000D040208D318D428D538D0EC0C153DF4F38
:104E4000A881B981CF5CD0402D913D914D915C916D
:104E500003C020E030E0A901CF52DF4FE881F981A3
:104E6000C15DD040DE0111969DE501900D929A95AD
:104E7000E1F7882341F0813061F4F101C0A0D1A0B5
:104E8000E2A0F3A009C0D101CD90DD90ED90FC909F
:104E900003C0C12CD12C760160E876E988E19BE45F
:104EA0000E948D334B015C0120E836E948E15BE468
:104EB000C701B6010E941C359B01AC010E94123350
:104EC0002BED3FE049E450E40E941C35C852DF4F0F
:104ED000A881B981C85DD0402D913D914D915C91E3
:104EE0000E941C356B017C01A5019401C501B40130
:104EF0000E941C354B015C01A7019601C701B60158
:104F00000E941C359B01AC01C501B4010E94123303
:104F10000E9483359B01AC01C301B2010E941C3584
:104F2000F80161937193819391938F01F4E02F0EB7
:104F3000311CC153DF4F28813981CF5CD0402C5FB9
:104F40003F4FC153DF4F39832883CF5CD040CC52D1
:104F5000DF4F48815981C45DD0400417150709F01F
:104F600047CF1092A90ECF52DF4F19821882C15D30
:104F7000D040CF52DF4F88819981C15DD040C0526F
:104F8000DF4FA881B981C05ED0408A179B0709F422
:104F9000B1C28091AA0E1092750E1092760E8111F8
:104FA0000BC0EFEFF3E0F0937A0EE093790E1092DE
:104FB000780E1092770E10C010927B0E10927C0E1D
:104FC00010927D0E10927E0E1092840E1092850E1D
:104FD0001092860E1092870E1092900E1092910EE3
:104FE000882389F01092960E1092970E1092980EC8
:104FF0001092990E10929F0E1092A00E1092A10E78
:105000001092A20E0AC08FEF93E09093950E8093BA
:10501000940E1092930E1092920ECD52DF4F988103
:10502000C35DD0409923E1F10E9493080E94D320F0
:105030008823E1F30E94EF2ACC52DF4F6883798303
:105040008A839B83C45DD040A091AA0EC852DF4FD3
:10505000A883C85DD0408091AD0E9091AE0EFE0148
:10506000E353FF4FC153DF4FF983E883CF5CD04058
:1050700003E71EE09E012F5F3F4F2901AE01425A18
:105080005F4F1A01612C712C9C0140E050E0C65228
:10509000DF4F288339834A835B83CA5DD0409AC03F
:1050A0008091730E0E941D0946E459E05093630EEF
:1050B0004093620E83E092E29093610E8093600EC3
:1050C0000E9493080E94D3208823E1F380918E0EE2
:1050D0000E941D09A6E4B9E0B093630EA093620E8E
:1050E000E6E0F2E2F093610EE093600E0E94930816
:1050F0000E94D3208823E1F39DCFC652DF4F688101
:1051000079818A819B81CA5DD0400E9426346B01DF
:105110007C01D80151966D917D918D919C91549710
:105120000E9426349B01AC010E941233A701960114
:105130000E948D330E948335F201608371838283E4
:10514000938320E030E040E852E40E941C359B014C
:10515000AC010E94123323EF34E045EB5FE30E9481
:105160001C350E94FA33D1016D937C93F301ED5805
:10517000F14F82818823B9F1F301ED58F14F82811B
:10518000882309F4B3C08195C153DF4FA881B98149
:10519000CF5CD0408C93B1E0B08BC153DF4FE8813E
:1051A000F981CF5CD0403196C153DF4FF983E8835A
:1051B000CF5CD040FBE16F0E711C055E1F4F22E0FB
:1051C000220E311C34E0430E511C46E36416710478
:1051D00009F496C0C852DF4FF881C85DD040FF2364
:1051E00009F45AC08ACF80898111C6CFF801808422
:1051F0009184A284B3846485758586859785680DBE
:10520000791D8A1D9B1D0E9426342AE037ED43E25A
:105210005CE30E941C35A70196010E948D336B014F
:105220007C0124EA30E74DE75FE3D80157966D91A2
:105230007D918D919C915A970E941C359B01AC01E8
:10524000C701B6010E9412336B017C01F801678B24
:10525000708F818F928F20E030E0A9010E94183575
:1052600020E030E040E05FE387FD05C0C701B60104
:105270000E94123304C0C701B6010E9411330E947C
:10528000F533D80156967C936E935597F801848632
:105290009586A686B78670CFD80114966D917C91BD
:1052A000159716968D919C911797681B790B96E030
:1052B000660F771F9A95E1F7F1017183608380E0B3
:1052C00090E00E94263423EF34E045EB5FE30E9438
:1052D0008D3320E030E040E05CE30E941C35D201D9
:1052E0006D937D938D939C93139746CF8181C1538A
:1052F000DF4FA881B981CF5CD0408C93108A4DCF0D
:105300000091AB0E1091AC0EF801EC59F74F808173
:10531000882309F454C08091750E811150C03C97C8
:10532000C080D180E280F38020E030E0A901C70195
:10533000B6010E94183518160CF041C0C353DF4F58
:105340008881CD5CD040EBEBF0E0EC0FFD1F24E05A
:105350008202E00DF11D11242081318142815381AF
:1053600069817A818B819C810E941C352B013C01D3
:10537000A70196010E9411334B015C0120E030E04F
:10538000A9010E941835181624F0B7FAB094B7F89E
:10539000B09420E030E040E05FE3F801EF54F74FD5
:1053A00060817181828193810E941C359B01AC01D7
:1053B000C501B4010E94183518160CF476C004E734
:1053C0001EE0CE01825A9F4F6C01E12CF12CD601D8
:1053D0008D919C91893C9C4030F4F80160816F5F15
:1053E0008E2D0E94E42042E050E0B6018091AB0E89
:1053F0009091AC0E0E949C186DEC70E06C0F7D1FBC
:105400006E0D7F1D41E050E08091AB0E9091AC0E8F
:105410000E949C18FFEFEF1AFF0A22E0C20ED11C77
:10542000055E1F4F32E0E316F10489F688EB9EE03B
:105430000E94592D181619060CF45CC00E94EF2A20
:10544000CC52DF4F288139814A815B81C45DD040D5
:10545000621B730B840B950B0E9426346B017C013D
:1054600020E030E04AE754E4CE51DF4F6881798193
:105470008A819B81C25ED0400E941C359B01AC0199
:10548000C701B6010E94893387FDD8CFCF52DF4FC5
:1054900048815981C15DD0404F5F5F4FCF52DF4F90
:1054A00059834883C15DD04064CDF801E05AF74F7D
:1054B0002081318142815381C301B2010E941C3598
:1054C000A70196010E948D336B017C0120E030E042
:1054D00040E85FE30E94893387FF06C0C12CD12CCE
:1054E00080E8E82E8FE3F82EB701A601C8010E94DC
:1054F000F90D65CFC252DF4F6881CE5DD04080E0AC
:105500000E94E420C152DF4F6881CF5DD04081E02E
:105510000E94E42080E0CA51DF4F0FB6F894DEBF4E
:105520000FBECDBFDF91CF911F910F91FF90EF90F4
:10553000DF90CF90BF90AF909F908F907F906F90B3
:105540005F904F903F902F9008951F920F920FB64B
:105550000F9211242F933F938F939F93AF93BF93F9
:105560008091B00E9091B10EA091B20EB091B30E99
:105570003091AF0E23E0230F2D3720F40196A11DAB
:10558000B11D05C026E8230F0296A11DB11D209371
:10559000AF0E8093B00E9093B10EA093B20EB09365
:1055A000B30E8091B40E9091B50EA091B60EB0914D
:1055B000B70E0196A11DB11D8093B40E9093B50E48
:1055C000A093B60EB093B70EBF91AF919F918F91FC
:1055D0003F912F910F900FBE0F901F9018953FB7DE
:1055E000F8948091B40E9091B50EA091B60EB09142
:1055F000B70E26B5A89B05C02F3F19F00196A11D37
:10560000B11D3FBF6627782F892F9A2F620F711D1A
:10561000811D911D42E0660F771F881F991F4A95D3
:10562000D1F70895CF92DF92EF92FF92CF93DF935D
:105630006B017C010E94EF2AEB01C114D104E1044B
:10564000F10489F00E9410330E94EF2A6C1B7D0B3D
:10565000683E734090F381E0C81AD108E108F10870
:10566000C851DC4FEACFDF91CF91FF90EF90DF90F0
:10567000CF9008958230910538F0880F991F880FD8
:10568000991F05970197F1F70895789484B5826082
:1056900084BD84B5816084BD85B5826085BD85B5D6
:1056A000816085BDEEE6F0E0808181608083E1E885
:1056B000F0E01082808182608083808181608083BD
:1056C000E0E8F0E0808181608083E1EBF0E08081C0
:1056D00084608083E0EBF0E0808181608083E1E999
:1056E000F0E0808182608083808181608083E0E956
:1056F000F0E0808181608083E1EAF0E08081826077
:105700008083808181608083E0EAF0E08081816035
:105710008083E1E2F1E0808182608083808181602A
:105720008083E0E2F1E0808181608083EAE7F0E05D
:1057300080818460808380818260808380818160B9
:1057400080838081806880831092C10008951F93B8
:10575000CF93DF93182FEB0161E00E94C12C2097BB
:1057600011F460E004C0CF3FD10539F461E0812F2E
:10577000DF91CF911F910C94FA2CE12FF0E0E659C4
:10578000FE4F449150E0FA013197E231F10508F003
:105790009BC0EF56FF4F0C94023684B5806884BDE1
:1057A000C7BD97C084B5806284BDC8BD92C08091DA
:1057B0008000806880938000D0938900C093880027
:1057C00088C080918000806280938000D0938B009D
:1057D000C0938A007EC080918000886080938000A2
:1057E000D0938D00C0938C0074C08091B00080680D
:1057F0008093B000C093B3006CC08091B000806211
:105800008093B000C093B40064C080919000806821
:1058100080939000D0939900C09398005AC08091D3
:105820009000806280939000D0939B00C0939A0078
:1058300050C080919000886080939000D0939D002C
:10584000C0939C0046C08091A00080688093A00017
:105850008091A0008F7B8093A000D093A900C0937B
:10586000A80037C08091A00080628093A000D093F0
:10587000AB00C093AA002DC08091A00088608093E7
:10588000A000D093AD00C093AC0023C08091200154
:10589000806880932001D0932901C093280119C00A
:1058A00080912001806280932001D0932B01C093CE
:1058B0002A010FC080912001886080932001D0933D
:1058C0002D01C0932C0105C0C038D1050CF04ECF7E
:1058D00048CFDF91CF911F91089590E0FC0131975F
:1058E000E231F10508F04CC0ED55FF4F0C94023643
:1058F000809180008F7703C0809180008F7D80939E
:105900008000089580918000877FF9CF84B58F77DC
:1059100002C084B58F7D84BD08958091B0008F77DB
:1059200003C08091B0008F7D8093B0000895809176
:1059300090008F7707C0809190008F7D03C0809189
:105940009000877F8093900008958091A0008F77CA
:1059500007C08091A0008F7D03C08091A000877F49
:105960008093A0000895809120018F7707C08091D7
:1059700020018F7D03C080912001877F80932001CB
:105980000895CF93DF9390E0FC01E055FE4F249102
:10599000FC01EA50FE4F8491882349F190E0880F82
:1059A000991FFC01E059FD4FA591B4918A5A9D4F72
:1059B000FC01C591D4919FB7611108C0F8948C91F6
:1059C000209582238C93888182230AC0623051F40F
:1059D000F8948C91322F309583238C938881822B7D
:1059E000888304C0F8948C91822B8C939FBFDF91A5
:1059F000CF9108950F931F93CF93DF931F92CDB74D
:105A0000DEB7282F30E0F901E659FE4F8491F90105
:105A1000E055FE4F1491F901EA50FE4F0491002326
:105A2000C9F0882321F069830E946D2C6981E02FE1
:105A3000F0E0EE0FFF1FEA5AFD4FA591B4919FB71A
:105A4000F8948C91611103C01095812301C0812BC2
:105A50008C939FBF0F90DF91CF911F910F9108956D
:105A6000CF93DF93282F30E0F901E659FE4F849160
:105A7000F901E055FE4FD491F901EA50FE4FC4916F
:105A8000CC2391F081110E946D2CEC2FF0E0EE0FF1
:105A9000FF1FE45CFD4FA591B4912C912D2381E073
:105AA00090E021F480E002C080E090E0DF91CF91AF
:105AB0000895FC01818D228D90E0805C9F4F821BB8
:105AC00091098F7399270895FC01918D828D981704
:105AD00031F0828DE80FF11D858D90E008958FEFF4
