:100000000C94E3010C9414020C9414020C9414024A
:100010000C9414020C9414020C9414020C94140208
:100020000C9414020C9414020C9414020C941402F8
:100030000C9414020C9414020C9414020C941402E8
:100040000C9414020C9414020C9414020C941402D8
:100050000C94CC0A0C9414020C9414020C94182DD9
:100060000C9414020C9443310C9479310C941402C6
:100070000C9414020C94A10A0C9414020C94140213
:100080000C9414020C9414020C9414020C940305A6
:100090000C9414020C9414020C9414020C94D203C9
:1000A0000C9414020C9414020C9414020C94140278
:1000B0000C9414020C9414020C9414020C94140268
:1000C0000C9414020C9414020C9414020C94140258
:1000D0000C9414020C9414020C9414020C94140248
:1000E0000C94140256136413DC13EC135F148B147A
:1000F0009914B514C514E414F414F919F919121566
:10010000371552158815D6150C1662167216B016CC
:10011000CB1654199419A01960197619BD19CF1965
:10012000F919F919F919F919F919F919F919F9193F
:10013000F919F919F919F919F919F919F919F9192F
:10014000F919F919F919F919F919F919F919F9191F
:10015000F919F919F919F919F919F919F919F9190F
:10016000F919F919F919F919F919F919F919F919FF
:10017000F919F919F919F919F919F919F919F919EF
:10018000F919F919F919F919F919F919F8163619A6
:10019000D9172E1E561E731E901ED31EB51EF11E9D
:1001A0001A1F501F351F8C1F681F6820432087208F
:1001B0002521C120B22178214B1E0622282243226C
:1001C00064220F1F73228822A422B122DE22ED2294
:1001D000432E482E4D2E572E612EDA2E6B2E732E67
:1001E0007B2E852E8F2E992EA82EB22EDA2EBC2E87
:1001F000C62ED02EFC2EFF2EEE2EF22EF82E362FEF
:10020000032F072F0D2F112F152F1B2F1F2F232FDC
:10021000362F292F2D2F312F08000000BE922449A0
:10022000123EABAAAA2ABECDCCCC4C3E0000008028
:10023000BEABAAAAAA3E00000000BF000000803F9B
:100240000000000000084178D3BB4387D1133D195B
:100250000E3CC3BD4282AD2B3E68EC8276BED98F88
:10026000E1A93E4C80EFFFBE01C4FF7F3F000000CC
:10027000000007634236B79BD8A71A39685618AEF4
:10028000BAAB558C1D3CB7CC5763BD6DEDFD753ECB
:10029000F6177231BF000000803F00000A0B020910
:1002A0000C0D0E0807030401000000000000000010
:1002B000000000000000000000000000000000003E
:1002C00000000000000012111000000000000000FB
:1002D000000000000000000000000000000000001E
:1002E0000102102020080810204010204080020148
:1002F000020108040201010204081020408080402D
:10030000201008040201800402018040201008042B
:1003100002010804020101020408102040800102C9
:100320000408102040800505050507050808080891
:10033000020202020A0A080804040404010101017D
:100340000101010103030303030303030407070778
:100350000C0C0C0C0C0C0C0C02020202060606061D
:10036000060606060B0B0B0B0B0B0B0B00002000FD
:100370002300260029002C002F003200000100007D
:1003800003010601090100002200250028002B00BE
:100390002E003100340002010000050108010B01AC
:1003A00000002100240027002A002D003000330027
:1003B00001010000040107010A014A022A08D60AC5
:1003C0003028AD314E0211241FBECFEFD1E2DEBF87
:1003D000CDBF00E00CBF14E0A0E0B2E0E8EEF8E72B
:1003E00000E00BBF02C007900D92A03BB107D9F708
:1003F0002FE0A0EBB4E001C01D92AF32B207E1F7ED
:1004000013E0C4ECD3E000E006C022970109FE012E
:100410000BBF0E94F339CA3BD10780E00807A9F758
:100420000E94E7020C94623C0C940000809106024A
:100430009091070201969093070280930602089517
:1004400080EB94E00E944E23809106029091070277
:1004500069E170E00E949939892BD9F48091020DED
:10046000882389F08091030D81110BC0E091B004C5
:10047000F091B1040688F789E02D80EB94E019959E
:1004800002C01092030D81E090E0909307028093E8
:100490000602089580EB94E00C94090B80EB94E045
:1004A0000C941A0B80E1809391001092900085E0EB
:1004B0008093D40D86E998E99093D60D8093D50D5D
:1004C000909397008093960085E18093910086E158
:1004D00092E09093D30D8093D20D81E080937100D0
:1004E00080EB94E00E94030F69E072E08EE89EE0EA
:1004F0000E943C326FEF71E2605072404AE050E07F
:100500008EE89EE00E9406336EE072E08EE89EE088
:100510000E943C3260EB74E0605072404AE050E070
:100520008EE89EE00E94063365E172E08EE89EE070
:100530000E943C326FE27FE0605B74404AE050E032
:100540008EE89EE00E9406336BE172E08EE89EE04A
:100550000E943C3260912B0F70912C0F6115710538
:1005600019F06F527F4002C060E070E04AE050E056
:100570008EE89EE00E94063361E272E08EE89EE023
:100580000E943C328DB79EB76FEF71E2681B790B0A
:100590004AE050E08EE89EE00E94063368E272E096
:1005A0008EE89EE00E943C3280912B0F90912C0FA0
:1005B0006DB77EB7009719F46F527F4002C0681B79
:1005C000790B4AE050E08EE89EE00C9406330E94DE
:1005D000B82D0E945202CCEFDFE20E942002209749
:1005E000E1F30E94FC2FF9CF1092D10D81E08093AE
:1005F000CF0D1092CE0D61E084E10E94702F61E07A
:1006000085E10E94702FE9EBF0E080818E7F80838E
:1006100080818D7F808388E48093B80085E4809317
:10062000BC000895413208F03FC09091D10D911166
:10063000FCCF91E09093D10D2093CF0D2FEF20931D
:10064000640D1092A90D240F2093A80D9093D00D46
:100650009091D00D880F892B8093D00D8091CE0D75
:10066000813041F41092CE0D8091D00D8093BB006B
:1006700085EC01C085EE8093BC008091D10D813066
:10068000E1F38091A90D841710F44091A90D2AEA95
:100690003DE0FB01D9018A2F821B841718F48D914C
:1006A0008193F9CF842F089580E008950F9341320C
:1006B00008F046C09091D10D9111FCCF92E090933B
:1006C000D10D0093CF0D9FEF9093640D1092A90D63
:1006D0004093A80DFB016AEA7DE0DB019A2F961B8F
:1006E000941718F491919D93F9CF1092D00D909199
:1006F000D00D880F892B8093D00D8091CE0D813045
:1007000041F41092CE0D8091D00D8093BB0085EC0A
:1007100001C085EE8093BC00222321F08091D10D91
:100720008230E1F38091640D8F3F61F08091640D20
:10073000803251F08091640D803341F483E007C032
:1007400081E005C080E003C082E001C084E00F9139
:100750000895613298F42091D10D243089F460938A
:10076000860DFC0188E89DE0DC012A2F281B261756
:1007700018F421912D93F9CF80E0089581E0089538
:1007800082E0089585ED8093BC008091BC0084FDDB
:10079000FCCF1092D10D089585EC8093BC0010928F
:1007A000D10D08951F920F920FB60F9211240BB620
:1007B0000F922F933F934F935F936F937F938F93FA
:1007C0009F93AF93BF93EF93FF938091B900887F7E
:1007D000803609F49CC068F5883209F45BC090F457
:1007E000803109F454C038F4882309F4F5C0883006
:1007F00009F44DC0F5C0883109F44CC0803209F4C9
:100800005DC0EEC0803409F468C048F4803309F458
:1008100055C0883309F0E4C08093640DA8C08035CA
:1008200009F44FC0883509F45DC0883409F0D8C098
:10083000D5C0883909F4C6C0A8F4883709F467C060
:1008400038F4883609F463C0803709F460C0C8C042
:10085000883809F4B7C0803909F45FC0803809F0DE
:10086000BFC05BC0803B09F485C038F4803A09F40E
:1008700066C0883A09F47EC0B3C0803C09F4A6C0C3
:10088000883C09F4A3C0883B09F489C0A9C08091C1
:10089000D00D10C09091A90D8091A80D981770F5FA
:1008A000E091A90D81E08E0F8093A90DF0E0E6554F
:1008B000F24F80818093BB0085EC85C08093640DEE
:1008C0008DC0E091A90D81E08E0F8093A90D8091DC
:1008D000BB00F0E0E655F24F80839091A90D809126
:1008E000A80D6DC0E091A90D81E08E0F8093A90D38
:1008F0008091BB00F0E0E655F24F80838091CF0DF0
:1009000081116CC081E08093CE0D84EA60C083E0E9
:100910008093D10D1092650DCFCF8091650D8032FF
:1009200008F050C0E091650D81E08E0F8093650D59
:100930008091BB00F0E0EA59F24F8083BDCF8091F7
:10094000650D803230F4E091650DF0E0EA59F24F28
:1009500010820E94C2036091650D70E0E091CA0DA3
:10096000F091CB0D86E69DE019951092650D0E94E1
:10097000CC0336C084E08093D10D1092870D109285
:10098000860DE091CC0DF091CD0D19958091860DDD
:10099000811105C081E08093860D1092880DE09151
:1009A000870D81E08E0F8093870DF0E0E857F24FBE
:1009B00080818093BB009091870D8091860D981760
:1009C00008F47ACF85E88093BC000AC085EC809358
:1009D000BC001092D10D04C01092640D0E94C2039D
:1009E000FF91EF91BF91AF919F918F917F916F9107
:1009F0005F914F913F912F910F900BBE0F900FBEC3
:100A00000F901F9018951F920F920FB60F921124FE
:100A10000BB60F922F933F934F935F936F937F93F8
:100A20008F939F93AF93BF93EF93FF93E091D20D7A
:100A3000F091D30D1995FF91EF91BF91AF919F91D7
:100A40008F917F916F915F914F913F912F910F9077
:100A50000BBE0F900FBE0F901F901895FF920F9333
:100A60001F93CF93DF93FC010081C181D281F89461
:100A70008981F02EF0948F21898378941DE711509D
:100A800029F182E090E00E94AD2D88818023B9F3A6
:100A9000F8948A818F218A838981802B8983789435
:100AA00080EE91E00E94AD2DF89489818F21898399
:100AB00086E490E00E94AD2D8881802311E009F04A
:100AC00010E078948AE991E00E94AD2D812FDF91AA
:100AD000CF911F910F91FF9008951F93CF93DF93B4
:100AE000FC011081C181D281912F909560FF12C0CD
:100AF000F8948A8189238A838981812B89838AE07A
:100B000090E00E94AD2D8A81812B8A83789487E3BF
:100B100090E011C0F8948A8189238A838981812B8E
:100B2000898381E490E00E94AD2D8A81812B8A83A4
:100B3000789485E090E0DF91CF911F910C94AD2DDA
:100B40000F931F93CF93DF93FC011081C181D2815A
:100B5000F8948981812B89838A81012F00958023D4
:100B60008A8383E090E00E94AD2D89818023898370
:100B70008AE090E00E94AD2DC881789485E390E0F2
:100B80000E94AD2D1C2381E009F480E0DF91CF911C
:100B90001F910F910895CF92DF92EF92FF920F93E2
:100BA0001F93CF93DF931F92CDB7DEB76C01E62E74
:100BB00008E010E0FF24F39461E09F2D9E2109F4EA
:100BC00060E0C60149830E946D05FF0C01501109C8
:100BD00049810115110581F7411115C0F894D6011D
:100BE0001196ED91FC91129791818C9180958923BA
:100BF00081831196ED91FC91129792818C91809551
:100C00008923828378940F90DF91CF911F910F9168
:100C1000FF90EF90DF90CF900895EF92FF920F93A7
:100C20001F93CF93DF938C01C8E0D0E0F12CEE242A
:100C3000E394C8010E94A0058111FE28EE0C2197C3
:100C4000C1F78F2DDF91CF911F910F91FF90EF9002
:100C50000895CF92DF92FF920F931F93CF93DF936C
:100C60001F92CDB7DEB78C01F62E40E065E57983A3
:100C70000E94CB05CF2C7981D72E88E0F82EF60183
:100C800061916F0140E0C8010E94CB05FA94B9F769
:100C90000F90DF91CF911F910F91FF90DF90CF9038
:100CA0000895FC0113861586148627E030E0DF01E5
:100CB000A20FB31F13961C922115310519F0215074
:100CC0003109F5CF08951F93CF93DF93EC01162FD1
:100CD00060E0812F0E94372F612F70E0FB01E0520E
:100CE000FD4FE491E883FB01EA5DFC4FE491F0E005
:100CF000EE0FFF1FE459FC4F859194919A838983ED
:100D0000CE01DF91CF911F910C945106AF92BF920B
:100D1000CF92DF92EF92FF920F931F93CF93DF93C7
:100D20001F92CDB7DEB75C01E62ED72EFC0185857C
:100D300081115DC0C5010E942E05811105C0F5011C
:100D40001386158614866EC040E060EFC5010E94D0
:100D5000CB0501E0F12CC12C11E0C5010E94A005DA
:100D6000682FC50169830E94A0056981613019F46B
:100D70008130B9F433C02F2D30E068131BC0F5016A
:100D80008385181730F4E20FF31F8381802349F421
:100D900002C0181731F060E0193058F4F5011487DB
:100DA00008C0F501EF0DF11D8381802B838361E085
:100DB00009C0C12EF501E20FF31F8381902F90959A
:100DC00089238383C5010E946D051F5F000F11F405
:100DD000F39401E0F7E0FF1508F0BFCF113438F0CD
:100DE000F501C386C11018C081E0858715C0F501E3
:100DF00013861586148680E0EE2DFD2D20E030E070
:100E0000D501A20FB31F13969C9191932F5F3F4F73
:100E100028303105A9F706C0F5018381882339F30D
:100E200081E0EACF0F90DF91CF911F910F91FF905A
:100E3000EF90DF90CF90BF90AF900895CF93CFB752
:100E4000F8948091D70D811127C0EBE5F3E08491F0
:100E5000E5E1F3E09491E82FF0E0EE0FFF1FE0569C
:100E6000FC4FA591B4918C91892321F461E085E335
:100E70000E94702F61E085E30E94372F8CB580615E
:100E80008CBD8CB580648CBD61E084E30E94372FFB
:100E900061E083E30E94372F8091D70D8F5F8093AD
:100EA000D70DCFBFCF9108958091080E90E020918B
:100EB000090E821B910908952091090E8091080E58
:100EC000281750F4E22FF0E0E65FF14F808190E0C8
:100ED0002F5F2093090E08958FEF9FEF0895E09103
:100EE000090E8091080EE81730F4F0E0E65FF14F4C
:100EF000808190E008958FEF9FEF08950895CF923D
:100F0000DF92EF92FF920F931F93CF93DF937C01B9
:100F1000CB018A012091E40D222389F0EB016B01C2
:100F2000C40ED51ECC15DD0569F06991D701ED9190
:100F3000FC910190F081E02DC7011995F3CF642F4A
:100F40000E94A903C801DF91CF911F910F91FF90DB
:100F5000EF90DF90CF900895CF93DF931F92CDB79E
:100F6000DEB769832091E40D2223D1F02091E50DB5
:100F7000203240F021E030E0FC013383228380E026
:100F800090E015C08091E60DE82FF0E0E951F24FB6
:100F9000998190838F5F8093E60D8093E50D05C066
:100FA00061E0CE0101960E94A90381E090E00F90DC
:100FB000DF91CF910895FC011382128248EE53E035
:100FC00060E070E0448355836683778389E392E031
:100FD0009183808308951092090E1092080E10924A
:100FE000E60D1092E50D0C94F402862F413208F0C4
:100FF00040E26AE07EE00E9412031092090E8093A4
:10100000080E089521E00C94F50721E00C94F507F3
:1010100081E08093E40D6093070E1092E60D10922C
:10102000E50D08950C9408080F93062F21E04091D8
:10103000E50D67EE7DE08091070E0E945603109249
:10104000E60D1092E50D1092E40D0F91089561E008
:101050000C94140888ED9DE00C94DB07ECE7F0E0BD
:1010600090819F739083208130E4839FC00111247D
:10107000282B20830895EAE7F0E09081987F908301
:101080009081982B9083089580917A00877090E0EA
:101090000895E1E8F0E08081887F808308950E94D0
:1010A00049081092850010928400E1E8F0E0808108
:1010B00090912A0E892B80830895882321F08091B6
:1010C0007C00806203C080917C008F7D80937C00D7
:1010D0000895EBE7F0E09081987F90839081982BC2
:1010E00090830895CF92DF92EF92FF92CF936B019E
:1010F0007C0180E18093810010928000A70196011D
:1011000060E074E284E799E40E94033620E030E076
:1011100040E051E40E94D7370E9470366115710596
:1011200021E08207910528F421E020932A0ECB01CB
:101130004CC06115710528E08207910568F422E032
:1011400020932A0EDC01CB0153E0B695A795979525
:1011500087955A95D1F739C06115710520E482074A
:10116000910568F423E020932A0EDC01CB0146E0D0
:10117000B695A795979587954A95D1F726C061159D
:101180007105810521E0920740F424E020932A0EA6
:10119000BB27A92F982F872F18C0611571058105CE
:1011A00024E0920768F425E020932A0EDC01CB01AD
:1011B0002AE0B695A795979587952A95D1F705C00A
:1011C00085E080932A0E8FEF9FEF909387008093A6
:1011D0008600C1E0C0936F0086E00E946908C0935A
:1011E000400E80917A00806280937A00C092330E24
:1011F000D092340EE092350EF092360ECF91FF90E1
:10120000EF90DF90CF9008958093400E882321F0D7
:1012100080917A00806203C080917A008F7D8093F4
:101220007A000895EAE7F0E0808180648083089581
:10123000CF93DF93D0917800C09179004091430E15
:101240005091440E2091410E3091420E42175307A7
:10125000A8F58091400E811102C00E9412098D2FC5
:1012600090E09C2B20917C0025FF13C0E091470E5D
:10127000F091480E2091430E3091440EA9014F5F2A
:101280005F4F5093440E4093430EE20FF31F908341
:1012900015C0E091450EF091460E2091430E30911D
:1012A000440EA9014F5F5F4F5093440E4093430E8D
:1012B000220F331FE20FF31F91838083DF91CF91C1
:1012C00008951092440E1092430E8091400E0E9499
:1012D00004090E94622D60932B0E70932C0E809354
:1012E0002D0E90932E0E80917A00886C80937A0058
:1012F00080917B008770863011F40C944F0808951C
:101300008F929F92AF92BF92CF92DF92EF92FF9215
:101310000E94622D4B015C0180917A00877D809351
:101320007A0080917B008770863011F40E94490812
:101330006091410E7091420E80E090E00E949C36D8
:1013400020E034E244E759E40E94D7376B017C0186
:1013500080912B0E90912C0EA0912D0EB0912E0EFF
:10136000A5019401281B390B4A0B5B0BCA01B9017B
:101370000E949C369B01AC01C701B6010E94033656
:1013800060932F0E7093300E8093310E9093320E37
:10139000FF90EF90DF90CF90BF90AF909F908F9095
:1013A000089580933D0E90917C00907F90937C00F7
:1013B00020917C00982F9770922B90937C0088301E
:1013C00020F080917B00886003C080917B00877F44
:1013D00080937B00089591E090933C0E10923F0E15
:1013E00010923E0E10923B0E28E139E030933A0EF7
:1013F0002093390E0C94D10980913B0E8F5F80931E
:101400003B0E90913C0E891302C010923B0E8091CE
:101410003B0EE0913E0EF0913F0EE80FF11D8081F2
:101420000E94D1090C9418091F93CF93DF93C091A8
:101430003B0E90913C0E9230A0F081E08C0F89170A
:1014400019F080933B0E02C010923B0E80913B0E30
:10145000E0913E0EF0913F0EE80FF11D80810E9459
:10146000D10910917800D09179004091430E5091AC
:10147000440E2091410E3091420E42175307F0F472
:101480008091400E811102C00E941209612F70E00C
:101490007D2B80917C0085FF02C0672F7727E0912C
:1014A000370EF091380E8C2F19958091430E909144
:1014B000440E01969093440E8093430EDF91CF919A
:1014C0001F910895CF93DF93D0917C00C0917B0052
:1014D00080917C00807E80937C0080917C008E6176
:1014E00080937C0080917B00877F80937B0063E00A
:1014F00070E080E090E00E94852D80917A00806409
:1015000080937A0080917A0086FDFCCF609178000C
:1015100080917900D0937C00C0937B0070E0782BA1
:10152000882777FD8095982F0E949E369B01AC01FD
:1015300060E070E889E894E40E940336DF91CF917F
:1015400008951F920F920FB60F9211240BB60F92AF
:101550002F933F934F935F936F937F938F939F93BB
:10156000AF93BF93EF93FF93E091390EF0913A0E52
:101570001995FF91EF91BF91AF919F918F917F91BD
:101580006F915F914F913F912F910F900BBE0F90F4
:101590000FBE0F901F9018951F920F920FB60F92CB
:1015A00011240F900FBE0F901F90189581E00C949E
:1015B0002E0886E294E0089582E294E008958BE09C
:1015C00094E0089581EF93E008958BEE93E0089501
:1015D00088EB93E0089585E492E00895CF93DF933C
:1015E000EC0161E088E00E94702FCC5AD74F18823E
:1015F000DF91CF910895DC01ED91FC910190F08194
:10160000E02D19948EBD00000DB407FEFDCF8EB500
:101610000895CF93DF93EC0161E00E94CE1A80EA37
:1016200093E099838883CE5AD74F18821982DF912D
:10163000CF91089520EA33E0FC01318320830C949C
:101640003E1B1F93CF93DF931F921F92CDB7DEB740
:10165000162F60E0812F2A8349830E94702F4981D1
:10166000842F0E94020B2A81822F0E94020B61E0CC
:10167000812F0F900F90DF91CF911F910C94702FBD
:10168000643040F4242F2095462F65E30E94210BFF
:1016900080E0089585E00895AF92BF92CF92DF92E7
:1016A000EF92FF920F931F93CF93DF931F921F929E
:1016B000CDB7DEB78C01D12C7C018BEBE81A87EF1C
:1016C000F80A5801E4E9AE1AE7EFBE0A2D2D30E022
:1016D000F801EB5AF74F8081918168E270E00E9437
:1016E000993926173707E0F588E0C82EC982F70137
:1016F0002081318180E090E040E0B801620F731FEB
:10170000E42FF0E0DB01A80FB91FA259BF4F41E061
:1017100050E0AC91AA2311F040E050E0082E02C046
:10172000440F551F0A94E2F74E0F5F1F0196883051
:10173000910531F74A83285F3F4FF70131832083BA
:10174000F50160816D0D22E0AE014F5F5F4FC80172
:101750000E942023C394FDE0CF12C8CFD394B6CF0C
:101760000F900F90DF91CF911F910F91FF90EF900D
:10177000DF90CF90BF90AF9008958F929F92AF92DD
:10178000BF92CF92DF92EF92FF920F931F93CF936E
:10179000DF9300D0CDB7DEB78C01912C7C018BEAB2
:1017A000E81A87EFF80A98E2C92ED12C5801E4E92B
:1017B000AE1AE7EFBE0A88248A94292D30E0F7019B
:1017C00080819181B6010E94993926173707A0F4CC
:1017D00038E039838A82F5016081690D22E0AE012B
:1017E0004F5F5F4FC8013B830E9420233B813F5FD7
:1017F0003D3079F79394E1CF0F900F900F90DF91E8
:10180000CF911F910F91FF90EF90DF90CF90BF90FD
:10181000AF909F908F900895EF92FF920F931F9338
:10182000CF93DF938C017C018BE9E81A87EFF80AEC
:10183000C4E6D0E0F70141917F01BE01C8010E94DA
:10184000C91A2196C33BD105A9F760E0C801DF9111
:10185000CF911F910F91FF90EF900C942F0C7F92DE
:101860008F929F92AF92BF92CF92DF92EF92FF92B0
:101870000F931F93CF93DF93EC01762E7C012BE91E
:10188000E21A27EFF20A04E610E04701E881F98145
:101890000088F189E02DB801CE011995F7018193F7
:1018A0007F010F5F1F4F033B110581F7F40180811A
:1018B00091819E012959374F5901FE01E759F74F90
:1018C0006F01285C3F4F7901892BE1F4F50180819C
:1018D0009181892BB9F4F60180819181892B91F452
:1018E000399780819181A281B381F90180839183AD
:1018F000A283B38381E090E0F60191838083CE01DF
:101900000E940C0CF40180819181892BB9F4F501BE
:1019100080819181892B91F4F601808191810197D9
:1019200069F480E2FE01E459F74F808382E090E0A1
:10193000F60191838083CE010E940C0CF40180811A
:101940009181892BE9F4F50180819181892BC1F482
:10195000F60180819181029799F480E090E0A0EAFD
:10196000B0E4FE01ED55F74F80839183A283B383EA
:1019700083E090E0F60191838083CE010E940C0CFD
:10198000F401808191818E010955174F892BA1F4B3
:10199000F50180819181892B79F4F6018081918113
:1019A000039751F4F801108284E090E0F6019183EE
:1019B0008083CE010E940C0CF40180819181892BDF
:1019C00079F5F50180819181892B51F5F6018081AE
:1019D0009181049729F580E090E0A8ECB2E4FE0143
:1019E000E855F74F80839183A283B38380E090E42E
:1019F000ACE9B6E4349680839183A283B38380E01C
:101A000090E0A8E4B3E4349680839183A283B38307
:101A100085E090E0F60191838083CE010E940C0C5A
:101A2000F40180819181892B69F4F5018081918194
:101A3000892B41F4F60180819181059719F4772073
:101A400009F4A8C0F40111821082F50111821082FC
:101A500085E090E0F601918380838FEFFE01E559E8
:101A6000F74F80838CE73396808380E731978083BC
:101A700080E09CE7A2E9B8E4329680839183A28358
:101A8000B38380E092E2A1EAB8E434968083918344
:101A9000A283B38380E090E0AAE7B4E43C9680831D
:101AA0009183A283B38380E090E4ACE1B6E4349602
:101AB00080839183A283B38380E090E5A3ECB7E4B5
:101AC000349680839183A283B38380E094E2A4E779
:101AD000B9E4349680839183A283B3837497108290
:101AE0001182128213823496108211821282138222
:101AF0004FEF56EE6BE57EE274964083518362832E
:101B00007383349640835183628373833496408316
:101B100051836283738334964083518362837383DA
:101B2000FB9780819181A281B381F70180839183AA
:101B3000A283B38380E2FE01E459F74F808380E003
:101B400090E0A0EAB0E4F79680839183A283B38308
:101B5000F801108280E090E0A8ECB2E4FE01E855C4
:101B6000F74F80839183A283B38380E090E4ACE954
:101B7000B6E4349680839183A283B38380E090E0BF
:101B8000A8E4B3E4349680839183A283B383CE0127
:101B90000E940C0CF701C080D180E280F38020E02D
:101BA00030E0A901C701B6010E94FF35FE01EC59E2
:101BB000F74F18161CF081E0808309C0DE01A05A9F
:101BC000B74FCD92DD92ED92FC9213971082F801FF
:101BD0008081882311F042E001C041E060E0CE0145
:101BE000DF91CF911F910F91FF90EF90DF90CF90F9
:101BF000BF90AF909F908F907F900C94B9238F925D
:101C00009F92AF92BF92CF92DF92EF92FF92CF93CB
:101C1000DF93EC016A017B01FC01E05AF74F808001
:101C20009180A280B38020E030E0A901C701B60115
:101C30000E94FF3587FD45C0FE01E055F74F20812A
:101C4000318142815381C701B6010E948E37181637
:101C5000C4F1A5019401C701B6010E9403369B019E
:101C6000AC010E94883523EF34E045EB5FE30E942E
:101C7000D73720E030E040E85EE30E94D73720E02D
:101C800030E04FE753E40E94D7374B015C0120E07E
:101C900030E04FE753E40E948E37181694F0FE01AF
:101CA000E85AF74FC082D182E282F382C501B401C3
:101CB0000E947036462F63E0CE010E94400B80E008
:101CC00001C088E0DF91CF91FF90EF90DF90CF903F
:101CD000BF90AF909F908F900895FC01E05AF74F0E
:101CE000408351836283738338974081518162813D
:101CF000738120E00C94FF0D5F926F927F928F9220
:101D00009F92AF92BF92CF92DF92EF92FF920F938A
:101D10001F93CF93DF931F921F92CDB7DEB76C0155
:101D2000CB01542E68E270E00E9499397B014C018E
:101D30005C0123E0B694A7942A95E1F73B01772450
:101D400086010459174FF8018081B301680F711D96
:101D500088ED9DE00E941208B501685F7F4F88ED15
:101D60009DE00E94FB0A88ED9DE00E942708F80193
:101D70008081B301680F711D41E050E088ED9DE066
:101D80000E94050888ED9DE00E945407892B41F1CF
:101D9000F82DF7708F2E88E08A0D898388ED9DE0FD
:101DA0000E945C0741E050E060E070E004C0440F36
:101DB000551F661F771F8A94D2F7511002C0482B17
:101DC00002C0409548234A83F80160816E0D22E0ED
:101DD000AE014F5F5F4FC6010E94202380E001C02B
:101DE00081E00F900F90DF91CF911F910F91FF90A5
:101DF000EF90DF90CF90BF90AF909F908F907F90AB
:101E00006F905F9008958F929F92AF92BF92CF9202
:101E1000DF92EF92FF920F931F93CF93DF93CDB793
:101E2000DEB762970FB6F894DEBF0FBECDBF8C0150
:101E30000E94391A61E088E00E94702F61E088E01A
:101E40000E94372F61E085E30E94372F61E089E02F
:101E50000E94372F60E089E00E94702FF801E05A5D
:101E6000F74F80E090E0A6E9B3E480839183A283FA
:101E7000B38360E0C8010E942F0C480185E9881AED
:101E800087EF980AD4014C9160E0C8010E94400B92
:101E90006801B2E9CB1AB7EFDB0AF601408161E0D5
:101EA000C8010E94400B5801F3E9AF1AF7EFBF0ACF
:101EB000D5014C9162E0C8010E94400B40E063E014
:101EC000C8010E94400BD801ED91FC910680F7817A
:101ED000E02DC8011995BC018EE89EE00E943C32BD
:101EE0006BE472E08EE89EE00E943C32D801ED91F6
:101EF000FC910484F585E02DC8011995BC018EE89C
:101F00009EE00E9449326EE472E08EE89EE00E94FC
:101F10003C32D801ED91FC910284F385E02DC8019B
:101F20001995BC018EE89EE00E94493261E672E09C
:101F30008EE89EE00E943C327801BBE9EB1AB7EFD5
:101F4000FB0AF701608171814AE050E08EE89EE073
:101F50000E9449336AE973E08EE89EE00E943C32B9
:101F6000F801E959F74F608171814AE050E08EE84D
:101F70009EE00E9449336AE973E08EE89EE00E9489
:101F80003C32F801E759F74F608171814AE050E037
:101F90008EE89EE00E944F3368E772E08EE89EE094
:101FA0000E943C324AE050E0D4016C918EE89EE001
:101FB0000E9432336EE772E08EE89EE00E943C326F
:101FC0004AE050E0F50160818EE89EE00E943233E5
:101FD0006EE872E08EE89EE00E943C324AE050E0FB
:101FE000D6016C918EE89EE00E943233B12CA12C78
:101FF000F1E0BF1202C084E001C082E0A81608F040
:10200000B9C04AE06A2DCE0101960E9400354AE02F
:102010006B2DCE010D960E94003564E972E0CE0171
:1020200007960E94D234BE01635F7F4FCE010796B0
:102030000E94593566E972E00E946C35BE016F5FFF
:102040007F4F0E9459356AEA72E00E946C35BC01EC
:102050008EE89EE00E942E32CE0107960E946434E4
:10206000CE010D960E946434CE0101960E94643424
:10207000CA2CD12CB1E0F601EE0FFF1FEE0FFF1FAF
:10208000EE0DFF1DBB1629F04285538564857585CD
:1020900004C0428D538D648D758D22E030E08EE852
:1020A0009EE00E9452344AE06A2DCE0101960E94C1
:1020B00000354AE06B2DCE010D960E94003564E993
:1020C00072E0CE0107960E94D234BE01635F7F4F5B
:1020D000CE0107960E9459356DEA72E00E946C3578
:1020E000BE016F5F7F4F0E9459356AEA72E00E941D
:1020F0006C35BC018EE89EE00E942E32CE01079620
:102100000E946434CE010D960E946434CE01019683
:102110000E946434E1E0BE1661F0F601EE0FFF1F8D
:10212000EE0FFF1FEE0DFF1D62897389848995896B
:102130000BC0F601EE0FFF1FEE0FFF1FEE0DFF1D90
:1021400062A573A584A595A525EA34ED48E653E577
:102150000E94D737AB01BC0122E030E08EE89EE060
:102160000E94503462EC72E08EE89EE00E94493298
:10217000A3943ECFB39482E0B81239CF66EC72E0FC
:102180008EE89EE00E943C32F801E459F74F4AE0A5
:1021900050E060818EE89EE00E9432336BE173E094
:1021A0008EE89EE00E943C32F801E156F74F4081F4
:1021B00051816281738122E030E08EE89EE00E94CE
:1021C000523463EE72E08EE89EE00E943C32F801E9
:1021D000ED55F74F408151816281738122E030E0FB
:1021E0008EE89EE00E94523466EF72E08EE89EE038
:1021F0000E943C32F801E955F74F608170E04AE0F7
:1022000050E08EE89EE00E9406336FE073E08EE8B7
:102210009EE00E943C32F801EC59F74F608170E07B
:102220004AE050E08EE89EE00E9406336BE273E0E5
:102230008EE89EE00E943C32F801E855F74F40815D
:1022400051816281738122E030E08EE89EE00E943D
:10225000523463E473E08EE89EE00E943C32F80161
:10226000E455F74F408151816281738122E030E073
:102270008EE89EE00E9452346BE573E08EE89EE0AB
:102280000E943C32F801E055F74F40815181628154
:10229000738122E030E08EE89EE00E945234629624
:1022A0000FB6F894DEBF0FBECDBFDF91CF911F9167
:1022B0000F91FF90EF90DF90CF90BF90AF909F90E5
:1022C0008F9008958F929F92AF92BF92CF92DF929C
:1022D000EF92FF921F93CF93DF93EC016A017B0192
:1022E000FC01E855F74F24EA30E74DE75FE36081F2
:1022F0007181828193810E94D7379B01AC01C70114
:10230000B6010E948E3787FDAFC02EEA37E441E860
:102310005FE3FE01E455F74F608171818281938113
:102320000E94D7379B01AC01C701B6010E94FF355F
:1023300018160CF499C020E030E048E452E4C701DC
:10234000B6010E94D7374B015C0120E030E04AE73C
:1023500054E40E94FF3587FD87C020E233EB41E85B
:102360005CE4C501B4010E948E3718160CF47CC0E1
:1023700020E030EE41E854E4C501B4010E94033688
:102380000E94973726EA3BE944E550E40E94D7379C
:102390002EE83DE543E150E40E9403360E9470368A
:1023A000162F70E0665F7F4F882777FD8095982F06
:1023B0000E949E369B01AC0160E070E080E090E4FA
:1023C0000E943A3820E030EE41E055E40E94D737D1
:1023D000A50194010E9403369B01AC0160E070E00E
:1023E00080E095E40E9487354B015C0120E030E0FD
:1023F000A9010E948E3720E030E040E05FE387FDD6
:1024000005C0C501B4010E94883504C0C501B401EE
:102410000E9487350E946B365B01CB0166E0969582
:1024200087956A95E1F71295107F182B67E188ED83
:102430009DE00E940808612F88ED9DE00E94AC0796
:102440006A2D660F660F626088ED9DE00E94AC0702
:1024500088ED9DE00E942708C45AD74FC882D982D0
:10246000EA82FB8280E001C088E0DF91CF911F917A
:10247000FF90EF90DF90CF90BF90AF909F908F90A4
:1024800008954F925F926F927F928F929F92AF9238
:10249000BF92CF92DF92EF92FF920F931F93CF9351
:1024A000DF931F921F92CDB7DEB78C01FC01EC5A6F
:1024B000F74F81E0808360E088E00E94702F64EF36
:1024C00071E080E090E00E94852D48018BEA881A37
:1024D00087EF980AF40111821082E8E2AE2EB12C47
:1024E000E12CF12CF8E16F2E77247A946801F4E95D
:1024F000CF1AF7EFDF0A4E2C69827A82F6016081EB
:102500006E0D22E0AE014F5F5F4FC8010E94202395
:10251000F60160816E0D21E0AE014F5F5F4FC80193
:102520000E94DD1D89818F3F09F04BC078E1572E55
:1025300059821A82F6016081640D22E0AE014F5F7C
:102540005F4FC8010E942023F6016081640D21E0E5
:10255000AE014F5F5F4FC8010E94DD1D898181116F
:1025600030C080EF850D89837A82F6016081640D29
:1025700022E0AE014F5F5F4FC8010E9420235394B9
:10258000FDE15F12D5CF66E873E08EE89EE00E9421
:102590003C324AE050E0B7018EE89EE00E94FE32F5
:1025A00060E973E08EE89EE00E944932F4012081E8
:1025B0003181C50188972817390719F4F401B182D0
:1025C000A082FFEFEF1AFF0A88E2A80EB11CE8E034
:1025D000EE16F10409F08FCFF401608171814AE0B9
:1025E00050E08EE89EE00E94493361E773E08EE898
:1025F0009EE00E94493240E050E46CE176E4C8017C
:102600000E9462110F900F90DF91CF911F910F9157
:10261000FF90EF90DF90CF90BF90AF909F908F9002
:102620007F906F905F904F9008952F923F924F92BE
:102630005F926F927F928F929F92AF92BF92CF9252
:10264000DF92EF92FF920F931F93CF93DF93CDB75B
:10265000DEB7A9970FB6F894DEBF0FBECDBF2C0131
:102660006D8B2DB73EB73BA32AA38C010D5A174F94
:1026700081E0D8018C93F201EC5AF74F80818111EF
:1026800003C0C2010E944112ED898E2F90E0FC012F
:10269000E05AF109E735F10508F0ABC6EE58FF4FF7
:1026A000920124593F4F19010C94CF39F201E05C9B
:1026B000F74F80819181892B09F098C642E050E064
:1026C000B2016B5A774FF5C0F201E05CF74F8081A1
:1026D0009181892B09F08AC6D9011C92912C920113
:1026E0002B5A374F3A872987720134E9E31A37EFBB
:1026F000F30A88248394A92CB12CE985FA8580817A
:10270000918168E270E00E949939A616B70608F038
:1027100070C608E010E0D7018C91B501680F711DFB
:1027200088ED9DE00E941208B80188ED9DE00E94AE
:10273000FB0A88ED9DE00E942708F7018081B50122
:10274000680F711D41E050E088ED9DE00E94050892
:1027500088ED9DE00E945407892B51F188ED9DE0A2
:102760000E945C076C01612C712CDD24C601062CD3
:1027700002C0959587950A94E2F781709927F1E058
:102780008F27898341E050E0BE016F5F7F4FC20118
:102790000E94441B2FEF621A720A38E0631671041C
:1027A00029F70F5F1F4F0D30110509F0B4CF02C09C
:1027B000D1018C9293949FCFF201E05CF74F20817E
:1027C00031817596808191812817390709F00EC6ED
:1027D000C2010E944C0B07C6F201E05CF74F8081FA
:1027E0009181029709F002C6D201AB5BB74F2D91E0
:1027F0003C911197F901E259FF4FE40DF51D8081DD
:1028000091812E5F3F4F2D933C93F201EB5AF74F8E
:10281000208131818217930708F07BC068E270E065
:102820000E9499398C016B01DD247201F4E9EF1AE1
:10283000F7EFFF0AD7018C91B601680F711D88ED83
:102840009DE00E941208B80113E0769567951A95ED
:10285000E1F7685F7F4F88ED9DE00E94FB0A88EDFD
:102860009DE00E942708F7018081B601680F711D65
:1028700041E050E088ED9DE00E94050888ED9DE074
:102880000E945407892BC9F088ED9DE00E945C07E7
:102890009927077002C0959587950A95E2F7817090
:1028A0009927F1E08F27898341E050E0BE016F5FF7
:1028B0007F4FC2010E94441B96C581E098C5F2017A
:1028C000E05CF74F80819181039709F08FC5D201B9
:1028D000AB5BB74F8D919C911197FC01E259FF4F73
:1028E000E40DF51D60817181F201E80FF91FE059D7
:1028F000FF4F408103968D939C93F201EB5AF74F63
:10290000808191816817790720F4C2010E947C0EB2
:102910004DC385E06CC5F201E05CF74F8081918189
:10292000892B09F063C5D9011C9289E00E94A62F6A
:10293000D3C4F201E05CF74F80819181019709F0E7
:1029400055C5359680819181D201A80FB91FA25932
:10295000BF4F6C91019691838083623020F489E0AF
:102960000E94702FDEC488E021C3F201E05CF74FC3
:1029700080819181892B09F039C5F901108244E0E9
:1029800050E0B201685A774FADC4F201E05CF74FF6
:1029900080819181049709F029C5D201AB5BB74FC3
:1029A0008D919C911197FC01E259FF4FE40DF51DAB
:1029B000408151816281738104968D939C9321E0C3
:1029C000C2010E94FF0DF2C2F201E05CF74F80816C
:1029D0009181892B09F00AC5F901108244E050E089
:1029E000B201645A774F7EC4F201E05CF74F8081F8
:1029F0009181049709F0FAC4D201AB5BB74F8D9176
:102A00009C911197FC01E259FF4FE40DF51D4081A7
:102A100051816281738104968D939C93C2010E94BF
:102A20006211C4C2F201E05CF74F8081918101978D
:102A300009F0DCC4D201AB5BB74F8D919C9111972B
:102A4000F201E80FF91FE259FF4FE08101968D93E3
:102A50009C93E23008F034C1BBE1EB9FF0011124FC
:102A6000E75BF14F81818983F901108236C4F2015D
:102A7000E05CF74F80819181029709F0B7C43596E9
:102A800020813181A201420F531FDA01A259BF4FA9
:102A90008C9111966C912E5F3F4F318320830E9461
:102AA0007523A5C4F201E05CF74F80819181019705
:102AB00009F09CC4359680819181D201A80FB91F7D
:102AC000A259BF4F2C91019691838083223008F048
:102AD000F7C0D1011C92BBE12B9FF0011124E75BF1
:102AE000F14FE181C2018B59974FF0E0EE0FFF1FCC
:102AF000EE0FFF1FE80FF91F213029F08285938523
:102B0000A485B5854BC2828D938DA48DB58D46C2AB
:102B1000F201E05CF74F80819181059709F066C46E
:102B2000359620813181D201A20FB31FA259BF4F28
:102B30004C91C901019691838083D1011C92442359
:102B4000E1F0413009F0BCC04091650ED901A159B6
:102B5000BF4FA40DB51D8D919D910D90BC91A02DE1
:102B60002B5F3F4F31832083F20134E0439FE00D20
:102B7000F11D1124E158F74F9BC040914A0ED90135
:102B8000A159BF4FA40DB51D8D919D910D90BC9184
:102B9000A02D2B5F3F4F31832083F20124E0429F21
:102BA000E00DF11D1124E159F74F82C0F201E05C04
:102BB000F74F80819181019709F018C43596808183
:102BC0009181D201A80FB91FA259BF4F2C91019634
:102BD00091838083223008F073C0F10110823BE1C1
:102BE000239FF0011124E75BF14FE181C2018B5972
:102BF000974FF0E0EE0FFF1FEE0FFF1FE80FF91FDA
:102C0000213029F082899389A489B589C7C182A519
:102C100093A5A4A5B5A5C2C1F201E05CF74F8081E0
:102C20009181059709F0E2C3359620813181D20167
:102C3000A20FB31FA259BF4F4C91C90101969183B6
:102C40008083D1011C924423D9F04130C9F54091D1
:102C5000650ED901A159BF4FA40DB51D8D919D9150
:102C60000D90BC91A02D2B5F3F4F31832083F2014B
:102C700034E0439FE00DF11D1124E157F74F18C0D8
:102C800040914A0ED901A159BF4FA40DB51D8D9198
:102C90009D910D90BC91A02D2B5F3F4F31832083E0
:102CA000F20124E0429FE00DF11D1124E958F74F95
:102CB00080839183A283B383C2010E940C0C99C3C9
:102CC00085E074C1F201E05CF74F80819181892B2E
:102CD00009F08CC3F901108244E050E0B201605A5F
:102CE000774F00C3F201E05CF74F80819181049738
:102CF00009F07CC3D201AB5BB74F8D919C911197CA
:102D0000FC01E259FF4FE40DF51DC080D180E28047
:102D1000F38004968D939C9320E030E0A901C701D5
:102D2000B6010E948E371816CCF4F201EC59F74F19
:102D30008081882331F03497C082D182E282F3828D
:102D400052C3D201A156B74FCD92DD92ED92FC92C3
:102D500013971082C2010E940C0C45C388E047C340
:102D6000F201E05CF74F80819181892B09F03EC32D
:102D7000D9011C9211E020E030E0A901E15AFF4F97
:102D800060817181828193810E94FF3518160CF455
:102D900010E01983A2C2F201E05CF74F80819181BB
:102DA000019709F023C3359680819181D201A80F44
:102DB000B91FA259BF4F2C91019691838083E65A87
:102DC000FF4F222329F010821182128213820CC03D
:102DD000D201A05AB74F8D919D910D90BC91A02D1D
:102DE00080839183A283B383C2010E940C0C99C299
:102DF000F201E05CF74F008111810A30110508F4FF
:102E0000F5C2359680819181DC01A259BF4FA40D96
:102E1000B51D2D913D914D915C9129873A874B8746
:102E20005C879C012C5F3F4F31832083DC01AE58CF
:102E3000BF4FA40DB51D6D907C90DC01AC58BF4F09
:102E4000A40DB51D4D915D916D917C91498B5A8B6F
:102E50006B8B7C8BD201A80FB91FA858BF4FFC9079
:102E60000B96918380830B30110541F07096808121
:102E700091810B960817190709F0B8C2FBE46F1689
:102E8000F1E07F0608F091C020E030E04AE754E42A
:102E900069857A858B859C850E94033620E030E425
:102EA0004CE157E40E94D73720E030E040E855E499
:102EB0000E94FF3587FF79C0D1011C92F201EB5AC5
:102EC000F74F808191810B960817190719F4C201F9
:102ED0000E944C0B0E94622D6D877E878F87988B96
:102EE00088248394F1FE812CAA24A394F0FEA12CC3
:102EF000F201E45AF74FC080D180E280F380098963
:102F00001A892B893C89A30169857A858B859C85E3
:102F10000E943528F101808381116BC20E94622DCD
:102F20002D853E854F855889621B730B840B950B4D
:102F30000E949C366B017C01B30180E090E00E940E
:102F40009C3620E030E04AE754E40E94D7379B01EA
:102F5000AC01C701B6010E9403366D837E838F8367
:102F6000988744E050E0BE016B5F7F4FC2010E9432
:102F7000441B44E050E060E67EE0C2010E94441B36
:102F800044E050E06BE77EE0C2010E94441BF20186
:102F9000E05AF74F80819181A281B38189839A831E
:102FA000AB83BC8344E050E09AC181E0D1018C93B3
:102FB00020C2F201EB5AF74F20813181C9010B96F3
:102FC0007597408151814817590709F00FC2EDB735
:102FD000FEB7F98FE88FD1011C92F201EB5BF74F3E
:102FE00080819181DC01A259BF4FA40DB51D4D9187
:102FF0005D916D917C91498B5A8B6B8B7C8BAC0175
:103000004C5F5F4F51834083DC01AE58BF4FA40D2E
:10301000B51D6D907C90DC01AC58BF4FA40DB51D63
:103020004D915D916D917C914E8F5F8F68A379A3D7
:10303000D201A80FB91FA858BF4F1C910B969183BE
:1030400080836DB77EB7621B730B0FB6F8947EBF9B
:103050000FBE6DBF8DB79EB701969A878987DC0139
:10306000280F391F80E090E07F01A217B307A1F07D
:10307000F70140815181B201640F751F62597F4F82
:10308000FB0160814F5F5F4FF701518340836D9378
:10309000662359F30196E9CF869D9001879D300DF7
:1030A000969D300D11242B34314008F0D2C020E021
:1030B00030E04AE754E469897A898B899C890E94C7
:1030C000033620E030E44CE157E40E94D73720E09B
:1030D00030E040E855E40E94FF3587FFBAC0C201E6
:1030E0000E94BD0B0E94622D6A8F7B8F8C8F9D8FFB
:1030F000212C312C92012B5A374F3DA32CA3A20136
:1031000044595F4F5E874D87812F8270682F70E032
:103110007FA36EA311701E8B1F8AC201845A974F22
:1031200099A788A7ACA1BDA18D919C9128163906BD
:10313000F0F5AD85BE858C91811135C0E985FA85A4
:10314000E20DF31D8081882371F141E0B101C201DC
:103150000E947C0E88248394EEA1FFA11E161F06F8
:103160000CF0812CAA24A3942E893F8912161306F1
:103170000CF0A12CA8A5B9A5CD90DD90ED90FC9008
:103180000E8D1F8D28A139A1A30169897A898B89A8
:103190009C890E943528ED85FE85808340E0B10141
:1031A000C2010E947C0EFFEF2F1A3F0ABBCFED85B4
:1031B000FE858081811152C00E94622D2A8D3B8D37
:1031C0004C8D5D8D621B730B840B950B0E949C369E
:1031D0006B017C01B30180E090E00E949C3620E00E
:1031E00030E04AE754E40E94D7379B01AC01C701A5
:1031F000B6010E9403366D837E838F83988744E0F7
:1032000050E0BE016B5F7F4FC2010E94441B44E04F
:1032100050E060E67EE0C2010E94441B44E050E0C2
:103220006BE77EE0C2010E94441BF201E05AF74FB7
:1032300080819181A281B38189839A83AB83BC838E
:1032400044E050E0BE016F5F7F4FC2010E94441B0B
:1032500005C081E0F201E459FF4F8083488D598D0C
:103260000FB6F8945EBF0FBE4DBFC3C0F201E05C65
:10327000F74F80819181019709F0B8C0D9011C9264
:10328000359680819181D201A80FB91FA259BF4FF5
:103290002C9101969183808361E0211101C060E04F
:1032A000C2010E942F0CA5C0F201E05CF74F8081A3
:1032B0009181892B09F09AC0F901108288E00CC035
:1032C000F201E05CF74F80819181892B09F08EC07B
:1032D000D9011C9272968081898341E050E0BE0141
:1032E0006F5F7F4FC2010E94441B83C0F201E05C0C
:1032F000F74F80819181019709F078C035968081E0
:103300009181D201A80FB91FA259BF4F2C910196EC
:10331000918380833D96222319F081E0808301C050
:103320001082F101108265C0F201E05CF74F8081EC
:103330009181892B09F05AC0D9011C92F801CBCF99
:10334000F201E05CF74F80819181019709F04EC056
:10335000359680819181D201A80FB91FA259BF4F24
:103360002C91019691838083222321F081E0D80162
:103370008C9339C0F801108236C0F201E05CF74F3F
:1033800080819181892B91F5F901108288E00E945A
:10339000A62F21E0892B09F020E029839ECFF2019E
:1033A000E05CF74F80819181019701F5359680812E
:1033B0009181D201A80FB91FA259BF4F2C9101963C
:1033C00091838083222359F060E088E00E94702F6F
:1033D00064EF71E080E090E00E94852D04C061E020
:1033E00088E00E94702FD1011C9203C086E0F10199
:1033F00080836D89C2010E94041EF201E459FF4FCF
:1034000080812AA13BA10FB6F8943EBF0FBE2DBF0D
:10341000A9960FB6F894DEBF0FBECDBFDF91CF9156
:103420001F910F91FF90EF90DF90CF90BF90AF90E2
:103430009F908F907F906F905F904F903F902F90D4
:1034400008958627682F62956827062E66956695EB
:103450006025062E669560256770082E892F669573
:1034600007946795902D8627069467959025862763
:103470000895CF92DF92EF92FF920F931F93CF9315
:10348000DF9300D01F92CDB7DEB78C01CE0101963D
:103490006C019FE0E92EF12CD801ED91FC910088A0
:1034A000F189E02DB701C8011995F60181936F01EB
:1034B000FFEFEF1AFF0A23E1E216F10469F78981B1
:1034C0009A81AB81BC818F3F9F4FAF4FBF4FE1F1DE
:1034D00049815A816B817C8126E08EE89EE00E94C2
:1034E000E13088ED9DE00E94EB070E941E070E94DC
:1034F000620A08591F4FD8016D937D938D939C9359
:1035000013976BE374E08EE89EE00E943C32F80172
:10351000408151816281738122E030E08EE89EE03B
:103520000E9450346DE474E08EE89EE00F900F909E
:103530000F900F90DF91CF911F910F91FF90EF901F
:10354000DF90CF900C94493280E092ECA1E0B0E0A3
:1035500089839A83AB83BC83CE0101966C018FE093
:10356000E82EF12CD6014D916D01D801ED91FC9121
:103570000288F389E02DB701C8011995BFEFEB1A56
:10358000FB0AE3E1EE16F10469F7A2CFCB010C943C
:103590003C3CCB01642F0C94443C08958F929F9245
:1035A000AF92BF92CF92DF92EF92FF920F931F9351
:1035B000CF93DF932FE634E0FC0131832083E45B7B
:1035C000F74F6083399711821082369610823997AF
:1035D00011821082359611821082329611821082E9
:1035E0003A961082E12CF12C00E010E0C8010E9414
:1035F0003C3CA82EC80107960E943C3C8E2CC0E0A3
:10360000D0E0B12CA094B094C82ED12CC094D0940A
:10361000CE018E0D9F1DC697C4F4B5010C2E02C0BD
:10362000759567950A94E2F761709C2E980C892D28
:103630000E94372FB6010C2E02C0759567950A942B
:10364000E2F76170892D0E94702F2196C830D10554
:10365000F9F60F5F1F4FE8E0EE0EF11C0730110581
:1036600029F6DF91CF911F910F91FF90EF90DF909E
:10367000CF90BF90AF909F908F9008952FE634E049
:10368000FC013183208308951F93CF93DF93FB01C7
:1036900020E030E0DC01A95BB74F2417350781F04B
:1036A0001191BC01620F731FCD91DC9111976C0FCA
:1036B0007D1FEB01C259DF4F18832F5F3F4FEDCFC6
:1036C0008D919C911197820F931F8D939C93DF9105
:1036D000CF911F910895CF93DF93FC01E359FF4FE2
:1036E0006081DC01A459BF4F67FF0EC020E8260FA0
:1036F000208322E02C93DC01ED91FC910488F58974
:10370000E02DDF91CF911994FC01E05CF74F20810F
:10371000318121503109820F931FEC01C259DF4FD3
:1037200088818C9331832083DF91CF9108956F92AC
:103730007F928F929F92AF92BF92CF92DF92EF9241
:10374000FF920F931F93CF93DF93EC019C01275BB4
:10375000374F59016D3721F481E0F9018083AEC004
:10376000F90180819E012D5B374F7901882309F48F
:103770009EC080E26827F701808191819E01245BD1
:10378000374F4901FE01EE5BF74F6F018E01005C80
:10379000174F009759F4E55DF7406083F901808188
:1037A0008823A9F18FEF9FEF33961EC081309105DA
:1037B00081F467FF08C083E08083862F8F77F8014C
:1037C0001082818324C082E08083862F90E0F801FC
:1037D0000BC08230910559F42081233041F4F80167
:1037E00080819181860F911D9183808310C0F601A5
:1037F0002081821B9109F801208131818217930772
:1038000030F48C0F9D1FFC01E259FF4F6083F401DF
:103810008081882369F03E01F1EB6F1AF7EF7F0A90
:10382000F301808191810E94211AF30191838083A9
:10383000F701208131812F5F3F4F31832083F401D5
:103840004081F6015081F80180819181850F911DA1
:10385000840F911D840F911D2817390711F5F70169
:1038600011821082FE01EB5BF74F118210823296BB
:1038700011821082442329F0389680819181892B0E
:1038800019F4CE010E946B1BFE01E55BF74F8081AE
:10389000882339F0C359DF4F80589881981301C0AD
:1038A0001082F5018081882349F0108207C06E37AD
:1038B00009F061CFF70111821082F3CFDF91CF9130
:1038C0001F910F91FF90EF90DF90CF90BF90AF903E
:1038D0009F908F907F906F900895FF920F931F930A
:1038E000CF93DF931F92CDB7DEB78C01F62E88E021
:1038F000898369816837E8F588ED9DE00E940808B2
:1039000088ED9DE00E942708811130C0FF2041F022
:1039100041E050E0BE016F5F7F4FC8010E94441B31
:1039200060E574E08EE89EE00E943C324AE050E0A0
:1039300069818EE89EE00E942B3364E674E08EE895
:103940009EE00E943C3240E150E069818EE89EE0BA
:103950000E942B3369E674E08EE89EE00E944932B3
:1039600061E070E080E090E00E94852D89818F5FAA
:10397000BFCF0F90DF91CF911F910F91FF900895CE
:10398000CF93C62F83E8860F823090F46DE78EE8E0
:103990009EE00E947C30E0918E0EF0918F0E60E2EE
:1039A0006C270190F081E02D8EE89EE0CF91199474
:1039B0008EE89EE0CF910C947C308F929F92AF92D4
:1039C000BF92CF92DF92EF92FF920F931F93CF930C
:1039D000DF93EC018C017C0120ECE21A27EFF20A64
:1039E000845B974F6C015E0193EBA91A97EFB90ABC
:1039F000F7018081918198012C1B3D0BF60128175E
:103A00003907C8F48081980122593F4F4901882322
:103A100051F0F9016081F501808191810E94211AA4
:103A2000F50191838083F4016081CE010E94C01C66
:103A30000F5F1F4FDDCF8081882369F08E01035B0C
:103A4000174FF8016081CE010E94C01CF80161810E
:103A5000CE010E94C01CF70111821082C95BD74FB2
:103A600019821882DF91CF911F910F91FF90EF90F3
:103A7000DF90CF90BF90AF909F908F900895BF92AE
:103A8000CF92DF92EF92FF920F931F93CF93DF932A
:103A9000EC01B62E8C01005C174FFC01E95BF74F7F
:103AA00080819181F801918380836EE78EE89EE0AA
:103AB0000E947C307E01F4EBEF1AF7EFFF0AF7016A
:103AC0008081882381F08FEF9FEF6E01F3EBCF1A97
:103AD000F7EFDF0AF601918380836B2D0E94211A94
:103AE000F601918380836B2DCE010E94C01CF801EA
:103AF00060817181F70180816038710580F48823CD
:103B000071F17E01F3EBEF1AF7EFFF0AF701808105
:103B100091810E94211AF7019183808320C088231C
:103B2000B1F07068672F7E01F3EBEF1AF7EFFF0A31
:103B3000F701808191810E94211AF701918380838E
:103B4000F80160810E94211AF70191838083F801B6
:103B5000808191819068692FCE010E94C01CF8017C
:103B60006081CE01DF91CF911F910F91FF90EF9077
:103B7000DF90CF90BF900C94C01C0F931F93CF93F6
:103B8000DF931F92CDB7DEB78C01698341E050E02F
:103B9000BE016F5F7F4F0E94441BF801E359FF4F46
:103BA0006081C8010E943F1DC8010E94DD1C0F906A
:103BB000DF91CF911F910F910895FF920F931F9363
:103BC000CF93DF938A01422F88ED9DE00E94020887
:103BD000C0E088ED9DE00E945407892B71F0FF241E
:103BE000F394FC0EC8018C0F911DEC0188ED9DE053
:103BF0000E945C078883CF2DECCF8C2FDF91CF9173
:103C00001F910F91FF9008956F927F928F929F92D4
:103C1000AF92BF92CF92DF92EF92FF920F931F93DA
:103C2000CF93DF93CDB7DEB769970FB6F894DEBFB9
:103C30000FBECDBF8C018DB69EB6862F90E0FC01E5
:103C4000E058F109EF31F10508F0D5C4E753FF4F13
:103C50009801205C374F79010C94CF39D9018D91AF
:103C60009C91892BF1F4D801ED91FC910280F381B4
:103C7000E02DC8011995FC0101900020E9F7AF0182
:103C800041505109481B590BD801ED91FC9102801C
:103C9000F381E02D62C0D9018D919C91019709F4C7
:103CA0009FC386E0F801E459FF4F86C4F901808183
:103CB0009181892BB1F7D801ED91FC910480F581B8
:103CC000E02DC8011995FC0101900020E9F7AF0132
:103CD00041505109481B590BD801ED91FC910480CA
:103CE000F581E02D3AC0F90180819181892BC9F6D7
:103CF000D801ED91FC910680F781E02DC80119955E
:103D0000FC0101900020E9F7AF0141505109481B27
:103D1000590BD801ED91FC910680F781E02D1DC073
:103D2000F90180819181892B09F0BBCFD801ED91F8
:103D3000FC910084F185E02DC8011995FC010190EA
:103D40000020E9F7AF0141505109481B590BD80138
:103D5000ED91FC910084F185E02DC801498F588FC9
:103D60001995498D588DBC0134C4F9018081918128
:103D7000892B09F096CFD801ED91FC910284F3854F
:103D8000E02DC8011995FC0101900020E9F7AF0171
:103D900041505109481B590BD801ED91FC91028407
:103DA000F385E02DDACFF90180819181892B09F02B
:103DB00078CFD801ED91FC910484F585E02DC80100
:103DC0001995FC0101900020E9F7AF01415051091C
:103DD000481B590BD801ED91FC910484F585E02D29
:103DE000BCCFF90180819181892B09F05ACFD8018C
:103DF000ED91FC910684F785E02DC8011995FC0131
:103E000001900020E9F7AF0141505109481B590BBF
:103E1000D801ED91FC910684F785E02D9ECFF90144
:103E200080819181892B09F03CCF4AE050E065E820
:103E300074E0CFC3D9018D919C91029709F031CFE5
:103E4000F801EB5BF74F20813181A801420F531F2E
:103E5000DA01A259BF4F8C9111966C912E5F3F4FA2
:103E6000318320830E94372FC2C3F9018081918161
:103E7000029709F016CFF801EB5BF74F20813181F3
:103E8000A801420F531FDA01A259BF4F8C9111961E
:103E90006C912E5F3F4F318320830E94702FA7C308
:103EA000D9018D919C91019709F0FBCEF801EB5B54
:103EB000F74F20813181D801A20FB31FA259BF4F04
:103EC0008C912F5F3F4F318320830E94A62FF5C234
:103ED000F90180819181029709F0E3CEF801EB5B53
:103EE000F74F20813181D801A20FB31FA259BF4FD4
:103EF0008C91A9014F5F5F4F51834083D901A15934
:103F0000BF4FA00FB11F6D917C912D5F3F4F31834B
:103F100020830E941D2E6BC3C80184599F4F26E049
:103F2000DC012C93F701208131812230310508F426
:103F300062C3ADB6BEB6F801EB5BF74F408151816D
:103F4000D801A40FB51FA259BF4F6C914F5F5F4FAF
:103F500051834083462F50E0ADB7BEB7A41BB50BCD
:103F60000FB6F894BEBF0FBEADBF11966D012230E3
:103F7000310511F4613031F04D5F5F4F2417350783
:103F800009F07BC07C2D3601262D271B261788F4CF
:103F900020813181A801420F531F42595F4FDA013E
:103FA0004C912F5F3F4F31832083D3014D933D01CF
:103FB000EBCFD7012D913C9122303105B1F020811A
:103FC0003181D901A259BF4FA00FB11FED90FC90D4
:103FD0002E5F3F4F31832083B9EEEB16B3E0FB0633
:103FE00038F029E0FC01208348C0EE24E394F12C52
:103FF000DC011C92F092420EE092410EC8018259FF
:104000009F4F9093460E8093450E80E0688F0E94EC
:104010005D08688D613029F4F60180810E94EB090A
:1040200012C0D0923F0EC0923E0E60933C0E109292
:104030003B0E8CEF99E090933A0E8093390ED601A7
:104040008C910E94D1090E9461098091410E90914A
:10405000420E2091430E3091440E28173907C9F7BC
:104060000E948009EE0CFF1CF801E95BF74F80818C
:104070009181E80EF91EF182E0820FB6F894BEBE7F
:104080000FBEADBEB8C2F90180819181039709F0DE
:1040900008CED801AB5BB74F8D919C911197FC0175
:1040A000E259FF4FE00FF11F60817181F801E80FC5
:1040B000F91FE059FF4F408103968D939C93D801DF
:1040C000ED91FC910288F389E02DC80119958FC20A
:1040D000F90180819181029709F0E3CDD801AB5BB2
:1040E000B74F8D919C911197FC01E259FF4FE00F62
:1040F000F11F6081718102968D939C93D801ED919F
:10410000FC910088F189E02DC8011995D6C1F9010B
:1041100080819181029709F0C4CDF801EB5BF74FE4
:10412000808191819801280F391FD901A259BF4F71
:104130006C911196EC90029691838083CE0101964A
:104140000E946306CE0101960E945106F12CBE0129
:10415000615F7F4FCE0101960E948606F394EF14B3
:10416000B0F7980124593F4F7901882309F422C2FE
:1041700048E050E0BE01615F7F4FC8010E94441BD0
:1041800016C2D9018D919C910B9709F08ACDD80167
:10419000AB5BB74F2D913C911197A801420F531F74
:1041A000FA01E259FF4F60816901EFEFCE1ADE0A92
:1041B0001196DC92CE923E01FFE06F0E711C80E002
:1041C00090E0B62CA72CC00ED11E7601E80EF91E89
:1041D0007EE6E70EF11CF701F080F301F1923F015A
:1041E00001968830910589F7FA01E958FF4FF08070
:1041F0003196E080255F3F4F2D933C93CE01019691
:104200000E946306CE0101960E942E056B2D7A2D29
:10421000CE0101960E94290640E06F2DCE01019645
:104220000E94CB05F12CFE1409F4E1C1CE010196E8
:104230000E940D068F8B41E050E0BE01695E7F4F0A
:10424000C8010E94441BF394EECFD9018D919C913B
:104250000B9709F026CDD801AB5BB74F2D913C9160
:104260001197A801420F531FFA01E259FF4F6081D5
:104270006901EFEFCE1ADE0A1196DC92CE923E0172
:10428000FFE06F0E711C80E090E0B62CA72CC00EF2
:10429000D11E7601E80EF91E7EE6E70EF11CF7014D
:1042A000F080F301F1923F0101968830910589F782
:1042B000FA01E958FF4FF08031964081255F3F4F6A
:1042C0002D933C93CE010196498F0E946306CE0147
:1042D00001960E942E056B2D7A2DCE0101960E942B
:1042E0002906498D6F2DCE0101960E94CB057FC115
:1042F000D9018D919C91029709F0D3CCF801EB5B29
:10430000F74F808191819801280F391FD901A25957
:10431000BF4F6C911196EC900296918380834E2D45
:1043200088ED9DE00E940208F12C88ED9DE00E943E
:104330005407892B79F088ED9DE00E945C07898302
:1043400041E050E0BE016F5F7F4FC8010E94441BF7
:10435000F394EBCFF801E459FF4FFE1409F44AC17E
:1043600081E02AC1F90180819181029708F499CCFA
:104370006801FBEBCF1AF7EFDF0AD6018D919C9114
:104380001197F801E80FF91FE259FF4F608101967C
:104390008D939C9388ED9DE00E940808B12C2B2DF5
:1043A00030E0F7018081918101972817390798F44F
:1043B000F60180819181F801E80FF91FE259FF4F62
:1043C00060810196D6018D939C9388ED9DE00E94BB
:1043D000AC07B394E4CF88ED9DE00E94270807C1A5
:1043E000F801EB5BF74F80819181D801A80FB91FCD
:1043F000A259BF4F2C910196918380838CB52111D6
:1044000002C0806201C08F7D8CBDF1C0F901808146
:104410009181019709F045CCF801EB5BF74F808162
:104420009181D801A80FB91FA259BF4F2C910196B5
:10443000918380839CB5822F83709C7F892B8CBD58
:104440008DB522FB222720F98E7F822B8DBD18C0CF
:10445000D9018D919C91019709F023CCF801EB5B78
:10446000F74F80819181D801A80FB91FA259BF4F82
:104470002C910196918380838CB5837F282B2CBD52
:10448000E95DF740B7C0F90180819181019709F09A
:1044900008CCF801EB5BF74F80819181D801A80F20
:1044A000B91FA259BF4F2C910196918380832EBDD5
:1044B00000000DB407FEFDCF8EB5898341E050E0CA
:1044C000BE016F5F7F4F85C0D9018D919C91892B73
:1044D00009F0E7CBF801EA59FF4F40815181B8015B
:1044E0006E5F7F4F76C0F90180819181892B09F041
:1044F000D8CB8091330E9091340EA091350EB091AF
:10450000360E89839A83AB83BC8344E050E0D8CFD6
:10451000D9018D919C91049709F0C3CBD801AB5B75
:10452000B74F2D913C911197F901E259FF4FE00FE0
:10453000F11F60817181828193812C5F3F4F2D93A8
:104540003C930E94720853C0F90180819181892BAC
:1045500009F0A7CB0E9444089A83898342E050E087
:10456000AFCFD9018D919C91029709F09ACBD801D8
:10457000AB5BB74F2D913C911197F901E259FF4F79
:10458000E00FF11F808191812E5F3F4F2D933C936F
:104590009C0122503109F801E459FF4F7F01263078
:1045A000310540F40E943B0880E00E940409D701D5
:1045B0001C9221C085E0F70180831DC0D9018D9137
:1045C0009C91892B09F06DCB44E050E0B80168590B
:1045D0007F4FC8010E94441B0AC0F901808191816C
:1045E000892B09F05ECB61E0C8010E946D1CF801C7
:1045F000E459FF4F10827801FCE6EF0EF11CD70161
:104600006C91C8010E94BD1DF70180810FB6F8941E
:104610009EBE0FBE8DBE69960FB6F894DEBF0FBE6C
:10462000CDBFDF91CF911F910F91FF90EF90DF9061
:10463000CF90BF90AF909F908F907F906F90089594
:10464000EF92FF920F931F93CF93DF931F921F92CE
:10465000CDB7DEB7122F88ED9DE049835A830E94C3
:1046600008084981042FE42E5A81F52E8E2D801BD7
:10467000811740F4F70161917F0188ED9DE00E9470
:10468000AC07F4CF88ED9DE00F900F90DF91CF91B4
:104690001F910F91FF90EF900C942708CF93DF9319
:1046A000EC018EE89EE00E94CF2F181619064CF4FC
:1046B0008EE89EE00E94E82F682FCE010E94971B93
:1046C000F0CFDF91CF9108952091430E3091440EA9
:1046D0008091410E9091420E2817390721F40E94D3
:1046E000800981E0089580E00895CF93DF93D82F6B
:1046F000C62F811109C0662321F06130B1F560E059
:1047000001C061E08DE01DC0813079F5613049F074
:1047100030F0623061F0633041F560E01DC061E06F
:104720001BC060E08CE00E94702F61E019C060E067
:104730008CE00E94702F60E08BE00E94702F61E09F
:104740008AE00E94702F8BE1D89FF0011124E75B73
:10475000F14FC18380E00AC08CE00E94702F60E0BE
:104760008BE00E94702F60E0EBCF85E0DF91CF916E
:1047700008959093820E8093810E6093490E40932A
:10478000640E60E078EB88E097E40E94720880E0B5
:104790000E941A2E61E08DE00E94372F61E08CE0CC
:1047A0000E94372F61E08BE00E94372F61E08AE0A2
:1047B0000E94372F83E00E943B0860914A0E80E000
:1047C0000E9475236091650E81E00E94752320E0B0
:1047D00032E030935F0E20935E0E80E090E0A0E028
:1047E000B4E48093600E9093610EA093620EB09338
:1047F000630E41E04093590E30937A0E2093790E68
:1048000080937B0E90937C0EA0937D0EB0937E0ED2
:104810004093740E08950F931F93CF93DF93AB01D2
:104820009BE1899FE0011124C75BD14F9B0123537A
:1048300031092A393340B0F09B81911110C09A811F
:104840009F5F9A836981662321F061500E947523DE
:1048500003C081E080937F0E83E08B8337C091504B
:104860009B8334C08091800E882309F18D899E89B5
:10487000DB01A81BB90B9D010E94D53909891A8952
:104880002B893C89060F171F281F391F098B1A8B8C
:104890002B8B3C8B88859985AA85BB85840F951FBA
:1048A000A11DB11D88879987AA87BB870FC08C81FE
:1048B0009D818617970718F47D836C8307C08E81CE
:1048C0009F816817790710F47F836E83DF91CF9102
:1048D0001F910F91089580E00C940B2481E00C94BB
:1048E0000B242F923F924F925F926F927F928F9202
:1048F0009F92AF92BF92CF92DF92EF92FF920F936F
:104900001F93CF93DF93CDB7DEB764970FB6F894BC
:10491000DEBF0FBECDBF29013A01E986FA860B87BB
:104920001C871601BA8AA98A0E94D73720E030E096
:104930004AE754E40E9403369B01AC010E9488358B
:104940006B017C0120E030E0A9010E948E3720E05D
:1049500030E040E05FE387FD05C0C701B6010E947B
:10496000883504C0C701B6010E9487350E946B36A6
:104970000E949E3620E030E040E05FE30E94D7379F
:104980006D837E838F839887A30192016D817E81E1
:104990008F8198850E94033629853A854B855C85F1
:1049A0000E94D7370E94EC350E9470368B0102308E
:1049B000110508F42DC3B80180E090E00E949C36F8
:1049C0002D813E814F8158850E940336A3019201BB
:1049D0000E94D73769837A838B839C83D1016D933F
:1049E0007D938D939C93139729853A854B855C85A0
:1049F0000E948E3718160CF408C3A3019201698136
:104A00007A818B819C810E9403366B017C019B0122
:104A1000AC0160E070E080E090E40E9403364B015E
:104A20005C0120E030E0A9010E948E3720E030E0F8
:104A300040E05FE387FD05C0C501B4010E948835F1
:104A400004C0C501B4010E9487350E946B360E94E4
:104A50009E36A70196010E94D7379B01AC0160E00A
:104A600070E080E090E40E94873520E030E0A9010A
:104A70000E948E3720E030E0A901181664F5C501C8
:104A8000B4010E948E3720E030E040E05FE387FD14
:104A900005C0C501B4010E94883504C0C501B40138
:104AA0000E9487350E946B360E949E36A7019601B0
:104AB0000E94D7379B01AC0160E070E080E090E499
:104AC0000E9487352DEC3CEC4CEC5DE30E94FF35F9
:104AD00087FD9BC22CC0C501B4010E948E3720E027
:104AE00030E040E05FE387FD05C0C501B4010E94EE
:104AF000883504C0C501B4010E9487350E946B3619
:104B00000E949E36A70196010E94D7379B01AC01F7
:104B100060E070E080E090E40E9487352DEC3CEC92
:104B20004CEC5DEB0E948E3718160CF46EC2A3019C
:104B30009201C301B2010E9488359B01AC016981D9
:104B40007A818B819C810E94FF3587FF61C1298119
:104B50003A814B815C81C301B2010E9403366D87AB
:104B60007E878F87988B1C8A1B8AEB89FC89BF0103
:104B700080E090E00E949C364B015C019B01AC01FF
:104B80006D857E858F8598890E94873520E030E08D
:104B900040E05FE30E94FF3518163CF42B893C8906
:104BA0002F5F3F4F3C8B2B8BE0CF29813A814B818C
:104BB0005C81C501B4010E94D7379B01AC01C301E0
:104BC000B2010E9487354B015C0120E030E0A90171
:104BD0000E948E37181624F0B7FAB094B7F8B09444
:104BE000A501940169817A818B819C810E940336A1
:104BF00069837A838B839C839B01AC0160E070E0C6
:104C000080E090E40E9403364B015C0120E030E03C
:104C1000A9010E948E3720E030E040E05FE387FD8D
:104C200005C0C501B4010E94883504C0C501B401A6
:104C30000E9487350E946B360E949E3629813A81F8
:104C40004B815C810E94D7379B01AC0160E070E032
:104C500080E090E40E94873520E030E0A9010E94C6
:104C60008E3720E030E0A901181674F5C501B401B3
:104C70000E948E3720E030E040E05FE387FD05C012
:104C8000C501B4010E94883504C0C501B4010E9469
:104C900087350E946B360E949E3629813A814B816E
:104CA0005C810E94D7379B01AC0160E070E080E03E
:104CB00090E40E9487352DEC3CEC4CEC5DE30E94C7
:104CC000FF3587FF2FC0A1C1C501B4010E948E37F7
:104CD00020E030E040E05FE387FD05C0C501B4019E
:104CE0000E94883504C0C501B4010E9487350E9426
:104CF0006B360E949E3629813A814B815C810E94ED
:104D0000D7379B01AC0160E070E080E090E40E9446
:104D100087352DEC3CEC4CEC5DEB0E948E37181681
:104D20000CF473C120E030E0A901C701B6010E9474
:104D30008E3720E030E040E05FE387FD05C0C7012B
:104D4000B6010E94883504C0C701B6010E948735AC
:104D50000E946B360E949E369B01AC01C701B601D2
:104D60000E94873520E030E0A9010E948E3720E0C4
:104D700030E0A901181634F5C701B6010E948E373C
:104D800020E030E040E05FE387FD05C0C701B601E9
:104D90000E94883504C0C701B6010E9487350E9471
:104DA0006B360E949E369B01AC01C701B6010E9482
:104DB000873527E137EB41ED58E30E94FF3587FF48
:104DC00027C023C1C701B6010E948E3720E030E022
:104DD00040E05FE387FD05C0C701B6010E9488354A
:104DE00004C0C701B6010E9487350E946B360E943D
:104DF0009E369B01AC01C701B6010E94873527E1B1
:104E000037EB41ED58EB0E948E3718160CF4FDC0BD
:104E100020E030E040E251E4C701B6010E94FF35D6
:104E200087FF76C020E030E0A901C701B6010E94EB
:104E30008E3720E030E040E05FE387FD05C0C7012A
:104E4000B6010E94883504C0C701B6010E948735AB
:104E50000E946B360E949E369B01AC01C701B601D1
:104E60000E94873520E030E0A9010E948E3720E0C3
:104E700030E0A901181634F5C701B6010E948E373B
:104E800020E030E040E05FE387FD05C0C701B601E8
:104E90000E94883504C0C701B6010E9487350E9470
:104EA0006B360E949E369B01AC01C701B6010E9481
:104EB000873527E137EB41ED58E30E94FF3587FF47
:104EC00027C0A3C0C701B6010E948E3720E030E0A2
:104ED00040E05FE387FD05C0C701B6010E94883549
:104EE00004C0C701B6010E9487350E946B360E943C
:104EF0009E369B01AC01C701B6010E94873527E1B0
:104F000037EB41ED58EB0E948E3718160CF47DC03C
:104F10002D813E814F815885C701B6010E94D73748
:104F20006B017C0120E030E0A9010E948E3720E077
:104F300030E040E05FE387FD05C0C701B6010E9495
:104F4000883504C0C701B6010E9487350E946B36C0
:104F50000E949E369B01AC01C701B6010E948735B5
:104F600020E030E0A9010E948E3720E030E0A90166
:104F7000181634F5C701B6010E948E3720E030E0E4
:104F800040E05FE387FD05C0C701B6010E94883598
:104F900004C0C701B6010E9487350E946B360E948B
:104FA0009E369B01AC01C701B6010E94873527E1FF
:104FB00037EB41ED58E30E94FF3587FF26C033C031
:104FC000C701B6010E948E3720E030E040E05FE389
:104FD00087FD05C0C701B6010E94883504C0C7011E
:104FE000B6010E9487350E946B360E949E369B0157
:104FF000AC01C701B6010E94873527E137EB41EDCF
:1050000058EB0E948E37181674F001501109CFCC5E
:1050100020E030E040E05FE36D817E818F81988504
:105020000E948835ADCCA989BA890D931C936496EA
:105030000FB6F894DEBF0FBECDBFDF91CF911F91A9
:105040000F91FF90EF90DF90CF90BF90AF909F9027
:105050008F907F906F905F904F903F902F9008952A
:1050600010924A0E1092650E08952F923F924F9221
:105070005F926F927F928F929F92AF92BF92CF92E8
:10508000DF92EF92FF920F931F93CF93DF93CDB7F1
:10509000DEB7C85CD1090FB6F894DEBF0FBECDBF36
:1050A000C154DF4F59834883CF5BD040CF53DF4F8C
:1050B000088319832A833B83C15CD04026013701D2
:1050C000CD54DF4FA882C35BD0408092800EAA20CF
:1050D00031F1A3E8AA2EAEE0BA2EAE0149555F4FDA
:1050E0006A01E12C10E4F12E0CE916E4A30192010F
:1050F0000E947124C955DF4F688179818A819B8123
:10510000C75AD0409B01AC010E948835C955DF4F7A
:10511000688379838A839B83C75AD04017C020E075
:1051200030E040E05FE30E94D737E3E8AE2EEEE0E8
:10513000BE2EDE01A955BF4F6D01E12C10E4F12E0A
:105140000CE117E4A30192010E9471248091830E67
:105150009091840E880F991F9093840E8093830EF4
:10516000C955DF4F688179818A819B81C75AD040B8
:105170000E947208B0914A0EC354DF4FB883CD5BD2
:10518000D04081E0C355DF4F8883CD5AD04061E0E5
:1051900080E00E947523E091650EC254DF4FE883E2
:1051A000CE5BD04083E0C255DF4F8883CE5AD040DB
:1051B00063E081E00E9475238091490EFE01E55570
:1051C000FF4F80839091640E91832091830E3091E4
:1051D000840ECD54DF4F4881C35BD040442311F18E
:1051E0003093420E2093410EF0933F0EE0933E0E1B
:1051F00092E090933C0E10923B0E2CEF39E03093EE
:105200003A0E2093390E0E94D10984E19AE09093DE
:105210003A0E8093390E8BE094E29093380E80938F
:10522000370E06C0369527953093420E2093410ED7
:10523000E090810EF090820EF701E859FF4F20E0D8
:1052400030EC4FE754E460817181828193810E9448
:105250000336C754DF4F688379838A839B83C95B96
:10526000D0401E015FE9250E311C3E0183E1680E2E
:10527000711CCE01805B9F4F2C01AAE04A0E511C8D
:10528000F1013896C155DF4FF983E883CF5AD040FA
:10529000CC54DF4F8883C45BD040C854DF4F988321
:1052A000C85BD04087010B59174F9701245A374FDD
:1052B000CF54DF4F39832883C15BD0408091490EA2
:1052C000F801CC54DF4FA881C45BD040C854DF4FF5
:1052D000B881C85BD0409FE401900D929A95E1F7A8
:1052E000882341F0813061F4F201208931894289BB
:1052F000538909C0D2012D913D914D915C9103C01C
:1053000020E030E0A901F801DE0111969FE4019050
:105310000D929A95E1F7882341F0813061F4F30111
:10532000C08CD18CE28CF38C09C0D301CD90DD9080
:10533000ED90FC9003C0C12CD12C760160E876E999
:1053400088E19BE40E94033620E030E040E85FE320
:105350000E9488354B015C0120E836E948E15BE4B6
:10536000C701B6010E94D7379B01AC010E94883566
:105370002BED3FE049E450E40E94D737CF54DF4F94
:10538000A881B981C15BD0402D913D914D915C9137
:105390000E94D7376B017C01A5019401C501B401BE
:1053A0000E94D7374B015C01A7019601C701B601E6
:1053B0000E94D7379B01AC01C501B4010E9488351A
:1053C0000E948A389B01AC01C754DF4F6881798104
:1053D0008A819B81C95BD0400E94D737F1016193DC
:1053E0007193819391931F01F4E06F0E711C24E07F
:1053F000420E511CC155DF4F48815981CF5AD040D0
:105400002416350609F05ACF10927F0ECF54DF4F85
:1054100019821882C15BD040CF54DF4F88819981B7
:10542000C15BD040C154DF4FA881B981CF5BD04070
:105430008A179B0709F4D1C28091800E10924B0EFF
:1054400010924C0E81110BC0EFEFF3E0F093500E71
:10545000E0934F0E10924E0E10924D0E10C010920F
:10546000510E1092520E1092530E1092540E109232
:105470005A0E10925B0E10925C0E10925D0E1092FE
:10548000660E1092670E882389F010926C0E1092AF
:105490006D0E10926E0E10926F0E1092750E10928D
:1054A000760E1092770E1092780E0AC08FEF93E06E
:1054B00090936B0E80936A0E1092690E1092680E94
:1054C000CD54DF4F9881C35BD0409923E1F10E9416
:1054D00061090E9464238823E1F30E94622DCC5469
:1054E000DF4F688379838A839B83C45BD040A0911C
:1054F000800EC854DF4FA883C85BD0408091830ED4
:105500009091840EFE01E355FF4FC155DF4FF983A3
:10551000E883CF5AD04009E41EE09E012F5F3F4F41
:105520002901AE01405B5F4F1A01612C712C9C0177
:1055300040E050E0CB53DF4F288339834A835B83BD
:10554000C55CD0409AC08091490E0E94EB0944E1AD
:105550005AE050933A0E4093390E8BE694E29093C2
:10556000380E8093370E0E9461090E9464238823BD
:10557000E1F38091640E0E94EB09A4E1BAE0B093DC
:105580003A0EA093390EEEE6F4E2F093380EE09373
:10559000370E0E9461090E9464238823E1F39DCFA6
:1055A000CB53DF4F688179818A819B81C55CD04074
:1055B0000E949C366B017C01D80151966D917D91C2
:1055C0008D919C9154970E949C369B01AC010E9446
:1055D0008835A70196010E9403360E948A38F2019D
:1055E000608371838283938320E030E040E852E45B
:1055F0000E94D7379B01AC010E94883523EF34E02D
:1056000045EB5FE30E94D7370E947036D1016D935E
:105610007C93F301E75BF14F82818823B9F1F301B9
:10562000E75BF14F8281882309F4B3C08195C155AE
:10563000DF4FA881B981CF5AD0408C93B1E0B08BB5
:10564000C155DF4FE881F981CF5AD0403196C1551D
:10565000DF4FF983E883CF5AD040FBE16F0E711C16
:10566000055E1F4F22E0220E311C34E0430E511C18
:1056700046E36416710409F496C0C854DF4FF881FC
:10568000C85BD040FF2309F45AC08ACF80898111BA
:10569000C6CFF80180849184A284B3846485758523
:1056A00086859785680D791D8A1D9B1D0E949C36F5
:1056B0002AE037ED43E25CE30E94D737A701960169
:1056C0000E9403366B017C0124EA30E74DE75FE37B
:1056D000D80157966D917D918D919C915A970E941A
:1056E000D7379B01AC01C701B6010E9488356B0119
:1056F0007C01F801678B708F818F928F20E030E002
:10570000A9010E948E3720E030E040E05FE387FD92
:1057100005C0C701B6010E94883504C0C701B601A3
:105720000E9487350E946B36D80156967C936E9303
:105730005597F80184869586A686B78670CFD801DE
:1057400014966D917C91159716968D919C91179753
:10575000681B790B96E0660F771F9A95E1F7F101C8
:105760007183608380E090E00E949C3623EF34E0F8
:1057700045EB5FE30E94033620E030E040E05CE36D
:105780000E94D737D2016D937D938D939C9313978D
:1057900046CF8181C155DF4FA881B981CF5AD04012
:1057A0008C93108A4DCF0091810E1091820EF801DA
:1057B000EC59F74F8081882309F470C080914B0E1B
:1057C00081116CC03C97C080D180E280F38020E0E2
:1057D00030E0A901C701B6010E948E3718160CF0FF
:1057E0005DC0C355DF4F8881CD5AD040EFE9F0E06E
:1057F000EC0FFD1F24E08202E00DF11D1124208139
:1058000031814281538169817A818B819C810E949F
:10581000D7374B015C018091660E8111B5C02D8197
:105820003E814F815885C754DF4F688179818A81D5
:105830009B81C95BD0400E94D7379B01AC01C70157
:10584000B6010E9488352B013C019B01AC01C501CA
:10585000B4010E9487356B017C0120E030E0A90192
:105860000E948E37181624F0F7FAF094F7F8F094A7
:1058700020E030E040E05FE3F801ED55F74F608154
:105880007181828193810E94D7379B01AC01C7014E
:10589000B6010E948E3718160CF47AC00AE41EE096
:1058A000CE01805B9F4F6C01E12CF12CD6018D91D4
:1058B0009C91893C9C4030F4F80160816F5F8E2D93
:1058C0000E94752342E050E0B6018091810E9091D4
:1058D000820E0E94441B6DEA70E06C0F7D1F6E0DFE
:1058E0007F1D41E050E08091810E9091820E0E94D8
:1058F000441BFFEFEF1AFF0A22E0C20ED11C055E27
:105900001F4F32E0E316F10489F68EE89EE00E9414
:10591000CF2F181619060CF460C00E94622DCC54CB
:10592000DF4F288139814A815B81C45BD040621B93
:10593000730B840B950B0E949C366B017C0120E05D
:1059400030E04AE754E4CF53DF4F688179818A81A0
:105950009B81C15CD0400E94D7379B01AC01C7013D
:10596000B6010E94FF3587FDD8CFCF54DF4F488165
:105970005981C15BD0404F5F5F4FCF54DF4F598398
:105980004883C15BD04048CD20E030E0A90157CF2B
:10599000F801E05AF74F2081318142815381C501DE
:1059A000B4010E94D737A30192010E9403366B0114
:1059B0007C0120E030E040E85FE30E94FF3587FF94
:1059C00006C0C12CD12C80E8E82E8FE3F82EB70159
:1059D000A601C8010E946D0E61CFC354DF4F6881DC
:1059E000CD5BD04080E00E947523C254DF4F6881B8
:1059F000CE5BD04081E00E94752380E0C853DF4F2A
:105A00000FB6F894DEBF0FBECDBFDF91CF911F91CF
:105A10000F91FF90EF90DF90CF90BF90AF909F904D
:105A20008F907F906F905F904F903F902F90089550
:105A30001F920F920FB60F9211242F933F938F93C3
:105A40009F93AF93BF938091860E9091870EA09104
:105A5000880EB091890E3091850E23E0230F2D37EB
:105A600020F40196A11DB11D05C026E8230F029662
:105A7000A11DB11D2093850E8093860E9093870EF5
:105A8000A093880EB093890E80918A0E90918B0E10
:105A9000A0918C0EB0918D0E0196A11DB11D809329
:105AA0008A0E90938B0EA0938C0EB0938D0EBF91A7
:105AB000AF919F918F913F912F910F900FBE0F90BB
:105AC0001F9018953FB7F89480918A0E90918B0E95
:105AD000A0918C0EB0918D0E26B5A89B05C02F3FCE
