:100000000C944B010C947C010C947C010C947C01AD
:100010000C947C010C947C010C947C010C947C016C
:100020000C947C010C947C010C947C010C947C015C
:100030000C947C010C947C010C947C010C947C014C
:100040000C947C010C947C010C947C010C947C013C
:100050000C9415070C947C010C947C010C940B2BD4
:100060000C947C010C94332F0C94692F0C947C011C
:100070000C947C010C94EA060C947C010C947C0199
:100080000C947C010C947C010C947C010C945C021B
:100090000C947C010C947C010C947C010C94100950
:1000A0000C947C010C947C010C947C010C947C01DC
:1000B0000C947C010C947C010C947C010C947C01CC
:1000C0000C947C010C947C010C947C010C947C01BC
:1000D0000C947C010C947C010C947C010C947C01AC
:1000E0000C947C01D51BFD1B1A1C371C7A1C5C1C54
:1000F000981CC11CF71CDC1C331D0F1D0F1EEA1DB4
:100100002E1ECC1E681E591F1F1FF21BAD1FCF1FB6
:10011000EA1F0B20B61C1A202F204B2058208520C8
:100120009420332C382C3D2C472C512CCA2C5B2C82
:10013000632C6B2C752C7F2C892C982CA22CCA2C10
:10014000AC2CB62CC02CEC2CEF2CDE2CE22CE82CAA
:10015000262DF32CF72CFD2C012D052D0B2D0F2D0D
:10016000132D262D192D1D2D212D00000A0B0209FE
:100170000C0D0E0807030401000000000000000041
:10018000000000000000000000000000000000006F
:10019000000000000000121110000000000000002C
:1001A000000000000000000000000000000000004F
:1001B0000102102020080810204010204080020179
:1001C000020108040201010204081020408080405E
:1001D000201008040201800402018040201008045D
:1001E00002010804020101020408102040800102FB
:1001F00004081020408005050505070508080808C3
:10020000020202020A0A08080404040401010101AE
:1002100001010101030303030303030304070707A9
:100220000C0C0C0C0C0C0C0C02020202060606064E
:10023000060606060B0B0B0B0B0B0B0B000020002E
:100240002300260029002C002F00320000010000AE
:1002500003010601090100002200250028002B00EF
:100260002E003100340002010000050108010B01DD
:1002700000002100240027002A002D003000330058
:1002800001010000040107010A01B2011F072E0845
:1002900017269D2FB60111241FBECFEFD1E2DEBF7E
:1002A000CDBF00E00CBF14E0A0E0B2E0EAE1F2E76D
:1002B00000E00BBF02C007900D92A63BB107D9F733
:1002C0002FE0A6EBB4E001C01D92A334B207E1F722
:1002D00012E0C4E9D2E000E006C022970109FE0165
:1002E0000BBF0E948C36CA38D10780E00807A9F7F7
:1002F0000E944F020C94FB380C940000809106027F
:100300009091070201969093070280930602089548
:1003100086EB94E00E940C218091060290910702E6
:1003200069E170E00E943236892BD9F48091080D82
:10033000882389F08091090D81110BC0E091B604EA
:10034000F091B7040688F789E02D86EB94E01995C3
:1003500002C01092090D81E090E090930702809313
:100360000602089586EB94E00C946A0A86EB94E00A
:100370000C947B0A80E1809391001092900085E0BC
:1003800080937A0D86E998E990937C0D80937B0D9C
:10039000909397008093960085E1809391008EE77B
:1003A00091E09093790D8093780D81E080937100B6
:1003B00086EB94E00E94C31568E072E082EA9EE05A
:1003C0000E942C306FEF71E2605072404AE050E0C2
:1003D00082EA9EE00E94F6306DE072E082EA9EE0E2
:1003E0000E942C3066EB74E0605072404AE050E0AE
:1003F00082EA9EE00E94F63064E172E082EA9EE0CA
:100400000E942C3063E47FE0665B74404AE050E079
:1004100082EA9EE00E94F6306AE172E082EA9EE0A3
:100420000E942C3060913F0F7091400F6115710553
:1004300019F063547F4002C060E070E04AE050E091
:1004400082EA9EE00E94F63060E272E082EA9EE07C
:100450000E942C308DB79EB76FEF71E2681B790B4D
:100460004AE050E082EA9EE00E94F63067E272E0E5
:1004700082EA9EE00E942C3080913F0F9091400FC5
:100480006DB77EB7009719F463547F4002C0681BB4
:10049000790B4AE050E082EA9EE00C94F6300E942C
:1004A000AB2B0E94BA01CCEEDDE20E9488012097BE
:1004B000E1F30E94EC2DF9CF1F920F920FB60F922D
:1004C00011240BB60F922F933F934F935F936F932B
:1004D0007F938F939F93AF93BF93EF93FF93E0919D
:1004E000780DF091790D1995FF91EF91BF91AF9132
:1004F0009F918F917F916F915F914F913F912F913C
:100500000F900BBE0F900FBE0F901F901895FF928B
:100510000F931F93CF93DF93FC010081C181D281A0
:10052000F8948981F02EF0948F21898378941DE7C7
:10053000115029F182E090E00E94A02B8881802355
:10054000B9F3F8948A818F218A838981802B8983EA
:10055000789480EE91E00E94A02BF89489818F21FD
:10056000898386E490E00E94A02B8881802311E09B
:1005700009F010E078948AE991E00E94A02B812F85
:10058000DF91CF911F910F91FF9008951F93CF930B
:10059000DF93FC011081C181D281912F909560FF82
:1005A00012C0F8948A8189238A838981812B898367
:1005B0008AE090E00E94A02B8A81812B8A83789424
:1005C00087E390E011C0F8948A8189238A83898126
:1005D000812B898381E490E00E94A02B8A81812B6A
:1005E0008A83789485E090E0DF91CF911F910C94FD
:1005F000A02B0F931F93CF93DF93FC011081C18138
:10060000D281F8948981812B89838A81012F009579
:1006100080238A8383E090E00E94A02B898180233D
:1006200089838AE090E00E94A02BC881789485E3BA
:1006300090E00E94A02B1C2381E009F480E0DF9170
:10064000CF911F910F910895CF92DF92EF92FF9279
:100650000F931F93CF93DF931F92CDB7DEB76C013B
:10066000E62E08E010E0FF24F39461E09F2D9E2128
:1006700009F460E0C60149830E94C602FF0C0150E4
:10068000110949810115110581F7411115C0F8942F
:10069000D6011196ED91FC91129791818C918095E4
:1006A000892381831196ED91FC91129792818C910F
:1006B00080958923828378940F90DF91CF911F9149
:1006C0000F91FF90EF90DF90CF900895EF92FF92FF
:1006D0000F931F93CF93DF938C01C8E0D0E0F12CF0
:1006E000EE24E394C8010E94F9028111FE28EE0C69
:1006F0002197C1F78F2DDF91CF911F910F91FF901F
:10070000EF900895CF92DF92FF920F931F93CF93B4
:10071000DF931F92CDB7DEB78C01F62E40E065E582
:1007200079830E942403CF2C7981D72E88E0F82E7C
:10073000F60161916F0140E0C8010E942403FA9420
:10074000B9F70F90DF91CF911F910F91FF90DF903C
:10075000CF900895FC0113861586148627E030E0BB
:10076000DF01A20FB31F13961C922115310519F05A
:1007700021503109F5CF08951F93CF93DF93EC01FA
:10078000162F60E0812F0E94272D612F70E0FB0162
:10079000E055FE4FE491E883FB01EA50FE4FE491FF
:1007A000F0E0EE0FFF1FE45CFD4F859194919A837A
:1007B0008983CE01DF91CF911F910C94AA03AF9250
:1007C000BF92CF92DF92EF92FF920F931F93CF933E
:1007D000DF931F92CDB7DEB75C01E62ED72EFC016A
:1007E000858581115DC0C5010E948702811105C008
:1007F000F5011386158614866EC040E060EFC501D2
:100800000E94240301E0F12CC12C11E0C5010E94DB
:10081000F902682FC50169830E94F902698161307C
:1008200019F48130B9F433C02F2D30E068131BC0A8
:10083000F5018385181730F4E20FF31F83818023BD
:1008400049F402C0181731F060E0193058F4F5018E
:10085000148708C0F501EF0DF11D8381802B838380
:1008600061E009C0C12EF501E20FF31F8381902FD3
:10087000909589238383C5010E94C6021F5F000FE4
:1008800011F4F39401E0F7E0FF1508F0BFCF113445
:1008900038F0F501C386C11018C081E0858715C006
:1008A000F50113861586148680E0EE2DFD2D20E0DF
:1008B00030E0D501A20FB31F13969C9191932F5F47
:1008C0003F4F28303105A9F706C0F5018381882301
:1008D00039F381E0EACF0F90DF91CF911F910F9113
:1008E000FF90EF90DF90CF90BF90AF900895ECE72E
:1008F000F0E090819F739083208130E4839FC0015A
:100900001124282B20830895EAE7F0E09081987F56
:1009100090839081982B9083089580917A008770BE
:1009200090E00895E1E8F0E08081887F8083089579
:100930000E9492041092850010928400E1E8F0E099
:10094000808190917D0D892B80830895882321F0EB
:1009500080917C00806203C080917C008F7D8093B9
:100960007C000895EBE7F0E09081987F9083908180
:10097000982B90830895CF92DF92EF92FF92CF93BE
:100980006B017C0180E18093810010928000A701BF
:10099000960160E074E284E799E40E94F33320E07A
:1009A00030E040E051E40E9482350E9460346115DD
:1009B000710521E08207910528F421E020937D0D47
:1009C000CB014CC06115710528E08207910568F4E0
:1009D00022E020937D0DDC01CB0153E0B695A79575
:1009E000979587955A95D1F739C06115710520E41F
:1009F0008207910568F423E020937D0DDC01CB0193
:100A000046E0B695A795979587954A95D1F726C064
:100A100061157105810521E0920740F424E02093DF
:100A20007D0DBB27A92F982F872F18C06115710541
:100A3000810524E0920768F425E020937D0DDC0118
:100A4000CB012AE0B695A795979587952A95D1F77A
:100A500005C085E080937D0D8FEF9FEF9093870019
:100A600080938600C1E0C0936F0086E00E94B204CC
:100A7000C093930D80917A00806280937A00C09237
:100A8000860DD092870DE092880DF092890DCF915E
:100A9000FF90EF90DF90CF9008958093930D88237F
:100AA00021F080917A00806203C080917A008F7D6E
:100AB00080937A000895EAE7F0E080818064808383
:100AC0000895CF93DF93D0917800C0917900409141
:100AD000960D5091970D2091940D3091950D4217E0
:100AE0005307A8F58091930D811102C00E945B0508
:100AF0008D2F90E09C2B20917C0025FF13C0E0916E
:100B00009A0DF0919B0D2091960D3091970DA901B2
:100B10004F5F5F4F5093970D4093960DE20FF31F79
:100B2000908315C0E091980DF091990D2091960D4C
:100B30003091970DA9014F5F5F4F5093970D4093F0
:100B4000960D220F331FE20FF31F91838083DF91F5
:100B5000CF9108951092970D1092960D8091930D5C
:100B60000E944D050E94552B60937E0D70937F0D62
:100B70008093800D9093810D80917A00886C809392
:100B80007A0080917B008770863011F40C94980471
:100B900008958F929F92AF92BF92CF92DF92EF9281
:100BA000FF920E94552B4B015C0180917A00877D5A
:100BB00080937A0080917B008770863011F40E94C8
:100BC00092046091940D7091950D80E090E00E94E8
:100BD0008C3420E034E244E759E40E9482356B0112
:100BE0007C0180917E0D90917F0DA091800DB09140
:100BF000810DA5019401281B390B4A0B5B0BCA011F
:100C0000B9010E948C349B01AC01C701B6010E945E
:100C1000F3336093820D7093830D8093840D9093D2
:100C2000850DFF90EF90DF90CF90BF90AF909F9099
:100C30008F9008958093900D90917C00907F909379
:100C40007C0020917C00982F9770922B90937C00D1
:100C5000883020F080917B00886003C080917B0009
:100C6000877F80937B00089591E090938F0D109281
:100C7000920D1092910D10928E0D21E635E0309379
:100C80008D0D20938C0D0C941A0680918E0D8F5F24
:100C900080938E0D90918F0D891302C010928E0D4E
:100CA00080918E0DE091910DF091920DE80FF11D64
:100CB00080810E941A060C9461051F93CF93DF93E5
:100CC000C0918E0D90918F0D9230A0F081E08C0F2D
:100CD000891719F080938E0D02C010928E0D8091AD
:100CE0008E0DE091910DF091920DE80FF11D808134
:100CF0000E941A0610917800D09179004091960DCB
:100D00005091970D2091940D3091950D42175307F6
:100D1000F0F48091930D811102C00E945B05612F58
:100D200070E07D2B80917C0085FF02C0672F7727C4
:100D3000E0918A0DF0918B0D8C2F19958091960D75
:100D40009091970D01969093970D8093960DDF915A
:100D5000CF911F910895CF93DF93D0917C00C091E4
:100D60007B0080917C00807E80937C0080917C0061
:100D70008E6180937C0080917B00877F80937B00D5
:100D800063E070E080E090E00E94782B80917A0030
:100D9000806480937A0080917A0086FDFCCF609118
:100DA000780080917900D0937C00C0937B0070E044
:100DB000782B882777FD8095982F0E948E349B0191
:100DC000AC0160E070E889E894E40E94F333DF91BD
:100DD000CF9108951F920F920FB60F9211240BB668
:100DE0000F922F933F934F935F936F937F938F93C4
:100DF0009F93AF93BF93EF93FF93E0918C0DF0918E
:100E00008D0D1995FF91EF91BF91AF919F918F91AA
:100E10007F916F915F914F913F912F910F900BBEFA
:100E20000F900FBE0F901F9018951F920F920FB644
:100E30000F9211240F900FBE0F901F90189581E014
:100E40000C947704CF93CFB7F89480919C0D8111C7
:100E500027C0EBE2F2E08491E5EEF1E09491E82F17
:100E6000F0E0EE0FFF1FE059FD4FA591B4918C917A
:100E7000892321F461E085E30E94602D61E085E330
:100E80000E94272D8CB580618CBD8CB580648CBD93
:100E900061E084E30E94272D61E083E30E94272D17
:100EA00080919C0D8F5F80939C0DCFBFCF91089553
:100EB0008091CD0D90E02091CE0D821B9109089577
:100EC0002091CE0D8091CD0D281750F4E22FF0E047
:100ED000E153F24F808190E02F5F2093CE0D089573
:100EE0008FEF9FEF0895E091CE0D8091CD0DE81723
:100EF00030F4F0E0E153F24F808190E008958FEFFD
:100F00009FEF08950895CF92DF92EF92FF920F9393
:100F10001F93CF93DF937C01CB018A012091A90D10
:100F2000222389F0EB016B01C40ED51ECC15DD0523
:100F300069F06991D701ED91FC910190F081E02D6C
:100F4000C7011995F3CF642F0E94E708C801DF910C
:100F5000CF911F910F91FF90EF90DF90CF90089568
:100F6000CF93DF931F92CDB7DEB769832091A90D90
:100F70002223D1F02091AA0D203240F021E030E070
:100F8000FC013383228380E090E015C08091AB0D9B
:100F9000E82FF0E0E455F24F998190838F5F8093C2
:100FA000AB0D8093AA0D05C061E0CE0101960E94B1
:100FB000E70881E090E00F90DF91CF910895FC0168
:100FC0001382128248EE53E060E070E04483558360
:100FD0006683778388E392E09183808308951092FB
:100FE000CE0D1092CD0D1092AB0D1092AA0D0C9457
:100FF0003208862F413208F040E26FEC7DE00E941B
:1010000050081092CE0D8093CD0D089521E00C94E0
:10101000F90721E00C94F90781E08093A90D609312
:10102000CC0D1092AB0D1092AA0D08950C940C08E3
:101030000F93062F21E04091AA0D6CEA7DE080918C
:10104000CC0D0E9494081092AB0D1092AA0D109234
:10105000A90D0F91089561E00C9418088DE99DE0A9
:101060000C94DF0710925C0E81E080935A0E109270
:10107000590E61E084E10E94602D61E085E10E94EB
:10108000602DE9EBF0E080818E7F808380818D7F11
:10109000808388E48093B80085E48093BC00089541
:1010A000413208F03FC090915C0E9111FCCF91E06D
:1010B00090935C0E20935A0E2FEF2093EF0D109219
:1010C000340E240F2093330E90935B0E90915B0EA1
:1010D000880F892B80935B0E8091590E813041F4EB
:1010E0001092590E80915B0E8093BB0085EC01C07D
:1010F00085EE8093BC0080915C0E8130E1F380919D
:10110000340E841710F44091340E25E33EE0FB01C9
:10111000D9018A2F821B841718F48D918193F9CFFE
:10112000842F089580E008950F93413208F046C05F
:1011300090915C0E9111FCCF92E090935C0E009325
:101140005A0E9FEF9093EF0D1092340E4093330E92
:10115000FB0165E37EE0DB019A2F961B941718F4E0
:1011600091919D93F9CF10925B0E90915B0E880F39
:10117000892B80935B0E8091590E813041F410923F
:10118000590E80915B0E8093BB0085EC01C085EE0B
:101190008093BC00222321F080915C0E8230E1F329
:1011A0008091EF0D8F3F61F08091EF0D803251F013
:1011B0008091EF0D803341F483E007C081E005C0EA
:1011C00080E003C082E001C084E00F9108956132A5
:1011D00098F420915C0E243089F46093110EFC0188
:1011E00083E19EE0DC012A2F281B261718F42191A9
:1011F0002D93F9CF80E0089581E0089582E008956D
:1012000085ED8093BC008091BC0084FDFCCF1092E2
:101210005C0E089585EC8093BC0010925C0E0895DE
:101220001F920F920FB60F9211240BB60F922F93AD
:101230003F934F935F936F937F938F939F93AF935E
:10124000BF93EF93FF938091B900887F803609F4B4
:101250009CC068F5883209F45BC090F4803109F4D1
:1012600054C038F4882309F4F5C0883009F44DC01F
:10127000F5C0883109F44CC0803209F45DC0EEC07D
:10128000803409F468C048F4803309F455C08833C9
:1012900009F0E4C08093EF0DA8C0803509F44FC079
:1012A000883509F45DC0883409F0D8C0D5C08839C4
:1012B00009F4C6C0A8F4883709F467C038F4883642
:1012C00009F463C0803709F460C0C8C0883809F4E5
:1012D000B7C0803909F45FC0803809F0BFC05BC077
:1012E000803B09F485C038F4803A09F466C0883A36
:1012F00009F47EC0B3C0803C09F4A6C0883C09F460
:10130000A3C0883B09F489C0A9C080915B0E10C0BE
:101310009091340E8091330E981770F5E091340E51
:1013200081E08E0F8093340EF0E0EB5CF14F808112
:101330008093BB0085EC85C08093EF0D8DC0E0915C
:10134000340E81E08E0F8093340E8091BB00F0E06C
:10135000EB5CF14F80839091340E8091330E6DC021
:10136000E091340E81E08E0F8093340E8091BB00AB
:10137000F0E0EB5CF14F808380915A0E81116CC0DC
:1013800081E08093590E84EA60C083E080935C0E14
:101390001092F00DCFCF8091F00D803208F050C048
:1013A000E091F00D81E08E0F8093F00D8091BB00F5
:1013B000F0E0EF50F24F8083BDCF8091F00D80328E
:1013C00030F4E091F00DF0E0EF50F24F10820E9407
:1013D00000096091F00D70E0E091550EF091560E0D
:1013E00081EF9DE019951092F00D0E940A0936C018
:1013F00084E080935C0E1092120E1092110EE09118
:10140000570EF091580E19958091110E811105C05B
:1014100081E08093110E1092130EE091120E81E084
:101420008E0F8093120EF0E0ED5EF14F808180937D
:10143000BB009091120E8091110E981708F47ACF8C
:1014400085E88093BC000AC085EC8093BC001092B4
:101450005C0E04C01092EF0D0E940009FF91EF9105
:10146000BF91AF919F918F917F916F915F914F91BC
:101470003F912F910F900BBE0F900FBE0F901F90BA
:1014800018958DE294E0089589E294E0089582E150
:1014900094E0089588EF93E0089582EF93E0089533
:1014A0008FEB93E0089584E492E00895CF93DF9367
:1014B000EC0161E082E00E94602DCC5AD74F188287
:1014C000DF91CF910895DC01ED91FC910190F081C5
:1014D000E02D1994CF93DF93EC0161E00E94751821
:1014E00087EA93E099838883CE5AD74F188219826E
:1014F000DF91CF91089527EA33E0FC013183208307
:101500000C94E518AF92BF92CF92DF92EF92FF92C8
:101510000F931F93CF93DF931F921F92CDB7DEB728
:101520008C01D12C7C018BEBE81A87EFF80A58016B
:10153000E5E9AE1AE7EFBE0A2D2D30E0F801EB5ACF
:10154000F74F8081918168E270E00E943236261761
:101550003707E0F588E0C82EC982F7012081318184
:1015600080E090E040E0B801620F731FE42FF0E0EC
:10157000DB01A80FB91FA259BF4F41E050E0AC9169
:10158000AA2311F040E050E0082E02C0440F551F7E
:101590000A94E2F74E0F5F1F01968830910531F7EC
:1015A0004A83285F3F4FF70131832083F501608133
:1015B0006D0D22E0AE014F5F5F4FC8010E94DE203B
:1015C000C394FDE0CF12C8CFD394B6CF0F900F9045
:1015D000DF91CF911F910F91FF90EF90DF90CF900F
:1015E000BF90AF9008958F929F92AF92BF92CF928B
:1015F000DF92EF92FF920F931F93CF93DF9300D070
:10160000CDB7DEB78C01912C7C018BEAE81A87EF0D
:10161000F80A98E2C92ED12C5801E5E9AE1AE7EF95
:10162000BE0A88248A94292D30E0F70180819181B7
:10163000B6010E94323626173707A0F438E0398306
:101640008A82F5016081690D22E0AE014F5F5F4F34
:10165000C8013B830E94DE203B813F5F3D3079F72C
:101660009394E1CF0F900F900F90DF91CF911F9146
:101670000F91FF90EF90DF90CF90BF90AF909F9031
:101680008F900895EF92FF920F931F93CF93DF9364
:101690008C017C018BE9E81A87EFF80AC4E6D0E0F8
:1016A000F70141917F01BE01C8010E947018219687
:1016B000C13CD105A9F760E0C801DF91CF911F912E
:1016C0000F91FF90EF900C94650B8F929F92AF92C9
:1016D000BF92CF92DF92EF92FF920F931F93CF931F
:1016E000DF93EC01B62E7C012BE9E21A27EFF20A18
:1016F00004E610E06701E881F9810088F189E02DB6
:10170000B801CE011995F70181937F010F5F1F4F3B
:10171000013C110581F7F601808191819E012959D3
:10172000374F79018E010759174F892BE9F4F901D9
:1017300080819181892BC1F4F80180819181892B6D
:1017400099F4399780819181A281B381E35BFF4F46
:1017500080839183A283B38381E090E0F801918339
:101760008083CE010E94420BF60180819181892BFA
:10177000B9F4F70180819181892B91F4F80180817E
:101780009181019769F480E2FE01E559F74F80836A
:1017900082E090E0F80191838083CE010E94420BA9
:1017A000F60180819181892BE9F4F7018081918193
:1017B000892BC1F4F80180819181029799F480E02E
:1017C00090E0A0EAB0E4FE01EF54F74F80839183EC
:1017D000A283B38383E090E0F80191838083CE01FC
:1017E0000E94420BF60180819181892BB1F4F701AF
:1017F00080819181892B89F4F801808191810397FF
:1018000061F4FE01EB54F74F108284E090E0F801A0
:1018100091838083CE010E94420BF60180819181E9
:10182000892B79F5F70180819181892B51F5F80198
:1018300080819181049729F580E090E0A8ECB2E4E2
:10184000FE01EA54F74F80839183A283B38380E043
:1018500090E4ACE9B6E4349680839183A283B383A9
:1018600080E090E0A8E4B3E4349680839183A2837F
:10187000B38385E090E0F80191838083CE010E94DC
:10188000420BF60180819181892B69F4F7018081F7
:101890009181892B41F4F80180819181059719F498
:1018A000BB2009F4B2C0F60111821082F701118247
:1018B000108285E090E0F8019183808300E010E4DD
:1018C0002CE936E4FE01E359F74F008311832283AC
:1018D000338380E090E5A3E4B8E434968083918379
:1018E000A283B38340E054E264EF79E4349640830A
:1018F0005183628373830F2EC12CD12CF8E4EF2E19
:10190000F3E4FF2EF02D7096C082D182E282F38242
:101910000F2E812C912CFAEFAF2EF4E4BF2EF02D78
:10192000349680829182A282B3823496008311839E
:1019300022833383349680839183A283B383349646
:1019400040835183628373834FEF56EE6BE57EE2F3
:1019500074974083518362837383B8964083518325
:10196000628373838AE0FD9780833D9610821182A3
:1019700012821382349610821182128213827C9614
:10198000408351836283738334964083518362839F
:101990007383349640835183628373833496408388
:1019A000518362837383E554F10980819181A2811F
:1019B000B381E35BFF4F80839183A283B38380E293
:1019C000E254F109808380E090E0A0EAB0E4EA5BB1
:1019D000FF4F80839183A283B3833496108280E08B
:1019E00090E0A8ECB2E4319680839183A283B38324
:1019F000349600831183228333833496C082D1824C
:101A0000E282F382CE010E94420BFE01E355F74FC2
:101A1000C080D180E280F38020E030E0A901C701DE
:101A2000B6010E94EF33FE01EC59F74F18161CF077
:101A300081E0808309C0DE01A05AB74FCD92DD92CC
:101A4000ED92FC9213971082FE01EB54F74F8081C8
:101A5000882311F042E001C041E060E0CE01DF9157
:101A6000CF911F910F91FF90EF90DF90CF90BF909B
:101A7000AF909F908F900C949B215F926F927F927A
:101A80008F929F92AF92BF92CF92DF92EF92FF928E
:101A90000F931F93CF93DF931F921F92CDB7DEB7A3
:101AA0006C01CB01542E68E270E00E9432367B015B
:101AB0004C015C0183E0B694A7948A95E1F73B0161
:101AC000772486010559174FF8018081B301680F0B
:101AD000711D8DE99DE00E941608B501685F7F4F7A
:101AE0008DE99DE00E94630A8DE99DE00E942B082C
:101AF000F8018081B301680F711D41E050E08DE96C
:101B00009DE00E9409088DE99DE00E945807892BFD
:101B100041F1F82DF7708F2E88E08A0D89838DE9C9
:101B20009DE00E94600741E050E060E070E004C08A
:101B3000440F551F661F771F8A94D2F7511002C0B9
:101B4000482B02C0409548234A83F80160816E0DFE
:101B500022E0AE014F5F5F4FC6010E94DE2080E0B1
:101B600001C081E00F900F90DF91CF911F910F91F5
:101B7000FF90EF90DF90CF90BF90AF909F908F90AD
:101B80007F906F905F9008959F92AF92BF92CF9297
:101B9000DF92EF92FF920F931F93CF93DF9300D0CA
:101BA00000D0CDB7DEB78C016A017B01922E1E8278
:101BB000FC01E254F74F2081318142815381C701FA
:101BC000B6010E94EF3318160CF444C0F801E05A35
:101BD000F74F2081318142815381C701B6010E94B4
:101BE000F33328EA29836A837B838C839D8358019E
:101BF00084E9A81A87EFB80A25E0AE014F5F5F4F6E
:101C0000F5016081C8010E94DE20992029F164E677
:101C100070E080E090E00E94782B41E0F501608167
:101C20008DE99DE00E9406088DE99DE00E9458071D
:101C3000892B91F08DE99DE00E946007813061F46D
:101C400021E0AE014A5F5F4FF5016081C8010E944B
:101C5000841B02C088E08E838E81811107C0F80149
:101C6000E85AF74FC082D182E282F38226960FB6FD
:101C7000F894DEBF0FBECDBFDF91CF911F910F91C2
:101C8000FF90EF90DF90CF90BF90AF909F9008951E
:101C9000FC01E05AF74F4083518362837383389786
:101CA000408151816281738120E00C94C40DAF9218
:101CB000BF92CF92DF92EF92FF920F931F93CF9339
:101CC000DF9300D000D0CDB7DEB78C016A017B0175
:101CD000FC01EA54F74F24EA30E74DE75FE3608107
:101CE0007181828193810E9482359B01AC01C70181
:101CF000B6010E947E3587FD4CC02EEA37E441E8EC
:101D00005FE3F801E654F74F60817181828193812E
:101D10000E9482359B01AC01C701B6010E94EF33DE
:101D20001816BCF18AEA8983CA82DB82EC82FD82C2
:101D3000580184E9A81A87EFB80A25E0AE014F5F81
:101D40005F4FF5016081C8010E94DE2064E670E00B
:101D500080E090E00E94782B41E0F50160818DE900
:101D60009DE00E9406088DE99DE00E945807892B9E
:101D700091F08DE99DE00E946007813061F421E0DF
:101D8000AE014A5F5F4FF5016081C8010E94841B6C
:101D900002C088E08E838E81811107C0F801E45A69
:101DA000F74FC082D182E282F38226960FB6F89472
:101DB000DEBF0FBECDBFDF91CF911F910F91FF907E
:101DC000EF90DF90CF90BF90AF9008954F925F92C9
:101DD0006F927F928F929F92AF92BF92CF92DF923B
:101DE000EF92FF920F931F93CF93DF931F921F9257
:101DF000CDB7DEB78C01FC01EC5AF74F81E0808350
:101E000060E082E00E94602D64EF71E080E090E08D
:101E10000E94782B48018BEA881A87EF980AF40110
:101E20001182108228E2A22EB12CE12CF12C38E193
:101E3000632E77247A946801F5E9CF1AF7EFDF0A69
:101E40004E2C69827A82F60160816E0D22E0AE012D
:101E50004F5F5F4FC8010E94DE20F60160816E0D6A
:101E600021E0AE014F5F5F4FC8010E94841B898152
:101E70008F3F09F04BC098E1592E59821A82F60122
:101E80006081640D22E0AE014F5F5F4FC8010E9488
:101E9000DE20F6016081640D21E0AE014F5F5F4FEF
:101EA000C8010E94841B8981811130C080EF850D9B
:101EB00089837A82F6016081640D22E0AE014F5F72
:101EC0005F4FC8010E94DE205394FDE15F12D5CF21
:101ED0006FE572E082EA9EE00E942C304AE050E01A
:101EE000B70182EA9EE00E94EE3069E672E082EA83
:101EF0009EE00E943930F40120813181C50188972C
:101F00002817390719F4F401B182A082FFEFEF1A04
:101F1000FF0A88E2A80EB11CE8E0EE16F10409F011
:101F20008FCFF401608171814AE050E082EA9EE047
:101F30000E9439316AE472E082EA9EE00E94393000
:101F400040E050E46CE176E4C8010E94570E0F9027
:101F50000F90DF91CF911F910F91FF90EF90DF9045
:101F6000CF90BF90AF909F908F907F906F905F9039
:101F70004F9008952F923F924F925F926F927F926F
:101F80008F929F92AF92BF92CF92DF92EF92FF9289
:101F90000F931F93CF93DF93CDB7DEB765970FB63F
:101FA000F894DEBF0FBECDBF1C01B62E8C010D5ABA
:101FB000174F81E0D8018C93F101EC5AF74F8081E3
:101FC000811103C0C1010E94E60EF101E459FF4FE7
:101FD0002F01F1EBBF1609F4FBC2FB15D8F128EA7B
:101FE000B21609F4B9C12B15D8F032EAB31609F4C8
:101FF000F6C03B1548F040EAB41609F468C051EA4F
:10200000B51609F475C02DC584EAB81609F469C17E
:10201000B81608F4F4C097EAB91609F48DC121C5C1
:10202000ADEABA1609F41EC2AB1548F0B9EABB1600
:1020300009F4B1C1EAEABE1609F4F6C112C5F1010C
:10204000E05CF74F2FEAB21609F44BC22B1508F0EB
:102050002EC270C238EBB31609F497C43B15D0F00A
:1020600044EBB41609F455C34B1548F052EBB516C2
:1020700009F4E8C283EBB81609F43BC3F2C4F101DA
:10208000E05CF74F96EBB91609F49AC39B1508F07C
:102090007EC349C4ACEBBA1609F4A1C4AB1558F021
:1020A000F101E05CF74FBAEBBB1609F445C4BB1570
:1020B00008F079C44DC4E4EFBE1609F4ADC3F5EFE2
:1020C000BF1609F410C42DEBB212CBC4A3C4F101A6
:1020D000E05CF74F80819181892B09F050C542E087
:1020E00050E0B1016B5A774FC1010E94EB184AC40E
:1020F000F101E05CF74F80819181892B09F03FC5A8
:10210000D2011C92A12C91012B5A374F3B872A8771
:10211000610135E9C31A37EFD30AEA2CF12CAA85FD
:10212000BB858D919C9168E270E00E943236E61684
:10213000F70608F096C408E010E0D6018C91B701CC
:10214000680F711D8DE99DE00E941608B8018DE9A8
:102150009DE00E94630A8DE99DE00E942B08F60134
:102160008081B701680F711D41E050E08DE99DE06D
:102170000E9409088DE99DE00E945807892B51F1C2
:102180008DE99DE00E9460074C01612C712C99241F
:10219000C401062C02C0959587950A94E2F78170D8
:1021A0009927F1E08F27898341E050E0BE016F5FFE
:1021B0007F4FC1010E94EB182FEF621A720A38E0BC
:1021C0006316710429F70F5F1F4F0D30110509F0D9
:1021D000B4CF03C0E1E0D201EC93A3949ECFF10110
:1021E000E05CF74F208131817596808191812817BD
:1021F000390709F0C4C4C1010E94820A30C4F10148
:10220000E05CF74F80819181029709F0B8C4D10159
:10221000AB5BB74F2D913C911197F901E259FF4FFC
:10222000E20DF31D808191812E5F3F4F2D933C93F2
:10223000F101EB5AF74F208131818217930708F0A3
:1022400056C268E270E00E9432368C016B01DD24D8
:102250007101B5E9EB1AB7EFFB0AF7018081B6010E
:10226000680F711D8DE99DE00E941608B80153E0CA
:10227000769567955A95E1F7685F7F4F8DE99DE008
:102280000E94630A8DE99DE00E942B08D7018C9182
:10229000B601680F711D41E050E08DE99DE00E949C
:1022A00009088DE99DE00E945807892B09F417C39E
:1022B0008DE99DE00E9460079927077002C09595FF
:1022C00087950A95E2F781709927B1E08B2789837A
:1022D00041E050E0BE016F5F7F4FC1010E94EB18EB
:1022E000BEC3F101E05CF74F80819181039709F053
:1022F00046C4D101AB5BB74F8D919C911197FC0106
:10230000E259FF4FE20DF31D60817181F101E80F89
:10231000F91FE059FF4F408103968D939C93F10183
:10232000EB5AF74F808191816817790708F0DFC178
:10233000C1010E943D0D24C4F101E05CF74F808192
:102340009181892B09F01BC4F201108244E050E016
:10235000B101685A774F5AC3F101E05CF74F8081B1
:102360009181049709F00BC4D101AB5BB74F8D91FC
:102370009C911197FC01E259FF4FE20DF31D408142
:1023800051816281738104968D939C9321E0C101F8
:102390000E94C40DA5C2F101E05CF74F80819181DC
:1023A000892B09F0ECC381010459174F49EAF80160
:1023B0006081C1010E94C72064E670E080E090E087
:1023C0000E94782B41E0D8016C918DE99DE00E943C
:1023D00006088DE99DE00E945807892B09F441C346
:1023E0008DE99DE00E946007853009F03AC325E041
:1023F000AE014F5F5F4FF8016081C1010E94841BF5
:102400008D81D2018C9381112CC389819A81AB81FA
:10241000BC81B101645A774FFB0180839183A28311
:10242000B38344E050E0F2C2F101E05CF74F8081F9
:102430009181049709F0A3C3D101AB5BB74F8D9194
:102440009C911197FC01E259FF4FE20DF31D408171
:1024500051816281738104968D939C93C1010E9486
:10246000570E3EC2F101E05CF74F808191810197E8
:1024700009F085C3D101AB5BB74F8D919C9111974A
:10248000F101E80FF91FE259FF4FE08101968D93AA
:102490009C93E23008F02BC1BBE1EB9FF0011124CB
:1024A000E35AF14F81818983F2011082AAC28081AF
:1024B0009181029709F063C3F101EB5BF74F208133
:1024C0003181A101420F531FDA01A259BF4F8C91F4
:1024D00011966C912E5F3F4F318320830E943321F0
:1024E0004FC380819181019709F049C3F101EB5BF2
:1024F000F74F80819181D101A80FB91FA259BF4F19
:102500002C91019691838083223008F0F0C0D20193
:102510001C92BBE12B9FF0011124E35AF14FE181A2
:10252000C1018B59974FF0E0213011F0329679C0FC
:10253000389677C080819181059709F020C3F10119
:10254000EB5BF74F20813181D101A20FB31FA2595C
:10255000BF4F8C91B9016F5F7F4F71836083D20150
:102560001C928823E1F0813009F0C1C04091790EBE
:10257000DB01A259BF4FA20DB31D8D919D910D900E
:10258000BC91A02D2B5F3F4F31832083F10134E0BC
:10259000439FE00DF11D1124EB57F74FA0C0409170
:1025A0005E0EDB01A259BF4FA20DB31D8D919D910F
:1025B0000D90BC91A02D2B5F3F4F31832083F10103
:1025C00024E0429FE00DF11D1124E359F74F87C02D
:1025D000F101E05CF74F80819181019709F0CFC252
:1025E000359680819181D101A80FB91FA259BF4FA3
:1025F0002C91019691838083223008F078C0F201FB
:1026000010823BE1239FF0011124E35AF14FE18155
:10261000C1018B59974FF0E0213011F0359601C080
:102620003D96EE0FFF1FEE0FFF1FE80FF91F808191
:102630009181A281B38189839A83AB83BC8344E077
:1026400050E0E1C1F101E05CF74F80819181059795
:1026500009F095C2359620813181D101A20FB31FB7
:10266000A259BF4F8C91B9016F5F7F4F7183608317
:10267000D2011C928823D9F08130C9F54091790E9E
:10268000DB01A259BF4FA20DB31D8D919D910D90FD
:10269000BC91A02D2B5F3F4F31832083F10134E0AB
:1026A000439FE00DF11D1124E756F74F18C04091EC
:1026B0005E0ED901A159BF4FA20DB31D8D919D9101
:1026C0000D90BC91A02D2B5F3F4F31832083F101F2
:1026D00024E0429FE00DF11D1124E758F74F80835D
:1026E0009183A283B383C1010E94420BBAC185E0EA
:1026F000F7C0F101E05CF74F80819181892B09F0EF
:102700003EC2F201108244E050E0B101605A774FBE
:102710007DC1F101E05CF74F80819181049709F060
:102720002EC2D101AB5BB74F8D919C911197FC01EB
:10273000E259FF4FE20DF31DC080D180E280F380AB
:1027400004968D939C9320E030E0A901C701B60167
:102750000E947E351816CCF4F101EC59F74F8081B8
:10276000882331F03497C082D182E282F3820AC199
:10277000D101A355B74FCD92DD92ED92FC92139704
:102780001082C1010E94420BFDC088E0F9C1808126
:102790009181892B09F0F3C1D2011C9211E020E054
:1027A00030E0A901F101E355F74F60817181828129
:1027B00093810E94EF3318160CF410E0198321C1A5
:1027C00080819181019709F0DAC1F101EB5BF74F4C
:1027D00080819181D101A80FB91FA259BF4F2C91BF
:1027E000019691838083E859FF4F222329F01082BC
:1027F0001182128213820CC0D101A05AB74F8D9161
:102800009D910D90BC91A02D80839183A283B38371
:10281000C1010E94420B23C1F101E05CF74F00812E
:1028200011810A30110508F4AAC135968081918181
:10283000DC01A259BF4FA20DB31D2D913D914D91C9
:102840005C912A873B874C875D879C012C5F3F4FBB
:1028500031832083DC01AE58BF4FA20DB31D6D90B4
:102860007C90DC01AC58BF4FA20DB31D2D913D9162
:102870004D915C912A8B3B8B4C8B5D8BD101A80FCA
:10288000B91FA858BF4FFC900B96918380830B30E3
:10289000110541F07096808191810B9608171907F8
:1028A00009F06DC1BBE46B16B1E07B06C0F420E01B
:1028B00030E04AE754E46A857B858C859D850E94DB
:1028C000F33320E030E44CE157E40E94823520E00D
:1028D00030E040E855E40E94EF3387FDE1C081E03D
:1028E000D2018C93BEC0F101E05CF74F80819181F1
:1028F000019709F044C1F2011082F101EB5BF74F3F
:1029000080819181D101A80FB91FA259BF4F2C918D
:1029100001969183808361E0211101C060E0C101D3
:102920000E94650B9EC080819181892B09F027C18F
:10293000D2011C9282E035C080819181892B09F0FF
:102940001EC1F2011082F101EE5AF74F808129C0B9
:1029500080819181019709F012C1F101EB5BF74F82
:1029600080819181D101A80FB91FA259BF4F2C912D
:102970000196918380833D96222319F081E0808324
:1029800001C01082D2011C926CC0F101E05CF74FD3
:1029900080819181892B09F0F2C0F2011082D80167
:1029A0008C9189832EC080819181019709F0E7C0C5
:1029B000F101EB5BF74F80819181D101A80FB91F25
:1029C000A259BF4F2C91019691838083222321F03D
:1029D00081E0F801808343C0D8011C9240C0F1011E
:1029E000E05CF74F80819181892B09F0C8C0D2014A
:1029F0001C9282E00E94962D21E0892B09F020E0B4
:102A0000298341E050E0BE016F5F7F4FC1010E940A
:102A1000EB1827C0F101E05CF74F808191810197AD
:102A200009F0ADC0359680819181D101A80FB91F01
:102A3000A259BF4F2C91019691838083222359F094
:102A400060E082E00E94602D64EF71E080E090E041
:102A50000E94782B04C061E082E00E94602DF201A8
:102A600010826B2DC1010E94AB1BD2018C91659627
:102A70000FB6F894DEBF0FBECDBFDF91CF911F918F
:102A80000F91FF90EF90DF90CF90BF90AF909F900D
:102A90008F907F906F905F904F903F902F90089510
:102AA000D2011C92F101EB5AF74F808191810B9674
:102AB0000817190719F4C1010E94820A0E94552BB8
:102AC0006E877F87888B998B88248394F1FE812C75
:102AD000AA24A394F0FEA12CF101E45AF74FC08080
:102AE000D180E280F3800A891B892C893D89A3016A
:102AF0006A857B858C859D850E941C26F2018083DA
:102B00008111AFCF0E94552B2E853F854889598969
:102B1000621B730B840B950B0E948C346B017C0140
:102B2000B30180E090E00E948C3420E030E04AE77E
:102B300054E40E9482359B01AC01C701B6010E949A
:102B4000F3336E837F838887998744E050E0BE012A
:102B50006A5F7F4FC1010E94EB1844E050E064E7D8
:102B60007EE0C1010E94EB1844E050E06FE87EE097
:102B7000C1010E94EB18F101E05AF74F58CD86E0F1
:102B8000F20180836ECFAF92BF92CF92DF92EF922D
:102B9000FF920F931F93CF93DF93CDB7DEB762976A
:102BA0000FB6F894DEBF0FBECDBF8C010E94E017B8
:102BB00061E082E00E94602D61E082E00E94272DAA
:102BC000F801E05AF74F80E090E0A6E9B3E4808393
:102BD0009183A283B38360E0C8010E94650BD80192
:102BE000ED91FC910680F781E02DC8011995BC019B
:102BF00082EA9EE00E942C3065E772E082EA9EE065
:102C00000E942C30D801ED91FC910484F585E02DD3
:102C1000C8011995BC0182EA9EE00E94393068E73C
:102C200072E082EA9EE00E942C30D801ED91FC9186
:102C30000284F385E02DC8011995BC0182EA9EE06B
:102C40000E9439306BE872E082EA9EE00E942C30EC
:102C50007801BBE9EB1AB7EFFB0AF70160817181DC
:102C60004AE050E082EA9EE00E94393163E772E078
:102C700082EA9EE00E942C30F801E959F74F60810A
:102C800071814AE050E082EA9EE00E94393163E7B8
:102C900072E082EA9EE00E942C30F801E759F74F7B
:102CA000608171814AE050E082EA9EE00E943F31FB
:102CB00062EA72E082EA9EE00E942C30F801E45958
:102CC000F74F4AE050E0608182EA9EE00E942231A4
:102CD000B12CA12CA1E0BA1202C085E001C083E0B2
:102CE000A81608F0AFC04AE06A2DCE0101960E94F6
:102CF000F0324AE06B2DCE010D960E94F03266EC68
:102D000072E0CE0107960E94C232BE01635F7F4F20
:102D1000CE0107960E94493368EC72E00E945C3352
:102D2000BE016F5F7F4F0E9449336CED72E00E94DD
:102D30005C33BC0182EA9EE00E941E30CE01079601
:102D40000E945432CE010D960E945432CE0101965B
:102D50000E945432CA2CD12CF1E0BF1619F0F601B2
:102D6000329602C0F6013896EE0FFF1FEE0FFF1FDE
:102D7000EE0DFF1D408151816281738122E030E0C0
:102D800082EA9EE00E9442324AE06A2DCE0101961C
:102D90000E94F0324AE06B2DCE010D960E94F03277
:102DA00066EC72E0CE0107960E94C232BE01635FFC
:102DB0007F4FCE0107960E9449336FED72E00E946B
:102DC0005C33BE016F5F7F4F0E9449336CED72E050
:102DD0000E945C33BC0182EA9EE00E941E30CE015C
:102DE00007960E945432CE010D960E945432CE01B5
:102DF00001960E94543281E0F601B81611F0359622
:102E000001C03D96EE0FFF1FEE0FFF1FEE0DFF1DE1
:102E1000608171818281938125EA34ED48E653E532
:102E20000E948235AB01BC0122E030E082EA9EE0E4
:102E30000E94403264EF72E082EA9EE00E943930E4
:102E4000A39448CFB394B2E0BB1243CF68EF72E0D3
:102E500082EA9EE00E942C30F801E559F74F4AE0E3
:102E600050E0608182EA9EE00E9422316DE473E0CE
:102E700082EA9EE00E942C30F801E355F74F408132
:102E800051816281738122E030E082EA9EE00E94FB
:102E9000423265E173E082EA9EE00E942C30F80144
:102EA000EF54F74F408151816281738122E030E01D
:102EB00082EA9EE00E94423268E273E082EA9EE08B
:102EC0000E942C30F801EB54F74F608170E04AE02B
:102ED00050E082EA9EE00E94F63061E473E082EA0C
:102EE0009EE00E942C30F801EC59F74F608170E0B1
:102EF0004AE050E082EA9EE00E94F6306DE573E021
:102F000082EA9EE00E942C30F801EA54F74F40819B
:102F100051816281738122E030E082EA9EE00E946A
:102F2000423265E773E082EA9EE00E942C30F801AD
:102F3000E654F74F408151816281738122E030E095
:102F400082EA9EE00E9442326DE873E082EA9EE0EF
:102F50000E942C30F801E254F74F40815181628188
:102F6000738122E030E082EA9EE00E944232629663
:102F70000FB6F894DEBF0FBECDBFDF91CF911F918A
:102F80000F91FF90EF90DF90CF90BF90AF9008959A
:102F90008627682F62956827062E669566956025B8
:102FA000062E669560256770082E892F6695079412
:102FB0006795902D86270694679590258627089516
:102FC000CF92DF92EF92FF920F931F93CF93DF93F5
:102FD00000D01F92CDB7DEB78C01CE0101966C01F7
:102FE0009FE0E92EF12CD801ED91FC910088F18948
:102FF000E02DB701C8011995F60181936F01FFEF2C
:10300000EF1AFF0A23E1E216F10469F789819A8138
:10301000AB81BC818F3F9F4FAF4FBF4FE1F14981E3
:103020005A816B817C8126E082EA9EE00E94D12E4B
:103030008DE99DE00E94EF070E9422070E94AB06E7
:1030400008591F4FD8016D937D938D939C931397CF
:1030500062E474E082EA9EE00E942C30F801408134
:1030600051816281738122E030E082EA9EE00E9419
:10307000403264E574E082EA9EE00F900F900F907A
:103080000F90DF91CF911F910F91FF90EF90DF9004
:10309000CF900C94393080E092ECA1E0B0E08983CD
:1030A0009A83AB83BC83CE0101966C018FE0E82E3E
:1030B000F12CD6014D916D01D801ED91FC91028862
:1030C000F389E02DB701C8011995BFEFEB1AFB0A90
:1030D000E3E1EE16F10469F7A2CFCB010C94D538E9
:1030E000CB01642F0C94DD3808958F929F92AF929C
:1030F000BF92CF92DF92EF92FF920F931F93CF93E5
:10310000DF9326E734E0FC0131832083E45BF74F53
:103110006083399711821082369610823997118216
:1031200010823596118210823296118210823A9660
:103130001082E12CF12C00E010E0C8010E94D5388B
:10314000A82EC80107960E94D5388E2CC0E0D0E08A
:10315000B12CA094B094C82ED12CC094D094CE01A0
:103160008E0D9F1DC697C4F4B5010C2E02C0759537
:1031700067950A94E2F761709C2E980C892D0E9445
:10318000272DB6010C2E02C0759567950A94E2F7BB
:103190006170892D0E94602D2196C830D105F9F605
:1031A0000F5F1F4FE8E0EE0EF11C0730110529F606
:1031B000DF91CF911F910F91FF90EF90DF90CF9013
:1031C000BF90AF909F908F90089526E734E0FC0168
:1031D0003183208308951F93CF93DF93FB0120E079
:1031E00030E0DC01A95BB74F2417350781F011915E
:1031F000BC01620F731FCD91DC9111976C0F7D1F85
:10320000EB01C259DF4F18832F5F3F4FEDCF8D91F8
:103210009C911197820F931F8D939C93DF91CF9177
:103220001F910895CF93DF93FC01E359FF4F608115
:10323000DC01A459BF4F67FF0EC020E8260F208392
:1032400022E02C93DC01ED91FC910488F589E02DBE
:10325000DF91CF911994FC01E05CF74F208131811F
:1032600021503109820F931FEC01C259DF4F888131
:103270008C9331832083DF91CF9108956F927F9259
:103280008F929F92AF92BF92CF92DF92EF92FF9276
:103290000F931F93CF93DF93EC019C01275B374F74
:1032A00059016D3721F481E0F9018083AEC0F90145
:1032B00080819E012D5B374F7901882309F49EC0E0
:1032C00080E26827F701808191819E01245B374F5E
:1032D0004901FE01EE5BF74F6F018E01005C174F55
:1032E000009759F4E55DF7406083F90180818823F8
:1032F000A9F18FEF9FEF33961EC08130910581F4C5
:1033000067FF08C083E08083862F8F77F8011082E3
:10331000818324C082E08083862F90E0F8010BC077
:103320008230910559F42081233041F4F8018081E5
:103330009181860F911D9183808310C0F6012081B9
:10334000821B9109F801208131818217930730F4A3
:103350008C0F9D1FFC01E259FF4F6083F4018081B7
:10336000882369F03E01F1EB6F1AF7EF7F0AF30152
:10337000808191810E94C817F30191838083F701B6
:10338000208131812F5F3F4F31832083F4014081C1
:10339000F6015081F80180819181850F911D840F84
:1033A000911D840F911D2817390711F5F70111821E
:1033B0001082FE01EB5BF74F118210823296118270
:1033C0001082442329F0389680819181892B19F449
:1033D000CE010E941219FE01E55BF74F8081882320
:1033E00039F0C359DF4F80589881981301C010827B
:1033F000F5018081882349F0108207C06E3709F0FB
:1034000061CFF70111821082F3CFDF91CF911F912D
:103410000F91FF90EF90DF90CF90BF90AF909F9073
:103420008F907F906F900895FF920F931F93CF938B
:10343000DF931F92CDB7DEB78C01F62E88E089832B
:1034400069816837E8F58DE99DE00E940C088DE9F7
:103450009DE00E942B08811130C0FF2041F041E027
:1034600050E0BE016F5F7F4FC8010E94EB1867E517
:1034700074E082EA9EE00E942C304AE050E06981CC
:1034800082EA9EE00E941B316BE674E082EA9EE0D5
:103490000E942C3040E150E0698182EA9EE00E9467
:1034A0001B3160E774E082EA9EE00E94393061E0FF
:1034B00070E080E090E00E94782B89818F5FBFCF21
:1034C0000F90DF91CF911F910F91FF900895CF93AF
:1034D000C62F83E8860F823090F46DE782EA9EE083
:1034E0000E946C2EE091A20EF091A30E60E26C2778
:1034F0000190F081E02D82EA9EE0CF91199482EA5A
:103500009EE0CF910C946C2E8F929F92AF92BF92BF
:10351000CF92DF92EF92FF920F931F93CF93DF939F
:10352000EC018C017C0120ECE21A27EFF20A845BAB
:10353000974F6C015E0193EBA91A97EFB90AF70157
:103540008081918198012C1B3D0BF60128173907CA
:10355000C8F48081980122593F4F4901882351F0D6
:10356000F9016081F501808191810E94C817F50100
:1035700091838083F4016081CE010E94671A0F5FFE
:103580001F4FDDCF8081882369F08E01035B174FC9
:10359000F8016081CE010E94671AF8016181CE01B5
:1035A0000E94671AF70111821082C95BD74F1982F6
:1035B0001882DF91CF911F910F91FF90EF90DF90D4
:1035C000CF90BF90AF909F908F900895BF92CF9271
:1035D000DF92EF92FF920F931F93CF93DF93EC0153
:1035E000B62E8C01005C174FFC01E95BF74F808120
:1035F0009181F801918380836EE782EA9EE00E94C8
:103600006C2E7E01F4EBEF1AF7EFFF0AF7018081D1
:10361000882381F08FEF9FEF6E01F3EBCF1AF7EF66
:10362000DF0AF601918380836B2D0E94C817F60193
:10363000918380836B2DCE010E94671AF80160810F
:103640007181F70180816038710580F4882371F100
:103650007E01F3EBEF1AF7EFFF0AF701808191810A
:103660000E94C817F7019183808320C08823B1F09E
:103670007068672F7E01F3EBEF1AF7EFFF0AF7018F
:10368000808191810E94C817F70191838083F8019E
:1036900060810E94C817F70191838083F8018081BF
:1036A00091819068692FCE010E94671AF8016081AC
:1036B000CE01DF91CF911F910F91FF90EF90DF909E
:1036C000CF90BF900C94671A0F931F93CF93DF9303
:1036D0001F92CDB7DEB78C01698341E050E0BE0197
:1036E0006F5F7F4F0E94EB18F801E359FF4F608135
:1036F000C8010E94E61AC8010E94841A0F90DF9147
:10370000CF911F910F910895FF920F931F93CF9325
:10371000DF938A01422F8DE99DE00E940608C0E0F8
:103720008DE99DE00E945807892B71F0FF24F394E6
:10373000FC0EC8018C0F911DEC018DE99DE00E94EB
:1037400060078883CF2DECCF8C2FDF91CF911F9115
:103750000F91FF9008956F927F928F929F92AF92F8
:10376000BF92CF92DF92EF92FF920F931F93CF936E
:10377000DF93CDB7DEB769970FB6F894DEBF0FBE03
:10378000CDBF8C018DB69EB6862F90E0FC01E0582F
:10379000F109EF31F10508F0D5C4EE58FF4F98015B
:1037A000205C374F79010C946836D9018D919C913A
:1037B000892BF1F4D801ED91FC910280F381E02D89
:1037C000C8011995FC0101900020E9F7AF014150B3
:1037D0005109481B590BD801ED91FC910280F381EE
:1037E000E02D62C0D9018D919C91019709F49FC38E
:1037F00086E0F801E459FF4F86C4F9018081918188
:10380000892BB1F7D801ED91FC910480F581E02D71
:10381000C8011995FC0101900020E9F7AF01415062
:103820005109481B590BD801ED91FC910480F58199
:10383000E02D3AC0F90180819181892BC9F6D80128
:10384000ED91FC910680F781E02DC8011995FC01EE
:1038500001900020E9F7AF0141505109481B590B75
:10386000D801ED91FC910680F781E02D1DC0F90192
:1038700080819181892B09F0BBCFD801ED91FC911A
:103880000084F185E02DC8011995FC01019000200C
:10389000E9F7AF0141505109481B590BD801ED918F
:1038A000FC910084F185E02DC801498F588F19954E
:1038B000498D588DBC0134C4F90180819181892BD7
:1038C00009F096CFD801ED91FC910284F385E02DAB
:1038D000C8011995FC0101900020E9F7AF014150A2
:1038E0005109481B590BD801ED91FC910284F385D5
:1038F000E02DDACFF90180819181892B09F078CF11
:10390000D801ED91FC910484F585E02DC80119954D
:10391000FC0101900020E9F7AF0141505109481B1B
:10392000590BD801ED91FC910484F585E02DBCCFB5
:10393000F90180819181892B09F05ACFD801ED914D
:10394000FC910684F785E02DC8011995FC010190D2
:103950000020E9F7AF0141505109481B590BD8012C
:10396000ED91FC910684F785E02D9ECFF9018081D1
:103970009181892B09F03CCF4AE050E06CE874E07B
:10398000CFC3D9018D919C91029709F031CFF801F5
:10399000EB5BF74F20813181A801420F531FDA0101
:1039A000A259BF4F8C9111966C912E5F3F4F31837E
:1039B00020830E94272DC2C3F90180819181029743
:1039C00009F016CFF801EB5BF74F20813181A80198
:1039D000420F531FDA01A259BF4F8C9111966C917F
:1039E0002E5F3F4F318320830E94602DA7C3D901F2
:1039F0008D919C91019709F0FBCEF801EB5BF74F9D
:103A000020813181D801A20FB31FA259BF4F8C91E1
:103A10002F5F3F4F318320830E94962DF5C2F9011D
:103A200080819181029709F0E3CEF801EB5BF74FBB
:103A300020813181D801A20FB31FA259BF4F8C91B1
:103A4000A9014F5F5F4F51834083D901A159BF4FF7
:103A5000A00FB11F6D917C912D5F3F4F318320836B
:103A60000E940D2C6BC3C80184599F4F26E0DC01D6
:103A70002C93F701208131812230310508F462C393
:103A8000ADB6BEB6F801EB5BF74F40815181D8016E
:103A9000A40FB51FA259BF4F6C914F5F5F4F518369
:103AA0004083462F50E0ADB7BEB7A41BB50B0FB691
:103AB000F894BEBF0FBEADBF11966D012230310527
:103AC00011F4613031F04D5F5F4F2417350709F075
:103AD0007BC07C2D3601262D271B261788F42081DC
:103AE0003181A801420F531F42595F4FDA014C91B7
:103AF0002F5F3F4F31832083D3014D933D01EBCFA7
:103B0000D7012D913C9122303105B1F020813181D6
:103B1000D901A259BF4FA00FB11FED90FC902E5FAD
:103B20003F4F31832083B9EEEB16B3E0FB0638F04C
:103B300029E0FC01208348C0EE24E394F12CDC0151
:103B40001C92F092950DE092940DC80182599F4FFE
:103B50009093990D8093980D80E0688F0E94A60441
:103B6000688D613029F4F60180810E94340612C00C
:103B7000D092920DC092910D60938F0D10928E0D88
:103B800085E496E090938D0D80938C0DD6018C91F9
:103B90000E941A060E94AA058091940D9091950D9D
:103BA0002091960D3091970D28173907C9F70E947B
:103BB000C905EE0CFF1CF801E95BF74F808191818C
:103BC000E80EF91EF182E0820FB6F894BEBE0FBE79
:103BD000ADBEB8C2F90180819181039709F008CE8A
:103BE000D801AB5BB74F8D919C911197FC01E259C5
:103BF000FF4FE00FF11F60817181F801E80FF91F9D
:103C0000E059FF4F408103968D939C93D801ED912D
:103C1000FC910288F389E02DC80119958FC2F90142
:103C200080819181029709F0E3CDD801AB5BB74F5A
:103C30008D919C911197FC01E259FF4FE00FF11F0C
:103C40006081718102968D939C93D801ED91FC91D6
:103C50000088F189E02DC8011995D6C1F90180814C
:103C60009181029709F0C4CDF801EB5BF74F808199
:103C700091819801280F391FD901A259BF4F6C912A
:103C80001196EC90029691838083CE0101960E945A
:103C9000BC03CE0101960E94AA03F12CBE01615F14
:103CA0007F4FCE0101960E94DF03F394EF14B0F72B
:103CB000980124593F4F7901882309F422C248E032
:103CC00050E0BE01615F7F4FC8010E94EB1816C231
:103CD000D9018D919C910B9709F08ACDD801AB5BEE
:103CE000B74F2D913C911197A801420F531FFA0134
:103CF000E259FF4F60816901EFEFCE1ADE0A11969B
:103D0000DC92CE923E01FFE06F0E711C80E090E0ED
:103D1000B62CA72CC00ED11E7601E80EF91E7EE649
:103D2000E70EF11CF701F080F301F1923F010196DB
:103D30008830910589F7FA01E958FF4FF0803196F4
:103D4000E080255F3F4F2D933C93CE0101960E946A
:103D5000BC03CE0101960E9487026B2D7A2DCE0105
:103D600001960E94820340E06F2DCE0101960E94D1
:103D70002403F12CFE1409F4E1C1CE0101960E9446
:103D800066038F8B41E050E0BE01695E7F4FC80142
:103D90000E94EB18F394EECFD9018D919C910B9773
:103DA00009F026CDD801AB5BB74F2D913C9111970F
:103DB000A801420F531FFA01E259FF4F60816901C8
:103DC000EFEFCE1ADE0A1196DC92CE923E01FFE0B2
:103DD0006F0E711C80E090E0B62CA72CC00ED11E97
:103DE0007601E80EF91E7EE6E70EF11CF701F08081
:103DF000F301F1923F0101968830910589F7FA01AC
:103E0000E958FF4FF08031964081255F3F4F2D9359
:103E10003C93CE010196498F0E94BC03CE010196CE
:103E20000E9487026B2D7A2DCE0101960E9482039B
:103E3000498D6F2DCE0101960E9424037FC1D901C7
:103E40008D919C91029709F0D3CCF801EB5BF74F71
:103E5000808191819801280F391FD901A259BF4F44
:103E60006C911196EC900296918380834E2D8DE992
:103E70009DE00E940608F12C8DE99DE00E94580704
:103E8000892B79F08DE99DE00E946007898341E0EC
:103E900050E0BE016F5F7F4FC8010E94EB18F394A2
:103EA000EBCFF801E459FF4FFE1409F44AC181E059
:103EB0002AC1F90180819181029708F499CC6801A7
:103EC000FBEBCF1AF7EFDF0AD6018D919C9111978A
:103ED000F801E80FF91FE259FF4F608101968D93B9
:103EE0009C938DE99DE00E940C08B12C2B2D30E0B5
:103EF000F7018081918101972817390798F4F6011D
:103F000080819181F801E80FF91FE259FF4F60812C
:103F10000196D6018D939C938DE99DE00E94B00798
:103F2000B394E4CF8DE99DE00E942B0807C1F8010E
:103F3000EB5BF74F80819181D801A80FB91FA2597F
:103F4000BF4F2C910196918380838CB5211102C0C3
:103F5000806201C08F7D8CBDF1C0F90180819181AB
:103F6000019709F045CCF801EB5BF74F8081918117
:103F7000D801A80FB91FA259BF4F2C910196918368
:103F800080839CB5822F83709C7F892B8CBD8DB5DF
:103F900022FB222720F98E7F822B8DBD18C0D901EC
:103FA0008D919C91019709F023CCF801EB5BF74FC1
:103FB00080819181D801A80FB91FA259BF4F2C91C0
:103FC0000196918380838CB5837F282B2CBDE95D7E
:103FD000F740B7C0F90180819181019709F008CCC1
:103FE000F801EB5BF74F80819181D801A80FB91FD1
:103FF000A259BF4F2C910196918380832EBD000062
:104000000DB407FEFDCF8EB5898341E050E0BE01BF
:104010006F5F7F4F85C0D9018D919C91892B09F0ED
:10402000E7CBF801EA59FF4F40815181B8016E5F3B
:104030007F4F76C0F90180819181892B09F0D8CB1F
:104040008091860D9091870DA091880DB091890D7A
:1040500089839A83AB83BC8344E050E0D8CFD901F5
:104060008D919C91049709F0C3CBD801AB5BB74FFE
:104070002D913C911197F901E259FF4FE00FF11F8B
:1040800060817181828193812C5F3F4F2D933C939E
:104090000E94BB0453C0F90180819181892B09F0F2
:1040A000A7CB0E948D049A83898342E050E0AFCF72
:1040B000D9018D919C91029709F09ACBD801AB5B05
:1040C000B74F2D913C911197F901E259FF4FE00F45
:1040D000F11F808191812E5F3F4F2D933C939C0176
:1040E00022503109F801E459FF4F7F012630310594
:1040F00040F40E94840480E00E944D05D7011C9288
:1041000021C085E0F70180831DC0D9018D919C916C
:10411000892B09F06DCB44E050E0B80168597F4F1E
:10412000C8010E94EB180AC0F90180819181892B96
:1041300009F05ECB61E0C8010E94141AF801E4594D
:10414000FF4F10827801FCE6EF0EF11CD7016C9155
:10415000C8010E94641BF70180810FB6F8949EBECF
:104160000FBE8DBE69960FB6F894DEBF0FBECDBFF1
:10417000DF91CF911F910F91FF90EF90DF90CF9043
:10418000BF90AF909F908F907F906F900895CF9346
:10419000DF931F92CDB7DEB78DE99DE049830E9482
:1041A0000C084981642F8DE99DE00E94B0078DE9DC
:1041B0009DE00F90DF91CF910C942B08EF92FF922E
:1041C0000F931F93CF93DF931F921F92CDB7DEB74C
:1041D000122F8DE99DE049835A830E940C08498182
:1041E000042FE42E5A81F52E8E2D801B811740F46A
:1041F000F70161917F018DE99DE00E94B007F4CF46
:104200008DE99DE00F900F90DF91CF911F910F915D
:10421000FF90EF900C942B08CF93DF93EC0182EA90
:104220009EE00E94BF2D181619064CF482EA9EE00B
:104230000E94D82D682FCE010E943E19F0CFDF9149
:10424000CF9108952091960D3091970D8091940D06
:104250009091950D2817390721F40E94C90581E036
:10426000089580E00895CF93DF93D82FC62F811152
:1042700016C0613041F028F0623009F058C060E0AB
:1042800009C061E007C060E084E00E94602D61E049
:1042900085E02BC084E00E94602D60E0F9CF813082
:1042A00009F045C0623099F050F4662371F0613036
:1042B000F1F560E086E00E94602D61E033C063307C
:1042C000F9F06430A1F560E029C061E027C060E04A
:1042D00086E00E94602D60E087E00E94602D61E032
:1042E00088E00E94602D60E089E00E94602D8BE1F3
:1042F000D89FF0011124E35AF14FC18380E018C028
:1043000060E086E00E94602D60E087E00E94602D02
:1043100060E088E00E94602D61E0E6CF86E00E94C8
:10432000602D60E087E00E94602D60E0D9CF85E0DD
:10433000DF91CF9108959093960E8093950E6093A0
:104340005D0E4093780E60E078EB88E097E40E9481
:10435000BB0461E084E00E94272D61E085E00E94BB
:10436000272D61E086E00E94272D61E087E00E9412
:10437000272D61E088E00E94272D61E089E00E94FE
:10438000272D83E00E94840460915E0E80E00E94ED
:1043900033216091790E81E00E94332120E032E0E8
:1043A0003093730E2093720E80E090E0A0E0B4E4AE
:1043B0008093740E9093750EA093760EB093770E43
:1043C00041E040936D0E30938E0E20938D0E8093BE
:1043D0008F0E9093900EA093910EB093920E4093F7
:1043E000880E08950F931F93CF93DF93AB019BE14A
:1043F000899FE0011124C35AD14F9B0123533109F6
:104400002A393340B0F09B81911110C09A819F5F8F
:104410009A836981662321F061500E94332103C091
:1044200081E08093930E83E08B8337C091509B8310
:1044300034C08091940E882309F18D899E89DB0117
:10444000A81BB90B9D010E946E3609891A892B8918
:104450003C89060F171F281F391F098B1A8B2B8BBE
:104460003C8B88859985AA85BB85840F951FA11DE6
:10447000B11D88879987AA87BB870FC08C819D81D2
:104480008617970718F47D836C8307C08E819F8100
:104490006817790710F47F836E83DF91CF911F91A6
:1044A0000F91089580E00C94F22181E00C94F221A8
:1044B0002F923F924F925F926F927F928F929F9234
:1044C000AF92BF92CF92DF92EF92FF920F931F9322
:1044D000CF93DF93CDB7DEB764970FB6F894DEBF06
:1044E0000FBECDBF29013A01E986FA860B871C87EA
:1044F0001601BA8AA98A0E94823520E030E04AE794
:1045000054E40E94F3339B01AC010E9478336B01A9
:104510007C0120E030E0A9010E947E3520E030E0FF
:1045200040E05FE387FD05C0C701B6010E94783314
:1045300004C0C701B6010E9477330E945B340E9419
:104540008E3420E030E040E05FE30E9482356D83EE
:104550007E838F839887A30192016D817E818F81F5
:1045600098850E94F33329853A854B855C850E94A6
:1045700082350E94DC330E9460348B0102301105C9
:1045800008F42DC3B80180E090E00E948C342D81A6
:104590003E814F8158850E94F333A30192010E940E
:1045A000823569837A838B839C83D1016D937D935C
:1045B0008D939C93139729853A854B855C850E9442
:1045C0007E3518160CF408C3A301920169817A8123
:1045D0008B819C810E94F3336B017C019B01AC01B8
:1045E00060E070E080E090E40E94F3334B015C01F6
:1045F00020E030E0A9010E947E3520E030E040E07C
:104600005FE387FD05C0C501B4010E94783304C093
:10461000C501B4010E9477330E945B340E948E343E
:10462000A70196010E9482359B01AC0160E070E019
:1046300080E090E40E94773320E030E0A9010E94FE
:104640007E3520E030E0A901181664F5C501B401FB
:104650000E947E3520E030E040E05FE387FD05C04A
:10466000C501B4010E94783304C0C501B4010E94A1
:1046700077330E945B340E948E34A70196010E941A
:1046800082359B01AC0160E070E080E090E40E9424
:1046900077332DEC3CEC4CEC5DE30E94EF3387FD6F
:1046A0009BC22CC0C501B4010E947E3520E030E0E1
:1046B00040E05FE387FD05C0C501B4010E94783387
:1046C00004C0C501B4010E9477330E945B340E948C
:1046D0008E34A70196010E9482359B01AC0160E0F7
:1046E00070E080E090E40E9477332DEC3CEC4CECE1
:1046F0005DEB0E947E3518160CF46EC2A301920188
:10470000C301B2010E9478339B01AC0169817A81B7
:104710008B819C810E94EF3387FF61C129813A819F
:104720004B815C81C301B2010E94F3336D877E87A8
:104730008F87988B1C8A1B8AEB89FC89BF0180E0DC
:1047400090E00E948C344B015C019B01AC016D85B3
:104750007E858F8598890E94773320E030E040E0A5
:104760005FE30E94EF3318163CF42B893C892F5FDE
:104770003F4F3C8B2B8BE0CF29813A814B815C8171
:10478000C501B4010E9482359B01AC01C301B20195
:104790000E9477334B015C0120E030E0A9010E94C8
:1047A0007E35181624F0B7FAB094B7F8B094A50186
:1047B000940169817A818B819C810E94F3336983A2
:1047C0007A838B839C839B01AC0160E070E080E086
:1047D00090E40E94F3334B015C0120E030E0A9013A
:1047E0000E947E3520E030E040E05FE387FD05C0B9
:1047F000C501B4010E94783304C0C501B4010E9410
:1048000077330E945B340E948E3429813A814B8138
:104810005C810E9482359B01AC0160E070E080E029
:1048200090E40E94773320E030E0A9010E947E35B9
:1048300020E030E0A901181674F5C501B4010E940A
:104840007E3520E030E040E05FE387FD05C0C50134
:10485000B4010E94783304C0C501B4010E947733CB
:104860000E945B340E948E3429813A814B815C81A5
:104870000E9482359B01AC0160E070E080E090E432
:104880000E9477332DEC3CEC4CEC5DE30E94EF335F
:1048900087FF2FC0A1C1C501B4010E947E3520E071
:1048A00030E040E05FE387FD05C0C501B4010E9430
:1048B000783304C0C501B4010E9477330E945B3491
:1048C0000E948E3429813A814B815C810E9482351D
:1048D0009B01AC0160E070E080E090E40E947733DF
:1048E0002DEC3CEC4CEC5DEB0E947E3518160CF484
:1048F00073C120E030E0A901C701B6010E947E35F6
:1049000020E030E040E05FE387FD05C0C701B6016D
:104910000E94783304C0C701B6010E9477330E9419
:104920005B340E948E349B01AC01C701B6010E942A
:10493000773320E030E0A9010E947E3520E030E0AE
:10494000A901181634F5C701B6010E947E3520E092
:1049500030E040E05FE387FD05C0C701B6010E947B
:10496000783304C0C701B6010E9477330E945B34DC
:104970000E948E349B01AC01C701B6010E947733BF
:1049800027E137EB41ED58E30E94EF3387FF27C063
:1049900023C1C701B6010E947E3520E030E040E02F
:1049A0005FE387FD05C0C701B6010E94783304C0EC
:1049B000C701B6010E9477330E945B340E948E3497
:1049C0009B01AC01C701B6010E94773327E137EBA9
:1049D00041ED58EB0E947E3518160CF4FDC020E026
:1049E00030E040E251E4C701B6010E94EF3387FF97
:1049F00076C020E030E0A901C701B6010E947E35F3
:104A000020E030E040E05FE387FD05C0C701B6016C
:104A10000E94783304C0C701B6010E9477330E9418
:104A20005B340E948E349B01AC01C701B6010E9429
:104A3000773320E030E0A9010E947E3520E030E0AD
:104A4000A901181634F5C701B6010E947E3520E091
:104A500030E040E05FE387FD05C0C701B6010E947A
:104A6000783304C0C701B6010E9477330E945B34DB
:104A70000E948E349B01AC01C701B6010E947733BE
:104A800027E137EB41ED58E30E94EF3387FF27C062
:104A9000A3C0C701B6010E947E3520E030E040E0AF
:104AA0005FE387FD05C0C701B6010E94783304C0EB
:104AB000C701B6010E9477330E945B340E948E3496
:104AC0009B01AC01C701B6010E94773327E137EBA8
:104AD00041ED58EB0E947E3518160CF47DC02D81F7
:104AE0003E814F815885C701B6010E9482356B0116
:104AF0007C0120E030E0A9010E947E3520E030E01A
:104B000040E05FE387FD05C0C701B6010E9478332E
:104B100004C0C701B6010E9477330E945B340E9433
:104B20008E349B01AC01C701B6010E94773320E0AF
:104B300030E0A9010E947E3520E030E0A90118167E
:104B400034F5C701B6010E947E3520E030E040E038
:104B50005FE387FD05C0C701B6010E94783304C03A
:104B6000C701B6010E9477330E945B340E948E34E5
:104B70009B01AC01C701B6010E94773327E137EBF7
:104B800041ED58E30E94EF3387FF26C033C0C701D1
:104B9000B6010E947E3520E030E040E05FE387FD13
:104BA00005C0C701B6010E94783304C0C701B60131
:104BB0000E9477330E945B340E948E349B01AC01CB
:104BC000C701B6010E94773327E137EB41ED58EB7F
:104BD0000E947E35181674F001501109CFCC20E0E8
:104BE00030E040E05FE36D817E818F8198850E9497
:104BF0007833ADCCA989BA890D931C9364960FB60E
:104C0000F894DEBF0FBECDBFDF91CF911F910F9102
:104C1000FF90EF90DF90CF90BF90AF909F908F90DC
:104C20007F906F905F904F903F902F9008951092DB
:104C30005E0E1092790E08952F923F924F925F92DE
:104C40006F927F928F929F92AF92BF92CF92DF929C
:104C5000EF92FF920F931F93CF93DF93CDB7DEB701
:104C6000C65ED1090FB6F894DEBF0FBECDBFC052ED
:104C7000DF4F59834883C05ED040CE51DF4F088359
:104C800019832A833B83C25ED04026013701CD526F
:104C9000DF4FA882C35DD0408092940EAA2031F1EC
:104CA000A7E9AA2EAEE0BA2EAE0149535F4F6A01C2
:104CB000E12C10E4F12E0CE916E4A30192010E940C
:104CC0005822C953DF4F688179818A819B81C75CF3
:104CD000D0409B01AC010E947833C953DF4F6883F9
:104CE00079838A839B83C75CD04017C020E030E083
:104CF00040E05FE30E948235E7E9AE2EEEE0BE2E93
:104D0000DE01A953BF4F6D01E12C10E4F12E0CE13F
:104D100017E4A30192010E9458228091970E90916E
:104D2000980E880F991F9093980E8093970EC953F1
:104D3000DF4F688179818A819B81C75CD0400E9466
:104D4000BB04B0915E0EC252DF4FB883CE5DD0403F
:104D500012E0C353DF4F1883CD5CD04062E080E0A7
:104D60000E943321E091790EC152DF4FE883CF5D7D
:104D7000D04084E0C253DF4F8883CE5CD04064E0F3
:104D800081E00E94332180915D0EFE01E553FF4FCB
:104D900080839091780E91832091970E3091980E98
:104DA000CD52DF4F4881C35DD040442309F1309399
:104DB000950D2093940DF093920DE093910D109327
:104DC0008F0D10928E0D25E436E030938D0D2093DB
:104DD0008C0D0E941A068DE596E090938D0D8093C0
:104DE0008C0D82EF91E290938B0D80938A0D06C01B
:104DF000369527953093950D2093940DE090950E60
:104E0000F090960EF701E859FF4F20E030EC4FE7A5
:104E100054E460817181828193810E94F3332B017C
:104E20003C018E0105541F4F1E0155E1250E311C1A
:104E3000CE01825A9F4FDC011896C153DF4FB983D0
:104E4000A883CF5CD040F8013C96CC52DF4FF98369
:104E5000E883C45DD040C652DF4F8883CA5DD0402E
:104E6000CA51DF4F9883C65ED04097012B59374F08
:104E7000CF52DF4F39832883C15DD040A701445A08
:104E8000574FC852DF4F59834883C85DD040809147
:104E90005D0ECF52DF4FE881F981C15DD040C6522F
:104EA000DF4FA881CA5DD040CA51DF4FB881C65ECE
:104EB000D0409DE501900D929A95E1F7882369F025
:104EC0008130B1F4C153DF4FE881F981CF5CD0402C
:104ED000208D318D428D538D0EC0C153DF4FA8817F
:104EE000B981CF5CD0402D913D914D915C9103C033
:104EF00020E030E0A901CF52DF4FE881F981C15DA8
:104F0000D040DE0111969DE501900D929A95E1F752
:104F1000882341F0813061F4F101C0A0D1A0E2A06A
:104F2000F3A009C0D101CD90DD90ED90FC9003C0BD
:104F3000C12CD12C760160E876E988E19BE40E94DF
:104F4000F3334B015C0120E836E948E15BE4C7013B
:104F5000B6010E9482359B01AC010E9478332BED93
:104F60003FE049E450E40E948235C852DF4FA881F7
:104F7000B981C85DD0402D913D914D915C910E94C9
:104F800082356B017C01A5019401C501B4010E9429
:104F900082354B015C01A7019601C701B6010E9451
:104FA00082359B01AC01C501B4010E9478330E9497
:104FB000E9359B01AC01C301B2010E948235F801C1
:104FC00061937193819391938F01F4E02F0E311CC3
:104FD000C153DF4F28813981CF5CD0402C5F3F4FD8
:104FE000C153DF4F39832883CF5CD040CC52DF4F91
:104FF00048815981C45DD0400417150709F047CF97
:105000001092930ECF52DF4F19821882C15DD040AB
:10501000CF52DF4F88819981C15DD040C052DF4FB0
:10502000A881B981C05ED0408A179B0791F4C25213
:10503000DF4F6881CE5DD04080E00E943321C152B5
:10504000DF4F6881CF5DD04081E00E94332180E056
:10505000C8C28091940E10925F0E1092600E811162
:105060000BC0EFEFF3E0F093640EE093630E109249
:10507000620E1092610E10C01092650E1092660EB4
:105080001092670E1092680E10926E0E10926F0EB4
:105090001092700E1092710E10927A0E10927B0E7A
:1050A000882389F01092800E1092810E1092820E49
:1050B0001092830E1092890E10928A0E10928B0E0F
:1050C00010928C0E0AC08FEF93E090937F0E809326
:1050D0007E0E10927D0E10927C0ECD52DF4F988185
:1050E000C35DD040992309F440C00E94AA050E94E4
:1050F00022218823E1F30E94552BCC52DF4F688395
:1051000079838A839B83C45DD040A091940EC8525A
:10511000DF4FA883C85DD0402091970E3091980E44
:10512000FE01E353FF4FC153DF4FF983E883CF5CA8
:10513000D0400DE51EE0AE014F5F5F4F2A01809128
:10514000930E81113FC0CE01825A9F4F1C01612CEA
:10515000712CC901A0E0B0E0C652DF4F888399836B
:10516000AA83BB83CA5DD040ACC080915D0E0E9413
:105170003406ADE5B6E0B0938D0DA0938C0DE2E55D
:10518000F2E2F0938B0DE0938A0D0E94AA050E9433
:1051900022218823E1F38091780E0E9434062DE5C8
:1051A00036E030938D0D20938C0D45E552E25093FF
:1051B0008B0D40938A0D0E94AA050E94222188230C
:1051C000E1F399CF8091950E9091960E0E94F30A8B
:1051D00020E040E050E0BA018091950E9091960E4B
:1051E0000E94C40D80E2FDC1C652DF4F6881798103
:1051F0008A819B81CA5DD0400E948C346B017C0106
:10520000D80151966D917D918D919C9154970E94FA
:105210008C349B01AC010E947833A70196010E9457
:10522000F3330E94E935F2016083718382839383B3
:1052300020E030E040E852E40E9482359B01AC015E
:105240000E94783323EF34E045EB5FE30E94823520
:105250000E946034D1016D937C93F301E35AF14FC6
:1052600082818823B9F1F301E35AF14F82818823C7
:1052700009F4B3C08195C153DF4FA881B981CF5CD8
:10528000D0408C93B1E0B08BC153DF4FE881F981FE
:10529000CF5CD0403196C153DF4FF983E883CF5CB8
:1052A000D040FBE16F0E711C055E1F4F22E0220E05
:1052B000311C34E0430E511C46E36416710409F4BA
:1052C00096C0C852DF4F5881C85DD040552309F4BD
:1052D0005AC08ACF80898111C6CFF8018084918419
:1052E000A284B3846485758586859785680D791D4C
:1052F0008A1D9B1D0E948C342AE037ED43E25CE35B
:105300000E948235A70196010E94F3336B017C0154
:1053100024EA30E74DE75FE3D80157966D917D9120
:105320008D919C915A970E9482359B01AC01C701D7
:10533000B6010E9478336B017C01F801678B708F96
:10534000818F928F20E030E0A9010E947E3520E01D
:1053500030E040E05FE387FD05C0C701B6010E9471
:10536000783304C0C701B6010E9477330E945B34D2
:10537000D80156967C936E935597F801848695864E
:10538000A686B78670CFD80114966D917C9115973B
:1053900016968D919C911797681B790B96E0660F76
:1053A000771F9A95E1F7F1017183608380E090E0C7
:1053B0000E948C3423EF34E045EB5FE30E94F3332B
:1053C00020E030E040E05CE30E948235D2016D9342
:1053D0007D938D939C93139746CF8181C153DF4F6B
:1053E000A881B981CF5CD0408C93108A4DCF0091B9
:1053F000950E1091960EF801EC59F74F8081882395
:1054000009F454C080915F0E811150C03C97C08058
:10541000D180E280F38020E030E0A901C701B6012D
:105420000E947E3518160CF041C0C353DF4F8881AF
:10543000CD5CD040EBEBF0E0EC0FFD1F24E08202EE
:10544000E00DF11D11242081318142815381698158
:105450007A818B819C810E9482352B013C01A701BE
:1054600096010E9477334B015C0120E030E0A901F6
:105470000E947E35181624F0B7FAB094B7F8B094AD
:1054800020E030E040E05FE3F801EF54F74F608147
:105490007181828193810E9482359B01AC01C5019B
:1054A000B4010E947E3518160CF476C00EE51EE09D
:1054B000CE01825A9F4F6C01E12CF12CD6018D91C7
:1054C0009C91893C9C4030F4F80160816F5F8E2D87
:1054D0000E94332142E050E0B6018091950E9091F8
:1054E000960E0E94EB186DEC70E06C0F7D1F6E0D38
:1054F0007F1D41E050E08091950E9091960E0E94A4
:10550000EB18FFEFEF1AFF0A22E0C20ED11C055E76
:105510001F4F32E0E316F10489F682EA9EE00E9412
:10552000BF2D181619060CF482CD0E94552BCC52B3
:10553000DF4F288139814A815B81C45DD040621B85
:10554000730B840B950B0E948C346B017C0120E063
:1055500030E04AE754E4CE51DF4F688179818A8197
:105560009B81C25ED0400E9482359B01AC01C70185
:10557000B6010E94EF3387FDD8CFCF52DF4F48816D
:105580005981C15DD0404F5F5F4FCF52DF4F59838C
:105590004883C15DD0403CCDF801E05AF74F2081EF
:1055A000318142815381C301B2010E948235A7013A
:1055B00096010E94F3336B017C0120E030E040E86B
:1055C0005FE30E94EF3387FF06C0C12CD12C80E837
:1055D000E82E8FE3F82EB701A601C8010E94480EFD
:1055E00065CFCA51DF4F0FB6F894DEBF0FBECDBFF7
:1055F000DF91CF911F910F91FF90EF90DF90CF90AF
:10560000BF90AF909F908F907F906F905F904F90E2
:105610003F902F9008951F920F920FB60F92112472
:105620002F933F938F939F93AF93BF9380919A0E45
:1056300090919B0EA0919C0EB0919D0E3091990E71
:1056400023E0230F2D3720F40196A11DB11D05C0C5
:1056500026E8230F0296A11DB11D2093990E809379
:105660009A0E90939B0EA0939C0EB0939D0E8091EA
:105670009E0E90919F0EA091A00EB091A10E01964A
:10568000A11DB11D80939E0E90939F0EA093A00E1E
:10569000B093A10EBF91AF919F918F913F912F91A8
:1056A0000F900FBE0F901F9018953FB7F894809100
:1056B0009E0E90919F0EA091A00EB091A10E26B5C6
:1056C000A89B05C02F3F19F00196A11DB11D3FBF3A
:1056D0006627782F892F9A2F620F711D811D911DCA
:1056E00042E0660F771F881F991F4A95D1F70895EA
:1056F000CF92DF92EF92FF92CF93DF936B017C0109
:105700000E94552BEB01C114D104E104F10489F08E
:105710000E9476330E94552B6C1B7D0B683E7340B4
:1057200090F381E0C81AD108E108F108C851DC4FB4
:10573000EACFDF91CF91FF90EF90DF90CF90089567
:105740008230910538F0880F991F880F991F0597AF
:105750000197F1F70895789484B5826084BD84B58B
:10576000816084BD85B5826085BD85B5816085BD5C
:10577000EEE6F0E0808181608083E1E8F0E0108275
:10578000808182608083808181608083E0E8F0E0B6
:10579000808181608083E1EBF0E0808184608083A0
:1057A000E0EBF0E0808181608083E1E9F0E08081DE
:1057B00082608083808181608083E0E9F0E0808185
:1057C00081608083E1EAF0E0808182608083808173
:1057D00081608083E0EAF0E0808181608083E1E2A3
:1057E000F1E0808182608083808181608083E0E25B
:1057F000F1E0808181608083EAE7F0E0808184606D
:1058000080838081826080838081816080838081C9
:10581000806880831092C10008951F93CF93DF9317
:10582000182FEB0161E00E94272D209711F460E012
:1058300004C0CF3FD10539F461E0812FDF91CF91D2
:105840001F910C94602DE12FF0E0E659FE4F44913A
:1058500050E0FA013197E231F10508F09BC0EF56B4
:10586000FF4F0C94683684B5806884BDC7BD97C06F
:1058700084B5806284BDC8BD92C08091800080687C
:1058800080938000D0938900C093880088C0809165
:105890008000806280938000D0938B00C0938A0048
:1058A0007EC080918000886080938000D0938D00BE
:1058B000C0938C0074C08091B00080688093B00069
:1058C000C093B3006CC08091B00080628093B00040
:1058D000C093B40064C08091900080688093900071
:1058E000D0939900C09398005AC080919000806234
:1058F00080939000D0939B00C0939A0050C08091F9
:105900009000886080939000D0939D00C0939C008D
:1059100046C08091A00080688093A0008091A00084
:105920008F7B8093A000D093A900C093A80037C0BC
:105930008091A00080628093A000D093AB00C093C0
:10594000AA002DC08091A00088608093A000D09311
:10595000AD00C093AC0023C080912001806880938B
:105960002001D0932901C093280119C08091200102
:10597000806280932001D0932B01C0932A010FC035
:1059800080912001886080932001D0932D01C093E5
:105990002C0105C0C038D1050CF04ECF48CFDF91A7
:1059A000CF911F91089590E0FC013197E231F1050C
:1059B00008F04CC0ED55FF4F0C9468368091800084
:1059C0008F7703C0809180008F7D80938000089541
:1059D00080918000877FF9CF84B58F7702C084B52E
:1059E0008F7D84BD08958091B0008F7703C0809132
:1059F000B0008F7D8093B0000895809190008F77E4
:105A000007C0809190008F7D03C080919000877FB8
:105A10008093900008958091A0008F7707C08091B7
:105A2000A0008F7D03C08091A000877F8093A0009D
:105A30000895809120018F7707C0809120018F7D8C
:105A400003C080912001877F809320010895CF9328
:105A5000DF9390E0FC01E055FE4F2491FC01EA50F9
:105A6000FE4F8491882349F190E0880F991FFC0133
:105A7000E059FD4FA591B4918A5A9D4FFC01C59103
:105A8000D4919FB7611108C0F8948C91209582231E
:105A90008C93888182230AC0623051F4F8948C91EF
:105AA000322F309583238C938881822B888304C086
:105AB000F8948C91822B8C939FBFDF91CF910895A6
:105AC0000F931F93CF93DF931F92CDB7DEB7282F8D
:105AD00030E0F901E659FE4F8491F901E055FE4F9F
