:100000000C948C010C94BD010C94BD010C94BD01A9
:100010000C94BD010C94BD010C94BD010C94BD0168
:100020000C94BD010C94BD010C94BD010C94BD0158
:100030000C94BD010C94BD010C94BD010C94BD0148
:100040000C94BD010C94BD010C94BD010C94BD0138
:100050000C943B050C94BD010C94BD010C940A2B2F
:100060000C94BD010C94352F0C946B2F0C94BD0196
:100070000C94BD010C9410050C94BD010C94BD01B1
:100080000C94BD010C94BD010C94BD010C94670847
:100090000C94BD010C94BD010C94BD010C9426067A
:1000A0000C94BD010C94BD010C94BD010C94BD01D8
:1000B0000C94BD010C94BD010C94BD010C94BD01C8
:1000C0000C94BD010C94BD010C94BD010C94BD01B8
:1000D0000C94BD010C94BD010C94BD010C94BD01A8
:1000E0000C94BD01201C481C651C821CC51CA71C4F
:1000F000E31C0C1D421D271D7E1D5A1D5A1E351E58
:10010000791E171FB31EA41F6A1F3D1CF81F1A205B
:1001100035205620011D65207A209620A320D0206E
:10012000DF20352C3A2C3F2C492C532CCC2C5D2C29
:10013000652C6D2C772C812C8B2C9A2CA42CCC2C00
:10014000AE2CB82CC22CEE2CF12CE02CE42CEA2C9A
:10015000282DF52CF92CFF2C032D072D0D2D112DFD
:10016000152D282D1B2D1F2D232D08000000BE92BC
:100170002449123EABAAAA2ABECDCCCC4C3E0000EC
:100180000080BEABAAAAAA3E00000000BF0000008B
:10019000803F0000000000084178D3BB4387D113A3
:1001A0003D190E3CC3BD4282AD2B3E68EC8276BE4B
:1001B000D98FE1A93E4C80EFFFBE01C4FF7F3F0015
:1001C0000000000007634236B79BD8A71A3968566B
:1001D00018AEBAAB558C1D3CB7CC5763BD6DEDFD69
:1001E000753EF6177231BF000000803F00000A0B19
:1001F00002090C0D0E0807030401000000000000B6
:1002000000000000000000000000000000000000EE
:1002100000000000000000001211100000000000AB
:1002200000000000000000000000000000000000CE
:1002300000000102102020080810204010204080FB
:10024000020102010804020101020408102040809A
:100250008040201008040201800402018040201028
:100260000804020108040201010204081020408071
:10027000010204081020408005050505070508084F
:100280000808020202020A0A080804040404010120
:100290000101010101010303030303030303040735
:1002A00007070C0C0C0C0C0C0C0C020202020606CC
:1002B0000606060606060B0B0B0B0B0B0B0B0000C2
:1002C00020002300260029002C002F00320000010E
:1002D000000003010601090100002200250028009A
:1002E0002B002E003100340002010000050108013E
:1002F0000B0100002100240027002A002D003000FF
:10030000330001010000040107010A01F301450562
:100310002D0822269F2FF70111241FBECFEFD1E217
:10032000DEBFCDBF00E00CBF14E0A0E0B2E0ECEC1B
:10033000F4E700E00BBF02C007900D92A63CB107A6
:10034000D9F72FE0A6ECB4E001C01D92A534B207A6
:10035000E1F713E0C6E1D3E000E006C0229701090F
:10036000FE010BBF0E94E537CC30D10780E00807C3
:10037000A9F70E9490020C94543A0C9400008091CA
:10038000060290910702019690930702809306025D
:10039000089586EC94E00E9440218091060290919D
:1003A000070269E170E00E948B37892BD9F48091B4
:1003B000180D882389F08091190D81110BC0E091EF
:1003C000C604F091C7040688F789E02D86EC94E016
:1003D000199502C01092190D81E090E090930702E8
:1003E00080930602089586EC94E00C94AA0A86ECA9
:1003F00094E00C94BB0A80E18093910010929000ED
:1004000085E080935C0E86E998E990935E0E809378
:100410005D0E909397008093960085E18093910004
:100420008FEB91E090935B0E80935A0E81E0809366
:10043000710086EC94E00E94550E69E072E084EA57
:100440009EE00E942E306FEF71E2605072404AE0F1
:1004500050E084EA9EE00E94F8306EE072E084EAA8
:100460009EE00E942E3066EC74E0605072404AE0DC
:1004700050E084EA9EE00E94F83065E172E084EA90
:100480009EE00E942E3065E47FE0665C74404AE0A6
:1004900050E084EA9EE00E94F8306BE172E084EA6A
:1004A0009EE00E942E306091410F7091420F6115C5
:1004B000710519F065547F4002C060E070E04AE0C9
:1004C00050E084EA9EE00E94F83061E272E084EA43
:1004D0009EE00E942E308DB79EB76FEF71E2681BD1
:1004E000790B4AE050E084EA9EE00E94F83068E22E
:1004F00072E084EA9EE00E942E308091410F90913C
:10050000420F6DB77EB7009719F465547F4002C063
:10051000681B790B4AE050E084EA9EE00C94F830C6
:100520000E94AA2B0E94FB01CEEEDDE20E94C901CF
:100530002097E1F30E94EE2DF9CFECE7F0E09081F7
:100540009F739083208130E4839FC0011124282B66
:1005500020830895EAE7F0E09081987F908390816E
:10056000982B9083089580917A00877090E0089589
:10057000E1E8F0E08081887F808308950E94B802DE
:100580001092850010928400E1E8F0E08081909163
:100590007A0D892B80830895882321F080917C0037
:1005A000806203C080917C008F7D80937C000895E1
:1005B000EBE7F0E09081987F90839081982B908377
:1005C0000895CF92DF92EF92FF92CF936B017C015F
:1005D00080E18093810010928000A701960160E085
:1005E00074E284E799E40E94F53320E030E040E0D3
:1005F00051E40E94C9350E9462346115710521E001
:100600008207910528F421E020937A0DCB014CC09C
:100610006115710528E08207910568F422E02093B6
:100620007A0DDC01CB0153E0B695A7959795879598
:100630005A95D1F739C06115710520E482079105FB
:1006400068F423E020937A0DDC01CB0146E0B695F7
:10065000A795979587954A95D1F726C0611571059D
:10066000810521E0920740F424E020937A0DBB2716
:10067000A92F982F872F18C061157105810524E0D7
:10068000920768F425E020937A0DDC01CB012AE083
:10069000B695A795979587952A95D1F705C085E0DA
:1006A00080937A0D8FEF9FEF909387008093860061
:1006B000C1E0C0936F0086E00E94D802C093900D05
:1006C00080917A00806280937A00C092830DD092EC
:1006D000840DE092850DF092860DCF91FF90EF9002
:1006E000DF90CF9008958093900D882321F0809122
:1006F0007A00806203C080917A008F7D80937A00B7
:100700000895EAE7F0E08081806480830895CF93C4
:10071000DF93D0917800C09179004091930D509172
:10072000940D2091910D3091920D42175307A8F529
:100730008091900D811102C00E9481038D2F90E065
:100740009C2B20917C0025FF13C0E091970DF09128
:10075000980D2091930D3091940DA9014F5F5F4F3B
:100760005093940D4093930DE20FF31F908315C0A7
:10077000E091950DF091960D2091930D3091940D8F
:10078000A9014F5F5F4F5093940D4093930D220F3B
:10079000331FE20FF31F91838083DF91CF91089580
:1007A0001092940D1092930D8091900D0E947303FE
:1007B0000E94542B60937B0D70937C0D80937D0D74
:1007C00090937E0D80917A00886C80937A0080915E
:1007D0007B008770863011F40C94BE0208958F92CE
:1007E0009F92AF92BF92CF92DF92EF92FF920E94C0
:1007F000542B4B015C0180917A00877D80937A00B5
:1008000080917B008770863011F40E94B80260915D
:10081000910D7091920D80E090E00E948E3420E066
:1008200034E244E759E40E94C9356B017C018091B0
:100830007B0D90917C0DA0917D0DB0917E0DA50159
:100840009401281B390B4A0B5B0BCA01B9010E94AA
:100850008E349B01AC01C701B6010E94F533609351
:100860007F0D7093800D8093810D9093820DFF908A
:10087000EF90DF90CF90BF90AF909F908F900895B2
:1008800080938D0D90917C00907F90937C002091BF
:100890007C00982F9770922B90937C00883020F0EA
:1008A00080917B00886003C080917B00877F80936C
:1008B0007B00089591E090938C0D10928F0D109213
:1008C0008E0D10928B0D27E833E030938A0D209324
:1008D000890D0C94400480918B0D8F5F80938B0D5C
:1008E00090918C0D891302C010928B0D80918B0D0D
:1008F000E0918E0DF0918F0DE80FF11D80810E9427
:1009000040040C9487031F93CF93DF93C0918B0D0A
:1009100090918C0D9230A0F081E08C0F891719F026
:1009200080938B0D02C010928B0D80918B0DE09106
:100930008E0DF0918F0DE80FF11D80810E94400413
:1009400010917800D09179004091930D5091940DC1
:100950002091910D3091920D42175307F0F4809140
:10096000900D811102C00E948103612F70E07D2BE8
:1009700080917C0085FF02C0672F7727E091870D6B
:10098000F091880D8C2F19958091930D9091940D75
:1009900001969093940D8093930DDF91CF911F91C9
:1009A0000895CF93DF93D0917C00C0917B0080911C
:1009B0007C00807E80937C0080917C008E6180939F
:1009C0007C0080917B00877F80937B0063E070E0F8
:1009D00080E090E00E94772B80917A008064809381
:1009E0007A0080917A0086FDFCCF6091780080913A
:1009F0007900D0937C00C0937B0070E0782B88272F
:100A000077FD8095982F0E9490349B01AC0160E0A7
:100A100070E889E894E40E94F533DF91CF9108955E
:100A20001F920F920FB60F9211240BB60F922F93B5
:100A30003F934F935F936F937F938F939F93AF9366
:100A4000BF93EF93FF93E091890DF0918A0D199573
:100A5000FF91EF91BF91AF919F918F917F916F9196
:100A60005F914F913F912F910F900BBE0F900FBE52
:100A70000F901F9018951F920F920FB60F9211248E
:100A80000F900FBE0F901F90189581E00C949D025F
:100A90001092060E81E08093040E1092030E61E026
:100AA00084E10E94622D61E085E10E94622DE9EB04
:100AB000F0E080818E7F808380818D7F808388E4D9
:100AC0008093B80085E48093BC000895413208F01B
:100AD0003FC09091060E9111FCCF91E09093060ECD
:100AE0002093040E2FEF2093990D1092DE0D240F0A
:100AF0002093DD0D9093050E9091050E880F892BA4
:100B00008093050E8091030E813041F41092030E04
:100B10008091050E8093BB0085EC01C085EE80932B
:100B2000BC008091060E8130E1F38091DE0D8417C8
:100B300010F44091DE0D2FED3DE0FB01D9018A2F2D
:100B4000821B841718F48D918193F9CF842F089517
:100B500080E008950F93413208F046C09091060E50
:100B60009111FCCF92E09093060E0093040E9FEF3C
:100B70009093990D1092DE0D4093DD0DFB016FED0A
:100B80007DE0DB019A2F961B941718F491919D93A9
:100B9000F9CF1092050E9091050E880F892B809346
:100BA000050E8091030E813041F41092030E809166
:100BB000050E8093BB0085EC01C085EE8093BC00E0
:100BC000222321F08091060E8230E1F38091990D6D
:100BD0008F3F61F08091990D803251F08091990D95
:100BE000803341F483E007C081E005C080E003C0AA
:100BF00082E001C084E00F910895613298F4209161
:100C0000060E243089F46093BB0DFC018DEB9DE052
:100C1000DC012A2F281B261718F421912D93F9CFD8
:100C200080E0089581E0089582E0089585ED809345
:100C3000BC008091BC0084FDFCCF1092060E08958C
:100C400085EC8093BC001092060E08951F920F92BF
:100C50000FB60F9211240BB60F922F933F934F9321
:100C60005F936F937F938F939F93AF93BF93EF9314
:100C7000FF938091B900887F803609F49CC068F5A5
:100C8000883209F45BC090F4803109F454C038F420
:100C9000882309F4F5C0883009F44DC0F5C08831C7
:100CA00009F44CC0803209F45DC0EEC0803409F410
:100CB00068C048F4803309F455C0883309F0E4C0B3
:100CC0008093990DA8C0803509F44FC0883509F488
:100CD0005DC0883409F0D8C0D5C0883909F4C6C0D1
:100CE000A8F4883709F467C038F4883609F463C07B
:100CF000803709F460C0C8C0883809F4B7C08039AB
:100D000009F45FC0803809F0BFC05BC0803B09F4C4
:100D100085C038F4803A09F466C0883A09F47EC088
:100D2000B3C0803C09F4A6C0883C09F4A3C0883B4A
:100D300009F489C0A9C08091050E10C09091DE0D04
:100D40008091DD0D981770F5E091DE0D81E08E0F3A
:100D50008093DE0DF0E0E152F24F80818093BB0082
:100D600085EC85C08093990D8DC0E091DE0D81E00A
:100D70008E0F8093DE0D8091BB00F0E0E152F24FC8
:100D800080839091DE0D8091DD0D6DC0E091DE0DD0
:100D900081E08E0F8093DE0D8091BB00F0E0E15288
:100DA000F24F80838091040E81116CC081E08093AA
:100DB000030E84EA60C083E08093060E10929A0DC1
:100DC000CFCF80919A0D803208F050C0E0919A0DFB
:100DD00081E08E0F80939A0D8091BB00F0E0E55684
:100DE000F24F8083BDCF80919A0D803230F4E09134
:100DF0009A0DF0E0E556F24F10820E9416066091BF
:100E00009A0D70E0E091FF0DF091000E8BE99DE0EE
:100E1000199510929A0D0E94200636C084E08093A6
:100E2000060E1092BC0D1092BB0DE091010EF091D8
:100E3000020E19958091BB0D811105C081E0809350
:100E4000BB0D1092BD0DE091BC0D81E08E0F809323
:100E5000BC0DF0E0E354F24F80818093BB00909191
:100E6000BC0D8091BB0D981708F47ACF85E880936C
:100E7000BC000AC085EC8093BC001092060E04C032
:100E80001092990D0E941606FF91EF91BF91AF91BC
:100E90009F918F917F916F915F914F913F912F9192
:100EA0000F900BBE0F900FBE0F901F901895809162
:100EB000370E90E02091380E821B91090895209101
:100EC000380E8091370E281750F4E22FF0E0E75CDF
:100ED000F14F808190E02F5F2093380E08958FEFBF
:100EE0009FEF0895E091380E8091370EE81730F4A7
:100EF000F0E0E75CF14F808190E008958FEF9FEF85
:100F000008950895CF92DF92EF92FF920F931F936F
:100F1000CF93DF937C01CB018A012091130E222312
:100F200089F0EB016B01C40ED51ECC15DD0569F00F
:100F30006991D701ED91FC910190F081E02DC701FD
:100F40001995F3CF642F0E94FD05C801DF91CF9161
:100F50001F910F91FF90EF90DF90CF900895CF9366
:100F6000DF931F92CDB7DEB769832091130E222342
:100F7000D1F02091140E203240F021E030E0FC014D
:100F80003383228380E090E015C08091150EE82F16
:100F9000F0E0EA5EF14F998190838F5F8093150EA8
:100FA0008093140E05C061E0CE0101960E94FD05FC
:100FB00081E090E00F90DF91CF910895FC011382C2
:100FC000128248EE53E060E070E04483558366830C
:100FD000778389E392E09183808308951092380E9D
:100FE0001092370E1092150E1092140E0C944805A4
:100FF000862F413208F040E269E37EE00E946605F8
:101000001092380E8093370E089521E00C94F80763
:1010100021E00C94F80781E08093130E6093360E64
:101020001092150E1092140E08950C940B080F9345
:10103000062F21E04091140E66E17EE08091360E8D
:101040000E94AA051092150E1092140E1092130E03
:101050000F91089561E00C94170887E09EE00C94CE
:10106000DE07CF93CFB7F8948091590E811127C036
:10107000EDEAF2E08491E7E6F2E09491E82FF0E007
:10108000EE0FFF1FEE50FD4FA591B4918C91892377
:1010900021F461E085E30E94622D61E085E30E9416
:1010A000292D8CB580618CBD8CB580648CBD61E0D0
:1010B00084E30E94292D61E083E30E94292D809121
:1010C000590E8F5F8093590ECFBFCF9108951F9215
:1010D0000F920FB60F9211240BB60F922F933F93DE
:1010E0004F935F936F937F938F939F93AF93BF9330
:1010F000EF93FF93E0915A0EF0915B0E1995FF91DB
:10110000EF91BF91AF919F918F917F916F915F917F
:101110004F913F912F910F900BBE0F900FBE0F90EC
:101120001F901895FF920F931F93CF93DF93FC01AD
:101130000081C181D281F8948981F02EF0948F21B1
:10114000898378941DE7115029F182E090E00E9494
:101150009F2B88818023B9F3F8948A818F218A8319
:101160008981802B8983789480EE91E00E949F2B67
:10117000F89489818F21898386E490E00E949F2BD7
:101180008881802311E009F010E078948AE991E0E9
:101190000E949F2B812FDF91CF911F910F91FF9084
:1011A00008951F93CF93DF93FC011081C181D281F9
:1011B000912F909560FF12C0F8948A8189238A83C9
:1011C0008981812B89838AE090E00E949F2B8A810C
:1011D000812B8A83789487E390E011C0F8948A8108
:1011E00089238A838981812B898381E490E00E940D
:1011F0009F2B8A81812B8A83789485E090E0DF9110
:10120000CF911F910C949F2B0F931F93CF93DF933C
:10121000FC011081C181D281F8948981812B89835D
:101220008A81012F009580238A8383E090E00E94C9
:101230009F2B8981802389838AE090E00E949F2BE5
:10124000C881789485E390E00E949F2B1C2381E065
:1012500009F480E0DF91CF911F910F910895CF9213
:10126000DF92EF92FF920F931F93CF93DF931F9222
:10127000CDB7DEB76C01E62E08E010E0FF24F39452
:1012800061E09F2D9E2109F460E0C60149830E9420
:10129000D108FF0C0150110949810115110581F791
:1012A000411115C0F894D6011196ED91FC91129759
:1012B00091818C918095892381831196ED91FC9188
:1012C000129792818C9180958923828378940F90D4
:1012D000DF91CF911F910F91FF90EF90DF90CF9012
:1012E0000895EF92FF920F931F93CF93DF938C019A
:1012F000C8E0D0E0F12CEE24E394C8010E94040978
:101300008111FE28EE0C2197C1F78F2DDF91CF912F
:101310001F910F91FF90EF900895CF92DF92FF926F
:101320000F931F93CF93DF931F92CDB7DEB78C013E
:10133000F62E40E065E579830E942F09CF2C798154
:10134000D72E88E0F82EF60161916F0140E0C801C8
:101350000E942F09FA94B9F70F90DF91CF911F9156
:101360000F91FF90DF90CF900895FC0113861586B2
:10137000148627E030E0DF01A20FB31F13961C9202
:101380002115310519F021503109F5CF08951F932A
:10139000CF93DF93EC01162F60E0812F0E94292D5F
:1013A000612F70E0FB01EE5CFD4FE491E883FB01EF
:1013B000E858FD4FE491F0E0EE0FFF1FE254FD4FBF
:1013C000859194919A838983CE01DF91CF911F916A
:1013D0000C94B509AF92BF92CF92DF92EF92FF9239
:1013E0000F931F93CF93DF931F92CDB7DEB75C01AE
:1013F000E62ED72EFC01858581115DC0C5010E94B6
:101400009208811105C0F5011386158614866EC0F9
:1014100040E060EFC5010E942F0901E0F12CC12CD2
:1014200011E0C5010E940409682FC50169830E946B
:1014300004096981613019F48130B9F433C02F2D6A
:1014400030E068131BC0F5018385181730F4E20FF4
:10145000F31F8381802349F402C0181731F060E044
:10146000193058F4F501148708C0F501EF0DF11D8E
:101470008381802B838361E009C0C12EF501E20FD7
:10148000F31F8381902F909589238383C5010E9448
:10149000D1081F5F000F11F4F39401E0F7E0FF158E
:1014A00008F0BFCF113438F0F501C386C11018C061
:1014B00081E0858715C0F50113861586148680E0C6
:1014C000EE2DFD2D20E030E0D501A20FB31F1396C5
:1014D0009C9191932F5F3F4F28303105A9F706C0AB
:1014E000F5018381882339F381E0EACF0F90DF9102
:1014F000CF911F910F91FF90EF90DF90CF90BF9011
:10150000AF9008958CE394E0089588E394E0089503
:1015100081E294E0089587E094E008958BEE93E0F3
:10152000089588EB93E008958C5A974FFC01108240
:10153000089585E492E00895DC01ED91FC9101901D
:10154000F081E02D19948EBD00000DB407FEFDCF93
:101550008EB50895CF93DF93EC0161E00E94C0182F
:1015600080EA93E099838883CE5AD74F18821982F4
:10157000DF91CF91089520EA33E0FC01318320838D
:101580000C9430191F93CF93DF931F921F92CDB706
:10159000DEB7162F60E0812F2A8349830E94622DD7
:1015A0004981842F0E94A30A2A81822F0E94A30AC4
:1015B00061E0812F0F900F90DF91CF911F910C94DC
:1015C000622D643040F4242F2095462F65E30E945D
:1015D000C20A80E0089585E00895AF92BF92CF924D
:1015E000DF92EF92FF920F931F93CF93DF931F929F
:1015F0001F92CDB7DEB78C01D12C7C018BEBE81AA2
:1016000087EFF80A5801E4E9AE1AE7EFBE0A2D2D7C
:1016100030E0F801EB5AF74F8081918168E270E089
:101620000E948B3726173707E0F588E0C82EC9825D
:10163000F7012081318180E090E040E0B801620F45
:10164000731FE42FF0E0DB01A80FB91FA259BF4FB1
:1016500041E050E0AC91AA2311F040E050E0082EA8
:1016600002C0440F551F0A94E2F74E0F5F1F019608
:101670008830910531F74A83285F3F4FF701318366
:101680002083F50160816D0D22E0AE014F5F5F4F59
:10169000C8010E941221C394FDE0CF12C8CFD39499
:1016A000B6CF0F900F90DF91CF911F910F91FF90C8
:1016B000EF90DF90CF90BF90AF900895EF92FF92A0
:1016C0000F931F93CF93DF938C017C018BE9E81A72
:1016D00087EFF80AC4E6D0E0F70141917F01BE012F
:1016E000C8010E94BB182196C33BD105A9F760E051
:1016F000C801DF91CF911F910F91FF90EF900C9453
:10170000810B7F928F929F92AF92BF92CF92DF9286
:10171000EF92FF920F931F93CF93DF93EC01762EFE
:101720007C012BE9E21A27EFF20A04E610E04701F8
:10173000E881F9810088F189E02DB801CE01199581
:10174000F70181937F010F5F1F4F033B110581F765
:10175000F401808191819E012959374F5901FE0181
:10176000E759F74F6F01285C3F4F7901892BE1F46E
:10177000F50180819181892BB9F4F60180819181F5
:10178000892B91F4399780819181A281B381F901EC
:1017900080839183A283B38381E090E0F6019183FB
:1017A0008083CE010E945E0BF40180819181892BA0
:1017B000B9F4F50180819181892B91F4F601808142
:1017C0009181019769F480E2FE01E459F74F80832B
:1017D00082E090E0F60191838083CE010E945E0B4F
:1017E000F40180819181892BE9F4F5018081918157
:1017F000892BC1F4F60180819181029799F480E0F0
:1018000090E0A0EAB0E4FE01ED55F74F80839183AC
:10181000A283B38383E090E0F60191838083CE01BD
:101820000E945E0BF401808191818E010955174F52
:10183000892BA1F4F50180819181892B79F4F6013E
:1018400080819181039751F4F801108284E090E047
:10185000F60191838083CE010E945E0BF4018081AA
:101860009181892B79F5F50180819181892B51F541
:10187000F60180819181049729F580E090E0A8EC41
:10188000B2E4FE01E855F74F80839183A283B383CE
:1018900080E090E4ACE9B6E4349680839183A2833F
:1018A000B38380E090E0A8E4B3E43496808391832E
:1018B000A283B38385E090E0F60191838083CE011B
:1018C0000E945E0BF40180819181892B69F4F501FE
:1018D00080819181892B41F4F60180819181059766
:1018E00019F4772009F4A8C0F40111821082F501DF
:1018F0001182108285E090E0F601918380838FEF62
:10190000FE01E559F74F80838CE73396808380E7AB
:101910003197808380E09CE7A2E9B8E43296808327
:101920009183A283B38380E092E2A1EAB8E4349683
:1019300080839183A283B38380E090E0AAE7B4E43C
:101940003C9680839183A283B38380E090E4ACE1F2
:10195000B6E4349680839183A283B38380E090E5DC
:10196000A3ECB7E4349680839183A283B38380E0B1
:1019700094E2A4E7B9E4349680839183A283B3838D
:10198000749710821182128213823496108211820F
:10199000128213824FEF56EE6BE57EE2749640831F
:1019A000518362837383349640835183628373834C
:1019B000349640835183628373833496408351838A
:1019C00062837383FB9780819181A281B381F70148
:1019D00080839183A283B38380E2FE01E459F74FB1
:1019E000808380E090E0A0EAB0E4F7968083918362
:1019F000A283B383F801108280E090E0A8ECB2E407
:101A0000FE01E855F74F80839183A283B38380E082
:101A100090E4ACE9B6E4349680839183A283B383E7
:101A200080E090E0A8E4B3E4349680839183A283BD
:101A3000B383CE010E945E0BF701C080D180E280AB
:101A4000F38020E030E0A901C701B6010E94F13324
:101A5000FE01EC59F74F18161CF081E0808309C095
:101A6000DE01A05AB74FCD92DD92ED92FC92139712
:101A70001082F8018081882311F042E001C041E02A
:101A800060E0CE01DF91CF911F910F91FF90EF9019
:101A9000DF90CF90BF90AF909F908F907F900C94ED
:101AA000AB218F929F92AF92BF92CF92DF92EF9233
:101AB000FF92CF93DF93EC016A017B01FC01E05AB6
:101AC000F74F80809180A280B38020E030E0A901B0
:101AD000C701B6010E94F13387FD45C0FE01E05504
:101AE000F74F2081318142815381C701B6010E94A5
:101AF00080351816C4F1A5019401C701B6010E94F2
:101B0000F5339B01AC010E947A3323EF34E045EBBF
:101B10005FE30E94C93520E030E040E85EE30E94C8
:101B2000C93520E030E04FE753E40E94C9354B014E
:101B30005C0120E030E04FE753E40E948035181646
:101B400094F0FE01E85AF74FC082D182E282F3821C
:101B5000C501B4010E946234462F63E0CE010E94A9
:101B6000E10A80E001C088E0DF91CF91FF90EF9023
:101B7000DF90CF90BF90AF909F908F900895FC0121
:101B8000E05AF74F408351836283738338974081D3
:101B900051816281738120E00C94510D5F926F92AC
:101BA0007F928F929F92AF92BF92CF92DF92EF92ED
:101BB000FF920F931F93CF93DF931F921F92CDB786
:101BC000DEB76C01CB01542E68E270E00E948B37C7
:101BD0007B014C015C0123E0B694A7942A95E1F7C0
:101BE0003B01772486010459174FF8018081B30126
:101BF000680F711D87E09EE00E941508B501685FBF
:101C00007F4F87E09EE00E949C0A87E09EE00E9452
:101C10002A08F8018081B301680F711D41E050E08E
:101C200087E09EE00E94080887E09EE00E94570738
:101C3000892B41F1F82DF7708F2E88E08A0D89836A
:101C400087E09EE00E945F0741E050E060E070E0C6
:101C500004C0440F551F661F771F8A94D2F7511096
:101C600002C0482B02C0409548234A83F801608196
:101C70006E0D22E0AE014F5F5F4FC6010E94122140
:101C800080E001C081E00F900F90DF91CF911F9114
:101C90000F91FF90EF90DF90CF90BF90AF909F900B
:101CA0008F907F906F905F9008958F929F92AF92E8
:101CB000BF92CF92DF92EF92FF920F931F93CF9339
:101CC000DF93CDB7DEB762970FB6F894DEBF0FBED5
:101CD000CDBF8C010E942B1861E085E30E94292D65
:101CE00061E089E00E94292D60E089E00E94622D78
:101CF000F801E05AF74F80E090E0A6E9B3E4808372
:101D00009183A283B38360E0C8010E94810B4801E4
:101D100085E9881A87EF980AD4014C9160E0C801E0
:101D20000E94E10A6801B2E9CB1AB7EFDB0AF601BB
:101D3000408161E0C8010E94E10A5801F3E9AF1A4D
:101D4000F7EFBF0AD5014C9162E0C8010E94E10A99
:101D500040E063E0C8010E94E10AD801ED91FC91E6
:101D60000680F781E02DC8011995BC0184EA9EE048
:101D70000E942E306BE472E084EA9EE00E942E30D6
:101D8000D801ED91FC910484F585E02DC8011995E9
:101D9000BC0184EA9EE00E943B306EE472E084EA7B
:101DA0009EE00E942E30D801ED91FC910284F385D3
:101DB000E02DC8011995BC0184EA9EE00E943B30E9
:101DC00061E672E084EA9EE00E942E307801BBE971
:101DD000EB1AB7EFFB0AF701608171814AE050E02E
:101DE00084EA9EE00E943B316AE973E084EA9EE067
:101DF0000E942E30F801E959F74F608171814AE065
:101E000050E084EA9EE00E943B316AE973E084EA94
:101E10009EE00E942E30F801E759F74F60817181F2
:101E20004AE050E084EA9EE00E94413168E772E0B7
:101E300084EA9EE00E942E304AE050E0D4016C918A
:101E400084EA9EE00E9424316EE772E084EA9EE01C
:101E50000E942E304AE050E0F501608184EA9EE065
:101E60000E9424316EE872E084EA9EE00E942E30E7
:101E70004AE050E0D6016C9184EA9EE00E94243151
:101E8000B12CA12CF1E0BF1202C084E001C082E0BD
:101E9000A81608F0B9C04AE06A2DCE0101960E944A
:101EA000F2324AE06B2DCE010D960E94F23264E9C7
:101EB00072E0CE0107960E94C432BE01635F7F4F7D
:101EC000CE0107960E944B3366E972E00E945E33B2
:101ED000BE016F5F7F4F0E944B336AEA72E00E943F
:101EE0005E33BC0184EA9EE00E942030CE0107965A
:101EF0000E945632CE010D960E945632CE010196B6
:101F00000E945632CA2CD12CB1E0F601EE0FFF1F11
:101F1000EE0FFF1FEE0DFF1DBB1629F04285538506
:101F20006485758504C0428D538D648D758D22E066
:101F300030E084EA9EE00E9444324AE06A2DCE01FD
:101F400001960E94F2324AE06B2DCE010D960E945E
:101F5000F23264E972E0CE0107960E94C432BE01FB
:101F6000635F7F4FCE0107960E944B336DEA72E0AC
:101F70000E945E33BE016F5F7F4F0E944B336AEA5F
:101F800072E00E945E33BC0184EA9EE00E94203031
:101F9000CE0107960E945632CE010D960E9456320F
:101FA000CE0101960E945632E1E0BE1661F0F601C4
:101FB000EE0FFF1FEE0FFF1FEE0DFF1D62897389ED
:101FC000848995890BC0F601EE0FFF1FEE0FFF1FEE
:101FD000EE0DFF1D62A573A584A595A525EA34ED38
:101FE00048E653E50E94C935AB01BC0122E030E070
:101FF00084EA9EE00E94423262EC72E084EA9EE053
:102000000E943B30A3943ECFB39482E0B81239CF04
:1020100066EC72E084EA9EE00E942E30F801E459FA
:10202000F74F4AE050E0608184EA9EE00E9424314C
:102030006BE173E084EA9EE00E942E30F801E156E5
:10204000F74F408151816281738122E030E084EA60
:102050009EE00E94443263EE72E084EA9EE00E94B9
:102060002E30F801ED55F74F408151816281738127
:1020700022E030E084EA9EE00E94443266EF72E0A3
:1020800084EA9EE00E942E30F801E955F74F608106
:1020900070E04AE050E084EA9EE00E94F8306FE091
:1020A00073E084EA9EE00E942E30F801EC59F74F6D
:1020B000608170E04AE050E084EA9EE00E94F830DF
:1020C0006BE273E084EA9EE00E942E30F801E8554E
:1020D000F74F408151816281738122E030E084EAD0
:1020E0009EE00E94443263E473E084EA9EE00E9432
:1020F0002E30F801E455F74F4081518162817381A0
:1021000022E030E084EA9EE00E9444326BE573E016
:1021100084EA9EE00E942E30F801E055F74F40819E
:1021200051816281738122E030E084EA9EE00E9466
:10213000443262960FB6F894DEBF0FBECDBFDF917A
:10214000CF911F910F91FF90EF90DF90CF90BF90B4
:10215000AF909F908F9008958F929F92AF92BF9271
:10216000CF92DF92EF92FF921F93CF93DF93EC0118
:102170006A017B01FC01E855F74F24EA30E74DE79F
:102180005FE360817181828193810E94C9359B01E7
:10219000AC01C701B6010E94803587FDAFC02EEAB1
:1021A00037E441E85FE3FE01E455F74F6081718158
:1021B000828193810E94C9359B01AC01C701B601A0
:1021C0000E94F13318160CF499C020E030E048E486
:1021D00052E4C701B6010E94C9354B015C0120E001
:1021E00030E04AE754E40E94F13387FD87C020E2E3
:1021F00033EB41E85CE4C501B4010E948035181658
:102200000CF47CC020E030EE41E854E4C501B40198
:102210000E94F5330E94893526EA3BE944E550E403
:102220000E94C9352EE83DE543E150E40E94F533B4
:102230000E946234162F70E0665F7F4F882777FD1B
:102240008095982F0E9490349B01AC0160E070E073
:1022500080E090E40E942C3620E030EE41E055E42E
:102260000E94C935A50194010E94F5339B01AC0180
:1022700060E070E080E095E40E9479334B015C01FE
:1022800020E030E0A9010E94803520E030E040E00D
:102290005FE387FD05C0C501B4010E947A3304C025
:1022A000C501B4010E9479330E945D345B01CB010A
:1022B00066E0969587956A95E1F71295107F182B41
:1022C00067E187E09EE00E940B08612F87E09EE0B7
:1022D0000E94AF076A2D660F660F626087E09EE07E
:1022E0000E94AF0787E09EE00E942A08C45AD74F99
:1022F000C882D982EA82FB8280E001C088E0DF9157
:10230000CF911F91FF90EF90DF90CF90BF90AF9053
:102310009F908F9008954F925F926F927F928F92CD
:102320009F92AF92BF92CF92DF92EF92FF920F9364
:102330001F93CF93DF931F921F92CDB7DEB78C010F
:10234000FC01EC5AF74F81E0808348018BEA881A40
:1023500087EF980AF40111821082E8E2AE2EB12CC8
:10236000E12CF12CF8E16F2E77247A946801F4E9DE
:10237000CF1AF7EFDF0A4E2C69827A82F60160816C
:102380006E0D22E0AE014F5F5F4FC8010E94122127
:10239000F60160816E0D21E0AE014F5F5F4FC80115
:1023A0000E94CF1B89818F3F09F04BC078E1572EE7
:1023B00059821A82F6016081640D22E0AE014F5FFE
:1023C0005F4FC8010E941221F6016081640D21E077
:1023D000AE014F5F5F4FC8010E94CF1B8981811101
:1023E00030C080EF850D89837A82F6016081640DAB
:1023F00022E0AE014F5F5F4FC8010E94122153944B
:10240000FDE15F12D5CF66E873E084EA9EE00E94AA
:102410002E304AE050E0B70184EA9EE00E94F0309E
:1024200060E973E084EA9EE00E943B30F401208181
:102430003181C50188972817390719F4F401B18251
:10244000A082FFEFEF1AFF0A88E2A80EB11CE8E0B5
:10245000EE16F10409F08FCFF401608171814AE03A
:1024600050E084EA9EE00E943B3161E773E084EA39
:102470009EE00E943B3040E050E46CE176E4C8010D
:102480000E94AC100F900F90DF91CF911F910F9190
:10249000FF90EF90DF90CF90BF90AF909F908F9084
:1024A0007F906F905F904F9008952F923F924F9240
:1024B0005F926F927F928F929F92AF92BF92CF92D4
:1024C000DF92EF92FF920F931F93CF93DF93CDB7DD
:1024D000DEB764970FB6F894DEBF0FBECDBF1C0108
:1024E000B62E8C010D5A174F81E0D8018C93F10163
:1024F000EC5AF74F8081811103C0C1010E948B11FA
:10250000F101E459FF4F2F01FFEABF1609F44EC253
:10251000FB15D8F126EAB21609F4ACC12B15D0F0A0
:1025200032EAB31609F4F9C03B1548F040EAB41694
:1025300009F466C051EAB51609F479C052C5F10133
:10254000E05CF74F84EAB81609F461C18B1508F016
:1025500067C085C199EAB91609F4D6C19B1548F040
:10256000A7EABA1609F4A1C1B8EABB1609F4ADC1CD
:1025700038C5EDEABE1609F4F5C1EB1508F42EC214
:10258000FAEABF1609F4D0C12CC526EBB21609F43D
:102590009DC32B15D0F032EBB31609F4DEC23B1508
:1025A00048F040EBB41609F453C251EBB51609F4E8
:1025B0009EC217C5F101E05CF74F84EBB81609F431
:1025C0002FC38B1508F01FC368C39AEBB91609F423
:1025D000AAC49B1548F0A8EBBA1609F4CEC4B9EB0F
:1025E000BB1609F4E0C4FDC4E4EFBE1609F49BC3B6
:1025F000F5EFBF1609F477C42BEBB212F2C49FC4F7
:10260000F101E05CF74F80819181892B71F442E008
:1026100050E0B1016B5A774FC1010E943619DFC4F7
:1026200080819181029709F488C086E033C3F1016B
:10263000E05CF74F80819181892BB9F7D2011C9220
:10264000A12C91012B5A374F3A872987610134E930
:10265000C31A37EFD30AEA2CF12CA985BA858D91DC
:102660009C9168E270E00E948B37E616F70608F04E
:10267000B8C408E010E0D6018C91B701680F711D55
:1026800087E09EE00E941508B80187E09EE00E9466
:102690009C0A87E09EE00E942A08F6018081B7012B
:1026A000680F711D41E050E087E09EE00E9408083D
:1026B00087E09EE00E945707892B51F187E09EE05A
:1026C0000E945F074C01612C712C9924C401062CD7
:1026D00002C0959587950A94E2F781709927F1E0F9
:1026E0008F27898341E050E0BE016F5F7F4FC101BA
:1026F0000E9436192FEF621A720A38E063167104CD
:1027000029F70F5F1F4F0D30110509F0B4CF03C03B
:10271000E1E0D201EC93A3949ECFF101E05CF74F8E
:10272000208131817596808191812817390709F0C0
:102730007CCFC1010E94ED0A1DC4D101AB5BB74F34
:102740002D913C911197F901E259FF4FE20DF31DD4
:10275000808191812E5F3F4F2D933C93F101EB5A85
:10276000F74F208131818217930708F04AC268E24F
:1027700070E00E948B378C016B01DD247101B4E99C
:10278000EB1AB7EFFB0AF7018081B601680F711DE4
:1027900087E09EE00E941508B80113E076956795E2
:1027A0001A95E1F7685F7F4F87E09EE00E949C0AE0
:1027B00087E09EE00E942A08D7018C91B601680F3D
:1027C000711D41E050E087E09EE00E94080887E02C
:1027D0009EE00E945707892B09F483C387E09EE09F
:1027E0000E945F079927077002C0959587950A9503
:1027F000E2F781709927B1E08B27898341E050E0AF
:10280000BE016F5F7F4FC1010E943619B3C3808143
:102810009181039709F009CFD101AB5BB74F8D913F
:102820009C911197FC01E259FF4FE20DF31D60816D
:102830007181F101E80FF91FE059FF4F40810396C4
:102840008D939C93F101EB5AF74F8081918168172A
:10285000790708F0D6C1C1010E94CE0D1BC280814C
:102860009181892B09F0E1CEF201108289E00E946A
:10287000982D8FC3F101E05CF74F80819181019722
:1028800009F0D3CE359680819181D101A80FB91F6F
:10289000A259BF4F6C91019691838083623008F0FA
:1028A000F8C189E00E94622D9AC3F101E05CF74F04
:1028B00080819181892B09F0B8CED2011C9244E02D
:1028C00050E0B101685A774F6AC3F101E05CF74FFD
:1028D00080819181049709F0A8CED101AB5BB74FFD
:1028E0008D919C911197FC01E259FF4FE20DF31D70
:1028F000408151816281738104968D939C9321E084
:10290000C1010E94510DC6C1F101E05CF74F808109
:102910009181892B09F089CED2011C9244E050E0CC
:10292000B101645A774F3BC3F101E05CF74F8081FE
:102930009181049709F079CED101AB5BB74F8D91AE
:102940009C911197FC01E259FF4FE20DF31D40816C
:1029500051816281738104968D939C93C1010E9481
:10296000AC1098C1F101E05CF74F80819181019733
:1029700009F05BCED101AB5BB74F8D919C91119764
:10298000F101E80FF91FE259FF4FE08101968D93A5
:102990009C93E23008F52BE1E29FF0011124E15A0B
:1029A000F14F81818983D2011C92F4C2F101E05C74
:1029B000F74F80819181019709F037CE359680815C
:1029C0009181D101A80FB91FA259BF4F2C91019637
:1029D000918380832230E8F085E05CC1F101E05C06
:1029E000F74F80819181029709F01FCE35962081A3
:1029F0003181A101420F531FDA01A259BF4F8C91BF
:102A000011966C912E5F3F4F318320830E94672186
:102A100007C3F20110823BE1239FF0011124E15A28
:102A2000F14FE181C1018B59974FF0E0EE0FFF1F8D
:102A3000EE0FFF1FE80FF91F213029F082859385E3
:102A4000A485B58547C2828D938DA48DB58D42C274
:102A5000F101E05CF74F80819181059709F0E5CDA8
:102A6000359620813181D101A20FB31FA259BF4FEA
:102A70008C91B9016F5F7F4F71836083D2011C928B
:102A80008823E1F0813009F0BCC040917B0EDB016E
:102A9000A259BF4FA20DB31D8D919D910D90BC9178
:102AA000A02D2B5F3F4F31832083F10134E0439F02
:102AB000E00DF11D1124E158F74F9BC04091600ECD
:102AC000D901A159BF4FA20DB31D8D919D910D90BC
:102AD000BC91A02D2B5F3F4F31832083F10124E077
:102AE000429FE00DF11D1124E159F74F82C0F10121
:102AF000E05CF74F80819181019709F096CD359682
:102B000080819181D101A80FB91FA259BF4F2C918B
:102B1000019691838083223008F05ECFF20110820B
:102B20003BE1239FF0011124E15AF14FE181C10102
:102B30008B59974FF0E0EE0FFF1FEE0FFF1FE80FCE
:102B4000F91F213029F082899389A489B589C2C1EE
:102B500082A593A5A4A5B5A5BDC1F101E05CF74F81
:102B600080819181059709F060CD35962081318172
:102B7000D101A20FB31FA259BF4F4C91C9010196B9
:102B800091838083D2011C924423D9F04130C9F54E
:102B900040917B0ED901A159BF4FA20DB31D8D915C
:102BA0009D910D90BC91A02D2B5F3F4F31832083D1
:102BB000F10134E0439FE00DF11D1124E157F74F7F
:102BC00018C04091600ED901A159BF4FA20DB31D8D
:102BD0008D919D910D90BC91A02D2B5F3F4F318326
:102BE0002083F10124E0429FE00DF11D1124E958FA
:102BF000F74F80839183A283B383C1010E945E0B50
:102C0000F0C185E00DC280819181892B09F00DCD45
:102C1000F201108244E050E0B101605A774FBFC129
:102C200080819181049709F000CDD101AB5BB74F52
:102C30008D919C911197FC01E259FF4FE20DF31D1C
:102C4000C080D180E280F38004968D939C9320E035
:102C500030E0A901C701B6010E9480351816CCF4F6
:102C6000F101EC59F74F8081882331F03497C0820D
:102C7000D182E282F382B3C1D101A156B74FCD9286
:102C8000DD92ED92FC9213971082C1010E945E0BBF
:102C9000A6C188E0F2018083A4C180819181892B43
:102CA00009F0C3CCD2011C9211E020E030E0A90170
:102CB000F101E156F74F60817181828193810E9419
:102CC000F13318160CF410E0198364C1F101E05CD3
:102CD000F74F80819181019709F0A7CC35968081CB
:102CE0009181D101A80FB91FA259BF4F2C91019614
:102CF00091838083E65AFF4F222329F010821182AC
:102D0000128213820CC0D101A05AB74F8D919D91B0
:102D10000D90BC91A02D80839183A283B383C101C8
:102D20000E945E0B27C1F101E05CF74F0081118129
:102D30000A30110508F479CC359680819181DC0147
:102D4000A259BF4FA20DB31D2D913D914D915C91A4
:102D500029873A874B875C879C012C5F3F4F3183E3
:102D60002083DC01AE58BF4FA20DB31D6D907C9047
:102D7000DC01AC58BF4FA20DB31D2D913D914D917B
:102D80005C91298B3A8B4B8B5C8BD101A80FB91FBF
:102D9000A858BF4FFC900B96918380830B30110590
:102DA00049F07096808191810B960817190711F0F0
:102DB00086E036C1BBE46B16B1E07B0608F091C03B
:102DC00020E030E04AE754E469857A858B859C856C
:102DD0000E94F53320E030E44CE157E40E94C9350D
:102DE00020E030E040E855E40E94F13387FF79C0ED
:102DF000D2011C92F101EB5AF74F808191810B9621
:102E00000817190719F4C1010E94ED0A0E94542BFA
:102E10006D877E878F87988B88248394F1FE812C21
:102E2000AA24A394F0FEA12CF101E45AF74FC0802C
:102E3000D180E280F38009891A892B893C89A3011A
:102E400069857A858B859C850E942726F20180837F
:102E50008111C7C00E94542B2D853E854F8558890E
:102E6000621B730B840B950B0E948E346B017C01EB
:102E7000B30180E090E00E948E3420E030E04AE729
:102E800054E40E94C9359B01AC01C701B6010E9400
:102E9000F5336D837E838F83988744E050E0BE01D5
:102EA0006B5F7F4FC1010E94361944E050E066E736
:102EB0007EE0C1010E94361944E050E061E97EE005
:102EC000C1010E943619F101E05AF74F80819181CA
:102ED000A281B38189839A83AB83BC8344E050E0B1
:102EE0005BC081E09DC0F101E05CF74F8081918182
:102EF000019709F09ACBF2011082F101EB5BF74FD9
:102F000080819181D101A80FB91FA259BF4F2C9187
:102F100001969183808361E0211101C060E0C101CD
:102F20000E94810B5EC0F101E05CF74F80819181CE
:102F3000892B09F07ACBD2011C92729629C0F1013B
:102F4000E05CF74F80819181019709F06ECB359657
:102F500080819181D101A80FB91FA259BF4F2C9137
:102F60000196918380833D96222319F081E080832E
:102F700001C01082F201108234C0F101E05CF74F11
:102F800080819181892B09F050CBD2011C92F801EC
:102F90008081898341E050E0BE016F5F7F4FC101B6
:102FA0000E9436191EC0F101E05CF74F80819181CB
:102FB000019709F03ACB359680819181D101A80F14
:102FC000B91FA259BF4F2C91019691838083222370
:102FD00021F081E0D8018C9302C0F8011082D20167
:102FE0001C926B2DC1010E94F61BF2018081649638
:102FF0000FB6F894DEBF0FBECDBFDF91CF911F910A
:103000000F91FF90EF90DF90CF90BF90AF909F9087
:103010008F907F906F905F904F903F902F9008958A
:10302000D2018C93DECF8627682F62956827062E03
:10303000669566956025062E669560256770082E54
:10304000892F669507946795902D86270694679536
:10305000902586270895CF92DF92EF92FF920F93EB
:103060001F93CF93DF9300D01F92CDB7DEB78C01B3
:10307000CE0101966C019FE0E92EF12CD801ED9173
:10308000FC910088F189E02DB701C8011995F6017E
:1030900081936F01FFEFEF1AFF0A23E1E216F104BB
:1030A00069F789819A81AB81BC818F3F9F4FAF4F78
:1030B000BF4FE1F149815A816B817C8126E084EA2E
:1030C0009EE00E94D32E87E09EE00E94EE070E94C1
:1030D00031080E94D10408591F4FD8016D937D9388
:1030E0008D939C93139761E574E084EA9EE00E94BF
:1030F0002E30F801408151816281738122E030E0FD
:1031000084EA9EE00E94423263E674E084EA9EE034
:103110000F900F900F900F90DF91CF911F910F9113
:10312000FF90EF90DF90CF900C943B3080E092ECDA
:10313000A1E0B0E089839A83AB83BC83CE01019682
:103140006C018FE0E82EF12CD6014D916D01D80174
:10315000ED91FC910288F389E02DB701C801199522
:10316000BFEFEB1AFB0AE3E1EE16F10469F7A2CF19
:10317000CB010C942E3ACB01642F0C94363A08956F
:103180008F929F92AF92BF92CF92DF92EF92FF9277
:103190000F931F93CF93DF9325E834E0FC01318335
:1031A0002083E45BF74F6083399711821082369653
:1031B00010823997118210823596118210823296D0
:1031C000118210823A961082E12CF12C00E010E07E
:1031D000C8010E942E3AA82EC80107960E942E3AD6
:1031E0008E2CC0E0D0E0B12CA094B094C82ED12C8D
:1031F000C094D094CE018E0D9F1DC697C4F4B50126
:103200000C2E02C0759567950A94E2F761709C2EAA
:10321000980C892D0E94292DB6010C2E02C075959F
:1032200067950A94E2F76170892D0E94622D2196BC
:10323000C830D105F9F60F5F1F4FE8E0EE0EF11C24
:103240000730110529F6DF91CF911F910F91FF9063
:10325000EF90DF90CF90BF90AF909F908F900895A8
:1032600025E834E0FC013183208308951F93CF9338
:10327000DF93FB0120E030E0DC01A95BB74F2417AE
:10328000350781F01191BC01620F731FCD91DC9164
:1032900011976C0F7D1FEB01C259DF4F18832F5F11
:1032A0003F4FEDCF8D919C911197820F931F8D937E
:1032B0009C93DF91CF911F910895CF93DF93FC01F1
:1032C000E359FF4F6081DC01A459BF4F67FF0EC077
:1032D00020E8260F208322E02C93DC01ED91FC9165
:1032E0000488F589E02DDF91CF911994FC01E05C11
:1032F000F74F2081318121503109820F931FEC015A
:10330000C259DF4F88818C9331832083DF91CF9125
:1033100008956F927F928F929F92AF92BF92CF92B9
:10332000DF92EF92FF920F931F93CF93DF93EC0105
:103330009C01275B374F59016D3721F481E0F9017A
:103340008083AEC0F90180819E012D5B374F7901EA
:10335000882309F49EC080E26827F701808191816B
:103360009E01245B374F4901FE01EE5BF74F6F0171
:103370008E01005C174F009759F4E55DF7406083BC
:10338000F90180818823A9F18FEF9FEF33961EC04A
:103390008130910581F467FF08C083E08083862F28
:1033A0008F77F8011082818324C082E08083862F8A
:1033B00090E0F8010BC08230910559F42081233050
:1033C00041F4F80180819181860F911D9183808362
:1033D00010C0F6012081821B9109F8012081318102
:1033E0008217930730F48C0F9D1FFC01E259FF4FA9
:1033F0006083F4018081882369F03E01F1EB6F1A4C
:10340000F7EF7F0AF301808191810E941318F30185
:1034100091838083F701208131812F5F3F4F31837A
:103420002083F4014081F6015081F801808191816F
:10343000850F911D840F911D840F911D2817390749
:1034400011F5F70111821082FE01EB5BF74F11823B
:103450001082329611821082442329F0389680819E
:103460009181892B19F4CE010E945D19FE01E55B63
:10347000F74F8081882339F0C359DF4F80589881F6
:10348000981301C01082F5018081882349F01082D1
:1034900007C06E3709F061CFF70111821082F3CFB8
:1034A000DF91CF911F910F91FF90EF90DF90CF9020
:1034B000BF90AF909F908F907F906F900895FF92F4
:1034C0000F931F93CF93DF931F92CDB7DEB78C017D
:1034D000F62E88E0898369816837E8F587E09EE009
:1034E0000E940B0887E09EE00E942A08811130C0EC
:1034F000FF2041F041E050E0BE016F5F7F4FC80107
:103500000E94361966E674E084EA9EE00E942E303E
:103510004AE050E0698184EA9EE00E941D316AE73A
:1035200074E084EA9EE00E942E3040E150E0698120
:1035300084EA9EE00E941D316FE774E084EA9EE019
:103540000E943B3061E070E080E090E00E94772BC9
:1035500089818F5FBFCF0F90DF91CF911F910F9126
:10356000FF900895CF93C62F83E8860F823090F4A2
:103570006DE784EA9EE00E946E2EE091A40EF09129
:10358000A50E60E26C270190F081E02D84EA9EE0B8
:10359000CF91199484EA9EE0CF910C946E2E8F9275
:1035A0009F92AF92BF92CF92DF92EF92FF920F93D2
:1035B0001F93CF93DF93EC018C017C0120ECE21A86
:1035C00027EFF20A845B974F6C015E0193EBA91A17
:1035D00097EFB90AF7018081918198012C1B3D0B6F
:1035E000F60128173907C8F48081980122593F4F06
:1035F0004901882351F0F9016081F50180819181B1
:103600000E941318F50191838083F4016081CE013B
:103610000E94B21A0F5F1F4FDDCF8081882369F0AF
:103620008E01035B174FF8016081CE010E94B21A30
:10363000F8016181CE010E94B21AF7011182108255
:10364000C95BD74F19821882DF91CF911F910F91DB
:10365000FF90EF90DF90CF90BF90AF909F908F90B2
:103660000895BF92CF92DF92EF92FF920F931F9334
:10367000CF93DF93EC01B62E8C01005C174FFC0159
:10368000E95BF74F80819181F801918380836EE738
:1036900084EA9EE00E946E2E7E01F4EBEF1AF7EFB3
:1036A000FF0AF7018081882381F08FEF9FEF6E0181
:1036B000F3EBCF1AF7EFDF0AF601918380836B2DCE
:1036C0000E941318F601918380836B2DCE010E9416
:1036D000B21AF80160817181F7018081603871054B
:1036E00080F4882371F17E01F3EBEF1AF7EFFF0A04
:1036F000F701808191810E941318F70191838083E3
:1037000020C08823B1F07068672F7E01F3EBEF1AB9
:10371000F7EFFF0AF701808191810E941318F701EA
:1037200091838083F80160810E941318F7019183CF
:103730008083F801808191819068692FCE010E9479
:10374000B21AF8016081CE01DF91CF911F910F91E4
:10375000FF90EF90DF90CF90BF900C94B21A0F9330
:103760001F93CF93DF931F92CDB7DEB78C01698390
:1037700041E050E0BE016F5F7F4F0E943619F801B3
:10378000E359FF4F6081C8010E94311BC8010E94AC
:10379000CF1A0F90DF91CF911F910F910895FF9253
:1037A0000F931F93CF93DF938A01422F87E09EE010
:1037B0000E940508C0E087E09EE00E945707892B21
:1037C00071F0FF24F394FC0EC8018C0F911DEC01E5
:1037D00087E09EE00E945F078883CF2DECCF8C2F7F
:1037E000DF91CF911F910F91FF9008956F927F927B
:1037F0008F929F92AF92BF92CF92DF92EF92FF9201
:103800000F931F93CF93DF93CDB7DEB769970FB6B2
:10381000F894DEBF0FBECDBF8C018DB69EB6862F4D
:1038200090E0FC01E058F109EF31F10508F0D5C452
:10383000EE58FF4F9801205C374F79010C94C13747
:10384000D9018D919C91892BF1F4D801ED91FC91D6
:103850000280F381E02DC8011995FC010190002040
:10386000E9F7AF0141505109481B590BD801ED91BF
:10387000FC910280F381E02D62C0D9018D919C9171
:10388000019709F49FC386E0F801E459FF4F86C40D
:10389000F90180819181892BB1F7D801ED91FC91DB
:1038A0000480F581E02DC8011995FC0101900020EC
:1038B000E9F7AF0141505109481B590BD801ED916F
:1038C000FC910480F581E02D3AC0F901808191815D
:1038D000892BC9F6D801ED91FC910680F781E02D86
:1038E000C8011995FC0101900020E9F7AF01415092
:1038F0005109481B590BD801ED91FC910680F781C5
:10390000E02D1DC0F90180819181892B09F0BBCF89
:10391000D801ED91FC910084F185E02DC801199545
:10392000FC0101900020E9F7AF0141505109481B0B
:10393000590BD801ED91FC910084F185E02DC8016F
:10394000498F588F1995498D588DBC0134C4F901A0
:1039500080819181892B09F096CFD801ED91FC915E
:103960000284F385E02DC8011995FC010190002027
:10397000E9F7AF0141505109481B590BD801ED91AE
:10398000FC910284F385E02DDACFF90180819181E9
:10399000892B09F078CFD801ED91FC910484F5854D
:1039A000E02DC8011995FC0101900020E9F7AF0155
:1039B00041505109481B590BD801ED91FC910484E9
:1039C000F585E02DBCCFF90180819181892B09F02B
:1039D0005ACFD801ED91FC910684F785E02DC801FE
:1039E0001995FC0101900020E9F7AF014150510900
:1039F000481B590BD801ED91FC910684F785E02D09
:103A00009ECFF90180819181892B09F03CCF4AE05A
:103A100050E06BE974E0CFC3D9018D919C9102977E
:103A200009F031CFF801EB5BF74F20813181A8011C
:103A3000420F531FDA01A259BF4F8C9111966C911E
:103A40002E5F3F4F318320830E94292DC2C3F9018D
:103A500080819181029709F016CFF801EB5BF74F57
:103A600020813181A801420F531FDA01A259BF4FB3
:103A70008C9111966C912E5F3F4F318320830E9471
:103A8000622DA7C3D9018D919C91019709F0FBCEBE
:103A9000F801EB5BF74F20813181D801A20FB31FF2
:103AA000A259BF4F8C912F5F3F4F318320830E94DB
:103AB000982DF5C2F90180819181029709F0E3CE3A
:103AC000F801EB5BF74F20813181D801A20FB31FC2
:103AD000A259BF4F8C91A9014F5F5F4F5183408323
:103AE000D901A159BF4FA00FB11F6D917C912D5FDE
:103AF0003F4F318320830E940F2C6BC3C801845930
:103B00009F4F26E0DC012C93F70120813181223088
:103B1000310508F462C3ADB6BEB6F801EB5BF74FF2
:103B200040815181D801A40FB51FA259BF4F6C919C
:103B30004F5F5F4F51834083462F50E0ADB7BEB714
:103B4000A41BB50B0FB6F894BEBF0FBEADBF119648
:103B50006D012230310511F4613031F04D5F5F4F5E
:103B60002417350709F07BC07C2D3601262D271B35
:103B7000261788F420813181A801420F531F425932
:103B80005F4FDA014C912F5F3F4F31832083D30188
:103B90004D933D01EBCFD7012D913C912230310562
:103BA000B1F020813181D901A259BF4FA00FB11FBF
:103BB000ED90FC902E5F3F4F31832083B9EEEB16E2
:103BC000B3E0FB0638F029E0FC01208348C0EE2476
:103BD000E394F12CDC011C92F092920DE092910D95
:103BE000C80182599F4F9093960D8093950D80E068
:103BF000688F0E94CC02688D613029F4F6018081C3
:103C00000E945A0412C0D0928F0DC0928E0D609304
:103C10008C0D10928B0D8BE694E090938A0D80931F
:103C2000890DD6018C910E9440040E94D00380919E
:103C3000910D9091920D2091930D3091940D281734
:103C40003907C9F70E94EF03EE0CFF1CF801E95B8E
:103C5000F74F80819181E80EF91EF182E0820FB664
:103C6000F894BEBE0FBEADBEB8C2F901808191818D
:103C7000039709F008CED801AB5BB74F8D919C91AB
:103C80001197FC01E259FF4FE00FF11F6081718134
:103C9000F801E80FF91FE059FF4F408103968D931B
:103CA0009C93D801ED91FC910288F389E02DC80125
:103CB00019958FC2F90180819181029709F0E3CDB6
:103CC000D801AB5BB74F8D919C911197FC01E259E4
:103CD000FF4FE00FF11F6081718102968D939C93DD
:103CE000D801ED91FC910088F189E02DC80119956A
:103CF000D6C1F90180819181029709F0C4CDF80104
:103D0000EB5BF74F808191819801280F391FD90112
:103D1000A259BF4F6C911196EC90029691838083CB
:103D2000CE0101960E94C709CE0101960E94B509F5
:103D3000F12CBE01615F7F4FCE0101960E94EA091E
:103D4000F394EF14B0F7980124593F4F7901882379
:103D500009F422C248E050E0BE01615F7F4FC80114
:103D60000E94361916C2D9018D919C910B9709F0CA
:103D70008ACDD801AB5BB74F2D913C911197A8012B
:103D8000420F531FFA01E259FF4F60816901EFEFC3
:103D9000CE1ADE0A1196DC92CE923E01FFE06F0E43
:103DA000711C80E090E0B62CA72CC00ED11E7601CD
:103DB000E80EF91E7EE6E70EF11CF701F080F30134
:103DC000F1923F0101968830910589F7FA01E9588F
:103DD000FF4FF0803196E080255F3F4F2D933C935D
:103DE000CE0101960E94C709CE0101960E94920859
:103DF0006B2D7A2DCE0101960E948D0940E06F2D2A
:103E0000CE0101960E942F09F12CFE1409F4E1C1A4
:103E1000CE0101960E9471098F8B41E050E0BE01F6
:103E2000695E7F4FC8010E943619F394EECFD90125
:103E30008D919C910B9709F026CDD801AB5BB74FC4
:103E40002D913C911197A801420F531FFA01E2599D
:103E5000FF4F60816901EFEFCE1ADE0A1196DC9206
:103E6000CE923E01FFE06F0E711C80E090E0B62C18
:103E7000A72CC00ED11E7601E80EF91E7EE6E70ED5
:103E8000F11CF701F080F301F1923F0101968830B7
:103E9000910589F7FA01E958FF4FF080319640818A
:103EA000255F3F4F2D933C93CE010196498F0E9491
:103EB000C709CE0101960E9492086B2D7A2DCE0182
:103EC00001960E948D09498D6F2DCE0101960E94A9
:103ED0002F097FC1D9018D919C91029709F0D3CC14
:103EE000F801EB5BF74F808191819801280F391F12
:103EF000D901A259BF4F6C911196EC900296918313
:103F000080834E2D87E09EE00E940508F12C87E01B
:103F10009EE00E945707892B79F087E09EE00E947F
:103F20005F07898341E050E0BE016F5F7F4FC801AA
:103F30000E943619F394EBCFF801E459FF4FFE14B9
:103F400009F44AC181E02AC1F90180819181029777
:103F500008F499CC6801FBEBCF1AF7EFDF0AD60122
:103F60008D919C911197F801E80FF91FE259FF4FCD
:103F7000608101968D939C9387E09EE00E940B08E0
:103F8000B12C2B2D30E0F70180819181019728170A
:103F9000390798F4F60180819181F801E80FF91F43
:103FA000E259FF4F60810196D6018D939C9387E083
:103FB0009EE00E94AF07B394E4CF87E09EE00E94AA
:103FC0002A0807C1F801EB5BF74F80819181D80186
:103FD000A80FB91FA259BF4F2C91019691838083DE
:103FE0008CB5211102C0806201C08F7D8CBDF1C0F3
:103FF000F90180819181019709F045CCF801EB5BD3
:10400000F74F80819181D801A80FB91FA259BF4FE6
:104010002C910196918380839CB5822F83709C7F25
:10402000892B8CBD8DB522FB222720F98E7F822B18
:104030008DBD18C0D9018D919C91019709F023CCB9
:10404000F801EB5BF74F80819181D801A80FB91F70
:10405000A259BF4F2C910196918380838CB5837FA9
:10406000282B2CBDE95DF740B7C0F9018081918113
:10407000019709F008CCF801EB5BF74F8081918143
:10408000D801A80FB91FA259BF4F2C910196918357
:1040900080832EBD00000DB407FEFDCF8EB5898351
:1040A00041E050E0BE016F5F7F4F85C0D9018D9127
:1040B0009C91892B09F0E7CBF801EA59FF4F408129
:1040C0005181B8016E5F7F4F76C0F9018081918187
:1040D000892B09F0D8CB8091830D9091840DA0910C
:1040E000850DB091860D89839A83AB83BC8344E0B0
:1040F00050E0D8CFD9018D919C91049709F0C3CBA2
:10410000D801AB5BB74F2D913C911197F901E25962
:10411000FF4FE00FF11F60817181828193812C5FDD
:104120003F4F2D933C930E94E10253C0F9018081DF
:104130009181892B09F0A7CB0E94B3029A838983CE
:1041400042E050E0AFCFD9018D919C91029709F0E8
:104150009ACBD801AB5BB74F2D913C911197F901E8
:10416000E259FF4FE00FF11F808191812E5F3F4F99
:104170002D933C939C0122503109F801E459FF4FE3
:104180007F012630310540F40E94AA0280E00E949F
:104190007303D7011C9221C085E0F70180831DC005
:1041A000D9018D919C91892B09F06DCB44E050E0B1
:1041B000B80168597F4FC8010E9436190AC0F90139
:1041C00080819181892B09F05ECB61E0C8010E945A
:1041D0005F1AF801E459FF4F10827801FCE6EF0EF8
:1041E000F11CD7016C91C8010E94AF1BF7018081BF
:1041F0000FB6F8949EBE0FBE8DBE69960FB6F894AA
:10420000DEBF0FBECDBFDF91CF911F910F91FF9009
:10421000EF90DF90CF90BF90AF909F908F907F9066
:104220006F900895EF92FF920F931F93CF93DF93B8
:104230001F921F92CDB7DEB7122F87E09EE0498311
:104240005A830E940B084981042FE42E5A81F52ECF
:104250008E2D801B811740F4F70161917F0187E06B
:104260009EE00E94AF07F4CF87E09EE00F900F9092
:10427000DF91CF911F910F91FF90EF900C942A083E
:10428000CF93DF93EC0184EA9EE00E94C12D1816C3
:1042900019064CF484EA9EE00E94DA2D682FCE01C4
:1042A0000E948919F0CFDF91CF9108952091930D4D
:1042B0003091940D8091910D9091920D28173907AE
:1042C00021F40E94EF0381E0089580E00895CF93E8
:1042D000DF93D82FC62F811109C0662321F06130EA
:1042E000B1F560E001C061E08DE01DC0813079F57D
:1042F000613049F030F0623061F0633041F560E0E8
:104300001DC061E01BC060E08CE00E94622D61E096
:1043100019C060E08CE00E94622D60E08BE00E949A
:10432000622D61E08AE00E94622D8BE1D89FF0014E
:104330001124E15AF14FC18380E00AC08CE00E9451
:10434000622D60E08BE00E94622D60E0EBCF85E0A3
:10435000DF91CF9108959093980E8093970E60937C
:104360005F0E40937A0E60E078EB88E097E40E945D
:10437000E10280E00E940C2C61E08DE00E94292D7A
:1043800061E08CE00E94292D61E08BE00E94292DE4
:1043900061E08AE00E94292D83E00E94AA026091D8
:1043A000600E80E00E94672160917B0E81E00E9498
:1043B000672120E032E03093750E2093740E80E088
:1043C00090E0A0E0B4E48093760E9093770EA093F3
:1043D000780EB093790E41E040936F0E3093900EBB
:1043E00020938F0E8093910E9093920EA093930E34
:1043F000B093940E40938A0E08950F931F93CF931A
:10440000DF93AB019BE1899FE0011124C15AD14F99
:104410009B01235331092A393340B0F09B8191111C
:1044200010C09A819F5F9A836981662321F0615051
:104430000E94672103C081E08093950E83E08B8307
:1044400037C091509B8334C08091960E882309F128
:104450008D899E89DB01A81BB90B9D010E94C7377E
:1044600009891A892B893C89060F171F281F391FB4
:10447000098B1A8B2B8B3C8B88859985AA85BB85EC
:10448000840F951FA11DB11D88879987AA87BB87B7
:104490000FC08C819D818617970718F47D836C83EC
:1044A00007C08E819F816817790710F47F836E8320
:1044B000DF91CF911F910F91089580E00C94FD2121
:1044C00081E00C94FD212F923F924F925F926F9268
:1044D0007F928F929F92AF92BF92CF92DF92EF9294
:1044E000FF920F931F93CF93DF93CDB7DEB76497FF
:1044F0000FB6F894DEBF0FBECDBF29013A01E986A1
:10450000FA860B871C871601BA8AA98A0E94C935C8
:1045100020E030E04AE754E40E94F5339B01AC010F
:104520000E947A336B017C0120E030E0A9010E94F7
:10453000803520E030E040E05FE387FD05C0C70143
:10454000B6010E947A3304C0C701B6010E947933D4
:104550000E945D340E94903420E030E040E05FE350
:104560000E94C9356D837E838F839887A301920152
:104570006D817E818F8198850E94F53329853A85EA
:104580004B855C850E94C9350E94DE330E946234EF
:104590008B010230110508F42DC3B80180E090E0D2
:1045A0000E948E342D813E814F8158850E94F533C3
:1045B000A30192010E94C93569837A838B839C830E
:1045C000D1016D937D938D939C93139729853A85A3
:1045D0004B855C850E94803518160CF408C3A30136
:1045E000920169817A818B819C810E94F5336B01F4
:1045F0007C019B01AC0160E070E080E090E40E94EF
:10460000F5334B015C0120E030E0A9010E948035C8
:1046100020E030E040E05FE387FD05C0C501B40164
:104620000E947A3304C0C501B4010E9479330E940C
:104630005D340E949034A70196010E94C9359B0108
:10464000AC0160E070E080E090E40E94793320E00B
:1046500030E0A9010E94803520E030E0A901181661
:1046600064F5C501B4010E94803520E030E040E0EF
:104670005FE387FD05C0C501B4010E947A3304C021
:10468000C501B4010E9479330E945D340E949034C8
:10469000A70196010E94C9359B01AC0160E070E062
:1046A00080E090E40E9479332DEC3CEC4CEC5DE32F
:1046B0000E94F13387FD9BC22CC0C501B4010E944A
:1046C000803520E030E040E05FE387FD05C0C501B4
:1046D000B4010E947A3304C0C501B4010E94793349
:1046E0000E945D340E949034A70196010E94C93552
:1046F0009B01AC0160E070E080E090E40E947933BF
:104700002DEC3CEC4CEC5DEB0E94803518160CF463
:104710006EC2A3019201C301B2010E947A339B01D0
:10472000AC0169817A818B819C810E94F13387FF82
:1047300061C129813A814B815C81C301B2010E9430
:10474000F5336D877E878F87988B1C8A1B8AEB8950
:10475000FC89BF0180E090E00E948E344B015C0137
:104760009B01AC016D857E858F8598890E94793388
:1047700020E030E040E05FE30E94F13318163CF4A3
:104780002B893C892F5F3F4F3C8B2B8BE0CF2981BE
:104790003A814B815C81C501B4010E94C9359B01FE
:1047A000AC01C301B2010E9479334B015C0120E0EE
:1047B00030E0A9010E948035181624F0B7FAB094B1
:1047C000B7F8B094A501940169817A818B819C81AD
:1047D0000E94F53369837A838B839C839B01AC01B0
:1047E00060E070E080E090E40E94F5334B015C01F2
:1047F00020E030E0A9010E94803520E030E040E078
:104800005FE387FD05C0C501B4010E947A3304C08F
:10481000C501B4010E9479330E945D340E94903436
:1048200029813A814B815C810E94C9359B01AC0191
:1048300060E070E080E090E40E94793320E030E0B6
:10484000A9010E94803520E030E0A901181674F516
:10485000C501B4010E94803520E030E040E05FE314
:1048600087FD05C0C501B4010E947A3304C0C501AB
:10487000B4010E9479330E945D340E9490342981F2
:104880003A814B815C810E94C9359B01AC0160E09B
:1048900070E080E090E40E9479332DEC3CEC4CEC2D
:1048A0005DE30E94F13387FF2FC0A1C1C501B401B0
:1048B0000E94803520E030E040E05FE387FD05C0E6
:1048C000C501B4010E947A3304C0C501B4010E943D
:1048D00079330E945D340E94903429813A814B8162
:1048E0005C810E94C9359B01AC0160E070E080E012
:1048F00090E40E9479332DEC3CEC4CEC5DEB0E9493
:10490000803518160CF473C120E030E0A901C7010E
:10491000B6010E94803520E030E040E05FE387FD93
:1049200005C0C701B6010E947A3304C0C701B601B1
:104930000E9479330E945D340E9490349B01AC0147
:10494000C701B6010E94793320E030E0A9010E943E
:10495000803520E030E0A901181634F5C701B60112
:104960000E94803520E030E040E05FE387FD05C035
:10497000C701B6010E947A3304C0C701B6010E9484
:1049800079330E945D340E9490349B01AC01C701D1
:10499000B6010E94793327E137EB41ED58E30E94DD
:1049A000F13387FF27C023C1C701B6010E948035BC
:1049B00020E030E040E05FE387FD05C0C701B601BD
:1049C0000E947A3304C0C701B6010E9479330E9465
:1049D0005D340E9490349B01AC01C701B6010E9476
:1049E000793327E137EB41ED58EB0E9480351816FB
:1049F0000CF4FDC020E030E040E251E4C701B60114
:104A00000E94F13387FF76C020E030E0A901C701A2
:104A1000B6010E94803520E030E040E05FE387FD92
:104A200005C0C701B6010E947A3304C0C701B601B0
:104A30000E9479330E945D340E9490349B01AC0146
:104A4000C701B6010E94793320E030E0A9010E943D
:104A5000803520E030E0A901181634F5C701B60111
:104A60000E94803520E030E040E05FE387FD05C034
:104A7000C701B6010E947A3304C0C701B6010E9483
:104A800079330E945D340E9490349B01AC01C701D0
:104A9000B6010E94793327E137EB41ED58E30E94DC
:104AA000F13387FF27C0A3C0C701B6010E9480353C
:104AB00020E030E040E05FE387FD05C0C701B601BC
:104AC0000E947A3304C0C701B6010E9479330E9464
:104AD0005D340E9490349B01AC01C701B6010E9475
:104AE000793327E137EB41ED58EB0E9480351816FA
:104AF0000CF47DC02D813E814F815885C701B601E0
:104B00000E94C9356B017C0120E030E0A9010E94C0
:104B1000803520E030E040E05FE387FD05C0C7015D
:104B2000B6010E947A3304C0C701B6010E947933EE
:104B30000E945D340E9490349B01AC01C701B60114
:104B40000E94793320E030E0A9010E94803520E006
:104B500030E0A901181634F5C701B6010E9480356E
:104B600020E030E040E05FE387FD05C0C701B6010B
:104B70000E947A3304C0C701B6010E9479330E94B3
:104B80005D340E9490349B01AC01C701B6010E94C4
:104B9000793327E137EB41ED58E30E94F13387FF8A
:104BA00026C033C0C701B6010E94803520E030E046
:104BB00040E05FE387FD05C0C701B6010E947A337C
:104BC00004C0C701B6010E9479330E945D340E947F
:104BD00090349B01AC01C701B6010E94793327E1F3
:104BE00037EB41ED58EB0E948035181674F00150F8
:104BF0001109CFCC20E030E040E05FE36D817E81A1
:104C00008F8198850E947A33ADCCA989BA890D939A
:104C10001C9364960FB6F894DEBF0FBECDBFDF9134
:104C2000CF911F910F91FF90EF90DF90CF90BF90A9
:104C3000AF909F908F907F906F905F904F903F903C
:104C40002F9008951092600E10927B0E08952F926F
:104C50003F924F925F926F927F928F929F92AF920C
:104C6000BF92CF92DF92EF92FF920F931F93CF9359
:104C7000DF93CDB7DEB7C85CD1090FB6F894DEBFBD
:104C80000FBECDBFC154DF4F59834883CF5BD040A7
:104C9000CF53DF4F088319832A833B83C15CD04005
:104CA00026013701CD54DF4FA882C35BD0408092EC
:104CB000960EAA2031F1A9E9AA2EAEE0BA2EAE01D5
:104CC00049555F4F6A01E12C10E4F12E0CE916E41E
:104CD000A30192010E946322C955DF4F6881798147
:104CE0008A819B81C75AD0409B01AC010E947A33D4
:104CF000C955DF4F688379838A839B83C75AD04025
:104D000017C020E030E040E05FE30E94C935E9E9E8
:104D1000AE2EEEE0BE2EDE01A955BF4F6D01E12C97
:104D200010E4F12E0CE117E4A30192010E9463222A
:104D30008091990E90919A0E880F991F90939A0ED8
:104D40008093990EC955DF4F688179818A819B8153
:104D5000C75AD0400E94E102B091600EC354DF4FA9
:104D6000B883CD5BD04081E0C355DF4F8883CD5AF7
:104D7000D04061E080E00E946721E0917B0EC25448
:104D8000DF4FE883CE5BD04083E0C255DF4F88839E
:104D9000CE5AD04063E081E00E94672180915F0E8F
:104DA000FE01E555FF4F808390917A0E918320910B
:104DB000990E30919A0ECD54DF4F4881C35BD0409D
:104DC000442311F13093920D2093910DF0938F0DA8
:104DD000E0938E0D92E090938C0D10928B0D2BE64C
:104DE00034E030938A0D2093890D0E94400483E8BB
:104DF00094E090938A0D8093890D8DEF91E29093CA
:104E0000880D8093870D06C0369527953093920DB7
:104E10002093910DE090970EF090980EF701E859CD
:104E2000FF4F20E030EC4FE754E4608171818281D4
:104E300093810E94F533C754DF4F688379838A8357
:104E40009B83C95BD0401E015FE9250E311C3E01EA
:104E500083E1680E711CCE01805B9F4F2C01AAE09C
:104E60004A0E511CF1013896C155DF4FF983E88392
:104E7000CF5AD040CC54DF4F8883C45BD040C85455
:104E8000DF4F9883C85BD04087010B59174F9701BC
:104E9000245A374FCF54DF4F39832883C15BD0402A
:104EA00080915F0EF801CC54DF4FA881C45BD040E5
:104EB000C854DF4FB881C85BD0409FE401900D9289
:104EC0009A95E1F7882341F0813061F4F20120895D
:104ED00031894289538909C0D2012D913D914D916B
:104EE0005C9103C020E030E0A901F801DE011196D9
:104EF0009FE401900D929A95E1F7882341F081306B
:104F000061F4F301C08CD18CE28CF38C09C0D30125
:104F1000CD90DD90ED90FC9003C0C12CD12C76019A
:104F200060E876E988E19BE40E94F53320E030E018
:104F300040E85FE30E947A334B015C0120E836E9E8
:104F400048E15BE4C701B6010E94C9359B01AC0191
:104F50000E947A332BED3FE049E450E40E94C935CA
:104F6000CF54DF4FA881B981C15BD0402D913D91D5
:104F70004D915C910E94C9356B017C01A5019401A2
:104F8000C501B4010E94C9354B015C01A70196011E
:104F9000C701B6010E94C9359B01AC01C501B4012E
:104FA0000E947A330E947C369B01AC01C754DF4FCC
:104FB000688179818A819B81C95BD0400E94C93513
:104FC000F10161937193819391931F01F4E06F0E4E
:104FD000711C24E0420E511CC155DF4F488159819C
:104FE000CF5AD0402416350609F05ACF1092950EAC
:104FF000CF54DF4F19821882C15BD040CF54DF4FAE
:1050000088819981C15BD040C154DF4FA881B981AB
:10501000CF5BD0408A179B0709F4D1C28091960ECE
:105020001092610E1092620E81110BC0EFEFF3E04F
:10503000F093660EE093650E1092640E1092630E6C
:1050400010C01092670E1092680E1092690E1092A6
:105050006A0E1092700E1092710E1092720E1092D3
:10506000730E10927C0E10927D0E882389F01092A0
:10507000820E1092830E1092840E1092850E109262
:105080008B0E10928C0E10928D0E10928E0E0AC006
:105090008FEF93E09093810E8093800E10927F0E9D
:1050A00010927E0ECD54DF4F9881C35BD040992380
:1050B000E1F10E94D0030E9456218823E1F30E946F
:1050C000542BCC54DF4F688379838A839B83C45BE2
:1050D000D040A091960EC854DF4FA883C85BD04043
:1050E0008091990E90919A0EFE01E355FF4FC155A4
:1050F000DF4FF983E883CF5AD0400FE51EE09E01D1
:105100002F5F3F4F2901AE01405B5F4F1A01612CB9
:10511000712C9C0140E050E0CB53DF4F2883398352
:105120004A835B83C55CD0409AC080915F0E0E9429
:105130005A0443E854E050938A0D4093890D8DE55D
:1051400092E29093880D8093870D0E94D0030E9475
:1051500056218823E1F380917A0E0E945A04A3E835
:10516000B4E0B0938A0DA093890DE0E6F2E2F093EB
:10517000880DE093870D0E94D0030E94562188235A
:10518000E1F39DCFCB53DF4F688179818A819B8189
:10519000C55CD0400E948E346B017C01D8015196D1
:1051A0006D917D918D919C9154970E948E349B01BD
:1051B000AC010E947A33A70196010E94F5330E9448
:1051C0007C36F201608371838283938320E030E038
:1051D00040E852E40E94C9359B01AC010E947A3339
:1051E00023EF34E045EB5FE30E94C9350E9462344F
:1051F000D1016D937C93F301E15AF14F82818823B1
:10520000B9F1F301E15AF14F8281882309F4B3C067
:105210008195C155DF4FA881B981CF5AD0408C9379
:10522000B1E0B08BC155DF4FE881F981CF5AD04052
:105230003196C155DF4FF983E883CF5AD040FBE167
:105240006F0E711C055E1F4F22E0220E311C34E0F0
:10525000430E511C46E36416710409F496C0C85409
:10526000DF4FF881C85BD040FF2309F45AC08ACFD2
:1052700080898111C6CFF80180849184A284B3848F
:105280006485758586859785680D791D8A1D9B1DAA
:105290000E948E342AE037ED43E25CE30E94C93578
:1052A000A70196010E94F5336B017C0124EA30E7E7
:1052B0004DE75FE3D80157966D917D918D919C915B
:1052C0005A970E94C9359B01AC01C701B6010E94E3
:1052D0007A336B017C01F801678B708F818F928F1D
:1052E00020E030E0A9010E94803520E030E040E07D
:1052F0005FE387FD05C0C701B6010E947A3304C091
:10530000C701B6010E9479330E945D34D8015696D8
:105310007C936E935597F80184869586A686B7860A
:1053200070CFD80114966D917C91159716968D913A
:105330009C911797681B790B96E0660F771F9A95DB
:10534000E1F7F1017183608380E090E00E948E3488
:1053500023EF34E045EB5FE30E94F53320E030E0DB
:1053600040E05CE30E94C935D2016D937D938D933B
:105370009C93139746CF8181C155DF4FA881B98196
:10538000CF5AD0408C93108A4DCF0091970E109138
:10539000980EF801EC59F74F8081882309F470C00A
:1053A0008091610E81116CC03C97C080D180E280F9
:1053B000F38020E030E0A901C701B6010E948035EA
:1053C00018160CF05DC0C355DF4F8881CD5AD04010
:1053D000EFE9F0E0EC0FFD1F24E08202E00DF11D8B
:1053E0001124208131814281538169817A818B81AD
:1053F0009C810E94C9354B015C0180917C0E81111A
:10540000B5C02D813E814F815885C754DF4F6881DB
:1054100079818A819B81C95BD0400E94C9359B01FB
:10542000AC01C701B6010E947A332B013C019B01FC
:10543000AC01C501B4010E9479336B017C0120E00D
:1054400030E0A9010E948035181624F0F7FAF09494
:10545000F7F8F09420E030E040E05FE3F801ED552C
:10546000F74F60817181828193810E94C9359B01D0
:10547000AC01C701B6010E94803518160CF47AC041
:1054800000E61EE0CE01805B9F4F6C01E12CF12C09
:10549000D6018D919C91893C9C4030F4F80160814B
:1054A0006F5F8E2D0E94672142E050E0B60180912F
:1054B000970E9091980E0E9436196DEA70E06C0F6D
:1054C0007D1F6E0D7F1D41E050E08091970E909101
:1054D000980E0E943619FFEFEF1AFF0A22E0C20E63
:1054E000D11C055E1F4F32E0E316F10489F684EA11
:1054F0009EE00E94C12D181619060CF460C00E948F
:10550000542BCC54DF4F288139814A815B81C45BA5
:10551000D040621B730B840B950B0E948E346B0181
:105520007C0120E030E04AE754E4CF53DF4F68814C
:1055300079818A819B81C15CD0400E94C9359B01E1
:10554000AC01C701B6010E94F13387FDD8CFCF541B
:10555000DF4F48815981C15BD0404F5F5F4FCF54CF
:10556000DF4F59834883C15BD04048CD20E030E015
:10557000A90157CFF801E05AF74F208131814281CC
:105580005381C501B4010E94C935A30192010E9453
:10559000F5336B017C0120E030E040E85FE30E94DE
:1055A000F13387FF06C0C12CD12C80E8E82E8FE3B1
:1055B000F82EB701A601C8010E94BF0D61CFC354E8
:1055C000DF4F6881CD5BD04080E00E946721C254EC
:1055D000DF4F6881CE5BD04081E00E94672180E090
:1055E000C853DF4F0FB6F894DEBF0FBECDBFDF91BB
:1055F000CF911F910F91FF90EF90DF90CF90BF90D0
:10560000AF909F908F907F906F905F904F903F9062
:105610002F9008951F920F920FB60F9211242F937F
:105620003F938F939F93AF93BF9380919C0E9091E4
:105630009D0EA0919E0EB0919F0E30919B0E23E087
:10564000230F2D3720F40196A11DB11D05C026E8BA
:10565000230F0296A11DB11D20939B0E80939C0EDB
:1056600090939D0EA0939E0EB0939F0E8091A00EDE
:105670009091A10EA091A20EB091A30E0196A11D32
:10568000B11D8093A00E9093A10EA093A20EB09393
:10569000A30EBF91AF919F918F913F912F910F904A
:1056A0000FBE0F901F9018953FB7F8948091A00EF1
:1056B0009091A10EA091A20EB091A30E26B5A89B29
:1056C00005C02F3F19F00196A11DB11D3FBF6627F0
:1056D000782F892F9A2F620F711D811D911D42E035
:1056E000660F771F881F991F4A95D1F70895CF92AB
:1056F000DF92EF92FF92CF93DF936B017C010E94C8
:10570000542BEB01C114D104E104F10489F00E948F
:1057100078330E94542B6C1B7D0B683E734090F3D2
:1057200081E0C81AD108E108F108C851DC4FEACF7E
:10573000DF91CF91FF90EF90DF90CF90089582306E
:10574000910538F0880F991F880F991F05970197C9
:10575000F1F70895789484B5826084BD84B5816042
:1057600084BD85B5826085BD85B5816085BDEEE669
:10577000F0E0808181608083E1E8F0E01082808148
:1057800082608083808181608083E0E8F0E08081B6
:1057900081608083E1EBF0E0808184608083E0EBD6
:1057A000F0E0808181608083E1E9F0E080818260C7
:1057B0008083808181608083E0E9F0E08081816086
:1057C0008083E1EAF0E08081826080838081816073
:1057D0008083E0EAF0E0808181608083E1E2F1E0B3
:1057E000808182608083808181608083E0E2F1E05B
:1057F000808181608083EAE7F0E08081846080833B
:1058000080818260808380818160808380818068E4
:1058100080831092C10008958093080208951F9319
:10582000CF93DF93182FEB0161E00E94292D209781
:1058300011F460E004C0CF3FD10539F461E0812F5D
:10584000DF91CF911F910C94622DE12FF0E0E45194
:10585000FE4F449150E0FA013197E231F10508F032
:105860009BC0EF56FF4F0C94C13784B5806884BD50
:10587000C7BD97C084B5806284BDC8BD92C0809109
:105880008000806880938000D0938900C093880056
:1058900088C080918000806280938000D0938B00CC
:1058A000C0938A007EC080918000886080938000D1
:1058B000D0938D00C0938C0074C08091B00080683C
:1058C0008093B000C093B3006CC08091B000806240
:1058D0008093B000C093B40064C080919000806851
:1058E00080939000D0939900C09398005AC0809103
:1058F0009000806280939000D0939B00C0939A00A8
:1059000050C080919000886080939000D0939D005B
:10591000C0939C0046C08091A00080688093A00046
:105920008091A0008F7B8093A000D093A900C093AA
:10593000A80037C08091A00080628093A000D0931F
:10594000AB00C093AA002DC08091A0008860809316
:10595000A000D093AD00C093AC0023C08091200183
:10596000806880932001D0932901C093280119C039
:1059700080912001806280932001D0932B01C093FD
:105980002A010FC080912001886080932001D0936C
:105990002D01C0932C0105C0C038D1050CF04ECFAD
:1059A00048CFDF91CF911F91089590E0FC0131978E
:1059B000E231F10508F04CC0ED55FF4F0C94C137B2
:1059C000809180008F7703C0809180008F7D8093CD
:1059D0008000089580918000877FF9CF84B58F770C
:1059E00002C084B58F7D84BD08958091B0008F770B
:1059F00003C08091B0008F7D8093B00008958091A6
:105A000090008F7707C0809190008F7D03C08091B8
:105A10009000877F8093900008958091A0008F77F9
:105A200007C08091A0008F7D03C08091A000877F78
:105A30008093A0000895809120018F7707C0809106
:105A400020018F7D03C080912001877F80932001FA
:105A50000895CF93DF9390E0FC01EE5CFD4F24911D
:105A6000FC01E858FD4F8491882349F190E0880FAC
:105A7000991FFC01EE50FD4FA591B49188529D4FA6
:105A8000FC01C591D4919FB7611108C0F8948C9125
:105A9000209582238C93888182230AC0623051F43E
:105AA000F8948C91322F309583238C938881822BAC
:105AB000888304C0F8948C91822B8C939FBFDF91D4
:105AC000CF9108950F931F93CF93DF931F92CDB77C
:105AD000DEB7282F30E0F901E451FE4F8491F9013F
